{
	"contracts/DegenToken.sol": {
		"DegenToken": {
			"abi": [
				{
					"inputs": [],
					"stateMutability": "nonpayable",
					"type": "constructor"
				},
				{
					"anonymous": false,
					"inputs": [
						{
							"indexed": true,
							"internalType": "address",
							"name": "owner",
							"type": "address"
						},
						{
							"indexed": true,
							"internalType": "address",
							"name": "spender",
							"type": "address"
						},
						{
							"indexed": false,
							"internalType": "uint256",
							"name": "value",
							"type": "uint256"
						}
					],
					"name": "Approval",
					"type": "event"
				},
				{
					"anonymous": false,
					"inputs": [
						{
							"indexed": true,
							"internalType": "address",
							"name": "user",
							"type": "address"
						},
						{
							"indexed": false,
							"internalType": "uint256",
							"name": "itemId",
							"type": "uint256"
						},
						{
							"indexed": false,
							"internalType": "uint256",
							"name": "cost",
							"type": "uint256"
						}
					],
					"name": "ItemRedeemed",
					"type": "event"
				},
				{
					"anonymous": false,
					"inputs": [
						{
							"indexed": true,
							"internalType": "address",
							"name": "previousOwner",
							"type": "address"
						},
						{
							"indexed": true,
							"internalType": "address",
							"name": "newOwner",
							"type": "address"
						}
					],
					"name": "OwnershipTransferred",
					"type": "event"
				},
				{
					"anonymous": false,
					"inputs": [
						{
							"indexed": false,
							"internalType": "address",
							"name": "account",
							"type": "address"
						}
					],
					"name": "Paused",
					"type": "event"
				},
				{
					"anonymous": false,
					"inputs": [
						{
							"indexed": true,
							"internalType": "address",
							"name": "from",
							"type": "address"
						},
						{
							"indexed": true,
							"internalType": "address",
							"name": "to",
							"type": "address"
						},
						{
							"indexed": false,
							"internalType": "uint256",
							"name": "value",
							"type": "uint256"
						}
					],
					"name": "Transfer",
					"type": "event"
				},
				{
					"anonymous": false,
					"inputs": [
						{
							"indexed": false,
							"internalType": "address",
							"name": "account",
							"type": "address"
						}
					],
					"name": "Unpaused",
					"type": "event"
				},
				{
					"inputs": [
						{
							"internalType": "address",
							"name": "owner",
							"type": "address"
						},
						{
							"internalType": "address",
							"name": "spender",
							"type": "address"
						}
					],
					"name": "allowance",
					"outputs": [
						{
							"internalType": "uint256",
							"name": "",
							"type": "uint256"
						}
					],
					"stateMutability": "view",
					"type": "function"
				},
				{
					"inputs": [
						{
							"internalType": "address",
							"name": "spender",
							"type": "address"
						},
						{
							"internalType": "uint256",
							"name": "amount",
							"type": "uint256"
						}
					],
					"name": "approve",
					"outputs": [
						{
							"internalType": "bool",
							"name": "",
							"type": "bool"
						}
					],
					"stateMutability": "nonpayable",
					"type": "function"
				},
				{
					"inputs": [
						{
							"internalType": "address",
							"name": "account",
							"type": "address"
						}
					],
					"name": "balanceOf",
					"outputs": [
						{
							"internalType": "uint256",
							"name": "",
							"type": "uint256"
						}
					],
					"stateMutability": "view",
					"type": "function"
				},
				{
					"inputs": [
						{
							"internalType": "uint256",
							"name": "amount",
							"type": "uint256"
						}
					],
					"name": "burn",
					"outputs": [],
					"stateMutability": "nonpayable",
					"type": "function"
				},
				{
					"inputs": [
						{
							"internalType": "address",
							"name": "account",
							"type": "address"
						},
						{
							"internalType": "uint256",
							"name": "amount",
							"type": "uint256"
						}
					],
					"name": "burnFrom",
					"outputs": [],
					"stateMutability": "nonpayable",
					"type": "function"
				},
				{
					"inputs": [
						{
							"internalType": "uint256",
							"name": "value",
							"type": "uint256"
						}
					],
					"name": "burnTokens",
					"outputs": [],
					"stateMutability": "nonpayable",
					"type": "function"
				},
				{
					"inputs": [],
					"name": "decimals",
					"outputs": [
						{
							"internalType": "uint8",
							"name": "",
							"type": "uint8"
						}
					],
					"stateMutability": "pure",
					"type": "function"
				},
				{
					"inputs": [
						{
							"internalType": "address",
							"name": "spender",
							"type": "address"
						},
						{
							"internalType": "uint256",
							"name": "subtractedValue",
							"type": "uint256"
						}
					],
					"name": "decreaseAllowance",
					"outputs": [
						{
							"internalType": "bool",
							"name": "",
							"type": "bool"
						}
					],
					"stateMutability": "nonpayable",
					"type": "function"
				},
				{
					"inputs": [],
					"name": "getBalance",
					"outputs": [
						{
							"internalType": "uint256",
							"name": "",
							"type": "uint256"
						}
					],
					"stateMutability": "view",
					"type": "function"
				},
				{
					"inputs": [
						{
							"internalType": "address",
							"name": "account",
							"type": "address"
						}
					],
					"name": "getBalanceOf",
					"outputs": [
						{
							"internalType": "uint256",
							"name": "",
							"type": "uint256"
						}
					],
					"stateMutability": "view",
					"type": "function"
				},
				{
					"inputs": [
						{
							"internalType": "address",
							"name": "spender",
							"type": "address"
						},
						{
							"internalType": "uint256",
							"name": "addedValue",
							"type": "uint256"
						}
					],
					"name": "increaseAllowance",
					"outputs": [
						{
							"internalType": "bool",
							"name": "",
							"type": "bool"
						}
					],
					"stateMutability": "nonpayable",
					"type": "function"
				},
				{
					"inputs": [
						{
							"internalType": "address",
							"name": "to",
							"type": "address"
						},
						{
							"internalType": "uint256",
							"name": "amount",
							"type": "uint256"
						}
					],
					"name": "mint",
					"outputs": [],
					"stateMutability": "nonpayable",
					"type": "function"
				},
				{
					"inputs": [],
					"name": "name",
					"outputs": [
						{
							"internalType": "string",
							"name": "",
							"type": "string"
						}
					],
					"stateMutability": "view",
					"type": "function"
				},
				{
					"inputs": [],
					"name": "owner",
					"outputs": [
						{
							"internalType": "address",
							"name": "",
							"type": "address"
						}
					],
					"stateMutability": "view",
					"type": "function"
				},
				{
					"inputs": [],
					"name": "pause",
					"outputs": [],
					"stateMutability": "nonpayable",
					"type": "function"
				},
				{
					"inputs": [],
					"name": "paused",
					"outputs": [
						{
							"internalType": "bool",
							"name": "",
							"type": "bool"
						}
					],
					"stateMutability": "view",
					"type": "function"
				},
				{
					"inputs": [
						{
							"internalType": "uint256",
							"name": "itemId",
							"type": "uint256"
						}
					],
					"name": "redeemTokens",
					"outputs": [],
					"stateMutability": "nonpayable",
					"type": "function"
				},
				{
					"inputs": [],
					"name": "renounceOwnership",
					"outputs": [],
					"stateMutability": "nonpayable",
					"type": "function"
				},
				{
					"inputs": [],
					"name": "showStoreItems",
					"outputs": [
						{
							"internalType": "string",
							"name": "",
							"type": "string"
						}
					],
					"stateMutability": "view",
					"type": "function"
				},
				{
					"inputs": [
						{
							"internalType": "uint256",
							"name": "",
							"type": "uint256"
						}
					],
					"name": "storeItems",
					"outputs": [
						{
							"internalType": "uint256",
							"name": "itemId",
							"type": "uint256"
						},
						{
							"internalType": "string",
							"name": "itemName",
							"type": "string"
						},
						{
							"internalType": "uint256",
							"name": "cost",
							"type": "uint256"
						}
					],
					"stateMutability": "view",
					"type": "function"
				},
				{
					"inputs": [],
					"name": "symbol",
					"outputs": [
						{
							"internalType": "string",
							"name": "",
							"type": "string"
						}
					],
					"stateMutability": "view",
					"type": "function"
				},
				{
					"inputs": [],
					"name": "totalSupply",
					"outputs": [
						{
							"internalType": "uint256",
							"name": "",
							"type": "uint256"
						}
					],
					"stateMutability": "view",
					"type": "function"
				},
				{
					"inputs": [
						{
							"internalType": "address",
							"name": "to",
							"type": "address"
						},
						{
							"internalType": "uint256",
							"name": "amount",
							"type": "uint256"
						}
					],
					"name": "transfer",
					"outputs": [
						{
							"internalType": "bool",
							"name": "",
							"type": "bool"
						}
					],
					"stateMutability": "nonpayable",
					"type": "function"
				},
				{
					"inputs": [
						{
							"internalType": "address",
							"name": "from",
							"type": "address"
						},
						{
							"internalType": "address",
							"name": "to",
							"type": "address"
						},
						{
							"internalType": "uint256",
							"name": "amount",
							"type": "uint256"
						}
					],
					"name": "transferFrom",
					"outputs": [
						{
							"internalType": "bool",
							"name": "",
							"type": "bool"
						}
					],
					"stateMutability": "nonpayable",
					"type": "function"
				},
				{
					"inputs": [
						{
							"internalType": "address",
							"name": "newOwner",
							"type": "address"
						}
					],
					"name": "transferOwnership",
					"outputs": [],
					"stateMutability": "nonpayable",
					"type": "function"
				},
				{
					"inputs": [
						{
							"internalType": "address",
							"name": "receiver",
							"type": "address"
						},
						{
							"internalType": "uint256",
							"name": "value",
							"type": "uint256"
						}
					],
					"name": "transferTokens",
					"outputs": [],
					"stateMutability": "nonpayable",
					"type": "function"
				},
				{
					"inputs": [],
					"name": "unpause",
					"outputs": [],
					"stateMutability": "nonpayable",
					"type": "function"
				}
			],
			"devdoc": {
				"events": {
					"Approval(address,address,uint256)": {
						"details": "Emitted when the allowance of a `spender` for an `owner` is set by a call to {approve}. `value` is the new allowance."
					},
					"Paused(address)": {
						"details": "Emitted when the pause is triggered by `account`."
					},
					"Transfer(address,address,uint256)": {
						"details": "Emitted when `value` tokens are moved from one account (`from`) to another (`to`). Note that `value` may be zero."
					},
					"Unpaused(address)": {
						"details": "Emitted when the pause is lifted by `account`."
					}
				},
				"kind": "dev",
				"methods": {
					"allowance(address,address)": {
						"details": "See {IERC20-allowance}."
					},
					"approve(address,uint256)": {
						"details": "See {IERC20-approve}. NOTE: If `amount` is the maximum `uint256`, the allowance is not updated on `transferFrom`. This is semantically equivalent to an infinite approval. Requirements: - `spender` cannot be the zero address."
					},
					"balanceOf(address)": {
						"details": "See {IERC20-balanceOf}."
					},
					"burn(uint256)": {
						"details": "Destroys `amount` tokens from the caller. See {ERC20-_burn}."
					},
					"burnFrom(address,uint256)": {
						"details": "Destroys `amount` tokens from `account`, deducting from the caller's allowance. See {ERC20-_burn} and {ERC20-allowance}. Requirements: - the caller must have allowance for ``accounts``'s tokens of at least `amount`."
					},
					"decimals()": {
						"details": "Returns the number of decimals used to get its user representation. For example, if `decimals` equals `2`, a balance of `505` tokens should be displayed to a user as `5.05` (`505 / 10 ** 2`). Tokens usually opt for a value of 18, imitating the relationship between Ether and Wei. This is the value {ERC20} uses, unless this function is overridden; NOTE: This information is only used for _display_ purposes: it in no way affects any of the arithmetic of the contract, including {IERC20-balanceOf} and {IERC20-transfer}."
					},
					"decreaseAllowance(address,uint256)": {
						"details": "Atomically decreases the allowance granted to `spender` by the caller. This is an alternative to {approve} that can be used as a mitigation for problems described in {IERC20-approve}. Emits an {Approval} event indicating the updated allowance. Requirements: - `spender` cannot be the zero address. - `spender` must have allowance for the caller of at least `subtractedValue`."
					},
					"increaseAllowance(address,uint256)": {
						"details": "Atomically increases the allowance granted to `spender` by the caller. This is an alternative to {approve} that can be used as a mitigation for problems described in {IERC20-approve}. Emits an {Approval} event indicating the updated allowance. Requirements: - `spender` cannot be the zero address."
					},
					"name()": {
						"details": "Returns the name of the token."
					},
					"owner()": {
						"details": "Returns the address of the current owner."
					},
					"paused()": {
						"details": "Returns true if the contract is paused, and false otherwise."
					},
					"renounceOwnership()": {
						"details": "Leaves the contract without owner. It will not be possible to call `onlyOwner` functions anymore. Can only be called by the current owner. NOTE: Renouncing ownership will leave the contract without an owner, thereby removing any functionality that is only available to the owner."
					},
					"symbol()": {
						"details": "Returns the symbol of the token, usually a shorter version of the name."
					},
					"totalSupply()": {
						"details": "See {IERC20-totalSupply}."
					},
					"transfer(address,uint256)": {
						"details": "See {IERC20-transfer}. Requirements: - `to` cannot be the zero address. - the caller must have a balance of at least `amount`."
					},
					"transferFrom(address,address,uint256)": {
						"details": "See {IERC20-transferFrom}. Emits an {Approval} event indicating the updated allowance. This is not required by the EIP. See the note at the beginning of {ERC20}. NOTE: Does not update the allowance if the current allowance is the maximum `uint256`. Requirements: - `from` and `to` cannot be the zero address. - `from` must have a balance of at least `amount`. - the caller must have allowance for ``from``'s tokens of at least `amount`."
					},
					"transferOwnership(address)": {
						"details": "Transfers ownership of the contract to a new account (`newOwner`). Can only be called by the current owner."
					}
				},
				"version": 1
			},
			"evm": {
				"assembly": "    /* \"contracts/DegenToken.sol\":361:3373  contract DegenToken is ERC20, Ownable, ERC20Burnable, Pausable, ReentrancyGuard {... */\n  mstore(0x40, 0x80)\n    /* \"contracts/DegenToken.sol\":661:736  constructor() ERC20(\"Haze\", \"HZE\") {... */\n  callvalue\n  dup1\n  iszero\n  tag_1\n  jumpi\n  0x00\n  dup1\n  revert\ntag_1:\n  pop\n    /* \"@openzeppelin/contracts/token/ERC20/ERC20.sol\":1976:2089  constructor(string memory name_, string memory symbol_) {... */\n  mload(0x40)\n  dup1\n  0x40\n  add\n  0x40\n  mstore\n  dup1\n  0x04\n  dup2\n  mstore\n  0x20\n  add\n  0x48617a6500000000000000000000000000000000000000000000000000000000\n  dup2\n  mstore\n  pop\n  mload(0x40)\n  dup1\n  0x40\n  add\n  0x40\n  mstore\n  dup1\n  0x03\n  dup2\n  mstore\n  0x20\n  add\n  0x485a450000000000000000000000000000000000000000000000000000000000\n  dup2\n  mstore\n  pop\n    /* \"@openzeppelin/contracts/token/ERC20/ERC20.sol\":2050:2055  name_ */\n  dup2\n    /* \"@openzeppelin/contracts/token/ERC20/ERC20.sol\":2042:2047  _name */\n  0x03\n    /* \"@openzeppelin/contracts/token/ERC20/ERC20.sol\":2042:2055  _name = name_ */\n  swap1\n  dup2\n  tag_8\n  swap2\n  swap1\n  tag_9\n  jump\t// in\ntag_8:\n  pop\n    /* \"@openzeppelin/contracts/token/ERC20/ERC20.sol\":2075:2082  symbol_ */\n  dup1\n    /* \"@openzeppelin/contracts/token/ERC20/ERC20.sol\":2065:2072  _symbol */\n  0x04\n    /* \"@openzeppelin/contracts/token/ERC20/ERC20.sol\":2065:2082  _symbol = symbol_ */\n  swap1\n  dup2\n  tag_10\n  swap2\n  swap1\n  tag_9\n  jump\t// in\ntag_10:\n  pop\n    /* \"@openzeppelin/contracts/token/ERC20/ERC20.sol\":1976:2089  constructor(string memory name_, string memory symbol_) {... */\n  pop\n  pop\n    /* \"@openzeppelin/contracts/access/Ownable.sol\":936:968  _transferOwnership(_msgSender()) */\n  tag_12\n    /* \"@openzeppelin/contracts/access/Ownable.sol\":955:967  _msgSender() */\n  tag_13\n    /* \"@openzeppelin/contracts/access/Ownable.sol\":955:965  _msgSender */\n  shl(0x20, tag_14)\n    /* \"@openzeppelin/contracts/access/Ownable.sol\":955:967  _msgSender() */\n  0x20\n  shr\n  jump\t// in\ntag_13:\n    /* \"@openzeppelin/contracts/access/Ownable.sol\":936:954  _transferOwnership */\n  shl(0x20, tag_15)\n    /* \"@openzeppelin/contracts/access/Ownable.sol\":936:968  _transferOwnership(_msgSender()) */\n  0x20\n  shr\n  jump\t// in\ntag_12:\n    /* \"@openzeppelin/contracts/security/Pausable.sol\":1006:1011  false */\n  0x00\n    /* \"@openzeppelin/contracts/security/Pausable.sol\":996:1003  _paused */\n  0x05\n  0x14\n    /* \"@openzeppelin/contracts/security/Pausable.sol\":996:1011  _paused = false */\n  0x0100\n  exp\n  dup2\n  sload\n  dup2\n  0xff\n  mul\n  not\n  and\n  swap1\n  dup4\n  iszero\n  iszero\n  mul\n  or\n  swap1\n  sstore\n  pop\n    /* \"@openzeppelin/contracts/security/ReentrancyGuard.sol\":1716:1717  1 */\n  0x01\n    /* \"@openzeppelin/contracts/security/ReentrancyGuard.sol\":1821:1828  _status */\n  0x06\n    /* \"@openzeppelin/contracts/security/ReentrancyGuard.sol\":1821:1843  _status = _NOT_ENTERED */\n  dup2\n  swap1\n  sstore\n  pop\n    /* \"contracts/DegenToken.sol\":706:729  _initializeStoreItems() */\n  tag_19\n    /* \"contracts/DegenToken.sol\":706:727  _initializeStoreItems */\n  shl(0x20, tag_20)\n    /* \"contracts/DegenToken.sol\":706:729  _initializeStoreItems() */\n  0x20\n  shr\n  jump\t// in\ntag_19:\n    /* \"contracts/DegenToken.sol\":361:3373  contract DegenToken is ERC20, Ownable, ERC20Burnable, Pausable, ReentrancyGuard {... */\n  jump(tag_21)\n    /* \"@openzeppelin/contracts/utils/Context.sol\":640:736  function _msgSender() internal view virtual returns (address) {... */\ntag_14:\n    /* \"@openzeppelin/contracts/utils/Context.sol\":693:700  address */\n  0x00\n    /* \"@openzeppelin/contracts/utils/Context.sol\":719:729  msg.sender */\n  caller\n    /* \"@openzeppelin/contracts/utils/Context.sol\":712:729  return msg.sender */\n  swap1\n  pop\n    /* \"@openzeppelin/contracts/utils/Context.sol\":640:736  function _msgSender() internal view virtual returns (address) {... */\n  swap1\n  jump\t// out\n    /* \"@openzeppelin/contracts/access/Ownable.sol\":2433:2620  function _transferOwnership(address newOwner) internal virtual {... */\ntag_15:\n    /* \"@openzeppelin/contracts/access/Ownable.sol\":2506:2522  address oldOwner */\n  0x00\n    /* \"@openzeppelin/contracts/access/Ownable.sol\":2525:2531  _owner */\n  0x05\n  0x00\n  swap1\n  sload\n  swap1\n  0x0100\n  exp\n  swap1\n  div\n  0xffffffffffffffffffffffffffffffffffffffff\n  and\n    /* \"@openzeppelin/contracts/access/Ownable.sol\":2506:2531  address oldOwner = _owner */\n  swap1\n  pop\n    /* \"@openzeppelin/contracts/access/Ownable.sol\":2550:2558  newOwner */\n  dup2\n    /* \"@openzeppelin/contracts/access/Ownable.sol\":2541:2547  _owner */\n  0x05\n  0x00\n    /* \"@openzeppelin/contracts/access/Ownable.sol\":2541:2558  _owner = newOwner */\n  0x0100\n  exp\n  dup2\n  sload\n  dup2\n  0xffffffffffffffffffffffffffffffffffffffff\n  mul\n  not\n  and\n  swap1\n  dup4\n  0xffffffffffffffffffffffffffffffffffffffff\n  and\n  mul\n  or\n  swap1\n  sstore\n  pop\n    /* \"@openzeppelin/contracts/access/Ownable.sol\":2604:2612  newOwner */\n  dup2\n    /* \"@openzeppelin/contracts/access/Ownable.sol\":2573:2613  OwnershipTransferred(oldOwner, newOwner) */\n  0xffffffffffffffffffffffffffffffffffffffff\n  and\n    /* \"@openzeppelin/contracts/access/Ownable.sol\":2594:2602  oldOwner */\n  dup2\n    /* \"@openzeppelin/contracts/access/Ownable.sol\":2573:2613  OwnershipTransferred(oldOwner, newOwner) */\n  0xffffffffffffffffffffffffffffffffffffffff\n  and\n  0x8be0079c531659141344cd1fd0a4f28419497f9722a3daafe3b4186f6b6457e0\n  mload(0x40)\n  mload(0x40)\n  dup1\n  swap2\n  sub\n  swap1\n  log3\n    /* \"@openzeppelin/contracts/access/Ownable.sol\":2496:2620  {... */\n  pop\n    /* \"@openzeppelin/contracts/access/Ownable.sol\":2433:2620  function _transferOwnership(address newOwner) internal virtual {... */\n  pop\n  jump\t// out\n    /* \"contracts/DegenToken.sol\":2185:2526  function _initializeStoreItems() internal {... */\ntag_20:\n    /* \"contracts/DegenToken.sol\":2237:2247  storeItems */\n  0x07\n    /* \"contracts/DegenToken.sol\":2253:2287  StoreItem(1, \"Rare Mouse pad\", 20) */\n  mload(0x40)\n  dup1\n  0x60\n  add\n  0x40\n  mstore\n  dup1\n    /* \"contracts/DegenToken.sol\":2263:2264  1 */\n  0x01\n    /* \"contracts/DegenToken.sol\":2253:2287  StoreItem(1, \"Rare Mouse pad\", 20) */\n  dup2\n  mstore\n  0x20\n  add\n  mload(0x40)\n  dup1\n  0x40\n  add\n  0x40\n  mstore\n  dup1\n  0x0e\n  dup2\n  mstore\n  0x20\n  add\n  0x52617265204d6f75736520706164000000000000000000000000000000000000\n  dup2\n  mstore\n  pop\n  dup2\n  mstore\n  0x20\n  add\n    /* \"contracts/DegenToken.sol\":2284:2286  20 */\n  0x14\n    /* \"contracts/DegenToken.sol\":2253:2287  StoreItem(1, \"Rare Mouse pad\", 20) */\n  dup2\n  mstore\n  pop\n    /* \"contracts/DegenToken.sol\":2237:2288  storeItems.push(StoreItem(1, \"Rare Mouse pad\", 20)) */\n  swap1\n  dup1\n  0x01\n  dup2\n  sload\n  add\n  dup1\n  dup3\n  sstore\n  dup1\n  swap2\n  pop\n  pop\n  0x01\n  swap1\n  sub\n  swap1\n  0x00\n  mstore\n  keccak256(0x00, 0x20)\n  swap1\n  0x03\n  mul\n  add\n  0x00\n  swap1\n  swap2\n  swap1\n  swap2\n  swap1\n  swap2\n  pop\n  0x00\n  dup3\n  add\n  mload\n  dup2\n  0x00\n  add\n  sstore\n  0x20\n  dup3\n  add\n  mload\n  dup2\n  0x01\n  add\n  swap1\n  dup2\n  tag_26\n  swap2\n  swap1\n  tag_9\n  jump\t// in\ntag_26:\n  pop\n  0x40\n  dup3\n  add\n  mload\n  dup2\n  0x02\n  add\n  sstore\n  pop\n  pop\n    /* \"contracts/DegenToken.sol\":2298:2308  storeItems */\n  0x07\n    /* \"contracts/DegenToken.sol\":2314:2349  StoreItem(2, \"Signed T-shirt\", 100) */\n  mload(0x40)\n  dup1\n  0x60\n  add\n  0x40\n  mstore\n  dup1\n    /* \"contracts/DegenToken.sol\":2324:2325  2 */\n  0x02\n    /* \"contracts/DegenToken.sol\":2314:2349  StoreItem(2, \"Signed T-shirt\", 100) */\n  dup2\n  mstore\n  0x20\n  add\n  mload(0x40)\n  dup1\n  0x40\n  add\n  0x40\n  mstore\n  dup1\n  0x0e\n  dup2\n  mstore\n  0x20\n  add\n  0x5369676e656420542d7368697274000000000000000000000000000000000000\n  dup2\n  mstore\n  pop\n  dup2\n  mstore\n  0x20\n  add\n    /* \"contracts/DegenToken.sol\":2345:2348  100 */\n  0x64\n    /* \"contracts/DegenToken.sol\":2314:2349  StoreItem(2, \"Signed T-shirt\", 100) */\n  dup2\n  mstore\n  pop\n    /* \"contracts/DegenToken.sol\":2298:2350  storeItems.push(StoreItem(2, \"Signed T-shirt\", 100)) */\n  swap1\n  dup1\n  0x01\n  dup2\n  sload\n  add\n  dup1\n  dup3\n  sstore\n  dup1\n  swap2\n  pop\n  pop\n  0x01\n  swap1\n  sub\n  swap1\n  0x00\n  mstore\n  keccak256(0x00, 0x20)\n  swap1\n  0x03\n  mul\n  add\n  0x00\n  swap1\n  swap2\n  swap1\n  swap2\n  swap1\n  swap2\n  pop\n  0x00\n  dup3\n  add\n  mload\n  dup2\n  0x00\n  add\n  sstore\n  0x20\n  dup3\n  add\n  mload\n  dup2\n  0x01\n  add\n  swap1\n  dup2\n  tag_28\n  swap2\n  swap1\n  tag_9\n  jump\t// in\ntag_28:\n  pop\n  0x40\n  dup3\n  add\n  mload\n  dup2\n  0x02\n  add\n  sstore\n  pop\n  pop\n    /* \"contracts/DegenToken.sol\":2360:2370  storeItems */\n  0x07\n    /* \"contracts/DegenToken.sol\":2376:2405  StoreItem(3, \"Backpack\", 150) */\n  mload(0x40)\n  dup1\n  0x60\n  add\n  0x40\n  mstore\n  dup1\n    /* \"contracts/DegenToken.sol\":2386:2387  3 */\n  0x03\n    /* \"contracts/DegenToken.sol\":2376:2405  StoreItem(3, \"Backpack\", 150) */\n  dup2\n  mstore\n  0x20\n  add\n  mload(0x40)\n  dup1\n  0x40\n  add\n  0x40\n  mstore\n  dup1\n  0x08\n  dup2\n  mstore\n  0x20\n  add\n  0x4261636b7061636b000000000000000000000000000000000000000000000000\n  dup2\n  mstore\n  pop\n  dup2\n  mstore\n  0x20\n  add\n    /* \"contracts/DegenToken.sol\":2401:2404  150 */\n  0x96\n    /* \"contracts/DegenToken.sol\":2376:2405  StoreItem(3, \"Backpack\", 150) */\n  dup2\n  mstore\n  pop\n    /* \"contracts/DegenToken.sol\":2360:2406  storeItems.push(StoreItem(3, \"Backpack\", 150)) */\n  swap1\n  dup1\n  0x01\n  dup2\n  sload\n  add\n  dup1\n  dup3\n  sstore\n  dup1\n  swap2\n  pop\n  pop\n  0x01\n  swap1\n  sub\n  swap1\n  0x00\n  mstore\n  keccak256(0x00, 0x20)\n  swap1\n  0x03\n  mul\n  add\n  0x00\n  swap1\n  swap2\n  swap1\n  swap2\n  swap1\n  swap2\n  pop\n  0x00\n  dup3\n  add\n  mload\n  dup2\n  0x00\n  add\n  sstore\n  0x20\n  dup3\n  add\n  mload\n  dup2\n  0x01\n  add\n  swap1\n  dup2\n  tag_30\n  swap2\n  swap1\n  tag_9\n  jump\t// in\ntag_30:\n  pop\n  0x40\n  dup3\n  add\n  mload\n  dup2\n  0x02\n  add\n  sstore\n  pop\n  pop\n    /* \"contracts/DegenToken.sol\":2416:2426  storeItems */\n  0x07\n    /* \"contracts/DegenToken.sol\":2432:2456  StoreItem(4, \"PS5\", 300) */\n  mload(0x40)\n  dup1\n  0x60\n  add\n  0x40\n  mstore\n  dup1\n    /* \"contracts/DegenToken.sol\":2442:2443  4 */\n  0x04\n    /* \"contracts/DegenToken.sol\":2432:2456  StoreItem(4, \"PS5\", 300) */\n  dup2\n  mstore\n  0x20\n  add\n  mload(0x40)\n  dup1\n  0x40\n  add\n  0x40\n  mstore\n  dup1\n  0x03\n  dup2\n  mstore\n  0x20\n  add\n  0x5053350000000000000000000000000000000000000000000000000000000000\n  dup2\n  mstore\n  pop\n  dup2\n  mstore\n  0x20\n  add\n    /* \"contracts/DegenToken.sol\":2452:2455  300 */\n  0x012c\n    /* \"contracts/DegenToken.sol\":2432:2456  StoreItem(4, \"PS5\", 300) */\n  dup2\n  mstore\n  pop\n    /* \"contracts/DegenToken.sol\":2416:2457  storeItems.push(StoreItem(4, \"PS5\", 300)) */\n  swap1\n  dup1\n  0x01\n  dup2\n  sload\n  add\n  dup1\n  dup3\n  sstore\n  dup1\n  swap2\n  pop\n  pop\n  0x01\n  swap1\n  sub\n  swap1\n  0x00\n  mstore\n  keccak256(0x00, 0x20)\n  swap1\n  0x03\n  mul\n  add\n  0x00\n  swap1\n  swap2\n  swap1\n  swap2\n  swap1\n  swap2\n  pop\n  0x00\n  dup3\n  add\n  mload\n  dup2\n  0x00\n  add\n  sstore\n  0x20\n  dup3\n  add\n  mload\n  dup2\n  0x01\n  add\n  swap1\n  dup2\n  tag_32\n  swap2\n  swap1\n  tag_9\n  jump\t// in\ntag_32:\n  pop\n  0x40\n  dup3\n  add\n  mload\n  dup2\n  0x02\n  add\n  sstore\n  pop\n  pop\n    /* \"contracts/DegenToken.sol\":2467:2477  storeItems */\n  0x07\n    /* \"contracts/DegenToken.sol\":2483:2518  StoreItem(5, \"Exclusive trip\", 400) */\n  mload(0x40)\n  dup1\n  0x60\n  add\n  0x40\n  mstore\n  dup1\n    /* \"contracts/DegenToken.sol\":2493:2494  5 */\n  0x05\n    /* \"contracts/DegenToken.sol\":2483:2518  StoreItem(5, \"Exclusive trip\", 400) */\n  dup2\n  mstore\n  0x20\n  add\n  mload(0x40)\n  dup1\n  0x40\n  add\n  0x40\n  mstore\n  dup1\n  0x0e\n  dup2\n  mstore\n  0x20\n  add\n  0x4578636c75736976652074726970000000000000000000000000000000000000\n  dup2\n  mstore\n  pop\n  dup2\n  mstore\n  0x20\n  add\n    /* \"contracts/DegenToken.sol\":2514:2517  400 */\n  0x0190\n    /* \"contracts/DegenToken.sol\":2483:2518  StoreItem(5, \"Exclusive trip\", 400) */\n  dup2\n  mstore\n  pop\n    /* \"contracts/DegenToken.sol\":2467:2519  storeItems.push(StoreItem(5, \"Exclusive trip\", 400)) */\n  swap1\n  dup1\n  0x01\n  dup2\n  sload\n  add\n  dup1\n  dup3\n  sstore\n  dup1\n  swap2\n  pop\n  pop\n  0x01\n  swap1\n  sub\n  swap1\n  0x00\n  mstore\n  keccak256(0x00, 0x20)\n  swap1\n  0x03\n  mul\n  add\n  0x00\n  swap1\n  swap2\n  swap1\n  swap2\n  swap1\n  swap2\n  pop\n  0x00\n  dup3\n  add\n  mload\n  dup2\n  0x00\n  add\n  sstore\n  0x20\n  dup3\n  add\n  mload\n  dup2\n  0x01\n  add\n  swap1\n  dup2\n  tag_34\n  swap2\n  swap1\n  tag_9\n  jump\t// in\ntag_34:\n  pop\n  0x40\n  dup3\n  add\n  mload\n  dup2\n  0x02\n  add\n  sstore\n  pop\n  pop\n    /* \"contracts/DegenToken.sol\":2185:2526  function _initializeStoreItems() internal {... */\n  jump\t// out\n    /* \"#utility.yul\":7:106   */\ntag_35:\n    /* \"#utility.yul\":59:65   */\n  0x00\n    /* \"#utility.yul\":93:98   */\n  dup2\n    /* \"#utility.yul\":87:99   */\n  mload\n    /* \"#utility.yul\":77:99   */\n  swap1\n  pop\n    /* \"#utility.yul\":7:106   */\n  swap2\n  swap1\n  pop\n  jump\t// out\n    /* \"#utility.yul\":112:292   */\ntag_36:\n    /* \"#utility.yul\":160:237   */\n  0x4e487b7100000000000000000000000000000000000000000000000000000000\n    /* \"#utility.yul\":157:158   */\n  0x00\n    /* \"#utility.yul\":150:238   */\n  mstore\n    /* \"#utility.yul\":257:261   */\n  0x41\n    /* \"#utility.yul\":254:255   */\n  0x04\n    /* \"#utility.yul\":247:262   */\n  mstore\n    /* \"#utility.yul\":281:285   */\n  0x24\n    /* \"#utility.yul\":278:279   */\n  0x00\n    /* \"#utility.yul\":271:286   */\n  revert\n    /* \"#utility.yul\":298:478   */\ntag_37:\n    /* \"#utility.yul\":346:423   */\n  0x4e487b7100000000000000000000000000000000000000000000000000000000\n    /* \"#utility.yul\":343:344   */\n  0x00\n    /* \"#utility.yul\":336:424   */\n  mstore\n    /* \"#utility.yul\":443:447   */\n  0x22\n    /* \"#utility.yul\":440:441   */\n  0x04\n    /* \"#utility.yul\":433:448   */\n  mstore\n    /* \"#utility.yul\":467:471   */\n  0x24\n    /* \"#utility.yul\":464:465   */\n  0x00\n    /* \"#utility.yul\":457:472   */\n  revert\n    /* \"#utility.yul\":484:804   */\ntag_38:\n    /* \"#utility.yul\":528:534   */\n  0x00\n    /* \"#utility.yul\":565:566   */\n  0x02\n    /* \"#utility.yul\":559:563   */\n  dup3\n    /* \"#utility.yul\":555:567   */\n  div\n    /* \"#utility.yul\":545:567   */\n  swap1\n  pop\n    /* \"#utility.yul\":612:613   */\n  0x01\n    /* \"#utility.yul\":606:610   */\n  dup3\n    /* \"#utility.yul\":602:614   */\n  and\n    /* \"#utility.yul\":633:651   */\n  dup1\n    /* \"#utility.yul\":623:704   */\n  tag_60\n  jumpi\n    /* \"#utility.yul\":689:693   */\n  0x7f\n    /* \"#utility.yul\":681:687   */\n  dup3\n    /* \"#utility.yul\":677:694   */\n  and\n    /* \"#utility.yul\":667:694   */\n  swap2\n  pop\n    /* \"#utility.yul\":623:704   */\ntag_60:\n    /* \"#utility.yul\":751:753   */\n  0x20\n    /* \"#utility.yul\":743:749   */\n  dup3\n    /* \"#utility.yul\":740:754   */\n  lt\n    /* \"#utility.yul\":720:738   */\n  dup2\n    /* \"#utility.yul\":717:755   */\n  sub\n    /* \"#utility.yul\":714:798   */\n  tag_61\n  jumpi\n    /* \"#utility.yul\":770:788   */\n  tag_62\n  tag_37\n  jump\t// in\ntag_62:\n    /* \"#utility.yul\":714:798   */\ntag_61:\n    /* \"#utility.yul\":535:804   */\n  pop\n    /* \"#utility.yul\":484:804   */\n  swap2\n  swap1\n  pop\n  jump\t// out\n    /* \"#utility.yul\":810:951   */\ntag_39:\n    /* \"#utility.yul\":859:863   */\n  0x00\n    /* \"#utility.yul\":882:885   */\n  dup2\n    /* \"#utility.yul\":874:885   */\n  swap1\n  pop\n    /* \"#utility.yul\":905:908   */\n  dup2\n    /* \"#utility.yul\":902:903   */\n  0x00\n    /* \"#utility.yul\":895:909   */\n  mstore\n    /* \"#utility.yul\":939:943   */\n  0x20\n    /* \"#utility.yul\":936:937   */\n  0x00\n    /* \"#utility.yul\":926:944   */\n  keccak256\n    /* \"#utility.yul\":918:944   */\n  swap1\n  pop\n    /* \"#utility.yul\":810:951   */\n  swap2\n  swap1\n  pop\n  jump\t// out\n    /* \"#utility.yul\":957:1050   */\ntag_40:\n    /* \"#utility.yul\":994:1000   */\n  0x00\n    /* \"#utility.yul\":1041:1043   */\n  0x20\n    /* \"#utility.yul\":1036:1038   */\n  0x1f\n    /* \"#utility.yul\":1029:1034   */\n  dup4\n    /* \"#utility.yul\":1025:1039   */\n  add\n    /* \"#utility.yul\":1021:1044   */\n  div\n    /* \"#utility.yul\":1011:1044   */\n  swap1\n  pop\n    /* \"#utility.yul\":957:1050   */\n  swap2\n  swap1\n  pop\n  jump\t// out\n    /* \"#utility.yul\":1056:1163   */\ntag_41:\n    /* \"#utility.yul\":1100:1108   */\n  0x00\n    /* \"#utility.yul\":1150:1155   */\n  dup3\n    /* \"#utility.yul\":1144:1148   */\n  dup3\n    /* \"#utility.yul\":1140:1156   */\n  shl\n    /* \"#utility.yul\":1119:1156   */\n  swap1\n  pop\n    /* \"#utility.yul\":1056:1163   */\n  swap3\n  swap2\n  pop\n  pop\n  jump\t// out\n    /* \"#utility.yul\":1169:1562   */\ntag_42:\n    /* \"#utility.yul\":1238:1244   */\n  0x00\n    /* \"#utility.yul\":1288:1289   */\n  0x08\n    /* \"#utility.yul\":1276:1286   */\n  dup4\n    /* \"#utility.yul\":1272:1290   */\n  mul\n    /* \"#utility.yul\":1311:1408   */\n  tag_67\n    /* \"#utility.yul\":1341:1407   */\n  0xffffffffffffffffffffffffffffffffffffffffffffffffffffffffffffffff\n    /* \"#utility.yul\":1330:1339   */\n  dup3\n    /* \"#utility.yul\":1311:1408   */\n  tag_41\n  jump\t// in\ntag_67:\n    /* \"#utility.yul\":1429:1468   */\n  tag_68\n    /* \"#utility.yul\":1459:1467   */\n  dup7\n    /* \"#utility.yul\":1448:1457   */\n  dup4\n    /* \"#utility.yul\":1429:1468   */\n  tag_41\n  jump\t// in\ntag_68:\n    /* \"#utility.yul\":1417:1468   */\n  swap6\n  pop\n    /* \"#utility.yul\":1501:1505   */\n  dup1\n    /* \"#utility.yul\":1497:1506   */\n  not\n    /* \"#utility.yul\":1490:1495   */\n  dup5\n    /* \"#utility.yul\":1486:1507   */\n  and\n    /* \"#utility.yul\":1477:1507   */\n  swap4\n  pop\n    /* \"#utility.yul\":1550:1554   */\n  dup1\n    /* \"#utility.yul\":1540:1548   */\n  dup7\n    /* \"#utility.yul\":1536:1555   */\n  and\n    /* \"#utility.yul\":1529:1534   */\n  dup5\n    /* \"#utility.yul\":1526:1556   */\n  or\n    /* \"#utility.yul\":1516:1556   */\n  swap3\n  pop\n    /* \"#utility.yul\":1245:1562   */\n  pop\n  pop\n    /* \"#utility.yul\":1169:1562   */\n  swap4\n  swap3\n  pop\n  pop\n  pop\n  jump\t// out\n    /* \"#utility.yul\":1568:1645   */\ntag_43:\n    /* \"#utility.yul\":1605:1612   */\n  0x00\n    /* \"#utility.yul\":1634:1639   */\n  dup2\n    /* \"#utility.yul\":1623:1639   */\n  swap1\n  pop\n    /* \"#utility.yul\":1568:1645   */\n  swap2\n  swap1\n  pop\n  jump\t// out\n    /* \"#utility.yul\":1651:1711   */\ntag_44:\n    /* \"#utility.yul\":1679:1682   */\n  0x00\n    /* \"#utility.yul\":1700:1705   */\n  dup2\n    /* \"#utility.yul\":1693:1705   */\n  swap1\n  pop\n    /* \"#utility.yul\":1651:1711   */\n  swap2\n  swap1\n  pop\n  jump\t// out\n    /* \"#utility.yul\":1717:1859   */\ntag_45:\n    /* \"#utility.yul\":1767:1776   */\n  0x00\n    /* \"#utility.yul\":1800:1853   */\n  tag_72\n    /* \"#utility.yul\":1818:1852   */\n  tag_73\n    /* \"#utility.yul\":1827:1851   */\n  tag_74\n    /* \"#utility.yul\":1845:1850   */\n  dup5\n    /* \"#utility.yul\":1827:1851   */\n  tag_43\n  jump\t// in\ntag_74:\n    /* \"#utility.yul\":1818:1852   */\n  tag_44\n  jump\t// in\ntag_73:\n    /* \"#utility.yul\":1800:1853   */\n  tag_43\n  jump\t// in\ntag_72:\n    /* \"#utility.yul\":1787:1853   */\n  swap1\n  pop\n    /* \"#utility.yul\":1717:1859   */\n  swap2\n  swap1\n  pop\n  jump\t// out\n    /* \"#utility.yul\":1865:1940   */\ntag_46:\n    /* \"#utility.yul\":1908:1911   */\n  0x00\n    /* \"#utility.yul\":1929:1934   */\n  dup2\n    /* \"#utility.yul\":1922:1934   */\n  swap1\n  pop\n    /* \"#utility.yul\":1865:1940   */\n  swap2\n  swap1\n  pop\n  jump\t// out\n    /* \"#utility.yul\":1946:2215   */\ntag_47:\n    /* \"#utility.yul\":2056:2095   */\n  tag_77\n    /* \"#utility.yul\":2087:2094   */\n  dup4\n    /* \"#utility.yul\":2056:2095   */\n  tag_45\n  jump\t// in\ntag_77:\n    /* \"#utility.yul\":2117:2208   */\n  tag_78\n    /* \"#utility.yul\":2166:2207   */\n  tag_79\n    /* \"#utility.yul\":2190:2206   */\n  dup3\n    /* \"#utility.yul\":2166:2207   */\n  tag_46\n  jump\t// in\ntag_79:\n    /* \"#utility.yul\":2158:2164   */\n  dup5\n    /* \"#utility.yul\":2151:2155   */\n  dup5\n    /* \"#utility.yul\":2145:2156   */\n  sload\n    /* \"#utility.yul\":2117:2208   */\n  tag_42\n  jump\t// in\ntag_78:\n    /* \"#utility.yul\":2111:2115   */\n  dup3\n    /* \"#utility.yul\":2104:2209   */\n  sstore\n    /* \"#utility.yul\":2022:2215   */\n  pop\n    /* \"#utility.yul\":1946:2215   */\n  pop\n  pop\n  pop\n  jump\t// out\n    /* \"#utility.yul\":2221:2294   */\ntag_48:\n    /* \"#utility.yul\":2266:2269   */\n  0x00\n    /* \"#utility.yul\":2221:2294   */\n  swap1\n  jump\t// out\n    /* \"#utility.yul\":2300:2489   */\ntag_49:\n    /* \"#utility.yul\":2377:2409   */\n  tag_82\n  tag_48\n  jump\t// in\ntag_82:\n    /* \"#utility.yul\":2418:2483   */\n  tag_83\n    /* \"#utility.yul\":2476:2482   */\n  dup2\n    /* \"#utility.yul\":2468:2474   */\n  dup5\n    /* \"#utility.yul\":2462:2466   */\n  dup5\n    /* \"#utility.yul\":2418:2483   */\n  tag_47\n  jump\t// in\ntag_83:\n    /* \"#utility.yul\":2353:2489   */\n  pop\n    /* \"#utility.yul\":2300:2489   */\n  pop\n  pop\n  jump\t// out\n    /* \"#utility.yul\":2495:2681   */\ntag_50:\n    /* \"#utility.yul\":2555:2675   */\ntag_85:\n    /* \"#utility.yul\":2572:2575   */\n  dup2\n    /* \"#utility.yul\":2565:2570   */\n  dup2\n    /* \"#utility.yul\":2562:2576   */\n  lt\n    /* \"#utility.yul\":2555:2675   */\n  iszero\n  tag_87\n  jumpi\n    /* \"#utility.yul\":2626:2665   */\n  tag_88\n    /* \"#utility.yul\":2663:2664   */\n  0x00\n    /* \"#utility.yul\":2656:2661   */\n  dup3\n    /* \"#utility.yul\":2626:2665   */\n  tag_49\n  jump\t// in\ntag_88:\n    /* \"#utility.yul\":2599:2600   */\n  0x01\n    /* \"#utility.yul\":2592:2597   */\n  dup2\n    /* \"#utility.yul\":2588:2601   */\n  add\n    /* \"#utility.yul\":2579:2601   */\n  swap1\n  pop\n    /* \"#utility.yul\":2555:2675   */\n  jump(tag_85)\ntag_87:\n    /* \"#utility.yul\":2495:2681   */\n  pop\n  pop\n  jump\t// out\n    /* \"#utility.yul\":2687:3230   */\ntag_51:\n    /* \"#utility.yul\":2788:2790   */\n  0x1f\n    /* \"#utility.yul\":2783:2786   */\n  dup3\n    /* \"#utility.yul\":2780:2791   */\n  gt\n    /* \"#utility.yul\":2777:3223   */\n  iszero\n  tag_90\n  jumpi\n    /* \"#utility.yul\":2822:2860   */\n  tag_91\n    /* \"#utility.yul\":2854:2859   */\n  dup2\n    /* \"#utility.yul\":2822:2860   */\n  tag_39\n  jump\t// in\ntag_91:\n    /* \"#utility.yul\":2906:2935   */\n  tag_92\n    /* \"#utility.yul\":2924:2934   */\n  dup5\n    /* \"#utility.yul\":2906:2935   */\n  tag_40\n  jump\t// in\ntag_92:\n    /* \"#utility.yul\":2896:2904   */\n  dup2\n    /* \"#utility.yul\":2892:2936   */\n  add\n    /* \"#utility.yul\":3089:3091   */\n  0x20\n    /* \"#utility.yul\":3077:3087   */\n  dup6\n    /* \"#utility.yul\":3074:3092   */\n  lt\n    /* \"#utility.yul\":3071:3120   */\n  iszero\n  tag_93\n  jumpi\n    /* \"#utility.yul\":3110:3118   */\n  dup2\n    /* \"#utility.yul\":3095:3118   */\n  swap1\n  pop\n    /* \"#utility.yul\":3071:3120   */\ntag_93:\n    /* \"#utility.yul\":3133:3213   */\n  tag_94\n    /* \"#utility.yul\":3189:3211   */\n  tag_95\n    /* \"#utility.yul\":3207:3210   */\n  dup6\n    /* \"#utility.yul\":3189:3211   */\n  tag_40\n  jump\t// in\ntag_95:\n    /* \"#utility.yul\":3179:3187   */\n  dup4\n    /* \"#utility.yul\":3175:3212   */\n  add\n    /* \"#utility.yul\":3162:3173   */\n  dup3\n    /* \"#utility.yul\":3133:3213   */\n  tag_50\n  jump\t// in\ntag_94:\n    /* \"#utility.yul\":2792:3223   */\n  pop\n  pop\n    /* \"#utility.yul\":2777:3223   */\ntag_90:\n    /* \"#utility.yul\":2687:3230   */\n  pop\n  pop\n  pop\n  jump\t// out\n    /* \"#utility.yul\":3236:3353   */\ntag_52:\n    /* \"#utility.yul\":3290:3298   */\n  0x00\n    /* \"#utility.yul\":3340:3345   */\n  dup3\n    /* \"#utility.yul\":3334:3338   */\n  dup3\n    /* \"#utility.yul\":3330:3346   */\n  shr\n    /* \"#utility.yul\":3309:3346   */\n  swap1\n  pop\n    /* \"#utility.yul\":3236:3353   */\n  swap3\n  swap2\n  pop\n  pop\n  jump\t// out\n    /* \"#utility.yul\":3359:3528   */\ntag_53:\n    /* \"#utility.yul\":3403:3409   */\n  0x00\n    /* \"#utility.yul\":3436:3487   */\n  tag_98\n    /* \"#utility.yul\":3484:3485   */\n  0x00\n    /* \"#utility.yul\":3480:3486   */\n  not\n    /* \"#utility.yul\":3472:3477   */\n  dup5\n    /* \"#utility.yul\":3469:3470   */\n  0x08\n    /* \"#utility.yul\":3465:3478   */\n  mul\n    /* \"#utility.yul\":3436:3487   */\n  tag_52\n  jump\t// in\ntag_98:\n    /* \"#utility.yul\":3432:3488   */\n  not\n    /* \"#utility.yul\":3517:3521   */\n  dup1\n    /* \"#utility.yul\":3511:3515   */\n  dup4\n    /* \"#utility.yul\":3507:3522   */\n  and\n    /* \"#utility.yul\":3497:3522   */\n  swap2\n  pop\n    /* \"#utility.yul\":3410:3528   */\n  pop\n    /* \"#utility.yul\":3359:3528   */\n  swap3\n  swap2\n  pop\n  pop\n  jump\t// out\n    /* \"#utility.yul\":3533:3828   */\ntag_54:\n    /* \"#utility.yul\":3609:3613   */\n  0x00\n    /* \"#utility.yul\":3755:3784   */\n  tag_100\n    /* \"#utility.yul\":3780:3783   */\n  dup4\n    /* \"#utility.yul\":3774:3778   */\n  dup4\n    /* \"#utility.yul\":3755:3784   */\n  tag_53\n  jump\t// in\ntag_100:\n    /* \"#utility.yul\":3747:3784   */\n  swap2\n  pop\n    /* \"#utility.yul\":3817:3820   */\n  dup3\n    /* \"#utility.yul\":3814:3815   */\n  0x02\n    /* \"#utility.yul\":3810:3821   */\n  mul\n    /* \"#utility.yul\":3804:3808   */\n  dup3\n    /* \"#utility.yul\":3801:3822   */\n  or\n    /* \"#utility.yul\":3793:3822   */\n  swap1\n  pop\n    /* \"#utility.yul\":3533:3828   */\n  swap3\n  swap2\n  pop\n  pop\n  jump\t// out\n    /* \"#utility.yul\":3833:5228   */\ntag_9:\n    /* \"#utility.yul\":3950:3987   */\n  tag_102\n    /* \"#utility.yul\":3983:3986   */\n  dup3\n    /* \"#utility.yul\":3950:3987   */\n  tag_35\n  jump\t// in\ntag_102:\n    /* \"#utility.yul\":4052:4070   */\n  0xffffffffffffffff\n    /* \"#utility.yul\":4044:4050   */\n  dup2\n    /* \"#utility.yul\":4041:4071   */\n  gt\n    /* \"#utility.yul\":4038:4094   */\n  iszero\n  tag_103\n  jumpi\n    /* \"#utility.yul\":4074:4092   */\n  tag_104\n  tag_36\n  jump\t// in\ntag_104:\n    /* \"#utility.yul\":4038:4094   */\ntag_103:\n    /* \"#utility.yul\":4118:4156   */\n  tag_105\n    /* \"#utility.yul\":4150:4154   */\n  dup3\n    /* \"#utility.yul\":4144:4155   */\n  sload\n    /* \"#utility.yul\":4118:4156   */\n  tag_38\n  jump\t// in\ntag_105:\n    /* \"#utility.yul\":4203:4270   */\n  tag_106\n    /* \"#utility.yul\":4263:4269   */\n  dup3\n    /* \"#utility.yul\":4255:4261   */\n  dup3\n    /* \"#utility.yul\":4249:4253   */\n  dup6\n    /* \"#utility.yul\":4203:4270   */\n  tag_51\n  jump\t// in\ntag_106:\n    /* \"#utility.yul\":4297:4298   */\n  0x00\n    /* \"#utility.yul\":4321:4325   */\n  0x20\n    /* \"#utility.yul\":4308:4325   */\n  swap1\n  pop\n    /* \"#utility.yul\":4353:4355   */\n  0x1f\n    /* \"#utility.yul\":4345:4351   */\n  dup4\n    /* \"#utility.yul\":4342:4356   */\n  gt\n    /* \"#utility.yul\":4370:4371   */\n  0x01\n    /* \"#utility.yul\":4365:4983   */\n  dup2\n  eq\n  tag_108\n  jumpi\n    /* \"#utility.yul\":5027:5028   */\n  0x00\n    /* \"#utility.yul\":5044:5050   */\n  dup5\n    /* \"#utility.yul\":5041:5118   */\n  iszero\n  tag_109\n  jumpi\n    /* \"#utility.yul\":5093:5102   */\n  dup3\n    /* \"#utility.yul\":5088:5091   */\n  dup8\n    /* \"#utility.yul\":5084:5103   */\n  add\n    /* \"#utility.yul\":5078:5104   */\n  mload\n    /* \"#utility.yul\":5069:5104   */\n  swap1\n  pop\n    /* \"#utility.yul\":5041:5118   */\ntag_109:\n    /* \"#utility.yul\":5144:5211   */\n  tag_110\n    /* \"#utility.yul\":5204:5210   */\n  dup6\n    /* \"#utility.yul\":5197:5202   */\n  dup3\n    /* \"#utility.yul\":5144:5211   */\n  tag_54\n  jump\t// in\ntag_110:\n    /* \"#utility.yul\":5138:5142   */\n  dup7\n    /* \"#utility.yul\":5131:5212   */\n  sstore\n    /* \"#utility.yul\":5000:5222   */\n  pop\n    /* \"#utility.yul\":4335:5222   */\n  jump(tag_107)\n    /* \"#utility.yul\":4365:4983   */\ntag_108:\n    /* \"#utility.yul\":4417:4421   */\n  0x1f\n    /* \"#utility.yul\":4413:4422   */\n  not\n    /* \"#utility.yul\":4405:4411   */\n  dup5\n    /* \"#utility.yul\":4401:4423   */\n  and\n    /* \"#utility.yul\":4451:4488   */\n  tag_111\n    /* \"#utility.yul\":4483:4487   */\n  dup7\n    /* \"#utility.yul\":4451:4488   */\n  tag_39\n  jump\t// in\ntag_111:\n    /* \"#utility.yul\":4510:4511   */\n  0x00\n    /* \"#utility.yul\":4524:4732   */\ntag_112:\n    /* \"#utility.yul\":4538:4545   */\n  dup3\n    /* \"#utility.yul\":4535:4536   */\n  dup2\n    /* \"#utility.yul\":4532:4546   */\n  lt\n    /* \"#utility.yul\":4524:4732   */\n  iszero\n  tag_114\n  jumpi\n    /* \"#utility.yul\":4617:4626   */\n  dup5\n    /* \"#utility.yul\":4612:4615   */\n  dup10\n    /* \"#utility.yul\":4608:4627   */\n  add\n    /* \"#utility.yul\":4602:4628   */\n  mload\n    /* \"#utility.yul\":4594:4600   */\n  dup3\n    /* \"#utility.yul\":4587:4629   */\n  sstore\n    /* \"#utility.yul\":4668:4669   */\n  0x01\n    /* \"#utility.yul\":4660:4666   */\n  dup3\n    /* \"#utility.yul\":4656:4670   */\n  add\n    /* \"#utility.yul\":4646:4670   */\n  swap2\n  pop\n    /* \"#utility.yul\":4715:4717   */\n  0x20\n    /* \"#utility.yul\":4704:4713   */\n  dup6\n    /* \"#utility.yul\":4700:4718   */\n  add\n    /* \"#utility.yul\":4687:4718   */\n  swap5\n  pop\n    /* \"#utility.yul\":4561:4565   */\n  0x20\n    /* \"#utility.yul\":4558:4559   */\n  dup2\n    /* \"#utility.yul\":4554:4566   */\n  add\n    /* \"#utility.yul\":4549:4566   */\n  swap1\n  pop\n    /* \"#utility.yul\":4524:4732   */\n  jump(tag_112)\ntag_114:\n    /* \"#utility.yul\":4760:4766   */\n  dup7\n    /* \"#utility.yul\":4751:4758   */\n  dup4\n    /* \"#utility.yul\":4748:4767   */\n  lt\n    /* \"#utility.yul\":4745:4924   */\n  iszero\n  tag_115\n  jumpi\n    /* \"#utility.yul\":4818:4827   */\n  dup5\n    /* \"#utility.yul\":4813:4816   */\n  dup10\n    /* \"#utility.yul\":4809:4828   */\n  add\n    /* \"#utility.yul\":4803:4829   */\n  mload\n    /* \"#utility.yul\":4861:4909   */\n  tag_116\n    /* \"#utility.yul\":4903:4907   */\n  0x1f\n    /* \"#utility.yul\":4895:4901   */\n  dup10\n    /* \"#utility.yul\":4891:4908   */\n  and\n    /* \"#utility.yul\":4880:4889   */\n  dup3\n    /* \"#utility.yul\":4861:4909   */\n  tag_53\n  jump\t// in\ntag_116:\n    /* \"#utility.yul\":4853:4859   */\n  dup4\n    /* \"#utility.yul\":4846:4910   */\n  sstore\n    /* \"#utility.yul\":4768:4924   */\n  pop\n    /* \"#utility.yul\":4745:4924   */\ntag_115:\n    /* \"#utility.yul\":4970:4971   */\n  0x01\n    /* \"#utility.yul\":4966:4967   */\n  0x02\n    /* \"#utility.yul\":4958:4964   */\n  dup9\n    /* \"#utility.yul\":4954:4968   */\n  mul\n    /* \"#utility.yul\":4950:4972   */\n  add\n    /* \"#utility.yul\":4944:4948   */\n  dup9\n    /* \"#utility.yul\":4937:4973   */\n  sstore\n    /* \"#utility.yul\":4372:4983   */\n  pop\n  pop\n  pop\n    /* \"#utility.yul\":4335:5222   */\ntag_107:\n  pop\n    /* \"#utility.yul\":3925:5228   */\n  pop\n  pop\n  pop\n    /* \"#utility.yul\":3833:5228   */\n  pop\n  pop\n  jump\t// out\n    /* \"contracts/DegenToken.sol\":361:3373  contract DegenToken is ERC20, Ownable, ERC20Burnable, Pausable, ReentrancyGuard {... */\ntag_21:\n  dataSize(sub_0)\n  dup1\n  dataOffset(sub_0)\n  0x00\n  codecopy\n  0x00\n  return\nstop\n\nsub_0: assembly {\n        /* \"contracts/DegenToken.sol\":361:3373  contract DegenToken is ERC20, Ownable, ERC20Burnable, Pausable, ReentrancyGuard {... */\n      mstore(0x40, 0x80)\n      callvalue\n      dup1\n      iszero\n      tag_1\n      jumpi\n      0x00\n      dup1\n      revert\n    tag_1:\n      pop\n      jumpi(tag_2, lt(calldatasize, 0x04))\n      shr(0xe0, calldataload(0x00))\n      dup1\n      0x6d1b229d\n      gt\n      tag_30\n      jumpi\n      dup1\n      0x9b96eece\n      gt\n      tag_31\n      jumpi\n      dup1\n      0xa9059cbb\n      gt\n      tag_32\n      jumpi\n      dup1\n      0xa9059cbb\n      eq\n      tag_26\n      jumpi\n      dup1\n      0xbec3fa17\n      eq\n      tag_27\n      jumpi\n      dup1\n      0xdd62ed3e\n      eq\n      tag_28\n      jumpi\n      dup1\n      0xf2fde38b\n      eq\n      tag_29\n      jumpi\n      jump(tag_2)\n    tag_32:\n      dup1\n      0x9b96eece\n      eq\n      tag_23\n      jumpi\n      dup1\n      0xa457c2d7\n      eq\n      tag_24\n      jumpi\n      dup1\n      0xa6e158f8\n      eq\n      tag_25\n      jumpi\n      jump(tag_2)\n    tag_31:\n      dup1\n      0x79cc6790\n      gt\n      tag_33\n      jumpi\n      dup1\n      0x79cc6790\n      eq\n      tag_19\n      jumpi\n      dup1\n      0x8456cb59\n      eq\n      tag_20\n      jumpi\n      dup1\n      0x8da5cb5b\n      eq\n      tag_21\n      jumpi\n      dup1\n      0x95d89b41\n      eq\n      tag_22\n      jumpi\n      jump(tag_2)\n    tag_33:\n      dup1\n      0x6d1b229d\n      eq\n      tag_16\n      jumpi\n      dup1\n      0x70a08231\n      eq\n      tag_17\n      jumpi\n      dup1\n      0x715018a6\n      eq\n      tag_18\n      jumpi\n      jump(tag_2)\n    tag_30:\n      dup1\n      0x313ce567\n      gt\n      tag_34\n      jumpi\n      dup1\n      0x40c10f19\n      gt\n      tag_35\n      jumpi\n      dup1\n      0x40c10f19\n      eq\n      tag_12\n      jumpi\n      dup1\n      0x42966c68\n      eq\n      tag_13\n      jumpi\n      dup1\n      0x43f2cdb2\n      eq\n      tag_14\n      jumpi\n      dup1\n      0x5c975abb\n      eq\n      tag_15\n      jumpi\n      jump(tag_2)\n    tag_35:\n      dup1\n      0x313ce567\n      eq\n      tag_9\n      jumpi\n      dup1\n      0x39509351\n      eq\n      tag_10\n      jumpi\n      dup1\n      0x3f4ba83a\n      eq\n      tag_11\n      jumpi\n      jump(tag_2)\n    tag_34:\n      dup1\n      0x06fdde03\n      eq\n      tag_3\n      jumpi\n      dup1\n      0x0934074f\n      eq\n      tag_4\n      jumpi\n      dup1\n      0x095ea7b3\n      eq\n      tag_5\n      jumpi\n      dup1\n      0x12065fe0\n      eq\n      tag_6\n      jumpi\n      dup1\n      0x18160ddd\n      eq\n      tag_7\n      jumpi\n      dup1\n      0x23b872dd\n      eq\n      tag_8\n      jumpi\n    tag_2:\n      0x00\n      dup1\n      revert\n        /* \"@openzeppelin/contracts/token/ERC20/ERC20.sol\":2154:2252  function name() public view virtual override returns (string memory) {... */\n    tag_3:\n      tag_36\n      tag_37\n      jump\t// in\n    tag_36:\n      mload(0x40)\n      tag_38\n      swap2\n      swap1\n      tag_39\n      jump\t// in\n    tag_38:\n      mload(0x40)\n      dup1\n      swap2\n      sub\n      swap1\n      return\n        /* \"contracts/DegenToken.sol\":1731:2179  function showStoreItems() external view returns (string memory) {... */\n    tag_4:\n      tag_40\n      tag_41\n      jump\t// in\n    tag_40:\n      mload(0x40)\n      tag_42\n      swap2\n      swap1\n      tag_39\n      jump\t// in\n    tag_42:\n      mload(0x40)\n      dup1\n      swap2\n      sub\n      swap1\n      return\n        /* \"@openzeppelin/contracts/token/ERC20/ERC20.sol\":4431:4628  function approve(address spender, uint256 amount) public virtual override returns (bool) {... */\n    tag_5:\n      tag_43\n      0x04\n      dup1\n      calldatasize\n      sub\n      dup2\n      add\n      swap1\n      tag_44\n      swap2\n      swap1\n      tag_45\n      jump\t// in\n    tag_44:\n      tag_46\n      jump\t// in\n    tag_43:\n      mload(0x40)\n      tag_47\n      swap2\n      swap1\n      tag_48\n      jump\t// in\n    tag_47:\n      mload(0x40)\n      dup1\n      swap2\n      sub\n      swap1\n      return\n        /* \"contracts/DegenToken.sol\":1507:1606  function getBalance() external view returns (uint256) {... */\n    tag_6:\n      tag_49\n      tag_50\n      jump\t// in\n    tag_49:\n      mload(0x40)\n      tag_51\n      swap2\n      swap1\n      tag_52\n      jump\t// in\n    tag_51:\n      mload(0x40)\n      dup1\n      swap2\n      sub\n      swap1\n      return\n        /* \"@openzeppelin/contracts/token/ERC20/ERC20.sol\":3242:3348  function totalSupply() public view virtual override returns (uint256) {... */\n    tag_7:\n      tag_53\n      tag_54\n      jump\t// in\n    tag_53:\n      mload(0x40)\n      tag_55\n      swap2\n      swap1\n      tag_52\n      jump\t// in\n    tag_55:\n      mload(0x40)\n      dup1\n      swap2\n      sub\n      swap1\n      return\n        /* \"@openzeppelin/contracts/token/ERC20/ERC20.sol\":5190:5476  function transferFrom(... */\n    tag_8:\n      tag_56\n      0x04\n      dup1\n      calldatasize\n      sub\n      dup2\n      add\n      swap1\n      tag_57\n      swap2\n      swap1\n      tag_58\n      jump\t// in\n    tag_57:\n      tag_59\n      jump\t// in\n    tag_56:\n      mload(0x40)\n      tag_60\n      swap2\n      swap1\n      tag_48\n      jump\t// in\n    tag_60:\n      mload(0x40)\n      dup1\n      swap2\n      sub\n      swap1\n      return\n        /* \"contracts/DegenToken.sol\":857:939  function decimals() public pure override returns (uint8) {... */\n    tag_9:\n      tag_61\n      tag_62\n      jump\t// in\n    tag_61:\n      mload(0x40)\n      tag_63\n      swap2\n      swap1\n      tag_64\n      jump\t// in\n    tag_63:\n      mload(0x40)\n      dup1\n      swap2\n      sub\n      swap1\n      return\n        /* \"@openzeppelin/contracts/token/ERC20/ERC20.sol\":5871:6105  function increaseAllowance(address spender, uint256 addedValue) public virtual returns (bool) {... */\n    tag_10:\n      tag_65\n      0x04\n      dup1\n      calldatasize\n      sub\n      dup2\n      add\n      swap1\n      tag_66\n      swap2\n      swap1\n      tag_45\n      jump\t// in\n    tag_66:\n      tag_67\n      jump\t// in\n    tag_65:\n      mload(0x40)\n      tag_68\n      swap2\n      swap1\n      tag_48\n      jump\t// in\n    tag_68:\n      mload(0x40)\n      dup1\n      swap2\n      sub\n      swap1\n      return\n        /* \"contracts/DegenToken.sol\":2890:2955  function unpause() external onlyOwner {... */\n    tag_11:\n      tag_69\n      tag_70\n      jump\t// in\n    tag_69:\n      stop\n        /* \"contracts/DegenToken.sol\":742:851  function mint(address to, uint256 amount) external onlyOwner whenNotPaused {... */\n    tag_12:\n      tag_71\n      0x04\n      dup1\n      calldatasize\n      sub\n      dup2\n      add\n      swap1\n      tag_72\n      swap2\n      swap1\n      tag_45\n      jump\t// in\n    tag_72:\n      tag_73\n      jump\t// in\n    tag_71:\n      stop\n        /* \"@openzeppelin/contracts/token/ERC20/extensions/ERC20Burnable.sol\":578:667  function burn(uint256 amount) public virtual {... */\n    tag_13:\n      tag_74\n      0x04\n      dup1\n      calldatasize\n      sub\n      dup2\n      add\n      swap1\n      tag_75\n      swap2\n      swap1\n      tag_76\n      jump\t// in\n    tag_75:\n      tag_77\n      jump\t// in\n    tag_74:\n      stop\n        /* \"contracts/DegenToken.sol\":625:654  StoreItem[] public storeItems */\n    tag_14:\n      tag_78\n      0x04\n      dup1\n      calldatasize\n      sub\n      dup2\n      add\n      swap1\n      tag_79\n      swap2\n      swap1\n      tag_76\n      jump\t// in\n    tag_79:\n      tag_80\n      jump\t// in\n    tag_78:\n      mload(0x40)\n      tag_81\n      swap4\n      swap3\n      swap2\n      swap1\n      tag_82\n      jump\t// in\n    tag_81:\n      mload(0x40)\n      dup1\n      swap2\n      sub\n      swap1\n      return\n        /* \"@openzeppelin/contracts/security/Pausable.sol\":1615:1699  function paused() public view virtual returns (bool) {... */\n    tag_15:\n      tag_83\n      tag_84\n      jump\t// in\n    tag_83:\n      mload(0x40)\n      tag_85\n      swap2\n      swap1\n      tag_48\n      jump\t// in\n    tag_85:\n      mload(0x40)\n      dup1\n      swap2\n      sub\n      swap1\n      return\n        /* \"contracts/DegenToken.sol\":1099:1211  function burnTokens(uint256 value) external whenNotPaused nonReentrant {... */\n    tag_16:\n      tag_86\n      0x04\n      dup1\n      calldatasize\n      sub\n      dup2\n      add\n      swap1\n      tag_87\n      swap2\n      swap1\n      tag_76\n      jump\t// in\n    tag_87:\n      tag_88\n      jump\t// in\n    tag_86:\n      stop\n        /* \"@openzeppelin/contracts/token/ERC20/ERC20.sol\":3406:3531  function balanceOf(address account) public view virtual override returns (uint256) {... */\n    tag_17:\n      tag_89\n      0x04\n      dup1\n      calldatasize\n      sub\n      dup2\n      add\n      swap1\n      tag_90\n      swap2\n      swap1\n      tag_91\n      jump\t// in\n    tag_90:\n      tag_92\n      jump\t// in\n    tag_89:\n      mload(0x40)\n      tag_93\n      swap2\n      swap1\n      tag_52\n      jump\t// in\n    tag_93:\n      mload(0x40)\n      dup1\n      swap2\n      sub\n      swap1\n      return\n        /* \"@openzeppelin/contracts/access/Ownable.sol\":1831:1932  function renounceOwnership() public virtual onlyOwner {... */\n    tag_18:\n      tag_94\n      tag_95\n      jump\t// in\n    tag_94:\n      stop\n        /* \"@openzeppelin/contracts/token/ERC20/extensions/ERC20Burnable.sol\":973:1134  function burnFrom(address account, uint256 amount) public virtual {... */\n    tag_19:\n      tag_96\n      0x04\n      dup1\n      calldatasize\n      sub\n      dup2\n      add\n      swap1\n      tag_97\n      swap2\n      swap1\n      tag_45\n      jump\t// in\n    tag_97:\n      tag_98\n      jump\t// in\n    tag_96:\n      stop\n        /* \"contracts/DegenToken.sol\":2823:2884  function pause() external onlyOwner {... */\n    tag_20:\n      tag_99\n      tag_100\n      jump\t// in\n    tag_99:\n      stop\n        /* \"@openzeppelin/contracts/access/Ownable.sol\":1201:1286  function owner() public view virtual returns (address) {... */\n    tag_21:\n      tag_101\n      tag_102\n      jump\t// in\n    tag_101:\n      mload(0x40)\n      tag_103\n      swap2\n      swap1\n      tag_104\n      jump\t// in\n    tag_103:\n      mload(0x40)\n      dup1\n      swap2\n      sub\n      swap1\n      return\n        /* \"@openzeppelin/contracts/token/ERC20/ERC20.sol\":2365:2467  function symbol() public view virtual override returns (string memory) {... */\n    tag_22:\n      tag_105\n      tag_106\n      jump\t// in\n    tag_105:\n      mload(0x40)\n      tag_107\n      swap2\n      swap1\n      tag_39\n      jump\t// in\n    tag_107:\n      mload(0x40)\n      dup1\n      swap2\n      sub\n      swap1\n      return\n        /* \"contracts/DegenToken.sol\":1612:1725  function getBalanceOf(address account) external view returns (uint256) {... */\n    tag_23:\n      tag_108\n      0x04\n      dup1\n      calldatasize\n      sub\n      dup2\n      add\n      swap1\n      tag_109\n      swap2\n      swap1\n      tag_91\n      jump\t// in\n    tag_109:\n      tag_110\n      jump\t// in\n    tag_108:\n      mload(0x40)\n      tag_111\n      swap2\n      swap1\n      tag_52\n      jump\t// in\n    tag_111:\n      mload(0x40)\n      dup1\n      swap2\n      sub\n      swap1\n      return\n        /* \"@openzeppelin/contracts/token/ERC20/ERC20.sol\":6592:7019  function decreaseAllowance(address spender, uint256 subtractedValue) public virtual returns (bool) {... */\n    tag_24:\n      tag_112\n      0x04\n      dup1\n      calldatasize\n      sub\n      dup2\n      add\n      swap1\n      tag_113\n      swap2\n      swap1\n      tag_45\n      jump\t// in\n    tag_113:\n      tag_114\n      jump\t// in\n    tag_112:\n      mload(0x40)\n      tag_115\n      swap2\n      swap1\n      tag_48\n      jump\t// in\n    tag_115:\n      mload(0x40)\n      dup1\n      swap2\n      sub\n      swap1\n      return\n        /* \"contracts/DegenToken.sol\":1217:1501  function redeemTokens(uint256 itemId) external whenNotPaused nonReentrant {... */\n    tag_25:\n      tag_116\n      0x04\n      dup1\n      calldatasize\n      sub\n      dup2\n      add\n      swap1\n      tag_117\n      swap2\n      swap1\n      tag_76\n      jump\t// in\n    tag_117:\n      tag_118\n      jump\t// in\n    tag_116:\n      stop\n        /* \"@openzeppelin/contracts/token/ERC20/ERC20.sol\":3727:3916  function transfer(address to, uint256 amount) public virtual override returns (bool) {... */\n    tag_26:\n      tag_119\n      0x04\n      dup1\n      calldatasize\n      sub\n      dup2\n      add\n      swap1\n      tag_120\n      swap2\n      swap1\n      tag_45\n      jump\t// in\n    tag_120:\n      tag_121\n      jump\t// in\n    tag_119:\n      mload(0x40)\n      tag_122\n      swap2\n      swap1\n      tag_48\n      jump\t// in\n    tag_122:\n      mload(0x40)\n      dup1\n      swap2\n      sub\n      swap1\n      return\n        /* \"contracts/DegenToken.sol\":945:1093  function transferTokens(address receiver, uint256 value) external whenNotPaused nonReentrant {... */\n    tag_27:\n      tag_123\n      0x04\n      dup1\n      calldatasize\n      sub\n      dup2\n      add\n      swap1\n      tag_124\n      swap2\n      swap1\n      tag_45\n      jump\t// in\n    tag_124:\n      tag_125\n      jump\t// in\n    tag_123:\n      stop\n        /* \"@openzeppelin/contracts/token/ERC20/ERC20.sol\":3974:4123  function allowance(address owner, address spender) public view virtual override returns (uint256) {... */\n    tag_28:\n      tag_126\n      0x04\n      dup1\n      calldatasize\n      sub\n      dup2\n      add\n      swap1\n      tag_127\n      swap2\n      swap1\n      tag_128\n      jump\t// in\n    tag_127:\n      tag_129\n      jump\t// in\n    tag_126:\n      mload(0x40)\n      tag_130\n      swap2\n      swap1\n      tag_52\n      jump\t// in\n    tag_130:\n      mload(0x40)\n      dup1\n      swap2\n      sub\n      swap1\n      return\n        /* \"@openzeppelin/contracts/access/Ownable.sol\":2081:2279  function transferOwnership(address newOwner) public virtual onlyOwner {... */\n    tag_29:\n      tag_131\n      0x04\n      dup1\n      calldatasize\n      sub\n      dup2\n      add\n      swap1\n      tag_132\n      swap2\n      swap1\n      tag_91\n      jump\t// in\n    tag_132:\n      tag_133\n      jump\t// in\n    tag_131:\n      stop\n        /* \"@openzeppelin/contracts/token/ERC20/ERC20.sol\":2154:2252  function name() public view virtual override returns (string memory) {... */\n    tag_37:\n        /* \"@openzeppelin/contracts/token/ERC20/ERC20.sol\":2208:2221  string memory */\n      0x60\n        /* \"@openzeppelin/contracts/token/ERC20/ERC20.sol\":2240:2245  _name */\n      0x03\n        /* \"@openzeppelin/contracts/token/ERC20/ERC20.sol\":2233:2245  return _name */\n      dup1\n      sload\n      tag_135\n      swap1\n      tag_136\n      jump\t// in\n    tag_135:\n      dup1\n      0x1f\n      add\n      0x20\n      dup1\n      swap2\n      div\n      mul\n      0x20\n      add\n      mload(0x40)\n      swap1\n      dup2\n      add\n      0x40\n      mstore\n      dup1\n      swap3\n      swap2\n      swap1\n      dup2\n      dup2\n      mstore\n      0x20\n      add\n      dup3\n      dup1\n      sload\n      tag_137\n      swap1\n      tag_136\n      jump\t// in\n    tag_137:\n      dup1\n      iszero\n      tag_138\n      jumpi\n      dup1\n      0x1f\n      lt\n      tag_139\n      jumpi\n      0x0100\n      dup1\n      dup4\n      sload\n      div\n      mul\n      dup4\n      mstore\n      swap2\n      0x20\n      add\n      swap2\n      jump(tag_138)\n    tag_139:\n      dup3\n      add\n      swap2\n      swap1\n      0x00\n      mstore\n      keccak256(0x00, 0x20)\n      swap1\n    tag_140:\n      dup2\n      sload\n      dup2\n      mstore\n      swap1\n      0x01\n      add\n      swap1\n      0x20\n      add\n      dup1\n      dup4\n      gt\n      tag_140\n      jumpi\n      dup3\n      swap1\n      sub\n      0x1f\n      and\n      dup3\n      add\n      swap2\n    tag_138:\n      pop\n      pop\n      pop\n      pop\n      pop\n      swap1\n      pop\n        /* \"@openzeppelin/contracts/token/ERC20/ERC20.sol\":2154:2252  function name() public view virtual override returns (string memory) {... */\n      swap1\n      jump\t// out\n        /* \"contracts/DegenToken.sol\":1731:2179  function showStoreItems() external view returns (string memory) {... */\n    tag_41:\n        /* \"contracts/DegenToken.sol\":1780:1793  string memory */\n      0x60\n        /* \"contracts/DegenToken.sol\":1805:1824  string memory items */\n      0x00\n        /* \"contracts/DegenToken.sol\":1805:1853  string memory items = \"Available Store Items:\\n\" */\n      mload(0x40)\n      dup1\n      0x40\n      add\n      0x40\n      mstore\n      dup1\n      0x17\n      dup2\n      mstore\n      0x20\n      add\n      0x417661696c61626c652053746f7265204974656d733a0a000000000000000000\n      dup2\n      mstore\n      pop\n      swap1\n      pop\n        /* \"contracts/DegenToken.sol\":1868:1874  uint i */\n      0x00\n        /* \"contracts/DegenToken.sol\":1863:2151  for (uint i = 0; i < storeItems.length; i++) {... */\n    tag_142:\n        /* \"contracts/DegenToken.sol\":1884:1894  storeItems */\n      0x07\n        /* \"contracts/DegenToken.sol\":1884:1901  storeItems.length */\n      dup1\n      sload\n      swap1\n      pop\n        /* \"contracts/DegenToken.sol\":1880:1881  i */\n      dup2\n        /* \"contracts/DegenToken.sol\":1880:1901  i < storeItems.length */\n      lt\n        /* \"contracts/DegenToken.sol\":1863:2151  for (uint i = 0; i < storeItems.length; i++) {... */\n      iszero\n      tag_143\n      jumpi\n        /* \"contracts/DegenToken.sol\":1954:1959  items */\n      dup2\n        /* \"contracts/DegenToken.sol\":1978:2010  _uintToStr(storeItems[i].itemId) */\n      tag_145\n        /* \"contracts/DegenToken.sol\":1989:1999  storeItems */\n      0x07\n        /* \"contracts/DegenToken.sol\":2000:2001  i */\n      dup4\n        /* \"contracts/DegenToken.sol\":1989:2002  storeItems[i] */\n      dup2\n      sload\n      dup2\n      lt\n      tag_146\n      jumpi\n      tag_147\n      tag_148\n      jump\t// in\n    tag_147:\n    tag_146:\n      swap1\n      0x00\n      mstore\n      keccak256(0x00, 0x20)\n      swap1\n      0x03\n      mul\n      add\n        /* \"contracts/DegenToken.sol\":1989:2009  storeItems[i].itemId */\n      0x00\n      add\n      sload\n        /* \"contracts/DegenToken.sol\":1978:1988  _uintToStr */\n      tag_150\n        /* \"contracts/DegenToken.sol\":1978:2010  _uintToStr(storeItems[i].itemId) */\n      jump\t// in\n    tag_145:\n        /* \"contracts/DegenToken.sol\":2035:2045  storeItems */\n      0x07\n        /* \"contracts/DegenToken.sol\":2046:2047  i */\n      dup4\n        /* \"contracts/DegenToken.sol\":2035:2048  storeItems[i] */\n      dup2\n      sload\n      dup2\n      lt\n      tag_151\n      jumpi\n      tag_152\n      tag_148\n      jump\t// in\n    tag_152:\n    tag_151:\n      swap1\n      0x00\n      mstore\n      keccak256(0x00, 0x20)\n      swap1\n      0x03\n      mul\n      add\n        /* \"contracts/DegenToken.sol\":2035:2057  storeItems[i].itemName */\n      0x01\n      add\n        /* \"contracts/DegenToken.sol\":2082:2112  _uintToStr(storeItems[i].cost) */\n      tag_154\n        /* \"contracts/DegenToken.sol\":2093:2103  storeItems */\n      0x07\n        /* \"contracts/DegenToken.sol\":2104:2105  i */\n      dup6\n        /* \"contracts/DegenToken.sol\":2093:2106  storeItems[i] */\n      dup2\n      sload\n      dup2\n      lt\n      tag_155\n      jumpi\n      tag_156\n      tag_148\n      jump\t// in\n    tag_156:\n    tag_155:\n      swap1\n      0x00\n      mstore\n      keccak256(0x00, 0x20)\n      swap1\n      0x03\n      mul\n      add\n        /* \"contracts/DegenToken.sol\":2093:2111  storeItems[i].cost */\n      0x02\n      add\n      sload\n        /* \"contracts/DegenToken.sol\":2082:2092  _uintToStr */\n      tag_150\n        /* \"contracts/DegenToken.sol\":2082:2112  _uintToStr(storeItems[i].cost) */\n      jump\t// in\n    tag_154:\n        /* \"contracts/DegenToken.sol\":1937:2139  abi.encodePacked(items, ... */\n      add(0x20, mload(0x40))\n      tag_158\n      swap5\n      swap4\n      swap3\n      swap2\n      swap1\n      tag_159\n      jump\t// in\n    tag_158:\n      mload(0x40)\n      0x20\n      dup2\n      dup4\n      sub\n      sub\n      dup2\n      mstore\n      swap1\n      0x40\n      mstore\n        /* \"contracts/DegenToken.sol\":1922:2140  items = string(abi.encodePacked(items, ... */\n      swap2\n      pop\n        /* \"contracts/DegenToken.sol\":1903:1906  i++ */\n      dup1\n      dup1\n      tag_160\n      swap1\n      tag_161\n      jump\t// in\n    tag_160:\n      swap2\n      pop\n      pop\n        /* \"contracts/DegenToken.sol\":1863:2151  for (uint i = 0; i < storeItems.length; i++) {... */\n      jump(tag_142)\n    tag_143:\n      pop\n        /* \"contracts/DegenToken.sol\":2167:2172  items */\n      dup1\n        /* \"contracts/DegenToken.sol\":2160:2172  return items */\n      swap2\n      pop\n      pop\n        /* \"contracts/DegenToken.sol\":1731:2179  function showStoreItems() external view returns (string memory) {... */\n      swap1\n      jump\t// out\n        /* \"@openzeppelin/contracts/token/ERC20/ERC20.sol\":4431:4628  function approve(address spender, uint256 amount) public virtual override returns (bool) {... */\n    tag_46:\n        /* \"@openzeppelin/contracts/token/ERC20/ERC20.sol\":4514:4518  bool */\n      0x00\n        /* \"@openzeppelin/contracts/token/ERC20/ERC20.sol\":4530:4543  address owner */\n      dup1\n        /* \"@openzeppelin/contracts/token/ERC20/ERC20.sol\":4546:4558  _msgSender() */\n      tag_163\n        /* \"@openzeppelin/contracts/token/ERC20/ERC20.sol\":4546:4556  _msgSender */\n      tag_164\n        /* \"@openzeppelin/contracts/token/ERC20/ERC20.sol\":4546:4558  _msgSender() */\n      jump\t// in\n    tag_163:\n        /* \"@openzeppelin/contracts/token/ERC20/ERC20.sol\":4530:4558  address owner = _msgSender() */\n      swap1\n      pop\n        /* \"@openzeppelin/contracts/token/ERC20/ERC20.sol\":4568:4600  _approve(owner, spender, amount) */\n      tag_165\n        /* \"@openzeppelin/contracts/token/ERC20/ERC20.sol\":4577:4582  owner */\n      dup2\n        /* \"@openzeppelin/contracts/token/ERC20/ERC20.sol\":4584:4591  spender */\n      dup6\n        /* \"@openzeppelin/contracts/token/ERC20/ERC20.sol\":4593:4599  amount */\n      dup6\n        /* \"@openzeppelin/contracts/token/ERC20/ERC20.sol\":4568:4576  _approve */\n      tag_166\n        /* \"@openzeppelin/contracts/token/ERC20/ERC20.sol\":4568:4600  _approve(owner, spender, amount) */\n      jump\t// in\n    tag_165:\n        /* \"@openzeppelin/contracts/token/ERC20/ERC20.sol\":4617:4621  true */\n      0x01\n        /* \"@openzeppelin/contracts/token/ERC20/ERC20.sol\":4610:4621  return true */\n      swap2\n      pop\n      pop\n        /* \"@openzeppelin/contracts/token/ERC20/ERC20.sol\":4431:4628  function approve(address spender, uint256 amount) public virtual override returns (bool) {... */\n      swap3\n      swap2\n      pop\n      pop\n      jump\t// out\n        /* \"contracts/DegenToken.sol\":1507:1606  function getBalance() external view returns (uint256) {... */\n    tag_50:\n        /* \"contracts/DegenToken.sol\":1552:1559  uint256 */\n      0x00\n        /* \"contracts/DegenToken.sol\":1578:1599  balanceOf(msg.sender) */\n      tag_168\n        /* \"contracts/DegenToken.sol\":1588:1598  msg.sender */\n      caller\n        /* \"contracts/DegenToken.sol\":1578:1587  balanceOf */\n      tag_92\n        /* \"contracts/DegenToken.sol\":1578:1599  balanceOf(msg.sender) */\n      jump\t// in\n    tag_168:\n        /* \"contracts/DegenToken.sol\":1571:1599  return balanceOf(msg.sender) */\n      swap1\n      pop\n        /* \"contracts/DegenToken.sol\":1507:1606  function getBalance() external view returns (uint256) {... */\n      swap1\n      jump\t// out\n        /* \"@openzeppelin/contracts/token/ERC20/ERC20.sol\":3242:3348  function totalSupply() public view virtual override returns (uint256) {... */\n    tag_54:\n        /* \"@openzeppelin/contracts/token/ERC20/ERC20.sol\":3303:3310  uint256 */\n      0x00\n        /* \"@openzeppelin/contracts/token/ERC20/ERC20.sol\":3329:3341  _totalSupply */\n      sload(0x02)\n        /* \"@openzeppelin/contracts/token/ERC20/ERC20.sol\":3322:3341  return _totalSupply */\n      swap1\n      pop\n        /* \"@openzeppelin/contracts/token/ERC20/ERC20.sol\":3242:3348  function totalSupply() public view virtual override returns (uint256) {... */\n      swap1\n      jump\t// out\n        /* \"@openzeppelin/contracts/token/ERC20/ERC20.sol\":5190:5476  function transferFrom(... */\n    tag_59:\n        /* \"@openzeppelin/contracts/token/ERC20/ERC20.sol\":5317:5321  bool */\n      0x00\n        /* \"@openzeppelin/contracts/token/ERC20/ERC20.sol\":5333:5348  address spender */\n      dup1\n        /* \"@openzeppelin/contracts/token/ERC20/ERC20.sol\":5351:5363  _msgSender() */\n      tag_171\n        /* \"@openzeppelin/contracts/token/ERC20/ERC20.sol\":5351:5361  _msgSender */\n      tag_164\n        /* \"@openzeppelin/contracts/token/ERC20/ERC20.sol\":5351:5363  _msgSender() */\n      jump\t// in\n    tag_171:\n        /* \"@openzeppelin/contracts/token/ERC20/ERC20.sol\":5333:5363  address spender = _msgSender() */\n      swap1\n      pop\n        /* \"@openzeppelin/contracts/token/ERC20/ERC20.sol\":5373:5411  _spendAllowance(from, spender, amount) */\n      tag_172\n        /* \"@openzeppelin/contracts/token/ERC20/ERC20.sol\":5389:5393  from */\n      dup6\n        /* \"@openzeppelin/contracts/token/ERC20/ERC20.sol\":5395:5402  spender */\n      dup3\n        /* \"@openzeppelin/contracts/token/ERC20/ERC20.sol\":5404:5410  amount */\n      dup6\n        /* \"@openzeppelin/contracts/token/ERC20/ERC20.sol\":5373:5388  _spendAllowance */\n      tag_173\n        /* \"@openzeppelin/contracts/token/ERC20/ERC20.sol\":5373:5411  _spendAllowance(from, spender, amount) */\n      jump\t// in\n    tag_172:\n        /* \"@openzeppelin/contracts/token/ERC20/ERC20.sol\":5421:5448  _transfer(from, to, amount) */\n      tag_174\n        /* \"@openzeppelin/contracts/token/ERC20/ERC20.sol\":5431:5435  from */\n      dup6\n        /* \"@openzeppelin/contracts/token/ERC20/ERC20.sol\":5437:5439  to */\n      dup6\n        /* \"@openzeppelin/contracts/token/ERC20/ERC20.sol\":5441:5447  amount */\n      dup6\n        /* \"@openzeppelin/contracts/token/ERC20/ERC20.sol\":5421:5430  _transfer */\n      tag_175\n        /* \"@openzeppelin/contracts/token/ERC20/ERC20.sol\":5421:5448  _transfer(from, to, amount) */\n      jump\t// in\n    tag_174:\n        /* \"@openzeppelin/contracts/token/ERC20/ERC20.sol\":5465:5469  true */\n      0x01\n        /* \"@openzeppelin/contracts/token/ERC20/ERC20.sol\":5458:5469  return true */\n      swap2\n      pop\n      pop\n        /* \"@openzeppelin/contracts/token/ERC20/ERC20.sol\":5190:5476  function transferFrom(... */\n      swap4\n      swap3\n      pop\n      pop\n      pop\n      jump\t// out\n        /* \"contracts/DegenToken.sol\":857:939  function decimals() public pure override returns (uint8) {... */\n    tag_62:\n        /* \"contracts/DegenToken.sol\":907:912  uint8 */\n      0x00\n        /* \"contracts/DegenToken.sol\":857:939  function decimals() public pure override returns (uint8) {... */\n      swap1\n      jump\t// out\n        /* \"@openzeppelin/contracts/token/ERC20/ERC20.sol\":5871:6105  function increaseAllowance(address spender, uint256 addedValue) public virtual returns (bool) {... */\n    tag_67:\n        /* \"@openzeppelin/contracts/token/ERC20/ERC20.sol\":5959:5963  bool */\n      0x00\n        /* \"@openzeppelin/contracts/token/ERC20/ERC20.sol\":5975:5988  address owner */\n      dup1\n        /* \"@openzeppelin/contracts/token/ERC20/ERC20.sol\":5991:6003  _msgSender() */\n      tag_178\n        /* \"@openzeppelin/contracts/token/ERC20/ERC20.sol\":5991:6001  _msgSender */\n      tag_164\n        /* \"@openzeppelin/contracts/token/ERC20/ERC20.sol\":5991:6003  _msgSender() */\n      jump\t// in\n    tag_178:\n        /* \"@openzeppelin/contracts/token/ERC20/ERC20.sol\":5975:6003  address owner = _msgSender() */\n      swap1\n      pop\n        /* \"@openzeppelin/contracts/token/ERC20/ERC20.sol\":6013:6077  _approve(owner, spender, allowance(owner, spender) + addedValue) */\n      tag_179\n        /* \"@openzeppelin/contracts/token/ERC20/ERC20.sol\":6022:6027  owner */\n      dup2\n        /* \"@openzeppelin/contracts/token/ERC20/ERC20.sol\":6029:6036  spender */\n      dup6\n        /* \"@openzeppelin/contracts/token/ERC20/ERC20.sol\":6066:6076  addedValue */\n      dup6\n        /* \"@openzeppelin/contracts/token/ERC20/ERC20.sol\":6038:6063  allowance(owner, spender) */\n      tag_180\n        /* \"@openzeppelin/contracts/token/ERC20/ERC20.sol\":6048:6053  owner */\n      dup6\n        /* \"@openzeppelin/contracts/token/ERC20/ERC20.sol\":6055:6062  spender */\n      dup10\n        /* \"@openzeppelin/contracts/token/ERC20/ERC20.sol\":6038:6047  allowance */\n      tag_129\n        /* \"@openzeppelin/contracts/token/ERC20/ERC20.sol\":6038:6063  allowance(owner, spender) */\n      jump\t// in\n    tag_180:\n        /* \"@openzeppelin/contracts/token/ERC20/ERC20.sol\":6038:6076  allowance(owner, spender) + addedValue */\n      tag_181\n      swap2\n      swap1\n      tag_182\n      jump\t// in\n    tag_181:\n        /* \"@openzeppelin/contracts/token/ERC20/ERC20.sol\":6013:6021  _approve */\n      tag_166\n        /* \"@openzeppelin/contracts/token/ERC20/ERC20.sol\":6013:6077  _approve(owner, spender, allowance(owner, spender) + addedValue) */\n      jump\t// in\n    tag_179:\n        /* \"@openzeppelin/contracts/token/ERC20/ERC20.sol\":6094:6098  true */\n      0x01\n        /* \"@openzeppelin/contracts/token/ERC20/ERC20.sol\":6087:6098  return true */\n      swap2\n      pop\n      pop\n        /* \"@openzeppelin/contracts/token/ERC20/ERC20.sol\":5871:6105  function increaseAllowance(address spender, uint256 addedValue) public virtual returns (bool) {... */\n      swap3\n      swap2\n      pop\n      pop\n      jump\t// out\n        /* \"contracts/DegenToken.sol\":2890:2955  function unpause() external onlyOwner {... */\n    tag_70:\n        /* \"@openzeppelin/contracts/access/Ownable.sol\":1094:1107  _checkOwner() */\n      tag_184\n        /* \"@openzeppelin/contracts/access/Ownable.sol\":1094:1105  _checkOwner */\n      tag_185\n        /* \"@openzeppelin/contracts/access/Ownable.sol\":1094:1107  _checkOwner() */\n      jump\t// in\n    tag_184:\n        /* \"contracts/DegenToken.sol\":2938:2948  _unpause() */\n      tag_187\n        /* \"contracts/DegenToken.sol\":2938:2946  _unpause */\n      tag_188\n        /* \"contracts/DegenToken.sol\":2938:2948  _unpause() */\n      jump\t// in\n    tag_187:\n        /* \"contracts/DegenToken.sol\":2890:2955  function unpause() external onlyOwner {... */\n      jump\t// out\n        /* \"contracts/DegenToken.sol\":742:851  function mint(address to, uint256 amount) external onlyOwner whenNotPaused {... */\n    tag_73:\n        /* \"@openzeppelin/contracts/access/Ownable.sol\":1094:1107  _checkOwner() */\n      tag_190\n        /* \"@openzeppelin/contracts/access/Ownable.sol\":1094:1105  _checkOwner */\n      tag_185\n        /* \"@openzeppelin/contracts/access/Ownable.sol\":1094:1107  _checkOwner() */\n      jump\t// in\n    tag_190:\n        /* \"@openzeppelin/contracts/security/Pausable.sol\":1239:1258  _requireNotPaused() */\n      tag_192\n        /* \"@openzeppelin/contracts/security/Pausable.sol\":1239:1256  _requireNotPaused */\n      tag_193\n        /* \"@openzeppelin/contracts/security/Pausable.sol\":1239:1258  _requireNotPaused() */\n      jump\t// in\n    tag_192:\n        /* \"contracts/DegenToken.sol\":827:844  _mint(to, amount) */\n      tag_195\n        /* \"contracts/DegenToken.sol\":833:835  to */\n      dup3\n        /* \"contracts/DegenToken.sol\":837:843  amount */\n      dup3\n        /* \"contracts/DegenToken.sol\":827:832  _mint */\n      tag_196\n        /* \"contracts/DegenToken.sol\":827:844  _mint(to, amount) */\n      jump\t// in\n    tag_195:\n        /* \"contracts/DegenToken.sol\":742:851  function mint(address to, uint256 amount) external onlyOwner whenNotPaused {... */\n      pop\n      pop\n      jump\t// out\n        /* \"@openzeppelin/contracts/token/ERC20/extensions/ERC20Burnable.sol\":578:667  function burn(uint256 amount) public virtual {... */\n    tag_77:\n        /* \"@openzeppelin/contracts/token/ERC20/extensions/ERC20Burnable.sol\":633:660  _burn(_msgSender(), amount) */\n      tag_198\n        /* \"@openzeppelin/contracts/token/ERC20/extensions/ERC20Burnable.sol\":639:651  _msgSender() */\n      tag_199\n        /* \"@openzeppelin/contracts/token/ERC20/extensions/ERC20Burnable.sol\":639:649  _msgSender */\n      tag_164\n        /* \"@openzeppelin/contracts/token/ERC20/extensions/ERC20Burnable.sol\":639:651  _msgSender() */\n      jump\t// in\n    tag_199:\n        /* \"@openzeppelin/contracts/token/ERC20/extensions/ERC20Burnable.sol\":653:659  amount */\n      dup3\n        /* \"@openzeppelin/contracts/token/ERC20/extensions/ERC20Burnable.sol\":633:638  _burn */\n      tag_200\n        /* \"@openzeppelin/contracts/token/ERC20/extensions/ERC20Burnable.sol\":633:660  _burn(_msgSender(), amount) */\n      jump\t// in\n    tag_198:\n        /* \"@openzeppelin/contracts/token/ERC20/extensions/ERC20Burnable.sol\":578:667  function burn(uint256 amount) public virtual {... */\n      pop\n      jump\t// out\n        /* \"contracts/DegenToken.sol\":625:654  StoreItem[] public storeItems */\n    tag_80:\n      0x07\n      dup2\n      dup2\n      sload\n      dup2\n      lt\n      tag_201\n      jumpi\n      0x00\n      dup1\n      revert\n    tag_201:\n      swap1\n      0x00\n      mstore\n      keccak256(0x00, 0x20)\n      swap1\n      0x03\n      mul\n      add\n      0x00\n      swap2\n      pop\n      swap1\n      pop\n      dup1\n      0x00\n      add\n      sload\n      swap1\n      dup1\n      0x01\n      add\n      dup1\n      sload\n      tag_203\n      swap1\n      tag_136\n      jump\t// in\n    tag_203:\n      dup1\n      0x1f\n      add\n      0x20\n      dup1\n      swap2\n      div\n      mul\n      0x20\n      add\n      mload(0x40)\n      swap1\n      dup2\n      add\n      0x40\n      mstore\n      dup1\n      swap3\n      swap2\n      swap1\n      dup2\n      dup2\n      mstore\n      0x20\n      add\n      dup3\n      dup1\n      sload\n      tag_204\n      swap1\n      tag_136\n      jump\t// in\n    tag_204:\n      dup1\n      iszero\n      tag_205\n      jumpi\n      dup1\n      0x1f\n      lt\n      tag_206\n      jumpi\n      0x0100\n      dup1\n      dup4\n      sload\n      div\n      mul\n      dup4\n      mstore\n      swap2\n      0x20\n      add\n      swap2\n      jump(tag_205)\n    tag_206:\n      dup3\n      add\n      swap2\n      swap1\n      0x00\n      mstore\n      keccak256(0x00, 0x20)\n      swap1\n    tag_207:\n      dup2\n      sload\n      dup2\n      mstore\n      swap1\n      0x01\n      add\n      swap1\n      0x20\n      add\n      dup1\n      dup4\n      gt\n      tag_207\n      jumpi\n      dup3\n      swap1\n      sub\n      0x1f\n      and\n      dup3\n      add\n      swap2\n    tag_205:\n      pop\n      pop\n      pop\n      pop\n      pop\n      swap1\n      dup1\n      0x02\n      add\n      sload\n      swap1\n      pop\n      dup4\n      jump\t// out\n        /* \"@openzeppelin/contracts/security/Pausable.sol\":1615:1699  function paused() public view virtual returns (bool) {... */\n    tag_84:\n        /* \"@openzeppelin/contracts/security/Pausable.sol\":1662:1666  bool */\n      0x00\n        /* \"@openzeppelin/contracts/security/Pausable.sol\":1685:1692  _paused */\n      0x05\n      0x14\n      swap1\n      sload\n      swap1\n      0x0100\n      exp\n      swap1\n      div\n      0xff\n      and\n        /* \"@openzeppelin/contracts/security/Pausable.sol\":1678:1692  return _paused */\n      swap1\n      pop\n        /* \"@openzeppelin/contracts/security/Pausable.sol\":1615:1699  function paused() public view virtual returns (bool) {... */\n      swap1\n      jump\t// out\n        /* \"contracts/DegenToken.sol\":1099:1211  function burnTokens(uint256 value) external whenNotPaused nonReentrant {... */\n    tag_88:\n        /* \"@openzeppelin/contracts/security/Pausable.sol\":1239:1258  _requireNotPaused() */\n      tag_210\n        /* \"@openzeppelin/contracts/security/Pausable.sol\":1239:1256  _requireNotPaused */\n      tag_193\n        /* \"@openzeppelin/contracts/security/Pausable.sol\":1239:1258  _requireNotPaused() */\n      jump\t// in\n    tag_210:\n        /* \"@openzeppelin/contracts/security/ReentrancyGuard.sol\":2261:2282  _nonReentrantBefore() */\n      tag_212\n        /* \"@openzeppelin/contracts/security/ReentrancyGuard.sol\":2261:2280  _nonReentrantBefore */\n      tag_213\n        /* \"@openzeppelin/contracts/security/ReentrancyGuard.sol\":2261:2282  _nonReentrantBefore() */\n      jump\t// in\n    tag_212:\n        /* \"contracts/DegenToken.sol\":1180:1204  _burn(msg.sender, value) */\n      tag_215\n        /* \"contracts/DegenToken.sol\":1186:1196  msg.sender */\n      caller\n        /* \"contracts/DegenToken.sol\":1198:1203  value */\n      dup3\n        /* \"contracts/DegenToken.sol\":1180:1185  _burn */\n      tag_200\n        /* \"contracts/DegenToken.sol\":1180:1204  _burn(msg.sender, value) */\n      jump\t// in\n    tag_215:\n        /* \"@openzeppelin/contracts/security/ReentrancyGuard.sol\":2303:2323  _nonReentrantAfter() */\n      tag_216\n        /* \"@openzeppelin/contracts/security/ReentrancyGuard.sol\":2303:2321  _nonReentrantAfter */\n      tag_217\n        /* \"@openzeppelin/contracts/security/ReentrancyGuard.sol\":2303:2323  _nonReentrantAfter() */\n      jump\t// in\n    tag_216:\n        /* \"contracts/DegenToken.sol\":1099:1211  function burnTokens(uint256 value) external whenNotPaused nonReentrant {... */\n      pop\n      jump\t// out\n        /* \"@openzeppelin/contracts/token/ERC20/ERC20.sol\":3406:3531  function balanceOf(address account) public view virtual override returns (uint256) {... */\n    tag_92:\n        /* \"@openzeppelin/contracts/token/ERC20/ERC20.sol\":3480:3487  uint256 */\n      0x00\n        /* \"@openzeppelin/contracts/token/ERC20/ERC20.sol\":3506:3515  _balances */\n      dup1\n        /* \"@openzeppelin/contracts/token/ERC20/ERC20.sol\":3506:3524  _balances[account] */\n      0x00\n        /* \"@openzeppelin/contracts/token/ERC20/ERC20.sol\":3516:3523  account */\n      dup4\n        /* \"@openzeppelin/contracts/token/ERC20/ERC20.sol\":3506:3524  _balances[account] */\n      0xffffffffffffffffffffffffffffffffffffffff\n      and\n      0xffffffffffffffffffffffffffffffffffffffff\n      and\n      dup2\n      mstore\n      0x20\n      add\n      swap1\n      dup2\n      mstore\n      0x20\n      add\n      0x00\n      keccak256\n      sload\n        /* \"@openzeppelin/contracts/token/ERC20/ERC20.sol\":3499:3524  return _balances[account] */\n      swap1\n      pop\n        /* \"@openzeppelin/contracts/token/ERC20/ERC20.sol\":3406:3531  function balanceOf(address account) public view virtual override returns (uint256) {... */\n      swap2\n      swap1\n      pop\n      jump\t// out\n        /* \"@openzeppelin/contracts/access/Ownable.sol\":1831:1932  function renounceOwnership() public virtual onlyOwner {... */\n    tag_95:\n        /* \"@openzeppelin/contracts/access/Ownable.sol\":1094:1107  _checkOwner() */\n      tag_220\n        /* \"@openzeppelin/contracts/access/Ownable.sol\":1094:1105  _checkOwner */\n      tag_185\n        /* \"@openzeppelin/contracts/access/Ownable.sol\":1094:1107  _checkOwner() */\n      jump\t// in\n    tag_220:\n        /* \"@openzeppelin/contracts/access/Ownable.sol\":1895:1925  _transferOwnership(address(0)) */\n      tag_222\n        /* \"@openzeppelin/contracts/access/Ownable.sol\":1922:1923  0 */\n      0x00\n        /* \"@openzeppelin/contracts/access/Ownable.sol\":1895:1913  _transferOwnership */\n      tag_223\n        /* \"@openzeppelin/contracts/access/Ownable.sol\":1895:1925  _transferOwnership(address(0)) */\n      jump\t// in\n    tag_222:\n        /* \"@openzeppelin/contracts/access/Ownable.sol\":1831:1932  function renounceOwnership() public virtual onlyOwner {... */\n      jump\t// out\n        /* \"@openzeppelin/contracts/token/ERC20/extensions/ERC20Burnable.sol\":973:1134  function burnFrom(address account, uint256 amount) public virtual {... */\n    tag_98:\n        /* \"@openzeppelin/contracts/token/ERC20/extensions/ERC20Burnable.sol\":1049:1095  _spendAllowance(account, _msgSender(), amount) */\n      tag_225\n        /* \"@openzeppelin/contracts/token/ERC20/extensions/ERC20Burnable.sol\":1065:1072  account */\n      dup3\n        /* \"@openzeppelin/contracts/token/ERC20/extensions/ERC20Burnable.sol\":1074:1086  _msgSender() */\n      tag_226\n        /* \"@openzeppelin/contracts/token/ERC20/extensions/ERC20Burnable.sol\":1074:1084  _msgSender */\n      tag_164\n        /* \"@openzeppelin/contracts/token/ERC20/extensions/ERC20Burnable.sol\":1074:1086  _msgSender() */\n      jump\t// in\n    tag_226:\n        /* \"@openzeppelin/contracts/token/ERC20/extensions/ERC20Burnable.sol\":1088:1094  amount */\n      dup4\n        /* \"@openzeppelin/contracts/token/ERC20/extensions/ERC20Burnable.sol\":1049:1064  _spendAllowance */\n      tag_173\n        /* \"@openzeppelin/contracts/token/ERC20/extensions/ERC20Burnable.sol\":1049:1095  _spendAllowance(account, _msgSender(), amount) */\n      jump\t// in\n    tag_225:\n        /* \"@openzeppelin/contracts/token/ERC20/extensions/ERC20Burnable.sol\":1105:1127  _burn(account, amount) */\n      tag_227\n        /* \"@openzeppelin/contracts/token/ERC20/extensions/ERC20Burnable.sol\":1111:1118  account */\n      dup3\n        /* \"@openzeppelin/contracts/token/ERC20/extensions/ERC20Burnable.sol\":1120:1126  amount */\n      dup3\n        /* \"@openzeppelin/contracts/token/ERC20/extensions/ERC20Burnable.sol\":1105:1110  _burn */\n      tag_200\n        /* \"@openzeppelin/contracts/token/ERC20/extensions/ERC20Burnable.sol\":1105:1127  _burn(account, amount) */\n      jump\t// in\n    tag_227:\n        /* \"@openzeppelin/contracts/token/ERC20/extensions/ERC20Burnable.sol\":973:1134  function burnFrom(address account, uint256 amount) public virtual {... */\n      pop\n      pop\n      jump\t// out\n        /* \"contracts/DegenToken.sol\":2823:2884  function pause() external onlyOwner {... */\n    tag_100:\n        /* \"@openzeppelin/contracts/access/Ownable.sol\":1094:1107  _checkOwner() */\n      tag_229\n        /* \"@openzeppelin/contracts/access/Ownable.sol\":1094:1105  _checkOwner */\n      tag_185\n        /* \"@openzeppelin/contracts/access/Ownable.sol\":1094:1107  _checkOwner() */\n      jump\t// in\n    tag_229:\n        /* \"contracts/DegenToken.sol\":2869:2877  _pause() */\n      tag_231\n        /* \"contracts/DegenToken.sol\":2869:2875  _pause */\n      tag_232\n        /* \"contracts/DegenToken.sol\":2869:2877  _pause() */\n      jump\t// in\n    tag_231:\n        /* \"contracts/DegenToken.sol\":2823:2884  function pause() external onlyOwner {... */\n      jump\t// out\n        /* \"@openzeppelin/contracts/access/Ownable.sol\":1201:1286  function owner() public view virtual returns (address) {... */\n    tag_102:\n        /* \"@openzeppelin/contracts/access/Ownable.sol\":1247:1254  address */\n      0x00\n        /* \"@openzeppelin/contracts/access/Ownable.sol\":1273:1279  _owner */\n      0x05\n      0x00\n      swap1\n      sload\n      swap1\n      0x0100\n      exp\n      swap1\n      div\n      0xffffffffffffffffffffffffffffffffffffffff\n      and\n        /* \"@openzeppelin/contracts/access/Ownable.sol\":1266:1279  return _owner */\n      swap1\n      pop\n        /* \"@openzeppelin/contracts/access/Ownable.sol\":1201:1286  function owner() public view virtual returns (address) {... */\n      swap1\n      jump\t// out\n        /* \"@openzeppelin/contracts/token/ERC20/ERC20.sol\":2365:2467  function symbol() public view virtual override returns (string memory) {... */\n    tag_106:\n        /* \"@openzeppelin/contracts/token/ERC20/ERC20.sol\":2421:2434  string memory */\n      0x60\n        /* \"@openzeppelin/contracts/token/ERC20/ERC20.sol\":2453:2460  _symbol */\n      0x04\n        /* \"@openzeppelin/contracts/token/ERC20/ERC20.sol\":2446:2460  return _symbol */\n      dup1\n      sload\n      tag_235\n      swap1\n      tag_136\n      jump\t// in\n    tag_235:\n      dup1\n      0x1f\n      add\n      0x20\n      dup1\n      swap2\n      div\n      mul\n      0x20\n      add\n      mload(0x40)\n      swap1\n      dup2\n      add\n      0x40\n      mstore\n      dup1\n      swap3\n      swap2\n      swap1\n      dup2\n      dup2\n      mstore\n      0x20\n      add\n      dup3\n      dup1\n      sload\n      tag_236\n      swap1\n      tag_136\n      jump\t// in\n    tag_236:\n      dup1\n      iszero\n      tag_237\n      jumpi\n      dup1\n      0x1f\n      lt\n      tag_238\n      jumpi\n      0x0100\n      dup1\n      dup4\n      sload\n      div\n      mul\n      dup4\n      mstore\n      swap2\n      0x20\n      add\n      swap2\n      jump(tag_237)\n    tag_238:\n      dup3\n      add\n      swap2\n      swap1\n      0x00\n      mstore\n      keccak256(0x00, 0x20)\n      swap1\n    tag_239:\n      dup2\n      sload\n      dup2\n      mstore\n      swap1\n      0x01\n      add\n      swap1\n      0x20\n      add\n      dup1\n      dup4\n      gt\n      tag_239\n      jumpi\n      dup3\n      swap1\n      sub\n      0x1f\n      and\n      dup3\n      add\n      swap2\n    tag_237:\n      pop\n      pop\n      pop\n      pop\n      pop\n      swap1\n      pop\n        /* \"@openzeppelin/contracts/token/ERC20/ERC20.sol\":2365:2467  function symbol() public view virtual override returns (string memory) {... */\n      swap1\n      jump\t// out\n        /* \"contracts/DegenToken.sol\":1612:1725  function getBalanceOf(address account) external view returns (uint256) {... */\n    tag_110:\n        /* \"contracts/DegenToken.sol\":1674:1681  uint256 */\n      0x00\n        /* \"contracts/DegenToken.sol\":1700:1718  balanceOf(account) */\n      tag_241\n        /* \"contracts/DegenToken.sol\":1710:1717  account */\n      dup3\n        /* \"contracts/DegenToken.sol\":1700:1709  balanceOf */\n      tag_92\n        /* \"contracts/DegenToken.sol\":1700:1718  balanceOf(account) */\n      jump\t// in\n    tag_241:\n        /* \"contracts/DegenToken.sol\":1693:1718  return balanceOf(account) */\n      swap1\n      pop\n        /* \"contracts/DegenToken.sol\":1612:1725  function getBalanceOf(address account) external view returns (uint256) {... */\n      swap2\n      swap1\n      pop\n      jump\t// out\n        /* \"@openzeppelin/contracts/token/ERC20/ERC20.sol\":6592:7019  function decreaseAllowance(address spender, uint256 subtractedValue) public virtual returns (bool) {... */\n    tag_114:\n        /* \"@openzeppelin/contracts/token/ERC20/ERC20.sol\":6685:6689  bool */\n      0x00\n        /* \"@openzeppelin/contracts/token/ERC20/ERC20.sol\":6701:6714  address owner */\n      dup1\n        /* \"@openzeppelin/contracts/token/ERC20/ERC20.sol\":6717:6729  _msgSender() */\n      tag_243\n        /* \"@openzeppelin/contracts/token/ERC20/ERC20.sol\":6717:6727  _msgSender */\n      tag_164\n        /* \"@openzeppelin/contracts/token/ERC20/ERC20.sol\":6717:6729  _msgSender() */\n      jump\t// in\n    tag_243:\n        /* \"@openzeppelin/contracts/token/ERC20/ERC20.sol\":6701:6729  address owner = _msgSender() */\n      swap1\n      pop\n        /* \"@openzeppelin/contracts/token/ERC20/ERC20.sol\":6739:6763  uint256 currentAllowance */\n      0x00\n        /* \"@openzeppelin/contracts/token/ERC20/ERC20.sol\":6766:6791  allowance(owner, spender) */\n      tag_244\n        /* \"@openzeppelin/contracts/token/ERC20/ERC20.sol\":6776:6781  owner */\n      dup3\n        /* \"@openzeppelin/contracts/token/ERC20/ERC20.sol\":6783:6790  spender */\n      dup7\n        /* \"@openzeppelin/contracts/token/ERC20/ERC20.sol\":6766:6775  allowance */\n      tag_129\n        /* \"@openzeppelin/contracts/token/ERC20/ERC20.sol\":6766:6791  allowance(owner, spender) */\n      jump\t// in\n    tag_244:\n        /* \"@openzeppelin/contracts/token/ERC20/ERC20.sol\":6739:6791  uint256 currentAllowance = allowance(owner, spender) */\n      swap1\n      pop\n        /* \"@openzeppelin/contracts/token/ERC20/ERC20.sol\":6829:6844  subtractedValue */\n      dup4\n        /* \"@openzeppelin/contracts/token/ERC20/ERC20.sol\":6809:6825  currentAllowance */\n      dup2\n        /* \"@openzeppelin/contracts/token/ERC20/ERC20.sol\":6809:6844  currentAllowance >= subtractedValue */\n      lt\n      iszero\n        /* \"@openzeppelin/contracts/token/ERC20/ERC20.sol\":6801:6886  require(currentAllowance >= subtractedValue, \"ERC20: decreased allowance below zero\") */\n      tag_245\n      jumpi\n      mload(0x40)\n      0x08c379a000000000000000000000000000000000000000000000000000000000\n      dup2\n      mstore\n      0x04\n      add\n      tag_246\n      swap1\n      tag_247\n      jump\t// in\n    tag_246:\n      mload(0x40)\n      dup1\n      swap2\n      sub\n      swap1\n      revert\n    tag_245:\n        /* \"@openzeppelin/contracts/token/ERC20/ERC20.sol\":6920:6980  _approve(owner, spender, currentAllowance - subtractedValue) */\n      tag_248\n        /* \"@openzeppelin/contracts/token/ERC20/ERC20.sol\":6929:6934  owner */\n      dup3\n        /* \"@openzeppelin/contracts/token/ERC20/ERC20.sol\":6936:6943  spender */\n      dup7\n        /* \"@openzeppelin/contracts/token/ERC20/ERC20.sol\":6964:6979  subtractedValue */\n      dup7\n        /* \"@openzeppelin/contracts/token/ERC20/ERC20.sol\":6945:6961  currentAllowance */\n      dup5\n        /* \"@openzeppelin/contracts/token/ERC20/ERC20.sol\":6945:6979  currentAllowance - subtractedValue */\n      sub\n        /* \"@openzeppelin/contracts/token/ERC20/ERC20.sol\":6920:6928  _approve */\n      tag_166\n        /* \"@openzeppelin/contracts/token/ERC20/ERC20.sol\":6920:6980  _approve(owner, spender, currentAllowance - subtractedValue) */\n      jump\t// in\n    tag_248:\n        /* \"@openzeppelin/contracts/token/ERC20/ERC20.sol\":7008:7012  true */\n      0x01\n        /* \"@openzeppelin/contracts/token/ERC20/ERC20.sol\":7001:7012  return true */\n      swap3\n      pop\n      pop\n      pop\n        /* \"@openzeppelin/contracts/token/ERC20/ERC20.sol\":6592:7019  function decreaseAllowance(address spender, uint256 subtractedValue) public virtual returns (bool) {... */\n      swap3\n      swap2\n      pop\n      pop\n      jump\t// out\n        /* \"contracts/DegenToken.sol\":1217:1501  function redeemTokens(uint256 itemId) external whenNotPaused nonReentrant {... */\n    tag_118:\n        /* \"@openzeppelin/contracts/security/Pausable.sol\":1239:1258  _requireNotPaused() */\n      tag_250\n        /* \"@openzeppelin/contracts/security/Pausable.sol\":1239:1256  _requireNotPaused */\n      tag_193\n        /* \"@openzeppelin/contracts/security/Pausable.sol\":1239:1258  _requireNotPaused() */\n      jump\t// in\n    tag_250:\n        /* \"@openzeppelin/contracts/security/ReentrancyGuard.sol\":2261:2282  _nonReentrantBefore() */\n      tag_252\n        /* \"@openzeppelin/contracts/security/ReentrancyGuard.sol\":2261:2280  _nonReentrantBefore */\n      tag_213\n        /* \"@openzeppelin/contracts/security/ReentrancyGuard.sol\":2261:2282  _nonReentrantBefore() */\n      jump\t// in\n    tag_252:\n        /* \"contracts/DegenToken.sol\":1301:1313  uint256 cost */\n      0x00\n        /* \"contracts/DegenToken.sol\":1316:1336  _getItemCost(itemId) */\n      tag_254\n        /* \"contracts/DegenToken.sol\":1329:1335  itemId */\n      dup3\n        /* \"contracts/DegenToken.sol\":1316:1328  _getItemCost */\n      tag_255\n        /* \"contracts/DegenToken.sol\":1316:1336  _getItemCost(itemId) */\n      jump\t// in\n    tag_254:\n        /* \"contracts/DegenToken.sol\":1301:1336  uint256 cost = _getItemCost(itemId) */\n      swap1\n      pop\n        /* \"contracts/DegenToken.sol\":1379:1383  cost */\n      dup1\n        /* \"contracts/DegenToken.sol\":1354:1375  balanceOf(msg.sender) */\n      tag_256\n        /* \"contracts/DegenToken.sol\":1364:1374  msg.sender */\n      caller\n        /* \"contracts/DegenToken.sol\":1354:1363  balanceOf */\n      tag_92\n        /* \"contracts/DegenToken.sol\":1354:1375  balanceOf(msg.sender) */\n      jump\t// in\n    tag_256:\n        /* \"contracts/DegenToken.sol\":1354:1383  balanceOf(msg.sender) >= cost */\n      lt\n      iszero\n        /* \"contracts/DegenToken.sol\":1346:1408  require(balanceOf(msg.sender) >= cost, \"Insufficient tokens.\") */\n      tag_257\n      jumpi\n      mload(0x40)\n      0x08c379a000000000000000000000000000000000000000000000000000000000\n      dup2\n      mstore\n      0x04\n      add\n      tag_258\n      swap1\n      tag_259\n      jump\t// in\n    tag_258:\n      mload(0x40)\n      dup1\n      swap2\n      sub\n      swap1\n      revert\n    tag_257:\n        /* \"contracts/DegenToken.sol\":1418:1441  _burn(msg.sender, cost) */\n      tag_260\n        /* \"contracts/DegenToken.sol\":1424:1434  msg.sender */\n      caller\n        /* \"contracts/DegenToken.sol\":1436:1440  cost */\n      dup3\n        /* \"contracts/DegenToken.sol\":1418:1423  _burn */\n      tag_200\n        /* \"contracts/DegenToken.sol\":1418:1441  _burn(msg.sender, cost) */\n      jump\t// in\n    tag_260:\n        /* \"contracts/DegenToken.sol\":1469:1479  msg.sender */\n      caller\n        /* \"contracts/DegenToken.sol\":1456:1494  ItemRedeemed(msg.sender, itemId, cost) */\n      0xffffffffffffffffffffffffffffffffffffffff\n      and\n      0xe5af1fa255773dc28638b90f9c5e6e6c617350addb7abb7d2930d4d2db5a0536\n        /* \"contracts/DegenToken.sol\":1481:1487  itemId */\n      dup4\n        /* \"contracts/DegenToken.sol\":1489:1493  cost */\n      dup4\n        /* \"contracts/DegenToken.sol\":1456:1494  ItemRedeemed(msg.sender, itemId, cost) */\n      mload(0x40)\n      tag_261\n      swap3\n      swap2\n      swap1\n      tag_262\n      jump\t// in\n    tag_261:\n      mload(0x40)\n      dup1\n      swap2\n      sub\n      swap1\n      log2\n        /* \"contracts/DegenToken.sol\":1291:1501  {... */\n      pop\n        /* \"@openzeppelin/contracts/security/ReentrancyGuard.sol\":2303:2323  _nonReentrantAfter() */\n      tag_263\n        /* \"@openzeppelin/contracts/security/ReentrancyGuard.sol\":2303:2321  _nonReentrantAfter */\n      tag_217\n        /* \"@openzeppelin/contracts/security/ReentrancyGuard.sol\":2303:2323  _nonReentrantAfter() */\n      jump\t// in\n    tag_263:\n        /* \"contracts/DegenToken.sol\":1217:1501  function redeemTokens(uint256 itemId) external whenNotPaused nonReentrant {... */\n      pop\n      jump\t// out\n        /* \"@openzeppelin/contracts/token/ERC20/ERC20.sol\":3727:3916  function transfer(address to, uint256 amount) public virtual override returns (bool) {... */\n    tag_121:\n        /* \"@openzeppelin/contracts/token/ERC20/ERC20.sol\":3806:3810  bool */\n      0x00\n        /* \"@openzeppelin/contracts/token/ERC20/ERC20.sol\":3822:3835  address owner */\n      dup1\n        /* \"@openzeppelin/contracts/token/ERC20/ERC20.sol\":3838:3850  _msgSender() */\n      tag_265\n        /* \"@openzeppelin/contracts/token/ERC20/ERC20.sol\":3838:3848  _msgSender */\n      tag_164\n        /* \"@openzeppelin/contracts/token/ERC20/ERC20.sol\":3838:3850  _msgSender() */\n      jump\t// in\n    tag_265:\n        /* \"@openzeppelin/contracts/token/ERC20/ERC20.sol\":3822:3850  address owner = _msgSender() */\n      swap1\n      pop\n        /* \"@openzeppelin/contracts/token/ERC20/ERC20.sol\":3860:3888  _transfer(owner, to, amount) */\n      tag_266\n        /* \"@openzeppelin/contracts/token/ERC20/ERC20.sol\":3870:3875  owner */\n      dup2\n        /* \"@openzeppelin/contracts/token/ERC20/ERC20.sol\":3877:3879  to */\n      dup6\n        /* \"@openzeppelin/contracts/token/ERC20/ERC20.sol\":3881:3887  amount */\n      dup6\n        /* \"@openzeppelin/contracts/token/ERC20/ERC20.sol\":3860:3869  _transfer */\n      tag_175\n        /* \"@openzeppelin/contracts/token/ERC20/ERC20.sol\":3860:3888  _transfer(owner, to, amount) */\n      jump\t// in\n    tag_266:\n        /* \"@openzeppelin/contracts/token/ERC20/ERC20.sol\":3905:3909  true */\n      0x01\n        /* \"@openzeppelin/contracts/token/ERC20/ERC20.sol\":3898:3909  return true */\n      swap2\n      pop\n      pop\n        /* \"@openzeppelin/contracts/token/ERC20/ERC20.sol\":3727:3916  function transfer(address to, uint256 amount) public virtual override returns (bool) {... */\n      swap3\n      swap2\n      pop\n      pop\n      jump\t// out\n        /* \"contracts/DegenToken.sol\":945:1093  function transferTokens(address receiver, uint256 value) external whenNotPaused nonReentrant {... */\n    tag_125:\n        /* \"@openzeppelin/contracts/security/Pausable.sol\":1239:1258  _requireNotPaused() */\n      tag_268\n        /* \"@openzeppelin/contracts/security/Pausable.sol\":1239:1256  _requireNotPaused */\n      tag_193\n        /* \"@openzeppelin/contracts/security/Pausable.sol\":1239:1258  _requireNotPaused() */\n      jump\t// in\n    tag_268:\n        /* \"@openzeppelin/contracts/security/ReentrancyGuard.sol\":2261:2282  _nonReentrantBefore() */\n      tag_270\n        /* \"@openzeppelin/contracts/security/ReentrancyGuard.sol\":2261:2280  _nonReentrantBefore */\n      tag_213\n        /* \"@openzeppelin/contracts/security/ReentrancyGuard.sol\":2261:2282  _nonReentrantBefore() */\n      jump\t// in\n    tag_270:\n        /* \"contracts/DegenToken.sol\":1048:1086  _transfer(msg.sender, receiver, value) */\n      tag_272\n        /* \"contracts/DegenToken.sol\":1058:1068  msg.sender */\n      caller\n        /* \"contracts/DegenToken.sol\":1070:1078  receiver */\n      dup4\n        /* \"contracts/DegenToken.sol\":1080:1085  value */\n      dup4\n        /* \"contracts/DegenToken.sol\":1048:1057  _transfer */\n      tag_175\n        /* \"contracts/DegenToken.sol\":1048:1086  _transfer(msg.sender, receiver, value) */\n      jump\t// in\n    tag_272:\n        /* \"@openzeppelin/contracts/security/ReentrancyGuard.sol\":2303:2323  _nonReentrantAfter() */\n      tag_273\n        /* \"@openzeppelin/contracts/security/ReentrancyGuard.sol\":2303:2321  _nonReentrantAfter */\n      tag_217\n        /* \"@openzeppelin/contracts/security/ReentrancyGuard.sol\":2303:2323  _nonReentrantAfter() */\n      jump\t// in\n    tag_273:\n        /* \"contracts/DegenToken.sol\":945:1093  function transferTokens(address receiver, uint256 value) external whenNotPaused nonReentrant {... */\n      pop\n      pop\n      jump\t// out\n        /* \"@openzeppelin/contracts/token/ERC20/ERC20.sol\":3974:4123  function allowance(address owner, address spender) public view virtual override returns (uint256) {... */\n    tag_129:\n        /* \"@openzeppelin/contracts/token/ERC20/ERC20.sol\":4063:4070  uint256 */\n      0x00\n        /* \"@openzeppelin/contracts/token/ERC20/ERC20.sol\":4089:4100  _allowances */\n      0x01\n        /* \"@openzeppelin/contracts/token/ERC20/ERC20.sol\":4089:4107  _allowances[owner] */\n      0x00\n        /* \"@openzeppelin/contracts/token/ERC20/ERC20.sol\":4101:4106  owner */\n      dup5\n        /* \"@openzeppelin/contracts/token/ERC20/ERC20.sol\":4089:4107  _allowances[owner] */\n      0xffffffffffffffffffffffffffffffffffffffff\n      and\n      0xffffffffffffffffffffffffffffffffffffffff\n      and\n      dup2\n      mstore\n      0x20\n      add\n      swap1\n      dup2\n      mstore\n      0x20\n      add\n      0x00\n      keccak256\n        /* \"@openzeppelin/contracts/token/ERC20/ERC20.sol\":4089:4116  _allowances[owner][spender] */\n      0x00\n        /* \"@openzeppelin/contracts/token/ERC20/ERC20.sol\":4108:4115  spender */\n      dup4\n        /* \"@openzeppelin/contracts/token/ERC20/ERC20.sol\":4089:4116  _allowances[owner][spender] */\n      0xffffffffffffffffffffffffffffffffffffffff\n      and\n      0xffffffffffffffffffffffffffffffffffffffff\n      and\n      dup2\n      mstore\n      0x20\n      add\n      swap1\n      dup2\n      mstore\n      0x20\n      add\n      0x00\n      keccak256\n      sload\n        /* \"@openzeppelin/contracts/token/ERC20/ERC20.sol\":4082:4116  return _allowances[owner][spender] */\n      swap1\n      pop\n        /* \"@openzeppelin/contracts/token/ERC20/ERC20.sol\":3974:4123  function allowance(address owner, address spender) public view virtual override returns (uint256) {... */\n      swap3\n      swap2\n      pop\n      pop\n      jump\t// out\n        /* \"@openzeppelin/contracts/access/Ownable.sol\":2081:2279  function transferOwnership(address newOwner) public virtual onlyOwner {... */\n    tag_133:\n        /* \"@openzeppelin/contracts/access/Ownable.sol\":1094:1107  _checkOwner() */\n      tag_276\n        /* \"@openzeppelin/contracts/access/Ownable.sol\":1094:1105  _checkOwner */\n      tag_185\n        /* \"@openzeppelin/contracts/access/Ownable.sol\":1094:1107  _checkOwner() */\n      jump\t// in\n    tag_276:\n        /* \"@openzeppelin/contracts/access/Ownable.sol\":2189:2190  0 */\n      0x00\n        /* \"@openzeppelin/contracts/access/Ownable.sol\":2169:2191  newOwner != address(0) */\n      0xffffffffffffffffffffffffffffffffffffffff\n      and\n        /* \"@openzeppelin/contracts/access/Ownable.sol\":2169:2177  newOwner */\n      dup2\n        /* \"@openzeppelin/contracts/access/Ownable.sol\":2169:2191  newOwner != address(0) */\n      0xffffffffffffffffffffffffffffffffffffffff\n      and\n      sub\n        /* \"@openzeppelin/contracts/access/Ownable.sol\":2161:2234  require(newOwner != address(0), \"Ownable: new owner is the zero address\") */\n      tag_278\n      jumpi\n      mload(0x40)\n      0x08c379a000000000000000000000000000000000000000000000000000000000\n      dup2\n      mstore\n      0x04\n      add\n      tag_279\n      swap1\n      tag_280\n      jump\t// in\n    tag_279:\n      mload(0x40)\n      dup1\n      swap2\n      sub\n      swap1\n      revert\n    tag_278:\n        /* \"@openzeppelin/contracts/access/Ownable.sol\":2244:2272  _transferOwnership(newOwner) */\n      tag_281\n        /* \"@openzeppelin/contracts/access/Ownable.sol\":2263:2271  newOwner */\n      dup2\n        /* \"@openzeppelin/contracts/access/Ownable.sol\":2244:2262  _transferOwnership */\n      tag_223\n        /* \"@openzeppelin/contracts/access/Ownable.sol\":2244:2272  _transferOwnership(newOwner) */\n      jump\t// in\n    tag_281:\n        /* \"@openzeppelin/contracts/access/Ownable.sol\":2081:2279  function transferOwnership(address newOwner) public virtual onlyOwner {... */\n      pop\n      jump\t// out\n        /* \"contracts/DegenToken.sol\":2961:3371  function _uintToStr(uint _i) internal pure returns (string memory) {... */\n    tag_150:\n        /* \"contracts/DegenToken.sol\":3013:3026  string memory */\n      0x60\n        /* \"contracts/DegenToken.sol\":3048:3049  0 */\n      0x00\n        /* \"contracts/DegenToken.sol\":3042:3044  _i */\n      dup3\n        /* \"contracts/DegenToken.sol\":3042:3049  _i == 0 */\n      sub\n        /* \"contracts/DegenToken.sol\":3038:3061  if (_i == 0) return \"0\" */\n      tag_283\n      jumpi\n        /* \"contracts/DegenToken.sol\":3051:3061  return \"0\" */\n      mload(0x40)\n      dup1\n      0x40\n      add\n      0x40\n      mstore\n      dup1\n      0x01\n      dup2\n      mstore\n      0x20\n      add\n      0x3000000000000000000000000000000000000000000000000000000000000000\n      dup2\n      mstore\n      pop\n      swap1\n      pop\n      jump(tag_282)\n        /* \"contracts/DegenToken.sol\":3038:3061  if (_i == 0) return \"0\" */\n    tag_283:\n        /* \"contracts/DegenToken.sol\":3071:3077  uint j */\n      0x00\n        /* \"contracts/DegenToken.sol\":3080:3082  _i */\n      dup3\n        /* \"contracts/DegenToken.sol\":3071:3082  uint j = _i */\n      swap1\n      pop\n        /* \"contracts/DegenToken.sol\":3092:3100  uint len */\n      0x00\n        /* \"contracts/DegenToken.sol\":3110:3144  while (j != 0) { len++; j /= 10; } */\n    tag_284:\n        /* \"contracts/DegenToken.sol\":3122:3123  0 */\n      0x00\n        /* \"contracts/DegenToken.sol\":3117:3118  j */\n      dup3\n        /* \"contracts/DegenToken.sol\":3117:3123  j != 0 */\n      eq\n        /* \"contracts/DegenToken.sol\":3110:3144  while (j != 0) { len++; j /= 10; } */\n      tag_285\n      jumpi\n        /* \"contracts/DegenToken.sol\":3127:3132  len++ */\n      dup1\n      dup1\n      tag_286\n      swap1\n      tag_161\n      jump\t// in\n    tag_286:\n      swap2\n      pop\n      pop\n        /* \"contracts/DegenToken.sol\":3139:3141  10 */\n      0x0a\n        /* \"contracts/DegenToken.sol\":3134:3141  j /= 10 */\n      dup3\n      tag_287\n      swap2\n      swap1\n      tag_288\n      jump\t// in\n    tag_287:\n      swap2\n      pop\n        /* \"contracts/DegenToken.sol\":3110:3144  while (j != 0) { len++; j /= 10; } */\n      jump(tag_284)\n    tag_285:\n        /* \"contracts/DegenToken.sol\":3153:3170  bytes memory bstr */\n      0x00\n        /* \"contracts/DegenToken.sol\":3183:3186  len */\n      dup2\n        /* \"contracts/DegenToken.sol\":3173:3187  new bytes(len) */\n      0xffffffffffffffff\n      dup2\n      gt\n      iszero\n      tag_289\n      jumpi\n      tag_290\n      tag_291\n      jump\t// in\n    tag_290:\n    tag_289:\n      mload(0x40)\n      swap1\n      dup1\n      dup3\n      mstore\n      dup1\n      0x1f\n      add\n      not(0x1f)\n      and\n      0x20\n      add\n      dup3\n      add\n      0x40\n      mstore\n      dup1\n      iszero\n      tag_292\n      jumpi\n      dup2\n      0x20\n      add\n      0x01\n      dup3\n      mul\n      dup1\n      calldatasize\n      dup4\n      calldatacopy\n      dup1\n      dup3\n      add\n      swap2\n      pop\n      pop\n      swap1\n      pop\n    tag_292:\n      pop\n        /* \"contracts/DegenToken.sol\":3153:3187  bytes memory bstr = new bytes(len) */\n      swap1\n      pop\n        /* \"contracts/DegenToken.sol\":3197:3203  uint k */\n      0x00\n        /* \"contracts/DegenToken.sol\":3206:3209  len */\n      dup3\n        /* \"contracts/DegenToken.sol\":3197:3209  uint k = len */\n      swap1\n      pop\n        /* \"contracts/DegenToken.sol\":3219:3336  while (_i != 0) {... */\n    tag_293:\n        /* \"contracts/DegenToken.sol\":3232:3233  0 */\n      0x00\n        /* \"contracts/DegenToken.sol\":3226:3228  _i */\n      dup7\n        /* \"contracts/DegenToken.sol\":3226:3233  _i != 0 */\n      eq\n        /* \"contracts/DegenToken.sol\":3219:3336  while (_i != 0) {... */\n      tag_294\n      jumpi\n        /* \"contracts/DegenToken.sol\":3249:3252  k-- */\n      dup1\n      dup1\n      tag_295\n      swap1\n      tag_296\n      jump\t// in\n    tag_295:\n      swap2\n      pop\n      pop\n        /* \"contracts/DegenToken.sol\":3299:3301  10 */\n      0x0a\n        /* \"contracts/DegenToken.sol\":3294:3296  _i */\n      dup7\n        /* \"contracts/DegenToken.sol\":3294:3301  _i % 10 */\n      tag_297\n      swap2\n      swap1\n      tag_298\n      jump\t// in\n    tag_297:\n        /* \"contracts/DegenToken.sol\":3289:3291  48 */\n      0x30\n        /* \"contracts/DegenToken.sol\":3289:3301  48 + _i % 10 */\n      tag_299\n      swap2\n      swap1\n      tag_182\n      jump\t// in\n    tag_299:\n        /* \"contracts/DegenToken.sol\":3276:3303  bytes1(uint8(48 + _i % 10)) */\n      0xf8\n      shl\n        /* \"contracts/DegenToken.sol\":3266:3270  bstr */\n      dup3\n        /* \"contracts/DegenToken.sol\":3271:3272  k */\n      dup3\n        /* \"contracts/DegenToken.sol\":3266:3273  bstr[k] */\n      dup2\n      mload\n      dup2\n      lt\n      tag_300\n      jumpi\n      tag_301\n      tag_148\n      jump\t// in\n    tag_301:\n    tag_300:\n      0x20\n      add\n      add\n        /* \"contracts/DegenToken.sol\":3266:3303  bstr[k] = bytes1(uint8(48 + _i % 10)) */\n      swap1\n      not(0xffffffffffffffffffffffffffffffffffffffffffffffffffffffffffffff)\n      and\n      swap1\n      dup2\n      0x00\n      byte\n      swap1\n      mstore8\n      pop\n        /* \"contracts/DegenToken.sol\":3323:3325  10 */\n      0x0a\n        /* \"contracts/DegenToken.sol\":3317:3325  _i /= 10 */\n      dup7\n      tag_302\n      swap2\n      swap1\n      tag_288\n      jump\t// in\n    tag_302:\n      swap6\n      pop\n        /* \"contracts/DegenToken.sol\":3219:3336  while (_i != 0) {... */\n      jump(tag_293)\n    tag_294:\n        /* \"contracts/DegenToken.sol\":3359:3363  bstr */\n      dup2\n        /* \"contracts/DegenToken.sol\":3345:3364  return string(bstr) */\n      swap5\n      pop\n      pop\n      pop\n      pop\n      pop\n        /* \"contracts/DegenToken.sol\":2961:3371  function _uintToStr(uint _i) internal pure returns (string memory) {... */\n    tag_282:\n      swap2\n      swap1\n      pop\n      jump\t// out\n        /* \"@openzeppelin/contracts/utils/Context.sol\":640:736  function _msgSender() internal view virtual returns (address) {... */\n    tag_164:\n        /* \"@openzeppelin/contracts/utils/Context.sol\":693:700  address */\n      0x00\n        /* \"@openzeppelin/contracts/utils/Context.sol\":719:729  msg.sender */\n      caller\n        /* \"@openzeppelin/contracts/utils/Context.sol\":712:729  return msg.sender */\n      swap1\n      pop\n        /* \"@openzeppelin/contracts/utils/Context.sol\":640:736  function _msgSender() internal view virtual returns (address) {... */\n      swap1\n      jump\t// out\n        /* \"@openzeppelin/contracts/token/ERC20/ERC20.sol\":10504:10874  function _approve(... */\n    tag_166:\n        /* \"@openzeppelin/contracts/token/ERC20/ERC20.sol\":10652:10653  0 */\n      0x00\n        /* \"@openzeppelin/contracts/token/ERC20/ERC20.sol\":10635:10654  owner != address(0) */\n      0xffffffffffffffffffffffffffffffffffffffff\n      and\n        /* \"@openzeppelin/contracts/token/ERC20/ERC20.sol\":10635:10640  owner */\n      dup4\n        /* \"@openzeppelin/contracts/token/ERC20/ERC20.sol\":10635:10654  owner != address(0) */\n      0xffffffffffffffffffffffffffffffffffffffff\n      and\n      sub\n        /* \"@openzeppelin/contracts/token/ERC20/ERC20.sol\":10627:10695  require(owner != address(0), \"ERC20: approve from the zero address\") */\n      tag_305\n      jumpi\n      mload(0x40)\n      0x08c379a000000000000000000000000000000000000000000000000000000000\n      dup2\n      mstore\n      0x04\n      add\n      tag_306\n      swap1\n      tag_307\n      jump\t// in\n    tag_306:\n      mload(0x40)\n      dup1\n      swap2\n      sub\n      swap1\n      revert\n    tag_305:\n        /* \"@openzeppelin/contracts/token/ERC20/ERC20.sol\":10732:10733  0 */\n      0x00\n        /* \"@openzeppelin/contracts/token/ERC20/ERC20.sol\":10713:10734  spender != address(0) */\n      0xffffffffffffffffffffffffffffffffffffffff\n      and\n        /* \"@openzeppelin/contracts/token/ERC20/ERC20.sol\":10713:10720  spender */\n      dup3\n        /* \"@openzeppelin/contracts/token/ERC20/ERC20.sol\":10713:10734  spender != address(0) */\n      0xffffffffffffffffffffffffffffffffffffffff\n      and\n      sub\n        /* \"@openzeppelin/contracts/token/ERC20/ERC20.sol\":10705:10773  require(spender != address(0), \"ERC20: approve to the zero address\") */\n      tag_308\n      jumpi\n      mload(0x40)\n      0x08c379a000000000000000000000000000000000000000000000000000000000\n      dup2\n      mstore\n      0x04\n      add\n      tag_309\n      swap1\n      tag_310\n      jump\t// in\n    tag_309:\n      mload(0x40)\n      dup1\n      swap2\n      sub\n      swap1\n      revert\n    tag_308:\n        /* \"@openzeppelin/contracts/token/ERC20/ERC20.sol\":10814:10820  amount */\n      dup1\n        /* \"@openzeppelin/contracts/token/ERC20/ERC20.sol\":10784:10795  _allowances */\n      0x01\n        /* \"@openzeppelin/contracts/token/ERC20/ERC20.sol\":10784:10802  _allowances[owner] */\n      0x00\n        /* \"@openzeppelin/contracts/token/ERC20/ERC20.sol\":10796:10801  owner */\n      dup6\n        /* \"@openzeppelin/contracts/token/ERC20/ERC20.sol\":10784:10802  _allowances[owner] */\n      0xffffffffffffffffffffffffffffffffffffffff\n      and\n      0xffffffffffffffffffffffffffffffffffffffff\n      and\n      dup2\n      mstore\n      0x20\n      add\n      swap1\n      dup2\n      mstore\n      0x20\n      add\n      0x00\n      keccak256\n        /* \"@openzeppelin/contracts/token/ERC20/ERC20.sol\":10784:10811  _allowances[owner][spender] */\n      0x00\n        /* \"@openzeppelin/contracts/token/ERC20/ERC20.sol\":10803:10810  spender */\n      dup5\n        /* \"@openzeppelin/contracts/token/ERC20/ERC20.sol\":10784:10811  _allowances[owner][spender] */\n      0xffffffffffffffffffffffffffffffffffffffff\n      and\n      0xffffffffffffffffffffffffffffffffffffffff\n      and\n      dup2\n      mstore\n      0x20\n      add\n      swap1\n      dup2\n      mstore\n      0x20\n      add\n      0x00\n      keccak256\n        /* \"@openzeppelin/contracts/token/ERC20/ERC20.sol\":10784:10820  _allowances[owner][spender] = amount */\n      dup2\n      swap1\n      sstore\n      pop\n        /* \"@openzeppelin/contracts/token/ERC20/ERC20.sol\":10851:10858  spender */\n      dup2\n        /* \"@openzeppelin/contracts/token/ERC20/ERC20.sol\":10835:10867  Approval(owner, spender, amount) */\n      0xffffffffffffffffffffffffffffffffffffffff\n      and\n        /* \"@openzeppelin/contracts/token/ERC20/ERC20.sol\":10844:10849  owner */\n      dup4\n        /* \"@openzeppelin/contracts/token/ERC20/ERC20.sol\":10835:10867  Approval(owner, spender, amount) */\n      0xffffffffffffffffffffffffffffffffffffffff\n      and\n      0x8c5be1e5ebec7d5bd14f71427d1e84f3dd0314c0f7b2291e5b200ac8c7c3b925\n        /* \"@openzeppelin/contracts/token/ERC20/ERC20.sol\":10860:10866  amount */\n      dup4\n        /* \"@openzeppelin/contracts/token/ERC20/ERC20.sol\":10835:10867  Approval(owner, spender, amount) */\n      mload(0x40)\n      tag_311\n      swap2\n      swap1\n      tag_52\n      jump\t// in\n    tag_311:\n      mload(0x40)\n      dup1\n      swap2\n      sub\n      swap1\n      log3\n        /* \"@openzeppelin/contracts/token/ERC20/ERC20.sol\":10504:10874  function _approve(... */\n      pop\n      pop\n      pop\n      jump\t// out\n        /* \"@openzeppelin/contracts/token/ERC20/ERC20.sol\":11155:11596  function _spendAllowance(... */\n    tag_173:\n        /* \"@openzeppelin/contracts/token/ERC20/ERC20.sol\":11285:11309  uint256 currentAllowance */\n      0x00\n        /* \"@openzeppelin/contracts/token/ERC20/ERC20.sol\":11312:11337  allowance(owner, spender) */\n      tag_313\n        /* \"@openzeppelin/contracts/token/ERC20/ERC20.sol\":11322:11327  owner */\n      dup5\n        /* \"@openzeppelin/contracts/token/ERC20/ERC20.sol\":11329:11336  spender */\n      dup5\n        /* \"@openzeppelin/contracts/token/ERC20/ERC20.sol\":11312:11321  allowance */\n      tag_129\n        /* \"@openzeppelin/contracts/token/ERC20/ERC20.sol\":11312:11337  allowance(owner, spender) */\n      jump\t// in\n    tag_313:\n        /* \"@openzeppelin/contracts/token/ERC20/ERC20.sol\":11285:11337  uint256 currentAllowance = allowance(owner, spender) */\n      swap1\n      pop\n        /* \"@openzeppelin/contracts/token/ERC20/ERC20.sol\":11371:11388  type(uint256).max */\n      0xffffffffffffffffffffffffffffffffffffffffffffffffffffffffffffffff\n        /* \"@openzeppelin/contracts/token/ERC20/ERC20.sol\":11351:11367  currentAllowance */\n      dup2\n        /* \"@openzeppelin/contracts/token/ERC20/ERC20.sol\":11351:11388  currentAllowance != type(uint256).max */\n      eq\n        /* \"@openzeppelin/contracts/token/ERC20/ERC20.sol\":11347:11590  if (currentAllowance != type(uint256).max) {... */\n      tag_314\n      jumpi\n        /* \"@openzeppelin/contracts/token/ERC20/ERC20.sol\":11432:11438  amount */\n      dup2\n        /* \"@openzeppelin/contracts/token/ERC20/ERC20.sol\":11412:11428  currentAllowance */\n      dup2\n        /* \"@openzeppelin/contracts/token/ERC20/ERC20.sol\":11412:11438  currentAllowance >= amount */\n      lt\n      iszero\n        /* \"@openzeppelin/contracts/token/ERC20/ERC20.sol\":11404:11472  require(currentAllowance >= amount, \"ERC20: insufficient allowance\") */\n      tag_315\n      jumpi\n      mload(0x40)\n      0x08c379a000000000000000000000000000000000000000000000000000000000\n      dup2\n      mstore\n      0x04\n      add\n      tag_316\n      swap1\n      tag_317\n      jump\t// in\n    tag_316:\n      mload(0x40)\n      dup1\n      swap2\n      sub\n      swap1\n      revert\n    tag_315:\n        /* \"@openzeppelin/contracts/token/ERC20/ERC20.sol\":11514:11565  _approve(owner, spender, currentAllowance - amount) */\n      tag_318\n        /* \"@openzeppelin/contracts/token/ERC20/ERC20.sol\":11523:11528  owner */\n      dup5\n        /* \"@openzeppelin/contracts/token/ERC20/ERC20.sol\":11530:11537  spender */\n      dup5\n        /* \"@openzeppelin/contracts/token/ERC20/ERC20.sol\":11558:11564  amount */\n      dup5\n        /* \"@openzeppelin/contracts/token/ERC20/ERC20.sol\":11539:11555  currentAllowance */\n      dup5\n        /* \"@openzeppelin/contracts/token/ERC20/ERC20.sol\":11539:11564  currentAllowance - amount */\n      sub\n        /* \"@openzeppelin/contracts/token/ERC20/ERC20.sol\":11514:11522  _approve */\n      tag_166\n        /* \"@openzeppelin/contracts/token/ERC20/ERC20.sol\":11514:11565  _approve(owner, spender, currentAllowance - amount) */\n      jump\t// in\n    tag_318:\n        /* \"@openzeppelin/contracts/token/ERC20/ERC20.sol\":11347:11590  if (currentAllowance != type(uint256).max) {... */\n    tag_314:\n        /* \"@openzeppelin/contracts/token/ERC20/ERC20.sol\":11275:11596  {... */\n      pop\n        /* \"@openzeppelin/contracts/token/ERC20/ERC20.sol\":11155:11596  function _spendAllowance(... */\n      pop\n      pop\n      pop\n      jump\t// out\n        /* \"@openzeppelin/contracts/token/ERC20/ERC20.sol\":7473:8291  function _transfer(... */\n    tag_175:\n        /* \"@openzeppelin/contracts/token/ERC20/ERC20.sol\":7615:7616  0 */\n      0x00\n        /* \"@openzeppelin/contracts/token/ERC20/ERC20.sol\":7599:7617  from != address(0) */\n      0xffffffffffffffffffffffffffffffffffffffff\n      and\n        /* \"@openzeppelin/contracts/token/ERC20/ERC20.sol\":7599:7603  from */\n      dup4\n        /* \"@openzeppelin/contracts/token/ERC20/ERC20.sol\":7599:7617  from != address(0) */\n      0xffffffffffffffffffffffffffffffffffffffff\n      and\n      sub\n        /* \"@openzeppelin/contracts/token/ERC20/ERC20.sol\":7591:7659  require(from != address(0), \"ERC20: transfer from the zero address\") */\n      tag_320\n      jumpi\n      mload(0x40)\n      0x08c379a000000000000000000000000000000000000000000000000000000000\n      dup2\n      mstore\n      0x04\n      add\n      tag_321\n      swap1\n      tag_322\n      jump\t// in\n    tag_321:\n      mload(0x40)\n      dup1\n      swap2\n      sub\n      swap1\n      revert\n    tag_320:\n        /* \"@openzeppelin/contracts/token/ERC20/ERC20.sol\":7691:7692  0 */\n      0x00\n        /* \"@openzeppelin/contracts/token/ERC20/ERC20.sol\":7677:7693  to != address(0) */\n      0xffffffffffffffffffffffffffffffffffffffff\n      and\n        /* \"@openzeppelin/contracts/token/ERC20/ERC20.sol\":7677:7679  to */\n      dup3\n        /* \"@openzeppelin/contracts/token/ERC20/ERC20.sol\":7677:7693  to != address(0) */\n      0xffffffffffffffffffffffffffffffffffffffff\n      and\n      sub\n        /* \"@openzeppelin/contracts/token/ERC20/ERC20.sol\":7669:7733  require(to != address(0), \"ERC20: transfer to the zero address\") */\n      tag_323\n      jumpi\n      mload(0x40)\n      0x08c379a000000000000000000000000000000000000000000000000000000000\n      dup2\n      mstore\n      0x04\n      add\n      tag_324\n      swap1\n      tag_325\n      jump\t// in\n    tag_324:\n      mload(0x40)\n      dup1\n      swap2\n      sub\n      swap1\n      revert\n    tag_323:\n        /* \"@openzeppelin/contracts/token/ERC20/ERC20.sol\":7744:7782  _beforeTokenTransfer(from, to, amount) */\n      tag_326\n        /* \"@openzeppelin/contracts/token/ERC20/ERC20.sol\":7765:7769  from */\n      dup4\n        /* \"@openzeppelin/contracts/token/ERC20/ERC20.sol\":7771:7773  to */\n      dup4\n        /* \"@openzeppelin/contracts/token/ERC20/ERC20.sol\":7775:7781  amount */\n      dup4\n        /* \"@openzeppelin/contracts/token/ERC20/ERC20.sol\":7744:7764  _beforeTokenTransfer */\n      tag_327\n        /* \"@openzeppelin/contracts/token/ERC20/ERC20.sol\":7744:7782  _beforeTokenTransfer(from, to, amount) */\n      jump\t// in\n    tag_326:\n        /* \"@openzeppelin/contracts/token/ERC20/ERC20.sol\":7793:7812  uint256 fromBalance */\n      0x00\n        /* \"@openzeppelin/contracts/token/ERC20/ERC20.sol\":7815:7824  _balances */\n      dup1\n        /* \"@openzeppelin/contracts/token/ERC20/ERC20.sol\":7815:7830  _balances[from] */\n      0x00\n        /* \"@openzeppelin/contracts/token/ERC20/ERC20.sol\":7825:7829  from */\n      dup6\n        /* \"@openzeppelin/contracts/token/ERC20/ERC20.sol\":7815:7830  _balances[from] */\n      0xffffffffffffffffffffffffffffffffffffffff\n      and\n      0xffffffffffffffffffffffffffffffffffffffff\n      and\n      dup2\n      mstore\n      0x20\n      add\n      swap1\n      dup2\n      mstore\n      0x20\n      add\n      0x00\n      keccak256\n      sload\n        /* \"@openzeppelin/contracts/token/ERC20/ERC20.sol\":7793:7830  uint256 fromBalance = _balances[from] */\n      swap1\n      pop\n        /* \"@openzeppelin/contracts/token/ERC20/ERC20.sol\":7863:7869  amount */\n      dup2\n        /* \"@openzeppelin/contracts/token/ERC20/ERC20.sol\":7848:7859  fromBalance */\n      dup2\n        /* \"@openzeppelin/contracts/token/ERC20/ERC20.sol\":7848:7869  fromBalance >= amount */\n      lt\n      iszero\n        /* \"@openzeppelin/contracts/token/ERC20/ERC20.sol\":7840:7912  require(fromBalance >= amount, \"ERC20: transfer amount exceeds balance\") */\n      tag_328\n      jumpi\n      mload(0x40)\n      0x08c379a000000000000000000000000000000000000000000000000000000000\n      dup2\n      mstore\n      0x04\n      add\n      tag_329\n      swap1\n      tag_330\n      jump\t// in\n    tag_329:\n      mload(0x40)\n      dup1\n      swap2\n      sub\n      swap1\n      revert\n    tag_328:\n        /* \"@openzeppelin/contracts/token/ERC20/ERC20.sol\":7978:7984  amount */\n      dup2\n        /* \"@openzeppelin/contracts/token/ERC20/ERC20.sol\":7964:7975  fromBalance */\n      dup2\n        /* \"@openzeppelin/contracts/token/ERC20/ERC20.sol\":7964:7984  fromBalance - amount */\n      sub\n        /* \"@openzeppelin/contracts/token/ERC20/ERC20.sol\":7946:7955  _balances */\n      0x00\n        /* \"@openzeppelin/contracts/token/ERC20/ERC20.sol\":7946:7961  _balances[from] */\n      dup1\n        /* \"@openzeppelin/contracts/token/ERC20/ERC20.sol\":7956:7960  from */\n      dup7\n        /* \"@openzeppelin/contracts/token/ERC20/ERC20.sol\":7946:7961  _balances[from] */\n      0xffffffffffffffffffffffffffffffffffffffff\n      and\n      0xffffffffffffffffffffffffffffffffffffffff\n      and\n      dup2\n      mstore\n      0x20\n      add\n      swap1\n      dup2\n      mstore\n      0x20\n      add\n      0x00\n      keccak256\n        /* \"@openzeppelin/contracts/token/ERC20/ERC20.sol\":7946:7984  _balances[from] = fromBalance - amount */\n      dup2\n      swap1\n      sstore\n      pop\n        /* \"@openzeppelin/contracts/token/ERC20/ERC20.sol\":8178:8184  amount */\n      dup2\n        /* \"@openzeppelin/contracts/token/ERC20/ERC20.sol\":8161:8170  _balances */\n      0x00\n        /* \"@openzeppelin/contracts/token/ERC20/ERC20.sol\":8161:8174  _balances[to] */\n      dup1\n        /* \"@openzeppelin/contracts/token/ERC20/ERC20.sol\":8171:8173  to */\n      dup6\n        /* \"@openzeppelin/contracts/token/ERC20/ERC20.sol\":8161:8174  _balances[to] */\n      0xffffffffffffffffffffffffffffffffffffffff\n      and\n      0xffffffffffffffffffffffffffffffffffffffff\n      and\n      dup2\n      mstore\n      0x20\n      add\n      swap1\n      dup2\n      mstore\n      0x20\n      add\n      0x00\n      keccak256\n      0x00\n        /* \"@openzeppelin/contracts/token/ERC20/ERC20.sol\":8161:8184  _balances[to] += amount */\n      dup3\n      dup3\n      sload\n      add\n      swap3\n      pop\n      pop\n      dup2\n      swap1\n      sstore\n      pop\n        /* \"@openzeppelin/contracts/token/ERC20/ERC20.sol\":8225:8227  to */\n      dup3\n        /* \"@openzeppelin/contracts/token/ERC20/ERC20.sol\":8210:8236  Transfer(from, to, amount) */\n      0xffffffffffffffffffffffffffffffffffffffff\n      and\n        /* \"@openzeppelin/contracts/token/ERC20/ERC20.sol\":8219:8223  from */\n      dup5\n        /* \"@openzeppelin/contracts/token/ERC20/ERC20.sol\":8210:8236  Transfer(from, to, amount) */\n      0xffffffffffffffffffffffffffffffffffffffff\n      and\n      0xddf252ad1be2c89b69c2b068fc378daa952ba7f163c4a11628f55a4df523b3ef\n        /* \"@openzeppelin/contracts/token/ERC20/ERC20.sol\":8229:8235  amount */\n      dup5\n        /* \"@openzeppelin/contracts/token/ERC20/ERC20.sol\":8210:8236  Transfer(from, to, amount) */\n      mload(0x40)\n      tag_331\n      swap2\n      swap1\n      tag_52\n      jump\t// in\n    tag_331:\n      mload(0x40)\n      dup1\n      swap2\n      sub\n      swap1\n      log3\n        /* \"@openzeppelin/contracts/token/ERC20/ERC20.sol\":8247:8284  _afterTokenTransfer(from, to, amount) */\n      tag_332\n        /* \"@openzeppelin/contracts/token/ERC20/ERC20.sol\":8267:8271  from */\n      dup5\n        /* \"@openzeppelin/contracts/token/ERC20/ERC20.sol\":8273:8275  to */\n      dup5\n        /* \"@openzeppelin/contracts/token/ERC20/ERC20.sol\":8277:8283  amount */\n      dup5\n        /* \"@openzeppelin/contracts/token/ERC20/ERC20.sol\":8247:8266  _afterTokenTransfer */\n      tag_333\n        /* \"@openzeppelin/contracts/token/ERC20/ERC20.sol\":8247:8284  _afterTokenTransfer(from, to, amount) */\n      jump\t// in\n    tag_332:\n        /* \"@openzeppelin/contracts/token/ERC20/ERC20.sol\":7581:8291  {... */\n      pop\n        /* \"@openzeppelin/contracts/token/ERC20/ERC20.sol\":7473:8291  function _transfer(... */\n      pop\n      pop\n      pop\n      jump\t// out\n        /* \"@openzeppelin/contracts/access/Ownable.sol\":1359:1489  function _checkOwner() internal view virtual {... */\n    tag_185:\n        /* \"@openzeppelin/contracts/access/Ownable.sol\":1433:1445  _msgSender() */\n      tag_335\n        /* \"@openzeppelin/contracts/access/Ownable.sol\":1433:1443  _msgSender */\n      tag_164\n        /* \"@openzeppelin/contracts/access/Ownable.sol\":1433:1445  _msgSender() */\n      jump\t// in\n    tag_335:\n        /* \"@openzeppelin/contracts/access/Ownable.sol\":1422:1445  owner() == _msgSender() */\n      0xffffffffffffffffffffffffffffffffffffffff\n      and\n        /* \"@openzeppelin/contracts/access/Ownable.sol\":1422:1429  owner() */\n      tag_336\n        /* \"@openzeppelin/contracts/access/Ownable.sol\":1422:1427  owner */\n      tag_102\n        /* \"@openzeppelin/contracts/access/Ownable.sol\":1422:1429  owner() */\n      jump\t// in\n    tag_336:\n        /* \"@openzeppelin/contracts/access/Ownable.sol\":1422:1445  owner() == _msgSender() */\n      0xffffffffffffffffffffffffffffffffffffffff\n      and\n      eq\n        /* \"@openzeppelin/contracts/access/Ownable.sol\":1414:1482  require(owner() == _msgSender(), \"Ownable: caller is not the owner\") */\n      tag_337\n      jumpi\n      mload(0x40)\n      0x08c379a000000000000000000000000000000000000000000000000000000000\n      dup2\n      mstore\n      0x04\n      add\n      tag_338\n      swap1\n      tag_339\n      jump\t// in\n    tag_338:\n      mload(0x40)\n      dup1\n      swap2\n      sub\n      swap1\n      revert\n    tag_337:\n        /* \"@openzeppelin/contracts/access/Ownable.sol\":1359:1489  function _checkOwner() internal view virtual {... */\n      jump\t// out\n        /* \"@openzeppelin/contracts/security/Pausable.sol\":2433:2550  function _unpause() internal virtual whenPaused {... */\n    tag_188:\n        /* \"@openzeppelin/contracts/security/Pausable.sol\":1486:1502  _requirePaused() */\n      tag_341\n        /* \"@openzeppelin/contracts/security/Pausable.sol\":1486:1500  _requirePaused */\n      tag_342\n        /* \"@openzeppelin/contracts/security/Pausable.sol\":1486:1502  _requirePaused() */\n      jump\t// in\n    tag_341:\n        /* \"@openzeppelin/contracts/security/Pausable.sol\":2501:2506  false */\n      0x00\n        /* \"@openzeppelin/contracts/security/Pausable.sol\":2491:2498  _paused */\n      0x05\n      0x14\n        /* \"@openzeppelin/contracts/security/Pausable.sol\":2491:2506  _paused = false */\n      0x0100\n      exp\n      dup2\n      sload\n      dup2\n      0xff\n      mul\n      not\n      and\n      swap1\n      dup4\n      iszero\n      iszero\n      mul\n      or\n      swap1\n      sstore\n      pop\n        /* \"@openzeppelin/contracts/security/Pausable.sol\":2521:2543  Unpaused(_msgSender()) */\n      0x5db9ee0a495bf2e6ff9c91a7834c1ba4fdd244a5e8aa4e537bd38aeae4b073aa\n        /* \"@openzeppelin/contracts/security/Pausable.sol\":2530:2542  _msgSender() */\n      tag_344\n        /* \"@openzeppelin/contracts/security/Pausable.sol\":2530:2540  _msgSender */\n      tag_164\n        /* \"@openzeppelin/contracts/security/Pausable.sol\":2530:2542  _msgSender() */\n      jump\t// in\n    tag_344:\n        /* \"@openzeppelin/contracts/security/Pausable.sol\":2521:2543  Unpaused(_msgSender()) */\n      mload(0x40)\n      tag_345\n      swap2\n      swap1\n      tag_104\n      jump\t// in\n    tag_345:\n      mload(0x40)\n      dup1\n      swap2\n      sub\n      swap1\n      log1\n        /* \"@openzeppelin/contracts/security/Pausable.sol\":2433:2550  function _unpause() internal virtual whenPaused {... */\n      jump\t// out\n        /* \"@openzeppelin/contracts/security/Pausable.sol\":1767:1873  function _requireNotPaused() internal view virtual {... */\n    tag_193:\n        /* \"@openzeppelin/contracts/security/Pausable.sol\":1837:1845  paused() */\n      tag_347\n        /* \"@openzeppelin/contracts/security/Pausable.sol\":1837:1843  paused */\n      tag_84\n        /* \"@openzeppelin/contracts/security/Pausable.sol\":1837:1845  paused() */\n      jump\t// in\n    tag_347:\n        /* \"@openzeppelin/contracts/security/Pausable.sol\":1836:1845  !paused() */\n      iszero\n        /* \"@openzeppelin/contracts/security/Pausable.sol\":1828:1866  require(!paused(), \"Pausable: paused\") */\n      tag_348\n      jumpi\n      mload(0x40)\n      0x08c379a000000000000000000000000000000000000000000000000000000000\n      dup2\n      mstore\n      0x04\n      add\n      tag_349\n      swap1\n      tag_350\n      jump\t// in\n    tag_349:\n      mload(0x40)\n      dup1\n      swap2\n      sub\n      swap1\n      revert\n    tag_348:\n        /* \"@openzeppelin/contracts/security/Pausable.sol\":1767:1873  function _requireNotPaused() internal view virtual {... */\n      jump\t// out\n        /* \"@openzeppelin/contracts/token/ERC20/ERC20.sol\":8567:9102  function _mint(address account, uint256 amount) internal virtual {... */\n    tag_196:\n        /* \"@openzeppelin/contracts/token/ERC20/ERC20.sol\":8669:8670  0 */\n      0x00\n        /* \"@openzeppelin/contracts/token/ERC20/ERC20.sol\":8650:8671  account != address(0) */\n      0xffffffffffffffffffffffffffffffffffffffff\n      and\n        /* \"@openzeppelin/contracts/token/ERC20/ERC20.sol\":8650:8657  account */\n      dup3\n        /* \"@openzeppelin/contracts/token/ERC20/ERC20.sol\":8650:8671  account != address(0) */\n      0xffffffffffffffffffffffffffffffffffffffff\n      and\n      sub\n        /* \"@openzeppelin/contracts/token/ERC20/ERC20.sol\":8642:8707  require(account != address(0), \"ERC20: mint to the zero address\") */\n      tag_352\n      jumpi\n      mload(0x40)\n      0x08c379a000000000000000000000000000000000000000000000000000000000\n      dup2\n      mstore\n      0x04\n      add\n      tag_353\n      swap1\n      tag_354\n      jump\t// in\n    tag_353:\n      mload(0x40)\n      dup1\n      swap2\n      sub\n      swap1\n      revert\n    tag_352:\n        /* \"@openzeppelin/contracts/token/ERC20/ERC20.sol\":8718:8767  _beforeTokenTransfer(address(0), account, amount) */\n      tag_355\n        /* \"@openzeppelin/contracts/token/ERC20/ERC20.sol\":8747:8748  0 */\n      0x00\n        /* \"@openzeppelin/contracts/token/ERC20/ERC20.sol\":8751:8758  account */\n      dup4\n        /* \"@openzeppelin/contracts/token/ERC20/ERC20.sol\":8760:8766  amount */\n      dup4\n        /* \"@openzeppelin/contracts/token/ERC20/ERC20.sol\":8718:8738  _beforeTokenTransfer */\n      tag_327\n        /* \"@openzeppelin/contracts/token/ERC20/ERC20.sol\":8718:8767  _beforeTokenTransfer(address(0), account, amount) */\n      jump\t// in\n    tag_355:\n        /* \"@openzeppelin/contracts/token/ERC20/ERC20.sol\":8794:8800  amount */\n      dup1\n        /* \"@openzeppelin/contracts/token/ERC20/ERC20.sol\":8778:8790  _totalSupply */\n      0x02\n      0x00\n        /* \"@openzeppelin/contracts/token/ERC20/ERC20.sol\":8778:8800  _totalSupply += amount */\n      dup3\n      dup3\n      sload\n      tag_356\n      swap2\n      swap1\n      tag_182\n      jump\t// in\n    tag_356:\n      swap3\n      pop\n      pop\n      dup2\n      swap1\n      sstore\n      pop\n        /* \"@openzeppelin/contracts/token/ERC20/ERC20.sol\":8968:8974  amount */\n      dup1\n        /* \"@openzeppelin/contracts/token/ERC20/ERC20.sol\":8946:8955  _balances */\n      0x00\n        /* \"@openzeppelin/contracts/token/ERC20/ERC20.sol\":8946:8964  _balances[account] */\n      dup1\n        /* \"@openzeppelin/contracts/token/ERC20/ERC20.sol\":8956:8963  account */\n      dup5\n        /* \"@openzeppelin/contracts/token/ERC20/ERC20.sol\":8946:8964  _balances[account] */\n      0xffffffffffffffffffffffffffffffffffffffff\n      and\n      0xffffffffffffffffffffffffffffffffffffffff\n      and\n      dup2\n      mstore\n      0x20\n      add\n      swap1\n      dup2\n      mstore\n      0x20\n      add\n      0x00\n      keccak256\n      0x00\n        /* \"@openzeppelin/contracts/token/ERC20/ERC20.sol\":8946:8974  _balances[account] += amount */\n      dup3\n      dup3\n      sload\n      add\n      swap3\n      pop\n      pop\n      dup2\n      swap1\n      sstore\n      pop\n        /* \"@openzeppelin/contracts/token/ERC20/ERC20.sol\":9020:9027  account */\n      dup2\n        /* \"@openzeppelin/contracts/token/ERC20/ERC20.sol\":8999:9036  Transfer(address(0), account, amount) */\n      0xffffffffffffffffffffffffffffffffffffffff\n      and\n        /* \"@openzeppelin/contracts/token/ERC20/ERC20.sol\":9016:9017  0 */\n      0x00\n        /* \"@openzeppelin/contracts/token/ERC20/ERC20.sol\":8999:9036  Transfer(address(0), account, amount) */\n      0xffffffffffffffffffffffffffffffffffffffff\n      and\n      0xddf252ad1be2c89b69c2b068fc378daa952ba7f163c4a11628f55a4df523b3ef\n        /* \"@openzeppelin/contracts/token/ERC20/ERC20.sol\":9029:9035  amount */\n      dup4\n        /* \"@openzeppelin/contracts/token/ERC20/ERC20.sol\":8999:9036  Transfer(address(0), account, amount) */\n      mload(0x40)\n      tag_357\n      swap2\n      swap1\n      tag_52\n      jump\t// in\n    tag_357:\n      mload(0x40)\n      dup1\n      swap2\n      sub\n      swap1\n      log3\n        /* \"@openzeppelin/contracts/token/ERC20/ERC20.sol\":9047:9095  _afterTokenTransfer(address(0), account, amount) */\n      tag_358\n        /* \"@openzeppelin/contracts/token/ERC20/ERC20.sol\":9075:9076  0 */\n      0x00\n        /* \"@openzeppelin/contracts/token/ERC20/ERC20.sol\":9079:9086  account */\n      dup4\n        /* \"@openzeppelin/contracts/token/ERC20/ERC20.sol\":9088:9094  amount */\n      dup4\n        /* \"@openzeppelin/contracts/token/ERC20/ERC20.sol\":9047:9066  _afterTokenTransfer */\n      tag_333\n        /* \"@openzeppelin/contracts/token/ERC20/ERC20.sol\":9047:9095  _afterTokenTransfer(address(0), account, amount) */\n      jump\t// in\n    tag_358:\n        /* \"@openzeppelin/contracts/token/ERC20/ERC20.sol\":8567:9102  function _mint(address account, uint256 amount) internal virtual {... */\n      pop\n      pop\n      jump\t// out\n        /* \"@openzeppelin/contracts/token/ERC20/ERC20.sol\":9422:10081  function _burn(address account, uint256 amount) internal virtual {... */\n    tag_200:\n        /* \"@openzeppelin/contracts/token/ERC20/ERC20.sol\":9524:9525  0 */\n      0x00\n        /* \"@openzeppelin/contracts/token/ERC20/ERC20.sol\":9505:9526  account != address(0) */\n      0xffffffffffffffffffffffffffffffffffffffff\n      and\n        /* \"@openzeppelin/contracts/token/ERC20/ERC20.sol\":9505:9512  account */\n      dup3\n        /* \"@openzeppelin/contracts/token/ERC20/ERC20.sol\":9505:9526  account != address(0) */\n      0xffffffffffffffffffffffffffffffffffffffff\n      and\n      sub\n        /* \"@openzeppelin/contracts/token/ERC20/ERC20.sol\":9497:9564  require(account != address(0), \"ERC20: burn from the zero address\") */\n      tag_360\n      jumpi\n      mload(0x40)\n      0x08c379a000000000000000000000000000000000000000000000000000000000\n      dup2\n      mstore\n      0x04\n      add\n      tag_361\n      swap1\n      tag_362\n      jump\t// in\n    tag_361:\n      mload(0x40)\n      dup1\n      swap2\n      sub\n      swap1\n      revert\n    tag_360:\n        /* \"@openzeppelin/contracts/token/ERC20/ERC20.sol\":9575:9624  _beforeTokenTransfer(account, address(0), amount) */\n      tag_363\n        /* \"@openzeppelin/contracts/token/ERC20/ERC20.sol\":9596:9603  account */\n      dup3\n        /* \"@openzeppelin/contracts/token/ERC20/ERC20.sol\":9613:9614  0 */\n      0x00\n        /* \"@openzeppelin/contracts/token/ERC20/ERC20.sol\":9617:9623  amount */\n      dup4\n        /* \"@openzeppelin/contracts/token/ERC20/ERC20.sol\":9575:9595  _beforeTokenTransfer */\n      tag_327\n        /* \"@openzeppelin/contracts/token/ERC20/ERC20.sol\":9575:9624  _beforeTokenTransfer(account, address(0), amount) */\n      jump\t// in\n    tag_363:\n        /* \"@openzeppelin/contracts/token/ERC20/ERC20.sol\":9635:9657  uint256 accountBalance */\n      0x00\n        /* \"@openzeppelin/contracts/token/ERC20/ERC20.sol\":9660:9669  _balances */\n      dup1\n        /* \"@openzeppelin/contracts/token/ERC20/ERC20.sol\":9660:9678  _balances[account] */\n      0x00\n        /* \"@openzeppelin/contracts/token/ERC20/ERC20.sol\":9670:9677  account */\n      dup5\n        /* \"@openzeppelin/contracts/token/ERC20/ERC20.sol\":9660:9678  _balances[account] */\n      0xffffffffffffffffffffffffffffffffffffffff\n      and\n      0xffffffffffffffffffffffffffffffffffffffff\n      and\n      dup2\n      mstore\n      0x20\n      add\n      swap1\n      dup2\n      mstore\n      0x20\n      add\n      0x00\n      keccak256\n      sload\n        /* \"@openzeppelin/contracts/token/ERC20/ERC20.sol\":9635:9678  uint256 accountBalance = _balances[account] */\n      swap1\n      pop\n        /* \"@openzeppelin/contracts/token/ERC20/ERC20.sol\":9714:9720  amount */\n      dup2\n        /* \"@openzeppelin/contracts/token/ERC20/ERC20.sol\":9696:9710  accountBalance */\n      dup2\n        /* \"@openzeppelin/contracts/token/ERC20/ERC20.sol\":9696:9720  accountBalance >= amount */\n      lt\n      iszero\n        /* \"@openzeppelin/contracts/token/ERC20/ERC20.sol\":9688:9759  require(accountBalance >= amount, \"ERC20: burn amount exceeds balance\") */\n      tag_364\n      jumpi\n      mload(0x40)\n      0x08c379a000000000000000000000000000000000000000000000000000000000\n      dup2\n      mstore\n      0x04\n      add\n      tag_365\n      swap1\n      tag_366\n      jump\t// in\n    tag_365:\n      mload(0x40)\n      dup1\n      swap2\n      sub\n      swap1\n      revert\n    tag_364:\n        /* \"@openzeppelin/contracts/token/ERC20/ERC20.sol\":9831:9837  amount */\n      dup2\n        /* \"@openzeppelin/contracts/token/ERC20/ERC20.sol\":9814:9828  accountBalance */\n      dup2\n        /* \"@openzeppelin/contracts/token/ERC20/ERC20.sol\":9814:9837  accountBalance - amount */\n      sub\n        /* \"@openzeppelin/contracts/token/ERC20/ERC20.sol\":9793:9802  _balances */\n      0x00\n        /* \"@openzeppelin/contracts/token/ERC20/ERC20.sol\":9793:9811  _balances[account] */\n      dup1\n        /* \"@openzeppelin/contracts/token/ERC20/ERC20.sol\":9803:9810  account */\n      dup6\n        /* \"@openzeppelin/contracts/token/ERC20/ERC20.sol\":9793:9811  _balances[account] */\n      0xffffffffffffffffffffffffffffffffffffffff\n      and\n      0xffffffffffffffffffffffffffffffffffffffff\n      and\n      dup2\n      mstore\n      0x20\n      add\n      swap1\n      dup2\n      mstore\n      0x20\n      add\n      0x00\n      keccak256\n        /* \"@openzeppelin/contracts/token/ERC20/ERC20.sol\":9793:9837  _balances[account] = accountBalance - amount */\n      dup2\n      swap1\n      sstore\n      pop\n        /* \"@openzeppelin/contracts/token/ERC20/ERC20.sol\":9946:9952  amount */\n      dup2\n        /* \"@openzeppelin/contracts/token/ERC20/ERC20.sol\":9930:9942  _totalSupply */\n      0x02\n      0x00\n        /* \"@openzeppelin/contracts/token/ERC20/ERC20.sol\":9930:9952  _totalSupply -= amount */\n      dup3\n      dup3\n      sload\n      sub\n      swap3\n      pop\n      pop\n      dup2\n      swap1\n      sstore\n      pop\n        /* \"@openzeppelin/contracts/token/ERC20/ERC20.sol\":10004:10005  0 */\n      0x00\n        /* \"@openzeppelin/contracts/token/ERC20/ERC20.sol\":9978:10015  Transfer(account, address(0), amount) */\n      0xffffffffffffffffffffffffffffffffffffffff\n      and\n        /* \"@openzeppelin/contracts/token/ERC20/ERC20.sol\":9987:9994  account */\n      dup4\n        /* \"@openzeppelin/contracts/token/ERC20/ERC20.sol\":9978:10015  Transfer(account, address(0), amount) */\n      0xffffffffffffffffffffffffffffffffffffffff\n      and\n      0xddf252ad1be2c89b69c2b068fc378daa952ba7f163c4a11628f55a4df523b3ef\n        /* \"@openzeppelin/contracts/token/ERC20/ERC20.sol\":10008:10014  amount */\n      dup5\n        /* \"@openzeppelin/contracts/token/ERC20/ERC20.sol\":9978:10015  Transfer(account, address(0), amount) */\n      mload(0x40)\n      tag_367\n      swap2\n      swap1\n      tag_52\n      jump\t// in\n    tag_367:\n      mload(0x40)\n      dup1\n      swap2\n      sub\n      swap1\n      log3\n        /* \"@openzeppelin/contracts/token/ERC20/ERC20.sol\":10026:10074  _afterTokenTransfer(account, address(0), amount) */\n      tag_368\n        /* \"@openzeppelin/contracts/token/ERC20/ERC20.sol\":10046:10053  account */\n      dup4\n        /* \"@openzeppelin/contracts/token/ERC20/ERC20.sol\":10063:10064  0 */\n      0x00\n        /* \"@openzeppelin/contracts/token/ERC20/ERC20.sol\":10067:10073  amount */\n      dup5\n        /* \"@openzeppelin/contracts/token/ERC20/ERC20.sol\":10026:10045  _afterTokenTransfer */\n      tag_333\n        /* \"@openzeppelin/contracts/token/ERC20/ERC20.sol\":10026:10074  _afterTokenTransfer(account, address(0), amount) */\n      jump\t// in\n    tag_368:\n        /* \"@openzeppelin/contracts/token/ERC20/ERC20.sol\":9487:10081  {... */\n      pop\n        /* \"@openzeppelin/contracts/token/ERC20/ERC20.sol\":9422:10081  function _burn(address account, uint256 amount) internal virtual {... */\n      pop\n      pop\n      jump\t// out\n        /* \"@openzeppelin/contracts/security/ReentrancyGuard.sol\":2336:2623  function _nonReentrantBefore() private {... */\n    tag_213:\n        /* \"@openzeppelin/contracts/security/ReentrancyGuard.sol\":1759:1760  2 */\n      0x02\n        /* \"@openzeppelin/contracts/security/ReentrancyGuard.sol\":2468:2475  _status */\n      sload(0x06)\n        /* \"@openzeppelin/contracts/security/ReentrancyGuard.sol\":2468:2487  _status != _ENTERED */\n      sub\n        /* \"@openzeppelin/contracts/security/ReentrancyGuard.sol\":2460:2523  require(_status != _ENTERED, \"ReentrancyGuard: reentrant call\") */\n      tag_370\n      jumpi\n      mload(0x40)\n      0x08c379a000000000000000000000000000000000000000000000000000000000\n      dup2\n      mstore\n      0x04\n      add\n      tag_371\n      swap1\n      tag_372\n      jump\t// in\n    tag_371:\n      mload(0x40)\n      dup1\n      swap2\n      sub\n      swap1\n      revert\n    tag_370:\n        /* \"@openzeppelin/contracts/security/ReentrancyGuard.sol\":1759:1760  2 */\n      0x02\n        /* \"@openzeppelin/contracts/security/ReentrancyGuard.sol\":2598:2605  _status */\n      0x06\n        /* \"@openzeppelin/contracts/security/ReentrancyGuard.sol\":2598:2616  _status = _ENTERED */\n      dup2\n      swap1\n      sstore\n      pop\n        /* \"@openzeppelin/contracts/security/ReentrancyGuard.sol\":2336:2623  function _nonReentrantBefore() private {... */\n      jump\t// out\n        /* \"@openzeppelin/contracts/security/ReentrancyGuard.sol\":2629:2838  function _nonReentrantAfter() private {... */\n    tag_217:\n        /* \"@openzeppelin/contracts/security/ReentrancyGuard.sol\":1716:1717  1 */\n      0x01\n        /* \"@openzeppelin/contracts/security/ReentrancyGuard.sol\":2809:2816  _status */\n      0x06\n        /* \"@openzeppelin/contracts/security/ReentrancyGuard.sol\":2809:2831  _status = _NOT_ENTERED */\n      dup2\n      swap1\n      sstore\n      pop\n        /* \"@openzeppelin/contracts/security/ReentrancyGuard.sol\":2629:2838  function _nonReentrantAfter() private {... */\n      jump\t// out\n        /* \"@openzeppelin/contracts/access/Ownable.sol\":2433:2620  function _transferOwnership(address newOwner) internal virtual {... */\n    tag_223:\n        /* \"@openzeppelin/contracts/access/Ownable.sol\":2506:2522  address oldOwner */\n      0x00\n        /* \"@openzeppelin/contracts/access/Ownable.sol\":2525:2531  _owner */\n      0x05\n      0x00\n      swap1\n      sload\n      swap1\n      0x0100\n      exp\n      swap1\n      div\n      0xffffffffffffffffffffffffffffffffffffffff\n      and\n        /* \"@openzeppelin/contracts/access/Ownable.sol\":2506:2531  address oldOwner = _owner */\n      swap1\n      pop\n        /* \"@openzeppelin/contracts/access/Ownable.sol\":2550:2558  newOwner */\n      dup2\n        /* \"@openzeppelin/contracts/access/Ownable.sol\":2541:2547  _owner */\n      0x05\n      0x00\n        /* \"@openzeppelin/contracts/access/Ownable.sol\":2541:2558  _owner = newOwner */\n      0x0100\n      exp\n      dup2\n      sload\n      dup2\n      0xffffffffffffffffffffffffffffffffffffffff\n      mul\n      not\n      and\n      swap1\n      dup4\n      0xffffffffffffffffffffffffffffffffffffffff\n      and\n      mul\n      or\n      swap1\n      sstore\n      pop\n        /* \"@openzeppelin/contracts/access/Ownable.sol\":2604:2612  newOwner */\n      dup2\n        /* \"@openzeppelin/contracts/access/Ownable.sol\":2573:2613  OwnershipTransferred(oldOwner, newOwner) */\n      0xffffffffffffffffffffffffffffffffffffffff\n      and\n        /* \"@openzeppelin/contracts/access/Ownable.sol\":2594:2602  oldOwner */\n      dup2\n        /* \"@openzeppelin/contracts/access/Ownable.sol\":2573:2613  OwnershipTransferred(oldOwner, newOwner) */\n      0xffffffffffffffffffffffffffffffffffffffff\n      and\n      0x8be0079c531659141344cd1fd0a4f28419497f9722a3daafe3b4186f6b6457e0\n      mload(0x40)\n      mload(0x40)\n      dup1\n      swap2\n      sub\n      swap1\n      log3\n        /* \"@openzeppelin/contracts/access/Ownable.sol\":2496:2620  {... */\n      pop\n        /* \"@openzeppelin/contracts/access/Ownable.sol\":2433:2620  function _transferOwnership(address newOwner) internal virtual {... */\n      pop\n      jump\t// out\n        /* \"@openzeppelin/contracts/security/Pausable.sol\":2186:2301  function _pause() internal virtual whenNotPaused {... */\n    tag_232:\n        /* \"@openzeppelin/contracts/security/Pausable.sol\":1239:1258  _requireNotPaused() */\n      tag_376\n        /* \"@openzeppelin/contracts/security/Pausable.sol\":1239:1256  _requireNotPaused */\n      tag_193\n        /* \"@openzeppelin/contracts/security/Pausable.sol\":1239:1258  _requireNotPaused() */\n      jump\t// in\n    tag_376:\n        /* \"@openzeppelin/contracts/security/Pausable.sol\":2255:2259  true */\n      0x01\n        /* \"@openzeppelin/contracts/security/Pausable.sol\":2245:2252  _paused */\n      0x05\n      0x14\n        /* \"@openzeppelin/contracts/security/Pausable.sol\":2245:2259  _paused = true */\n      0x0100\n      exp\n      dup2\n      sload\n      dup2\n      0xff\n      mul\n      not\n      and\n      swap1\n      dup4\n      iszero\n      iszero\n      mul\n      or\n      swap1\n      sstore\n      pop\n        /* \"@openzeppelin/contracts/security/Pausable.sol\":2274:2294  Paused(_msgSender()) */\n      0x62e78cea01bee320cd4e420270b5ea74000d11b0c9f74754ebdbfc544b05a258\n        /* \"@openzeppelin/contracts/security/Pausable.sol\":2281:2293  _msgSender() */\n      tag_378\n        /* \"@openzeppelin/contracts/security/Pausable.sol\":2281:2291  _msgSender */\n      tag_164\n        /* \"@openzeppelin/contracts/security/Pausable.sol\":2281:2293  _msgSender() */\n      jump\t// in\n    tag_378:\n        /* \"@openzeppelin/contracts/security/Pausable.sol\":2274:2294  Paused(_msgSender()) */\n      mload(0x40)\n      tag_379\n      swap2\n      swap1\n      tag_104\n      jump\t// in\n    tag_379:\n      mload(0x40)\n      dup1\n      swap2\n      sub\n      swap1\n      log1\n        /* \"@openzeppelin/contracts/security/Pausable.sol\":2186:2301  function _pause() internal virtual whenNotPaused {... */\n      jump\t// out\n        /* \"contracts/DegenToken.sol\":2532:2817  function _getItemCost(uint256 itemId) internal view returns (uint256) {... */\n    tag_255:\n        /* \"contracts/DegenToken.sol\":2593:2600  uint256 */\n      0x00\n        /* \"contracts/DegenToken.sol\":2617:2623  uint i */\n      dup1\n        /* \"contracts/DegenToken.sol\":2626:2627  0 */\n      0x00\n        /* \"contracts/DegenToken.sol\":2617:2627  uint i = 0 */\n      swap1\n      pop\n        /* \"contracts/DegenToken.sol\":2612:2775  for (uint i = 0; i < storeItems.length; i++) {... */\n    tag_381:\n        /* \"contracts/DegenToken.sol\":2633:2643  storeItems */\n      0x07\n        /* \"contracts/DegenToken.sol\":2633:2650  storeItems.length */\n      dup1\n      sload\n      swap1\n      pop\n        /* \"contracts/DegenToken.sol\":2629:2630  i */\n      dup2\n        /* \"contracts/DegenToken.sol\":2629:2650  i < storeItems.length */\n      lt\n        /* \"contracts/DegenToken.sol\":2612:2775  for (uint i = 0; i < storeItems.length; i++) {... */\n      iszero\n      tag_382\n      jumpi\n        /* \"contracts/DegenToken.sol\":2699:2705  itemId */\n      dup3\n        /* \"contracts/DegenToken.sol\":2675:2685  storeItems */\n      0x07\n        /* \"contracts/DegenToken.sol\":2686:2687  i */\n      dup3\n        /* \"contracts/DegenToken.sol\":2675:2688  storeItems[i] */\n      dup2\n      sload\n      dup2\n      lt\n      tag_384\n      jumpi\n      tag_385\n      tag_148\n      jump\t// in\n    tag_385:\n    tag_384:\n      swap1\n      0x00\n      mstore\n      keccak256(0x00, 0x20)\n      swap1\n      0x03\n      mul\n      add\n        /* \"contracts/DegenToken.sol\":2675:2695  storeItems[i].itemId */\n      0x00\n      add\n      sload\n        /* \"contracts/DegenToken.sol\":2675:2705  storeItems[i].itemId == itemId */\n      sub\n        /* \"contracts/DegenToken.sol\":2671:2765  if (storeItems[i].itemId == itemId) {... */\n      tag_387\n      jumpi\n        /* \"contracts/DegenToken.sol\":2732:2742  storeItems */\n      0x07\n        /* \"contracts/DegenToken.sol\":2743:2744  i */\n      dup2\n        /* \"contracts/DegenToken.sol\":2732:2745  storeItems[i] */\n      dup2\n      sload\n      dup2\n      lt\n      tag_388\n      jumpi\n      tag_389\n      tag_148\n      jump\t// in\n    tag_389:\n    tag_388:\n      swap1\n      0x00\n      mstore\n      keccak256(0x00, 0x20)\n      swap1\n      0x03\n      mul\n      add\n        /* \"contracts/DegenToken.sol\":2732:2750  storeItems[i].cost */\n      0x02\n      add\n      sload\n        /* \"contracts/DegenToken.sol\":2725:2750  return storeItems[i].cost */\n      swap2\n      pop\n      pop\n      jump(tag_380)\n        /* \"contracts/DegenToken.sol\":2671:2765  if (storeItems[i].itemId == itemId) {... */\n    tag_387:\n        /* \"contracts/DegenToken.sol\":2652:2655  i++ */\n      dup1\n      dup1\n      tag_391\n      swap1\n      tag_161\n      jump\t// in\n    tag_391:\n      swap2\n      pop\n      pop\n        /* \"contracts/DegenToken.sol\":2612:2775  for (uint i = 0; i < storeItems.length; i++) {... */\n      jump(tag_381)\n    tag_382:\n      pop\n        /* \"contracts/DegenToken.sol\":2784:2810  revert(\"Invalid item ID.\") */\n      mload(0x40)\n      0x08c379a000000000000000000000000000000000000000000000000000000000\n      dup2\n      mstore\n      0x04\n      add\n      tag_392\n      swap1\n      tag_393\n      jump\t// in\n    tag_392:\n      mload(0x40)\n      dup1\n      swap2\n      sub\n      swap1\n      revert\n        /* \"contracts/DegenToken.sol\":2532:2817  function _getItemCost(uint256 itemId) internal view returns (uint256) {... */\n    tag_380:\n      swap2\n      swap1\n      pop\n      jump\t// out\n        /* \"@openzeppelin/contracts/token/ERC20/ERC20.sol\":12180:12301  function _beforeTokenTransfer(... */\n    tag_327:\n      pop\n      pop\n      pop\n      jump\t// out\n        /* \"@openzeppelin/contracts/token/ERC20/ERC20.sol\":12889:13009  function _afterTokenTransfer(... */\n    tag_333:\n      pop\n      pop\n      pop\n      jump\t// out\n        /* \"@openzeppelin/contracts/security/Pausable.sol\":1945:2051  function _requirePaused() internal view virtual {... */\n    tag_342:\n        /* \"@openzeppelin/contracts/security/Pausable.sol\":2011:2019  paused() */\n      tag_397\n        /* \"@openzeppelin/contracts/security/Pausable.sol\":2011:2017  paused */\n      tag_84\n        /* \"@openzeppelin/contracts/security/Pausable.sol\":2011:2019  paused() */\n      jump\t// in\n    tag_397:\n        /* \"@openzeppelin/contracts/security/Pausable.sol\":2003:2044  require(paused(), \"Pausable: not paused\") */\n      tag_398\n      jumpi\n      mload(0x40)\n      0x08c379a000000000000000000000000000000000000000000000000000000000\n      dup2\n      mstore\n      0x04\n      add\n      tag_399\n      swap1\n      tag_400\n      jump\t// in\n    tag_399:\n      mload(0x40)\n      dup1\n      swap2\n      sub\n      swap1\n      revert\n    tag_398:\n        /* \"@openzeppelin/contracts/security/Pausable.sol\":1945:2051  function _requirePaused() internal view virtual {... */\n      jump\t// out\n        /* \"#utility.yul\":7:106   */\n    tag_401:\n        /* \"#utility.yul\":59:65   */\n      0x00\n        /* \"#utility.yul\":93:98   */\n      dup2\n        /* \"#utility.yul\":87:99   */\n      mload\n        /* \"#utility.yul\":77:99   */\n      swap1\n      pop\n        /* \"#utility.yul\":7:106   */\n      swap2\n      swap1\n      pop\n      jump\t// out\n        /* \"#utility.yul\":112:281   */\n    tag_402:\n        /* \"#utility.yul\":196:207   */\n      0x00\n        /* \"#utility.yul\":230:236   */\n      dup3\n        /* \"#utility.yul\":225:228   */\n      dup3\n        /* \"#utility.yul\":218:237   */\n      mstore\n        /* \"#utility.yul\":270:274   */\n      0x20\n        /* \"#utility.yul\":265:268   */\n      dup3\n        /* \"#utility.yul\":261:275   */\n      add\n        /* \"#utility.yul\":246:275   */\n      swap1\n      pop\n        /* \"#utility.yul\":112:281   */\n      swap3\n      swap2\n      pop\n      pop\n      jump\t// out\n        /* \"#utility.yul\":287:533   */\n    tag_403:\n        /* \"#utility.yul\":368:369   */\n      0x00\n        /* \"#utility.yul\":378:491   */\n    tag_473:\n        /* \"#utility.yul\":392:398   */\n      dup4\n        /* \"#utility.yul\":389:390   */\n      dup2\n        /* \"#utility.yul\":386:399   */\n      lt\n        /* \"#utility.yul\":378:491   */\n      iszero\n      tag_475\n      jumpi\n        /* \"#utility.yul\":477:478   */\n      dup1\n        /* \"#utility.yul\":472:475   */\n      dup3\n        /* \"#utility.yul\":468:479   */\n      add\n        /* \"#utility.yul\":462:480   */\n      mload\n        /* \"#utility.yul\":458:459   */\n      dup2\n        /* \"#utility.yul\":453:456   */\n      dup5\n        /* \"#utility.yul\":449:460   */\n      add\n        /* \"#utility.yul\":442:481   */\n      mstore\n        /* \"#utility.yul\":414:416   */\n      0x20\n        /* \"#utility.yul\":411:412   */\n      dup2\n        /* \"#utility.yul\":407:417   */\n      add\n        /* \"#utility.yul\":402:417   */\n      swap1\n      pop\n        /* \"#utility.yul\":378:491   */\n      jump(tag_473)\n    tag_475:\n        /* \"#utility.yul\":525:526   */\n      0x00\n        /* \"#utility.yul\":516:522   */\n      dup5\n        /* \"#utility.yul\":511:514   */\n      dup5\n        /* \"#utility.yul\":507:523   */\n      add\n        /* \"#utility.yul\":500:527   */\n      mstore\n        /* \"#utility.yul\":349:533   */\n      pop\n        /* \"#utility.yul\":287:533   */\n      pop\n      pop\n      pop\n      jump\t// out\n        /* \"#utility.yul\":539:641   */\n    tag_404:\n        /* \"#utility.yul\":580:586   */\n      0x00\n        /* \"#utility.yul\":631:633   */\n      0x1f\n        /* \"#utility.yul\":627:634   */\n      not\n        /* \"#utility.yul\":622:624   */\n      0x1f\n        /* \"#utility.yul\":615:620   */\n      dup4\n        /* \"#utility.yul\":611:625   */\n      add\n        /* \"#utility.yul\":607:635   */\n      and\n        /* \"#utility.yul\":597:635   */\n      swap1\n      pop\n        /* \"#utility.yul\":539:641   */\n      swap2\n      swap1\n      pop\n      jump\t// out\n        /* \"#utility.yul\":647:1024   */\n    tag_405:\n        /* \"#utility.yul\":735:738   */\n      0x00\n        /* \"#utility.yul\":763:802   */\n      tag_478\n        /* \"#utility.yul\":796:801   */\n      dup3\n        /* \"#utility.yul\":763:802   */\n      tag_401\n      jump\t// in\n    tag_478:\n        /* \"#utility.yul\":818:889   */\n      tag_479\n        /* \"#utility.yul\":882:888   */\n      dup2\n        /* \"#utility.yul\":877:880   */\n      dup6\n        /* \"#utility.yul\":818:889   */\n      tag_402\n      jump\t// in\n    tag_479:\n        /* \"#utility.yul\":811:889   */\n      swap4\n      pop\n        /* \"#utility.yul\":898:963   */\n      tag_480\n        /* \"#utility.yul\":956:962   */\n      dup2\n        /* \"#utility.yul\":951:954   */\n      dup6\n        /* \"#utility.yul\":944:948   */\n      0x20\n        /* \"#utility.yul\":937:942   */\n      dup7\n        /* \"#utility.yul\":933:949   */\n      add\n        /* \"#utility.yul\":898:963   */\n      tag_403\n      jump\t// in\n    tag_480:\n        /* \"#utility.yul\":988:1017   */\n      tag_481\n        /* \"#utility.yul\":1010:1016   */\n      dup2\n        /* \"#utility.yul\":988:1017   */\n      tag_404\n      jump\t// in\n    tag_481:\n        /* \"#utility.yul\":983:986   */\n      dup5\n        /* \"#utility.yul\":979:1018   */\n      add\n        /* \"#utility.yul\":972:1018   */\n      swap2\n      pop\n        /* \"#utility.yul\":739:1024   */\n      pop\n        /* \"#utility.yul\":647:1024   */\n      swap3\n      swap2\n      pop\n      pop\n      jump\t// out\n        /* \"#utility.yul\":1030:1343   */\n    tag_39:\n        /* \"#utility.yul\":1143:1147   */\n      0x00\n        /* \"#utility.yul\":1181:1183   */\n      0x20\n        /* \"#utility.yul\":1170:1179   */\n      dup3\n        /* \"#utility.yul\":1166:1184   */\n      add\n        /* \"#utility.yul\":1158:1184   */\n      swap1\n      pop\n        /* \"#utility.yul\":1230:1239   */\n      dup2\n        /* \"#utility.yul\":1224:1228   */\n      dup2\n        /* \"#utility.yul\":1220:1240   */\n      sub\n        /* \"#utility.yul\":1216:1217   */\n      0x00\n        /* \"#utility.yul\":1205:1214   */\n      dup4\n        /* \"#utility.yul\":1201:1218   */\n      add\n        /* \"#utility.yul\":1194:1241   */\n      mstore\n        /* \"#utility.yul\":1258:1336   */\n      tag_483\n        /* \"#utility.yul\":1331:1335   */\n      dup2\n        /* \"#utility.yul\":1322:1328   */\n      dup5\n        /* \"#utility.yul\":1258:1336   */\n      tag_405\n      jump\t// in\n    tag_483:\n        /* \"#utility.yul\":1250:1336   */\n      swap1\n      pop\n        /* \"#utility.yul\":1030:1343   */\n      swap3\n      swap2\n      pop\n      pop\n      jump\t// out\n        /* \"#utility.yul\":1430:1547   */\n    tag_407:\n        /* \"#utility.yul\":1539:1540   */\n      0x00\n        /* \"#utility.yul\":1536:1537   */\n      dup1\n        /* \"#utility.yul\":1529:1541   */\n      revert\n        /* \"#utility.yul\":1676:1802   */\n    tag_409:\n        /* \"#utility.yul\":1713:1720   */\n      0x00\n        /* \"#utility.yul\":1753:1795   */\n      0xffffffffffffffffffffffffffffffffffffffff\n        /* \"#utility.yul\":1746:1751   */\n      dup3\n        /* \"#utility.yul\":1742:1796   */\n      and\n        /* \"#utility.yul\":1731:1796   */\n      swap1\n      pop\n        /* \"#utility.yul\":1676:1802   */\n      swap2\n      swap1\n      pop\n      jump\t// out\n        /* \"#utility.yul\":1808:1904   */\n    tag_410:\n        /* \"#utility.yul\":1845:1852   */\n      0x00\n        /* \"#utility.yul\":1874:1898   */\n      tag_489\n        /* \"#utility.yul\":1892:1897   */\n      dup3\n        /* \"#utility.yul\":1874:1898   */\n      tag_409\n      jump\t// in\n    tag_489:\n        /* \"#utility.yul\":1863:1898   */\n      swap1\n      pop\n        /* \"#utility.yul\":1808:1904   */\n      swap2\n      swap1\n      pop\n      jump\t// out\n        /* \"#utility.yul\":1910:2032   */\n    tag_411:\n        /* \"#utility.yul\":1983:2007   */\n      tag_491\n        /* \"#utility.yul\":2001:2006   */\n      dup2\n        /* \"#utility.yul\":1983:2007   */\n      tag_410\n      jump\t// in\n    tag_491:\n        /* \"#utility.yul\":1976:1981   */\n      dup2\n        /* \"#utility.yul\":1973:2008   */\n      eq\n        /* \"#utility.yul\":1963:2026   */\n      tag_492\n      jumpi\n        /* \"#utility.yul\":2022:2023   */\n      0x00\n        /* \"#utility.yul\":2019:2020   */\n      dup1\n        /* \"#utility.yul\":2012:2024   */\n      revert\n        /* \"#utility.yul\":1963:2026   */\n    tag_492:\n        /* \"#utility.yul\":1910:2032   */\n      pop\n      jump\t// out\n        /* \"#utility.yul\":2038:2177   */\n    tag_412:\n        /* \"#utility.yul\":2084:2089   */\n      0x00\n        /* \"#utility.yul\":2122:2128   */\n      dup2\n        /* \"#utility.yul\":2109:2129   */\n      calldataload\n        /* \"#utility.yul\":2100:2129   */\n      swap1\n      pop\n        /* \"#utility.yul\":2138:2171   */\n      tag_494\n        /* \"#utility.yul\":2165:2170   */\n      dup2\n        /* \"#utility.yul\":2138:2171   */\n      tag_411\n      jump\t// in\n    tag_494:\n        /* \"#utility.yul\":2038:2177   */\n      swap3\n      swap2\n      pop\n      pop\n      jump\t// out\n        /* \"#utility.yul\":2183:2260   */\n    tag_413:\n        /* \"#utility.yul\":2220:2227   */\n      0x00\n        /* \"#utility.yul\":2249:2254   */\n      dup2\n        /* \"#utility.yul\":2238:2254   */\n      swap1\n      pop\n        /* \"#utility.yul\":2183:2260   */\n      swap2\n      swap1\n      pop\n      jump\t// out\n        /* \"#utility.yul\":2266:2388   */\n    tag_414:\n        /* \"#utility.yul\":2339:2363   */\n      tag_497\n        /* \"#utility.yul\":2357:2362   */\n      dup2\n        /* \"#utility.yul\":2339:2363   */\n      tag_413\n      jump\t// in\n    tag_497:\n        /* \"#utility.yul\":2332:2337   */\n      dup2\n        /* \"#utility.yul\":2329:2364   */\n      eq\n        /* \"#utility.yul\":2319:2382   */\n      tag_498\n      jumpi\n        /* \"#utility.yul\":2378:2379   */\n      0x00\n        /* \"#utility.yul\":2375:2376   */\n      dup1\n        /* \"#utility.yul\":2368:2380   */\n      revert\n        /* \"#utility.yul\":2319:2382   */\n    tag_498:\n        /* \"#utility.yul\":2266:2388   */\n      pop\n      jump\t// out\n        /* \"#utility.yul\":2394:2533   */\n    tag_415:\n        /* \"#utility.yul\":2440:2445   */\n      0x00\n        /* \"#utility.yul\":2478:2484   */\n      dup2\n        /* \"#utility.yul\":2465:2485   */\n      calldataload\n        /* \"#utility.yul\":2456:2485   */\n      swap1\n      pop\n        /* \"#utility.yul\":2494:2527   */\n      tag_500\n        /* \"#utility.yul\":2521:2526   */\n      dup2\n        /* \"#utility.yul\":2494:2527   */\n      tag_414\n      jump\t// in\n    tag_500:\n        /* \"#utility.yul\":2394:2533   */\n      swap3\n      swap2\n      pop\n      pop\n      jump\t// out\n        /* \"#utility.yul\":2539:3013   */\n    tag_45:\n        /* \"#utility.yul\":2607:2613   */\n      0x00\n        /* \"#utility.yul\":2615:2621   */\n      dup1\n        /* \"#utility.yul\":2664:2666   */\n      0x40\n        /* \"#utility.yul\":2652:2661   */\n      dup4\n        /* \"#utility.yul\":2643:2650   */\n      dup6\n        /* \"#utility.yul\":2639:2662   */\n      sub\n        /* \"#utility.yul\":2635:2667   */\n      slt\n        /* \"#utility.yul\":2632:2751   */\n      iszero\n      tag_502\n      jumpi\n        /* \"#utility.yul\":2670:2749   */\n      tag_503\n      tag_407\n      jump\t// in\n    tag_503:\n        /* \"#utility.yul\":2632:2751   */\n    tag_502:\n        /* \"#utility.yul\":2790:2791   */\n      0x00\n        /* \"#utility.yul\":2815:2868   */\n      tag_504\n        /* \"#utility.yul\":2860:2867   */\n      dup6\n        /* \"#utility.yul\":2851:2857   */\n      dup3\n        /* \"#utility.yul\":2840:2849   */\n      dup7\n        /* \"#utility.yul\":2836:2858   */\n      add\n        /* \"#utility.yul\":2815:2868   */\n      tag_412\n      jump\t// in\n    tag_504:\n        /* \"#utility.yul\":2805:2868   */\n      swap3\n      pop\n        /* \"#utility.yul\":2761:2878   */\n      pop\n        /* \"#utility.yul\":2917:2919   */\n      0x20\n        /* \"#utility.yul\":2943:2996   */\n      tag_505\n        /* \"#utility.yul\":2988:2995   */\n      dup6\n        /* \"#utility.yul\":2979:2985   */\n      dup3\n        /* \"#utility.yul\":2968:2977   */\n      dup7\n        /* \"#utility.yul\":2964:2986   */\n      add\n        /* \"#utility.yul\":2943:2996   */\n      tag_415\n      jump\t// in\n    tag_505:\n        /* \"#utility.yul\":2933:2996   */\n      swap2\n      pop\n        /* \"#utility.yul\":2888:3006   */\n      pop\n        /* \"#utility.yul\":2539:3013   */\n      swap3\n      pop\n      swap3\n      swap1\n      pop\n      jump\t// out\n        /* \"#utility.yul\":3019:3109   */\n    tag_416:\n        /* \"#utility.yul\":3053:3060   */\n      0x00\n        /* \"#utility.yul\":3096:3101   */\n      dup2\n        /* \"#utility.yul\":3089:3102   */\n      iszero\n        /* \"#utility.yul\":3082:3103   */\n      iszero\n        /* \"#utility.yul\":3071:3103   */\n      swap1\n      pop\n        /* \"#utility.yul\":3019:3109   */\n      swap2\n      swap1\n      pop\n      jump\t// out\n        /* \"#utility.yul\":3115:3224   */\n    tag_417:\n        /* \"#utility.yul\":3196:3217   */\n      tag_508\n        /* \"#utility.yul\":3211:3216   */\n      dup2\n        /* \"#utility.yul\":3196:3217   */\n      tag_416\n      jump\t// in\n    tag_508:\n        /* \"#utility.yul\":3191:3194   */\n      dup3\n        /* \"#utility.yul\":3184:3218   */\n      mstore\n        /* \"#utility.yul\":3115:3224   */\n      pop\n      pop\n      jump\t// out\n        /* \"#utility.yul\":3230:3440   */\n    tag_48:\n        /* \"#utility.yul\":3317:3321   */\n      0x00\n        /* \"#utility.yul\":3355:3357   */\n      0x20\n        /* \"#utility.yul\":3344:3353   */\n      dup3\n        /* \"#utility.yul\":3340:3358   */\n      add\n        /* \"#utility.yul\":3332:3358   */\n      swap1\n      pop\n        /* \"#utility.yul\":3368:3433   */\n      tag_510\n        /* \"#utility.yul\":3430:3431   */\n      0x00\n        /* \"#utility.yul\":3419:3428   */\n      dup4\n        /* \"#utility.yul\":3415:3432   */\n      add\n        /* \"#utility.yul\":3406:3412   */\n      dup5\n        /* \"#utility.yul\":3368:3433   */\n      tag_417\n      jump\t// in\n    tag_510:\n        /* \"#utility.yul\":3230:3440   */\n      swap3\n      swap2\n      pop\n      pop\n      jump\t// out\n        /* \"#utility.yul\":3446:3564   */\n    tag_418:\n        /* \"#utility.yul\":3533:3557   */\n      tag_512\n        /* \"#utility.yul\":3551:3556   */\n      dup2\n        /* \"#utility.yul\":3533:3557   */\n      tag_413\n      jump\t// in\n    tag_512:\n        /* \"#utility.yul\":3528:3531   */\n      dup3\n        /* \"#utility.yul\":3521:3558   */\n      mstore\n        /* \"#utility.yul\":3446:3564   */\n      pop\n      pop\n      jump\t// out\n        /* \"#utility.yul\":3570:3792   */\n    tag_52:\n        /* \"#utility.yul\":3663:3667   */\n      0x00\n        /* \"#utility.yul\":3701:3703   */\n      0x20\n        /* \"#utility.yul\":3690:3699   */\n      dup3\n        /* \"#utility.yul\":3686:3704   */\n      add\n        /* \"#utility.yul\":3678:3704   */\n      swap1\n      pop\n        /* \"#utility.yul\":3714:3785   */\n      tag_514\n        /* \"#utility.yul\":3782:3783   */\n      0x00\n        /* \"#utility.yul\":3771:3780   */\n      dup4\n        /* \"#utility.yul\":3767:3784   */\n      add\n        /* \"#utility.yul\":3758:3764   */\n      dup5\n        /* \"#utility.yul\":3714:3785   */\n      tag_418\n      jump\t// in\n    tag_514:\n        /* \"#utility.yul\":3570:3792   */\n      swap3\n      swap2\n      pop\n      pop\n      jump\t// out\n        /* \"#utility.yul\":3798:4417   */\n    tag_58:\n        /* \"#utility.yul\":3875:3881   */\n      0x00\n        /* \"#utility.yul\":3883:3889   */\n      dup1\n        /* \"#utility.yul\":3891:3897   */\n      0x00\n        /* \"#utility.yul\":3940:3942   */\n      0x60\n        /* \"#utility.yul\":3928:3937   */\n      dup5\n        /* \"#utility.yul\":3919:3926   */\n      dup7\n        /* \"#utility.yul\":3915:3938   */\n      sub\n        /* \"#utility.yul\":3911:3943   */\n      slt\n        /* \"#utility.yul\":3908:4027   */\n      iszero\n      tag_516\n      jumpi\n        /* \"#utility.yul\":3946:4025   */\n      tag_517\n      tag_407\n      jump\t// in\n    tag_517:\n        /* \"#utility.yul\":3908:4027   */\n    tag_516:\n        /* \"#utility.yul\":4066:4067   */\n      0x00\n        /* \"#utility.yul\":4091:4144   */\n      tag_518\n        /* \"#utility.yul\":4136:4143   */\n      dup7\n        /* \"#utility.yul\":4127:4133   */\n      dup3\n        /* \"#utility.yul\":4116:4125   */\n      dup8\n        /* \"#utility.yul\":4112:4134   */\n      add\n        /* \"#utility.yul\":4091:4144   */\n      tag_412\n      jump\t// in\n    tag_518:\n        /* \"#utility.yul\":4081:4144   */\n      swap4\n      pop\n        /* \"#utility.yul\":4037:4154   */\n      pop\n        /* \"#utility.yul\":4193:4195   */\n      0x20\n        /* \"#utility.yul\":4219:4272   */\n      tag_519\n        /* \"#utility.yul\":4264:4271   */\n      dup7\n        /* \"#utility.yul\":4255:4261   */\n      dup3\n        /* \"#utility.yul\":4244:4253   */\n      dup8\n        /* \"#utility.yul\":4240:4262   */\n      add\n        /* \"#utility.yul\":4219:4272   */\n      tag_412\n      jump\t// in\n    tag_519:\n        /* \"#utility.yul\":4209:4272   */\n      swap3\n      pop\n        /* \"#utility.yul\":4164:4282   */\n      pop\n        /* \"#utility.yul\":4321:4323   */\n      0x40\n        /* \"#utility.yul\":4347:4400   */\n      tag_520\n        /* \"#utility.yul\":4392:4399   */\n      dup7\n        /* \"#utility.yul\":4383:4389   */\n      dup3\n        /* \"#utility.yul\":4372:4381   */\n      dup8\n        /* \"#utility.yul\":4368:4390   */\n      add\n        /* \"#utility.yul\":4347:4400   */\n      tag_415\n      jump\t// in\n    tag_520:\n        /* \"#utility.yul\":4337:4400   */\n      swap2\n      pop\n        /* \"#utility.yul\":4292:4410   */\n      pop\n        /* \"#utility.yul\":3798:4417   */\n      swap3\n      pop\n      swap3\n      pop\n      swap3\n      jump\t// out\n        /* \"#utility.yul\":4423:4509   */\n    tag_419:\n        /* \"#utility.yul\":4458:4465   */\n      0x00\n        /* \"#utility.yul\":4498:4502   */\n      0xff\n        /* \"#utility.yul\":4491:4496   */\n      dup3\n        /* \"#utility.yul\":4487:4503   */\n      and\n        /* \"#utility.yul\":4476:4503   */\n      swap1\n      pop\n        /* \"#utility.yul\":4423:4509   */\n      swap2\n      swap1\n      pop\n      jump\t// out\n        /* \"#utility.yul\":4515:4627   */\n    tag_420:\n        /* \"#utility.yul\":4598:4620   */\n      tag_523\n        /* \"#utility.yul\":4614:4619   */\n      dup2\n        /* \"#utility.yul\":4598:4620   */\n      tag_419\n      jump\t// in\n    tag_523:\n        /* \"#utility.yul\":4593:4596   */\n      dup3\n        /* \"#utility.yul\":4586:4621   */\n      mstore\n        /* \"#utility.yul\":4515:4627   */\n      pop\n      pop\n      jump\t// out\n        /* \"#utility.yul\":4633:4847   */\n    tag_64:\n        /* \"#utility.yul\":4722:4726   */\n      0x00\n        /* \"#utility.yul\":4760:4762   */\n      0x20\n        /* \"#utility.yul\":4749:4758   */\n      dup3\n        /* \"#utility.yul\":4745:4763   */\n      add\n        /* \"#utility.yul\":4737:4763   */\n      swap1\n      pop\n        /* \"#utility.yul\":4773:4840   */\n      tag_525\n        /* \"#utility.yul\":4837:4838   */\n      0x00\n        /* \"#utility.yul\":4826:4835   */\n      dup4\n        /* \"#utility.yul\":4822:4839   */\n      add\n        /* \"#utility.yul\":4813:4819   */\n      dup5\n        /* \"#utility.yul\":4773:4840   */\n      tag_420\n      jump\t// in\n    tag_525:\n        /* \"#utility.yul\":4633:4847   */\n      swap3\n      swap2\n      pop\n      pop\n      jump\t// out\n        /* \"#utility.yul\":4853:5182   */\n    tag_76:\n        /* \"#utility.yul\":4912:4918   */\n      0x00\n        /* \"#utility.yul\":4961:4963   */\n      0x20\n        /* \"#utility.yul\":4949:4958   */\n      dup3\n        /* \"#utility.yul\":4940:4947   */\n      dup5\n        /* \"#utility.yul\":4936:4959   */\n      sub\n        /* \"#utility.yul\":4932:4964   */\n      slt\n        /* \"#utility.yul\":4929:5048   */\n      iszero\n      tag_527\n      jumpi\n        /* \"#utility.yul\":4967:5046   */\n      tag_528\n      tag_407\n      jump\t// in\n    tag_528:\n        /* \"#utility.yul\":4929:5048   */\n    tag_527:\n        /* \"#utility.yul\":5087:5088   */\n      0x00\n        /* \"#utility.yul\":5112:5165   */\n      tag_529\n        /* \"#utility.yul\":5157:5164   */\n      dup5\n        /* \"#utility.yul\":5148:5154   */\n      dup3\n        /* \"#utility.yul\":5137:5146   */\n      dup6\n        /* \"#utility.yul\":5133:5155   */\n      add\n        /* \"#utility.yul\":5112:5165   */\n      tag_415\n      jump\t// in\n    tag_529:\n        /* \"#utility.yul\":5102:5165   */\n      swap2\n      pop\n        /* \"#utility.yul\":5058:5175   */\n      pop\n        /* \"#utility.yul\":4853:5182   */\n      swap3\n      swap2\n      pop\n      pop\n      jump\t// out\n        /* \"#utility.yul\":5188:5721   */\n    tag_82:\n        /* \"#utility.yul\":5357:5361   */\n      0x00\n        /* \"#utility.yul\":5395:5397   */\n      0x60\n        /* \"#utility.yul\":5384:5393   */\n      dup3\n        /* \"#utility.yul\":5380:5398   */\n      add\n        /* \"#utility.yul\":5372:5398   */\n      swap1\n      pop\n        /* \"#utility.yul\":5408:5479   */\n      tag_531\n        /* \"#utility.yul\":5476:5477   */\n      0x00\n        /* \"#utility.yul\":5465:5474   */\n      dup4\n        /* \"#utility.yul\":5461:5478   */\n      add\n        /* \"#utility.yul\":5452:5458   */\n      dup7\n        /* \"#utility.yul\":5408:5479   */\n      tag_418\n      jump\t// in\n    tag_531:\n        /* \"#utility.yul\":5526:5535   */\n      dup2\n        /* \"#utility.yul\":5520:5524   */\n      dup2\n        /* \"#utility.yul\":5516:5536   */\n      sub\n        /* \"#utility.yul\":5511:5513   */\n      0x20\n        /* \"#utility.yul\":5500:5509   */\n      dup4\n        /* \"#utility.yul\":5496:5514   */\n      add\n        /* \"#utility.yul\":5489:5537   */\n      mstore\n        /* \"#utility.yul\":5554:5632   */\n      tag_532\n        /* \"#utility.yul\":5627:5631   */\n      dup2\n        /* \"#utility.yul\":5618:5624   */\n      dup6\n        /* \"#utility.yul\":5554:5632   */\n      tag_405\n      jump\t// in\n    tag_532:\n        /* \"#utility.yul\":5546:5632   */\n      swap1\n      pop\n        /* \"#utility.yul\":5642:5714   */\n      tag_533\n        /* \"#utility.yul\":5710:5712   */\n      0x40\n        /* \"#utility.yul\":5699:5708   */\n      dup4\n        /* \"#utility.yul\":5695:5713   */\n      add\n        /* \"#utility.yul\":5686:5692   */\n      dup5\n        /* \"#utility.yul\":5642:5714   */\n      tag_418\n      jump\t// in\n    tag_533:\n        /* \"#utility.yul\":5188:5721   */\n      swap5\n      swap4\n      pop\n      pop\n      pop\n      pop\n      jump\t// out\n        /* \"#utility.yul\":5727:6056   */\n    tag_91:\n        /* \"#utility.yul\":5786:5792   */\n      0x00\n        /* \"#utility.yul\":5835:5837   */\n      0x20\n        /* \"#utility.yul\":5823:5832   */\n      dup3\n        /* \"#utility.yul\":5814:5821   */\n      dup5\n        /* \"#utility.yul\":5810:5833   */\n      sub\n        /* \"#utility.yul\":5806:5838   */\n      slt\n        /* \"#utility.yul\":5803:5922   */\n      iszero\n      tag_535\n      jumpi\n        /* \"#utility.yul\":5841:5920   */\n      tag_536\n      tag_407\n      jump\t// in\n    tag_536:\n        /* \"#utility.yul\":5803:5922   */\n    tag_535:\n        /* \"#utility.yul\":5961:5962   */\n      0x00\n        /* \"#utility.yul\":5986:6039   */\n      tag_537\n        /* \"#utility.yul\":6031:6038   */\n      dup5\n        /* \"#utility.yul\":6022:6028   */\n      dup3\n        /* \"#utility.yul\":6011:6020   */\n      dup6\n        /* \"#utility.yul\":6007:6029   */\n      add\n        /* \"#utility.yul\":5986:6039   */\n      tag_412\n      jump\t// in\n    tag_537:\n        /* \"#utility.yul\":5976:6039   */\n      swap2\n      pop\n        /* \"#utility.yul\":5932:6049   */\n      pop\n        /* \"#utility.yul\":5727:6056   */\n      swap3\n      swap2\n      pop\n      pop\n      jump\t// out\n        /* \"#utility.yul\":6062:6180   */\n    tag_421:\n        /* \"#utility.yul\":6149:6173   */\n      tag_539\n        /* \"#utility.yul\":6167:6172   */\n      dup2\n        /* \"#utility.yul\":6149:6173   */\n      tag_410\n      jump\t// in\n    tag_539:\n        /* \"#utility.yul\":6144:6147   */\n      dup3\n        /* \"#utility.yul\":6137:6174   */\n      mstore\n        /* \"#utility.yul\":6062:6180   */\n      pop\n      pop\n      jump\t// out\n        /* \"#utility.yul\":6186:6408   */\n    tag_104:\n        /* \"#utility.yul\":6279:6283   */\n      0x00\n        /* \"#utility.yul\":6317:6319   */\n      0x20\n        /* \"#utility.yul\":6306:6315   */\n      dup3\n        /* \"#utility.yul\":6302:6320   */\n      add\n        /* \"#utility.yul\":6294:6320   */\n      swap1\n      pop\n        /* \"#utility.yul\":6330:6401   */\n      tag_541\n        /* \"#utility.yul\":6398:6399   */\n      0x00\n        /* \"#utility.yul\":6387:6396   */\n      dup4\n        /* \"#utility.yul\":6383:6400   */\n      add\n        /* \"#utility.yul\":6374:6380   */\n      dup5\n        /* \"#utility.yul\":6330:6401   */\n      tag_421\n      jump\t// in\n    tag_541:\n        /* \"#utility.yul\":6186:6408   */\n      swap3\n      swap2\n      pop\n      pop\n      jump\t// out\n        /* \"#utility.yul\":6414:6888   */\n    tag_128:\n        /* \"#utility.yul\":6482:6488   */\n      0x00\n        /* \"#utility.yul\":6490:6496   */\n      dup1\n        /* \"#utility.yul\":6539:6541   */\n      0x40\n        /* \"#utility.yul\":6527:6536   */\n      dup4\n        /* \"#utility.yul\":6518:6525   */\n      dup6\n        /* \"#utility.yul\":6514:6537   */\n      sub\n        /* \"#utility.yul\":6510:6542   */\n      slt\n        /* \"#utility.yul\":6507:6626   */\n      iszero\n      tag_543\n      jumpi\n        /* \"#utility.yul\":6545:6624   */\n      tag_544\n      tag_407\n      jump\t// in\n    tag_544:\n        /* \"#utility.yul\":6507:6626   */\n    tag_543:\n        /* \"#utility.yul\":6665:6666   */\n      0x00\n        /* \"#utility.yul\":6690:6743   */\n      tag_545\n        /* \"#utility.yul\":6735:6742   */\n      dup6\n        /* \"#utility.yul\":6726:6732   */\n      dup3\n        /* \"#utility.yul\":6715:6724   */\n      dup7\n        /* \"#utility.yul\":6711:6733   */\n      add\n        /* \"#utility.yul\":6690:6743   */\n      tag_412\n      jump\t// in\n    tag_545:\n        /* \"#utility.yul\":6680:6743   */\n      swap3\n      pop\n        /* \"#utility.yul\":6636:6753   */\n      pop\n        /* \"#utility.yul\":6792:6794   */\n      0x20\n        /* \"#utility.yul\":6818:6871   */\n      tag_546\n        /* \"#utility.yul\":6863:6870   */\n      dup6\n        /* \"#utility.yul\":6854:6860   */\n      dup3\n        /* \"#utility.yul\":6843:6852   */\n      dup7\n        /* \"#utility.yul\":6839:6861   */\n      add\n        /* \"#utility.yul\":6818:6871   */\n      tag_412\n      jump\t// in\n    tag_546:\n        /* \"#utility.yul\":6808:6871   */\n      swap2\n      pop\n        /* \"#utility.yul\":6763:6881   */\n      pop\n        /* \"#utility.yul\":6414:6888   */\n      swap3\n      pop\n      swap3\n      swap1\n      pop\n      jump\t// out\n        /* \"#utility.yul\":6894:7074   */\n    tag_422:\n        /* \"#utility.yul\":6942:7019   */\n      0x4e487b7100000000000000000000000000000000000000000000000000000000\n        /* \"#utility.yul\":6939:6940   */\n      0x00\n        /* \"#utility.yul\":6932:7020   */\n      mstore\n        /* \"#utility.yul\":7039:7043   */\n      0x22\n        /* \"#utility.yul\":7036:7037   */\n      0x04\n        /* \"#utility.yul\":7029:7044   */\n      mstore\n        /* \"#utility.yul\":7063:7067   */\n      0x24\n        /* \"#utility.yul\":7060:7061   */\n      0x00\n        /* \"#utility.yul\":7053:7068   */\n      revert\n        /* \"#utility.yul\":7080:7400   */\n    tag_136:\n        /* \"#utility.yul\":7124:7130   */\n      0x00\n        /* \"#utility.yul\":7161:7162   */\n      0x02\n        /* \"#utility.yul\":7155:7159   */\n      dup3\n        /* \"#utility.yul\":7151:7163   */\n      div\n        /* \"#utility.yul\":7141:7163   */\n      swap1\n      pop\n        /* \"#utility.yul\":7208:7209   */\n      0x01\n        /* \"#utility.yul\":7202:7206   */\n      dup3\n        /* \"#utility.yul\":7198:7210   */\n      and\n        /* \"#utility.yul\":7229:7247   */\n      dup1\n        /* \"#utility.yul\":7219:7300   */\n      tag_549\n      jumpi\n        /* \"#utility.yul\":7285:7289   */\n      0x7f\n        /* \"#utility.yul\":7277:7283   */\n      dup3\n        /* \"#utility.yul\":7273:7290   */\n      and\n        /* \"#utility.yul\":7263:7290   */\n      swap2\n      pop\n        /* \"#utility.yul\":7219:7300   */\n    tag_549:\n        /* \"#utility.yul\":7347:7349   */\n      0x20\n        /* \"#utility.yul\":7339:7345   */\n      dup3\n        /* \"#utility.yul\":7336:7350   */\n      lt\n        /* \"#utility.yul\":7316:7334   */\n      dup2\n        /* \"#utility.yul\":7313:7351   */\n      sub\n        /* \"#utility.yul\":7310:7394   */\n      tag_550\n      jumpi\n        /* \"#utility.yul\":7366:7384   */\n      tag_551\n      tag_422\n      jump\t// in\n    tag_551:\n        /* \"#utility.yul\":7310:7394   */\n    tag_550:\n        /* \"#utility.yul\":7131:7400   */\n      pop\n        /* \"#utility.yul\":7080:7400   */\n      swap2\n      swap1\n      pop\n      jump\t// out\n        /* \"#utility.yul\":7406:7586   */\n    tag_148:\n        /* \"#utility.yul\":7454:7531   */\n      0x4e487b7100000000000000000000000000000000000000000000000000000000\n        /* \"#utility.yul\":7451:7452   */\n      0x00\n        /* \"#utility.yul\":7444:7532   */\n      mstore\n        /* \"#utility.yul\":7551:7555   */\n      0x32\n        /* \"#utility.yul\":7548:7549   */\n      0x04\n        /* \"#utility.yul\":7541:7556   */\n      mstore\n        /* \"#utility.yul\":7575:7579   */\n      0x24\n        /* \"#utility.yul\":7572:7573   */\n      0x00\n        /* \"#utility.yul\":7565:7580   */\n      revert\n        /* \"#utility.yul\":7592:7740   */\n    tag_423:\n        /* \"#utility.yul\":7694:7705   */\n      0x00\n        /* \"#utility.yul\":7731:7734   */\n      dup2\n        /* \"#utility.yul\":7716:7734   */\n      swap1\n      pop\n        /* \"#utility.yul\":7592:7740   */\n      swap3\n      swap2\n      pop\n      pop\n      jump\t// out\n        /* \"#utility.yul\":7746:8136   */\n    tag_424:\n        /* \"#utility.yul\":7852:7855   */\n      0x00\n        /* \"#utility.yul\":7880:7919   */\n      tag_555\n        /* \"#utility.yul\":7913:7918   */\n      dup3\n        /* \"#utility.yul\":7880:7919   */\n      tag_401\n      jump\t// in\n    tag_555:\n        /* \"#utility.yul\":7935:8024   */\n      tag_556\n        /* \"#utility.yul\":8017:8023   */\n      dup2\n        /* \"#utility.yul\":8012:8015   */\n      dup6\n        /* \"#utility.yul\":7935:8024   */\n      tag_423\n      jump\t// in\n    tag_556:\n        /* \"#utility.yul\":7928:8024   */\n      swap4\n      pop\n        /* \"#utility.yul\":8033:8098   */\n      tag_557\n        /* \"#utility.yul\":8091:8097   */\n      dup2\n        /* \"#utility.yul\":8086:8089   */\n      dup6\n        /* \"#utility.yul\":8079:8083   */\n      0x20\n        /* \"#utility.yul\":8072:8077   */\n      dup7\n        /* \"#utility.yul\":8068:8084   */\n      add\n        /* \"#utility.yul\":8033:8098   */\n      tag_403\n      jump\t// in\n    tag_557:\n        /* \"#utility.yul\":8123:8129   */\n      dup1\n        /* \"#utility.yul\":8118:8121   */\n      dup5\n        /* \"#utility.yul\":8114:8130   */\n      add\n        /* \"#utility.yul\":8107:8130   */\n      swap2\n      pop\n        /* \"#utility.yul\":7856:8136   */\n      pop\n        /* \"#utility.yul\":7746:8136   */\n      swap3\n      swap2\n      pop\n      pop\n      jump\t// out\n        /* \"#utility.yul\":8142:8294   */\n    tag_425:\n        /* \"#utility.yul\":8282:8286   */\n      0x2e20000000000000000000000000000000000000000000000000000000000000\n        /* \"#utility.yul\":8278:8279   */\n      0x00\n        /* \"#utility.yul\":8270:8276   */\n      dup3\n        /* \"#utility.yul\":8266:8280   */\n      add\n        /* \"#utility.yul\":8259:8287   */\n      mstore\n        /* \"#utility.yul\":8142:8294   */\n      pop\n      jump\t// out\n        /* \"#utility.yul\":8300:8700   */\n    tag_426:\n        /* \"#utility.yul\":8460:8463   */\n      0x00\n        /* \"#utility.yul\":8481:8565   */\n      tag_560\n        /* \"#utility.yul\":8563:8564   */\n      0x02\n        /* \"#utility.yul\":8558:8561   */\n      dup4\n        /* \"#utility.yul\":8481:8565   */\n      tag_423\n      jump\t// in\n    tag_560:\n        /* \"#utility.yul\":8474:8565   */\n      swap2\n      pop\n        /* \"#utility.yul\":8574:8667   */\n      tag_561\n        /* \"#utility.yul\":8663:8666   */\n      dup3\n        /* \"#utility.yul\":8574:8667   */\n      tag_425\n      jump\t// in\n    tag_561:\n        /* \"#utility.yul\":8692:8693   */\n      0x02\n        /* \"#utility.yul\":8687:8690   */\n      dup3\n        /* \"#utility.yul\":8683:8694   */\n      add\n        /* \"#utility.yul\":8676:8694   */\n      swap1\n      pop\n        /* \"#utility.yul\":8300:8700   */\n      swap2\n      swap1\n      pop\n      jump\t// out\n        /* \"#utility.yul\":8706:8847   */\n    tag_427:\n        /* \"#utility.yul\":8755:8759   */\n      0x00\n        /* \"#utility.yul\":8778:8781   */\n      dup2\n        /* \"#utility.yul\":8770:8781   */\n      swap1\n      pop\n        /* \"#utility.yul\":8801:8804   */\n      dup2\n        /* \"#utility.yul\":8798:8799   */\n      0x00\n        /* \"#utility.yul\":8791:8805   */\n      mstore\n        /* \"#utility.yul\":8835:8839   */\n      0x20\n        /* \"#utility.yul\":8832:8833   */\n      0x00\n        /* \"#utility.yul\":8822:8840   */\n      keccak256\n        /* \"#utility.yul\":8814:8840   */\n      swap1\n      pop\n        /* \"#utility.yul\":8706:8847   */\n      swap2\n      swap1\n      pop\n      jump\t// out\n        /* \"#utility.yul\":8877:9751   */\n    tag_428:\n        /* \"#utility.yul\":8980:8983   */\n      0x00\n        /* \"#utility.yul\":9017:9022   */\n      dup2\n        /* \"#utility.yul\":9011:9023   */\n      sload\n        /* \"#utility.yul\":9046:9082   */\n      tag_564\n        /* \"#utility.yul\":9072:9081   */\n      dup2\n        /* \"#utility.yul\":9046:9082   */\n      tag_136\n      jump\t// in\n    tag_564:\n        /* \"#utility.yul\":9098:9187   */\n      tag_565\n        /* \"#utility.yul\":9180:9186   */\n      dup2\n        /* \"#utility.yul\":9175:9178   */\n      dup7\n        /* \"#utility.yul\":9098:9187   */\n      tag_423\n      jump\t// in\n    tag_565:\n        /* \"#utility.yul\":9091:9187   */\n      swap5\n      pop\n        /* \"#utility.yul\":9218:9219   */\n      0x01\n        /* \"#utility.yul\":9207:9216   */\n      dup3\n        /* \"#utility.yul\":9203:9220   */\n      and\n        /* \"#utility.yul\":9234:9235   */\n      0x00\n        /* \"#utility.yul\":9229:9395   */\n      dup2\n      eq\n      tag_567\n      jumpi\n        /* \"#utility.yul\":9409:9410   */\n      0x01\n        /* \"#utility.yul\":9404:9745   */\n      dup2\n      eq\n      tag_568\n      jumpi\n        /* \"#utility.yul\":9196:9745   */\n      jump(tag_566)\n        /* \"#utility.yul\":9229:9395   */\n    tag_567:\n        /* \"#utility.yul\":9313:9317   */\n      0xff\n        /* \"#utility.yul\":9309:9318   */\n      not\n        /* \"#utility.yul\":9298:9307   */\n      dup4\n        /* \"#utility.yul\":9294:9319   */\n      and\n        /* \"#utility.yul\":9289:9292   */\n      dup7\n        /* \"#utility.yul\":9282:9320   */\n      mstore\n        /* \"#utility.yul\":9375:9381   */\n      dup2\n        /* \"#utility.yul\":9368:9382   */\n      iszero\n        /* \"#utility.yul\":9361:9383   */\n      iszero\n        /* \"#utility.yul\":9353:9359   */\n      dup3\n        /* \"#utility.yul\":9349:9384   */\n      mul\n        /* \"#utility.yul\":9344:9347   */\n      dup7\n        /* \"#utility.yul\":9340:9385   */\n      add\n        /* \"#utility.yul\":9333:9385   */\n      swap4\n      pop\n        /* \"#utility.yul\":9229:9395   */\n      jump(tag_566)\n        /* \"#utility.yul\":9404:9745   */\n    tag_568:\n        /* \"#utility.yul\":9471:9509   */\n      tag_569\n        /* \"#utility.yul\":9503:9508   */\n      dup6\n        /* \"#utility.yul\":9471:9509   */\n      tag_427\n      jump\t// in\n    tag_569:\n        /* \"#utility.yul\":9531:9532   */\n      0x00\n        /* \"#utility.yul\":9545:9699   */\n    tag_570:\n        /* \"#utility.yul\":9559:9565   */\n      dup4\n        /* \"#utility.yul\":9556:9557   */\n      dup2\n        /* \"#utility.yul\":9553:9566   */\n      lt\n        /* \"#utility.yul\":9545:9699   */\n      iszero\n      tag_572\n      jumpi\n        /* \"#utility.yul\":9633:9640   */\n      dup2\n        /* \"#utility.yul\":9627:9641   */\n      sload\n        /* \"#utility.yul\":9623:9624   */\n      dup2\n        /* \"#utility.yul\":9618:9621   */\n      dup10\n        /* \"#utility.yul\":9614:9625   */\n      add\n        /* \"#utility.yul\":9607:9642   */\n      mstore\n        /* \"#utility.yul\":9683:9684   */\n      0x01\n        /* \"#utility.yul\":9674:9681   */\n      dup3\n        /* \"#utility.yul\":9670:9685   */\n      add\n        /* \"#utility.yul\":9659:9685   */\n      swap2\n      pop\n        /* \"#utility.yul\":9581:9585   */\n      0x20\n        /* \"#utility.yul\":9578:9579   */\n      dup2\n        /* \"#utility.yul\":9574:9586   */\n      add\n        /* \"#utility.yul\":9569:9586   */\n      swap1\n      pop\n        /* \"#utility.yul\":9545:9699   */\n      jump(tag_570)\n    tag_572:\n        /* \"#utility.yul\":9728:9734   */\n      dup4\n        /* \"#utility.yul\":9723:9726   */\n      dup9\n        /* \"#utility.yul\":9719:9735   */\n      add\n        /* \"#utility.yul\":9712:9735   */\n      swap6\n      pop\n        /* \"#utility.yul\":9411:9745   */\n      pop\n      pop\n        /* \"#utility.yul\":9196:9745   */\n    tag_566:\n      pop\n        /* \"#utility.yul\":8984:9751   */\n      pop\n      pop\n        /* \"#utility.yul\":8877:9751   */\n      swap3\n      swap2\n      pop\n      pop\n      jump\t// out\n        /* \"#utility.yul\":9757:9909   */\n    tag_429:\n        /* \"#utility.yul\":9897:9901   */\n      0x3a20000000000000000000000000000000000000000000000000000000000000\n        /* \"#utility.yul\":9893:9894   */\n      0x00\n        /* \"#utility.yul\":9885:9891   */\n      dup3\n        /* \"#utility.yul\":9881:9895   */\n      add\n        /* \"#utility.yul\":9874:9902   */\n      mstore\n        /* \"#utility.yul\":9757:9909   */\n      pop\n      jump\t// out\n        /* \"#utility.yul\":9915:10315   */\n    tag_430:\n        /* \"#utility.yul\":10075:10078   */\n      0x00\n        /* \"#utility.yul\":10096:10180   */\n      tag_575\n        /* \"#utility.yul\":10178:10179   */\n      0x02\n        /* \"#utility.yul\":10173:10176   */\n      dup4\n        /* \"#utility.yul\":10096:10180   */\n      tag_423\n      jump\t// in\n    tag_575:\n        /* \"#utility.yul\":10089:10180   */\n      swap2\n      pop\n        /* \"#utility.yul\":10189:10282   */\n      tag_576\n        /* \"#utility.yul\":10278:10281   */\n      dup3\n        /* \"#utility.yul\":10189:10282   */\n      tag_429\n      jump\t// in\n    tag_576:\n        /* \"#utility.yul\":10307:10308   */\n      0x02\n        /* \"#utility.yul\":10302:10305   */\n      dup3\n        /* \"#utility.yul\":10298:10309   */\n      add\n        /* \"#utility.yul\":10291:10309   */\n      swap1\n      pop\n        /* \"#utility.yul\":9915:10315   */\n      swap2\n      swap1\n      pop\n      jump\t// out\n        /* \"#utility.yul\":10321:10535   */\n    tag_431:\n        /* \"#utility.yul\":10461:10527   */\n      0x20546f6b656e730a000000000000000000000000000000000000000000000000\n        /* \"#utility.yul\":10457:10458   */\n      0x00\n        /* \"#utility.yul\":10449:10455   */\n      dup3\n        /* \"#utility.yul\":10445:10459   */\n      add\n        /* \"#utility.yul\":10438:10528   */\n      mstore\n        /* \"#utility.yul\":10321:10535   */\n      pop\n      jump\t// out\n        /* \"#utility.yul\":10541:10941   */\n    tag_432:\n        /* \"#utility.yul\":10701:10704   */\n      0x00\n        /* \"#utility.yul\":10722:10806   */\n      tag_579\n        /* \"#utility.yul\":10804:10805   */\n      0x08\n        /* \"#utility.yul\":10799:10802   */\n      dup4\n        /* \"#utility.yul\":10722:10806   */\n      tag_423\n      jump\t// in\n    tag_579:\n        /* \"#utility.yul\":10715:10806   */\n      swap2\n      pop\n        /* \"#utility.yul\":10815:10908   */\n      tag_580\n        /* \"#utility.yul\":10904:10907   */\n      dup3\n        /* \"#utility.yul\":10815:10908   */\n      tag_431\n      jump\t// in\n    tag_580:\n        /* \"#utility.yul\":10933:10934   */\n      0x08\n        /* \"#utility.yul\":10928:10931   */\n      dup3\n        /* \"#utility.yul\":10924:10935   */\n      add\n        /* \"#utility.yul\":10917:10935   */\n      swap1\n      pop\n        /* \"#utility.yul\":10541:10941   */\n      swap2\n      swap1\n      pop\n      jump\t// out\n        /* \"#utility.yul\":10947:12494   */\n    tag_159:\n        /* \"#utility.yul\":11523:11526   */\n      0x00\n        /* \"#utility.yul\":11545:11640   */\n      tag_582\n        /* \"#utility.yul\":11636:11639   */\n      dup3\n        /* \"#utility.yul\":11627:11633   */\n      dup8\n        /* \"#utility.yul\":11545:11640   */\n      tag_424\n      jump\t// in\n    tag_582:\n        /* \"#utility.yul\":11538:11640   */\n      swap2\n      pop\n        /* \"#utility.yul\":11657:11752   */\n      tag_583\n        /* \"#utility.yul\":11748:11751   */\n      dup3\n        /* \"#utility.yul\":11739:11745   */\n      dup7\n        /* \"#utility.yul\":11657:11752   */\n      tag_424\n      jump\t// in\n    tag_583:\n        /* \"#utility.yul\":11650:11752   */\n      swap2\n      pop\n        /* \"#utility.yul\":11769:11917   */\n      tag_584\n        /* \"#utility.yul\":11913:11916   */\n      dup3\n        /* \"#utility.yul\":11769:11917   */\n      tag_426\n      jump\t// in\n    tag_584:\n        /* \"#utility.yul\":11762:11917   */\n      swap2\n      pop\n        /* \"#utility.yul\":11934:12026   */\n      tag_585\n        /* \"#utility.yul\":12022:12025   */\n      dup3\n        /* \"#utility.yul\":12013:12019   */\n      dup6\n        /* \"#utility.yul\":11934:12026   */\n      tag_428\n      jump\t// in\n    tag_585:\n        /* \"#utility.yul\":11927:12026   */\n      swap2\n      pop\n        /* \"#utility.yul\":12043:12191   */\n      tag_586\n        /* \"#utility.yul\":12187:12190   */\n      dup3\n        /* \"#utility.yul\":12043:12191   */\n      tag_430\n      jump\t// in\n    tag_586:\n        /* \"#utility.yul\":12036:12191   */\n      swap2\n      pop\n        /* \"#utility.yul\":12208:12303   */\n      tag_587\n        /* \"#utility.yul\":12299:12302   */\n      dup3\n        /* \"#utility.yul\":12290:12296   */\n      dup5\n        /* \"#utility.yul\":12208:12303   */\n      tag_424\n      jump\t// in\n    tag_587:\n        /* \"#utility.yul\":12201:12303   */\n      swap2\n      pop\n        /* \"#utility.yul\":12320:12468   */\n      tag_588\n        /* \"#utility.yul\":12464:12467   */\n      dup3\n        /* \"#utility.yul\":12320:12468   */\n      tag_432\n      jump\t// in\n    tag_588:\n        /* \"#utility.yul\":12313:12468   */\n      swap2\n      pop\n        /* \"#utility.yul\":12485:12488   */\n      dup2\n        /* \"#utility.yul\":12478:12488   */\n      swap1\n      pop\n        /* \"#utility.yul\":10947:12494   */\n      swap6\n      swap5\n      pop\n      pop\n      pop\n      pop\n      pop\n      jump\t// out\n        /* \"#utility.yul\":12500:12680   */\n    tag_433:\n        /* \"#utility.yul\":12548:12625   */\n      0x4e487b7100000000000000000000000000000000000000000000000000000000\n        /* \"#utility.yul\":12545:12546   */\n      0x00\n        /* \"#utility.yul\":12538:12626   */\n      mstore\n        /* \"#utility.yul\":12645:12649   */\n      0x11\n        /* \"#utility.yul\":12642:12643   */\n      0x04\n        /* \"#utility.yul\":12635:12650   */\n      mstore\n        /* \"#utility.yul\":12669:12673   */\n      0x24\n        /* \"#utility.yul\":12666:12667   */\n      0x00\n        /* \"#utility.yul\":12659:12674   */\n      revert\n        /* \"#utility.yul\":12686:12919   */\n    tag_161:\n        /* \"#utility.yul\":12725:12728   */\n      0x00\n        /* \"#utility.yul\":12748:12772   */\n      tag_591\n        /* \"#utility.yul\":12766:12771   */\n      dup3\n        /* \"#utility.yul\":12748:12772   */\n      tag_413\n      jump\t// in\n    tag_591:\n        /* \"#utility.yul\":12739:12772   */\n      swap2\n      pop\n        /* \"#utility.yul\":12794:12860   */\n      0xffffffffffffffffffffffffffffffffffffffffffffffffffffffffffffffff\n        /* \"#utility.yul\":12787:12792   */\n      dup3\n        /* \"#utility.yul\":12784:12861   */\n      sub\n        /* \"#utility.yul\":12781:12884   */\n      tag_592\n      jumpi\n        /* \"#utility.yul\":12864:12882   */\n      tag_593\n      tag_433\n      jump\t// in\n    tag_593:\n        /* \"#utility.yul\":12781:12884   */\n    tag_592:\n        /* \"#utility.yul\":12911:12912   */\n      0x01\n        /* \"#utility.yul\":12904:12909   */\n      dup3\n        /* \"#utility.yul\":12900:12913   */\n      add\n        /* \"#utility.yul\":12893:12913   */\n      swap1\n      pop\n        /* \"#utility.yul\":12686:12919   */\n      swap2\n      swap1\n      pop\n      jump\t// out\n        /* \"#utility.yul\":12925:13116   */\n    tag_182:\n        /* \"#utility.yul\":12965:12968   */\n      0x00\n        /* \"#utility.yul\":12984:13004   */\n      tag_595\n        /* \"#utility.yul\":13002:13003   */\n      dup3\n        /* \"#utility.yul\":12984:13004   */\n      tag_413\n      jump\t// in\n    tag_595:\n        /* \"#utility.yul\":12979:13004   */\n      swap2\n      pop\n        /* \"#utility.yul\":13018:13038   */\n      tag_596\n        /* \"#utility.yul\":13036:13037   */\n      dup4\n        /* \"#utility.yul\":13018:13038   */\n      tag_413\n      jump\t// in\n    tag_596:\n        /* \"#utility.yul\":13013:13038   */\n      swap3\n      pop\n        /* \"#utility.yul\":13061:13062   */\n      dup3\n        /* \"#utility.yul\":13058:13059   */\n      dup3\n        /* \"#utility.yul\":13054:13063   */\n      add\n        /* \"#utility.yul\":13047:13063   */\n      swap1\n      pop\n        /* \"#utility.yul\":13082:13085   */\n      dup1\n        /* \"#utility.yul\":13079:13080   */\n      dup3\n        /* \"#utility.yul\":13076:13086   */\n      gt\n        /* \"#utility.yul\":13073:13109   */\n      iszero\n      tag_597\n      jumpi\n        /* \"#utility.yul\":13089:13107   */\n      tag_598\n      tag_433\n      jump\t// in\n    tag_598:\n        /* \"#utility.yul\":13073:13109   */\n    tag_597:\n        /* \"#utility.yul\":12925:13116   */\n      swap3\n      swap2\n      pop\n      pop\n      jump\t// out\n        /* \"#utility.yul\":13122:13346   */\n    tag_434:\n        /* \"#utility.yul\":13262:13296   */\n      0x45524332303a2064656372656173656420616c6c6f77616e63652062656c6f77\n        /* \"#utility.yul\":13258:13259   */\n      0x00\n        /* \"#utility.yul\":13250:13256   */\n      dup3\n        /* \"#utility.yul\":13246:13260   */\n      add\n        /* \"#utility.yul\":13239:13297   */\n      mstore\n        /* \"#utility.yul\":13331:13338   */\n      0x207a65726f000000000000000000000000000000000000000000000000000000\n        /* \"#utility.yul\":13326:13328   */\n      0x20\n        /* \"#utility.yul\":13318:13324   */\n      dup3\n        /* \"#utility.yul\":13314:13329   */\n      add\n        /* \"#utility.yul\":13307:13339   */\n      mstore\n        /* \"#utility.yul\":13122:13346   */\n      pop\n      jump\t// out\n        /* \"#utility.yul\":13352:13718   */\n    tag_435:\n        /* \"#utility.yul\":13494:13497   */\n      0x00\n        /* \"#utility.yul\":13515:13582   */\n      tag_601\n        /* \"#utility.yul\":13579:13581   */\n      0x25\n        /* \"#utility.yul\":13574:13577   */\n      dup4\n        /* \"#utility.yul\":13515:13582   */\n      tag_402\n      jump\t// in\n    tag_601:\n        /* \"#utility.yul\":13508:13582   */\n      swap2\n      pop\n        /* \"#utility.yul\":13591:13684   */\n      tag_602\n        /* \"#utility.yul\":13680:13683   */\n      dup3\n        /* \"#utility.yul\":13591:13684   */\n      tag_434\n      jump\t// in\n    tag_602:\n        /* \"#utility.yul\":13709:13711   */\n      0x40\n        /* \"#utility.yul\":13704:13707   */\n      dup3\n        /* \"#utility.yul\":13700:13712   */\n      add\n        /* \"#utility.yul\":13693:13712   */\n      swap1\n      pop\n        /* \"#utility.yul\":13352:13718   */\n      swap2\n      swap1\n      pop\n      jump\t// out\n        /* \"#utility.yul\":13724:14143   */\n    tag_247:\n        /* \"#utility.yul\":13890:13894   */\n      0x00\n        /* \"#utility.yul\":13928:13930   */\n      0x20\n        /* \"#utility.yul\":13917:13926   */\n      dup3\n        /* \"#utility.yul\":13913:13931   */\n      add\n        /* \"#utility.yul\":13905:13931   */\n      swap1\n      pop\n        /* \"#utility.yul\":13977:13986   */\n      dup2\n        /* \"#utility.yul\":13971:13975   */\n      dup2\n        /* \"#utility.yul\":13967:13987   */\n      sub\n        /* \"#utility.yul\":13963:13964   */\n      0x00\n        /* \"#utility.yul\":13952:13961   */\n      dup4\n        /* \"#utility.yul\":13948:13965   */\n      add\n        /* \"#utility.yul\":13941:13988   */\n      mstore\n        /* \"#utility.yul\":14005:14136   */\n      tag_604\n        /* \"#utility.yul\":14131:14135   */\n      dup2\n        /* \"#utility.yul\":14005:14136   */\n      tag_435\n      jump\t// in\n    tag_604:\n        /* \"#utility.yul\":13997:14136   */\n      swap1\n      pop\n        /* \"#utility.yul\":13724:14143   */\n      swap2\n      swap1\n      pop\n      jump\t// out\n        /* \"#utility.yul\":14149:14319   */\n    tag_436:\n        /* \"#utility.yul\":14289:14311   */\n      0x496e73756666696369656e7420746f6b656e732e000000000000000000000000\n        /* \"#utility.yul\":14285:14286   */\n      0x00\n        /* \"#utility.yul\":14277:14283   */\n      dup3\n        /* \"#utility.yul\":14273:14287   */\n      add\n        /* \"#utility.yul\":14266:14312   */\n      mstore\n        /* \"#utility.yul\":14149:14319   */\n      pop\n      jump\t// out\n        /* \"#utility.yul\":14325:14691   */\n    tag_437:\n        /* \"#utility.yul\":14467:14470   */\n      0x00\n        /* \"#utility.yul\":14488:14555   */\n      tag_607\n        /* \"#utility.yul\":14552:14554   */\n      0x14\n        /* \"#utility.yul\":14547:14550   */\n      dup4\n        /* \"#utility.yul\":14488:14555   */\n      tag_402\n      jump\t// in\n    tag_607:\n        /* \"#utility.yul\":14481:14555   */\n      swap2\n      pop\n        /* \"#utility.yul\":14564:14657   */\n      tag_608\n        /* \"#utility.yul\":14653:14656   */\n      dup3\n        /* \"#utility.yul\":14564:14657   */\n      tag_436\n      jump\t// in\n    tag_608:\n        /* \"#utility.yul\":14682:14684   */\n      0x20\n        /* \"#utility.yul\":14677:14680   */\n      dup3\n        /* \"#utility.yul\":14673:14685   */\n      add\n        /* \"#utility.yul\":14666:14685   */\n      swap1\n      pop\n        /* \"#utility.yul\":14325:14691   */\n      swap2\n      swap1\n      pop\n      jump\t// out\n        /* \"#utility.yul\":14697:15116   */\n    tag_259:\n        /* \"#utility.yul\":14863:14867   */\n      0x00\n        /* \"#utility.yul\":14901:14903   */\n      0x20\n        /* \"#utility.yul\":14890:14899   */\n      dup3\n        /* \"#utility.yul\":14886:14904   */\n      add\n        /* \"#utility.yul\":14878:14904   */\n      swap1\n      pop\n        /* \"#utility.yul\":14950:14959   */\n      dup2\n        /* \"#utility.yul\":14944:14948   */\n      dup2\n        /* \"#utility.yul\":14940:14960   */\n      sub\n        /* \"#utility.yul\":14936:14937   */\n      0x00\n        /* \"#utility.yul\":14925:14934   */\n      dup4\n        /* \"#utility.yul\":14921:14938   */\n      add\n        /* \"#utility.yul\":14914:14961   */\n      mstore\n        /* \"#utility.yul\":14978:15109   */\n      tag_610\n        /* \"#utility.yul\":15104:15108   */\n      dup2\n        /* \"#utility.yul\":14978:15109   */\n      tag_437\n      jump\t// in\n    tag_610:\n        /* \"#utility.yul\":14970:15109   */\n      swap1\n      pop\n        /* \"#utility.yul\":14697:15116   */\n      swap2\n      swap1\n      pop\n      jump\t// out\n        /* \"#utility.yul\":15122:15454   */\n    tag_262:\n        /* \"#utility.yul\":15243:15247   */\n      0x00\n        /* \"#utility.yul\":15281:15283   */\n      0x40\n        /* \"#utility.yul\":15270:15279   */\n      dup3\n        /* \"#utility.yul\":15266:15284   */\n      add\n        /* \"#utility.yul\":15258:15284   */\n      swap1\n      pop\n        /* \"#utility.yul\":15294:15365   */\n      tag_612\n        /* \"#utility.yul\":15362:15363   */\n      0x00\n        /* \"#utility.yul\":15351:15360   */\n      dup4\n        /* \"#utility.yul\":15347:15364   */\n      add\n        /* \"#utility.yul\":15338:15344   */\n      dup6\n        /* \"#utility.yul\":15294:15365   */\n      tag_418\n      jump\t// in\n    tag_612:\n        /* \"#utility.yul\":15375:15447   */\n      tag_613\n        /* \"#utility.yul\":15443:15445   */\n      0x20\n        /* \"#utility.yul\":15432:15441   */\n      dup4\n        /* \"#utility.yul\":15428:15446   */\n      add\n        /* \"#utility.yul\":15419:15425   */\n      dup5\n        /* \"#utility.yul\":15375:15447   */\n      tag_418\n      jump\t// in\n    tag_613:\n        /* \"#utility.yul\":15122:15454   */\n      swap4\n      swap3\n      pop\n      pop\n      pop\n      jump\t// out\n        /* \"#utility.yul\":15460:15685   */\n    tag_438:\n        /* \"#utility.yul\":15600:15634   */\n      0x4f776e61626c653a206e6577206f776e657220697320746865207a65726f2061\n        /* \"#utility.yul\":15596:15597   */\n      0x00\n        /* \"#utility.yul\":15588:15594   */\n      dup3\n        /* \"#utility.yul\":15584:15598   */\n      add\n        /* \"#utility.yul\":15577:15635   */\n      mstore\n        /* \"#utility.yul\":15669:15677   */\n      0x6464726573730000000000000000000000000000000000000000000000000000\n        /* \"#utility.yul\":15664:15666   */\n      0x20\n        /* \"#utility.yul\":15656:15662   */\n      dup3\n        /* \"#utility.yul\":15652:15667   */\n      add\n        /* \"#utility.yul\":15645:15678   */\n      mstore\n        /* \"#utility.yul\":15460:15685   */\n      pop\n      jump\t// out\n        /* \"#utility.yul\":15691:16057   */\n    tag_439:\n        /* \"#utility.yul\":15833:15836   */\n      0x00\n        /* \"#utility.yul\":15854:15921   */\n      tag_616\n        /* \"#utility.yul\":15918:15920   */\n      0x26\n        /* \"#utility.yul\":15913:15916   */\n      dup4\n        /* \"#utility.yul\":15854:15921   */\n      tag_402\n      jump\t// in\n    tag_616:\n        /* \"#utility.yul\":15847:15921   */\n      swap2\n      pop\n        /* \"#utility.yul\":15930:16023   */\n      tag_617\n        /* \"#utility.yul\":16019:16022   */\n      dup3\n        /* \"#utility.yul\":15930:16023   */\n      tag_438\n      jump\t// in\n    tag_617:\n        /* \"#utility.yul\":16048:16050   */\n      0x40\n        /* \"#utility.yul\":16043:16046   */\n      dup3\n        /* \"#utility.yul\":16039:16051   */\n      add\n        /* \"#utility.yul\":16032:16051   */\n      swap1\n      pop\n        /* \"#utility.yul\":15691:16057   */\n      swap2\n      swap1\n      pop\n      jump\t// out\n        /* \"#utility.yul\":16063:16482   */\n    tag_280:\n        /* \"#utility.yul\":16229:16233   */\n      0x00\n        /* \"#utility.yul\":16267:16269   */\n      0x20\n        /* \"#utility.yul\":16256:16265   */\n      dup3\n        /* \"#utility.yul\":16252:16270   */\n      add\n        /* \"#utility.yul\":16244:16270   */\n      swap1\n      pop\n        /* \"#utility.yul\":16316:16325   */\n      dup2\n        /* \"#utility.yul\":16310:16314   */\n      dup2\n        /* \"#utility.yul\":16306:16326   */\n      sub\n        /* \"#utility.yul\":16302:16303   */\n      0x00\n        /* \"#utility.yul\":16291:16300   */\n      dup4\n        /* \"#utility.yul\":16287:16304   */\n      add\n        /* \"#utility.yul\":16280:16327   */\n      mstore\n        /* \"#utility.yul\":16344:16475   */\n      tag_619\n        /* \"#utility.yul\":16470:16474   */\n      dup2\n        /* \"#utility.yul\":16344:16475   */\n      tag_439\n      jump\t// in\n    tag_619:\n        /* \"#utility.yul\":16336:16475   */\n      swap1\n      pop\n        /* \"#utility.yul\":16063:16482   */\n      swap2\n      swap1\n      pop\n      jump\t// out\n        /* \"#utility.yul\":16488:16668   */\n    tag_440:\n        /* \"#utility.yul\":16536:16613   */\n      0x4e487b7100000000000000000000000000000000000000000000000000000000\n        /* \"#utility.yul\":16533:16534   */\n      0x00\n        /* \"#utility.yul\":16526:16614   */\n      mstore\n        /* \"#utility.yul\":16633:16637   */\n      0x12\n        /* \"#utility.yul\":16630:16631   */\n      0x04\n        /* \"#utility.yul\":16623:16638   */\n      mstore\n        /* \"#utility.yul\":16657:16661   */\n      0x24\n        /* \"#utility.yul\":16654:16655   */\n      0x00\n        /* \"#utility.yul\":16647:16662   */\n      revert\n        /* \"#utility.yul\":16674:16859   */\n    tag_288:\n        /* \"#utility.yul\":16714:16715   */\n      0x00\n        /* \"#utility.yul\":16731:16751   */\n      tag_622\n        /* \"#utility.yul\":16749:16750   */\n      dup3\n        /* \"#utility.yul\":16731:16751   */\n      tag_413\n      jump\t// in\n    tag_622:\n        /* \"#utility.yul\":16726:16751   */\n      swap2\n      pop\n        /* \"#utility.yul\":16765:16785   */\n      tag_623\n        /* \"#utility.yul\":16783:16784   */\n      dup4\n        /* \"#utility.yul\":16765:16785   */\n      tag_413\n      jump\t// in\n    tag_623:\n        /* \"#utility.yul\":16760:16785   */\n      swap3\n      pop\n        /* \"#utility.yul\":16804:16805   */\n      dup3\n        /* \"#utility.yul\":16794:16829   */\n      tag_624\n      jumpi\n        /* \"#utility.yul\":16809:16827   */\n      tag_625\n      tag_440\n      jump\t// in\n    tag_625:\n        /* \"#utility.yul\":16794:16829   */\n    tag_624:\n        /* \"#utility.yul\":16851:16852   */\n      dup3\n        /* \"#utility.yul\":16848:16849   */\n      dup3\n        /* \"#utility.yul\":16844:16853   */\n      div\n        /* \"#utility.yul\":16839:16853   */\n      swap1\n      pop\n        /* \"#utility.yul\":16674:16859   */\n      swap3\n      swap2\n      pop\n      pop\n      jump\t// out\n        /* \"#utility.yul\":16865:17045   */\n    tag_291:\n        /* \"#utility.yul\":16913:16990   */\n      0x4e487b7100000000000000000000000000000000000000000000000000000000\n        /* \"#utility.yul\":16910:16911   */\n      0x00\n        /* \"#utility.yul\":16903:16991   */\n      mstore\n        /* \"#utility.yul\":17010:17014   */\n      0x41\n        /* \"#utility.yul\":17007:17008   */\n      0x04\n        /* \"#utility.yul\":17000:17015   */\n      mstore\n        /* \"#utility.yul\":17034:17038   */\n      0x24\n        /* \"#utility.yul\":17031:17032   */\n      0x00\n        /* \"#utility.yul\":17024:17039   */\n      revert\n        /* \"#utility.yul\":17051:17222   */\n    tag_296:\n        /* \"#utility.yul\":17090:17093   */\n      0x00\n        /* \"#utility.yul\":17113:17137   */\n      tag_628\n        /* \"#utility.yul\":17131:17136   */\n      dup3\n        /* \"#utility.yul\":17113:17137   */\n      tag_413\n      jump\t// in\n    tag_628:\n        /* \"#utility.yul\":17104:17137   */\n      swap2\n      pop\n        /* \"#utility.yul\":17159:17163   */\n      0x00\n        /* \"#utility.yul\":17152:17157   */\n      dup3\n        /* \"#utility.yul\":17149:17164   */\n      sub\n        /* \"#utility.yul\":17146:17187   */\n      tag_629\n      jumpi\n        /* \"#utility.yul\":17167:17185   */\n      tag_630\n      tag_433\n      jump\t// in\n    tag_630:\n        /* \"#utility.yul\":17146:17187   */\n    tag_629:\n        /* \"#utility.yul\":17214:17215   */\n      0x01\n        /* \"#utility.yul\":17207:17212   */\n      dup3\n        /* \"#utility.yul\":17203:17216   */\n      sub\n        /* \"#utility.yul\":17196:17216   */\n      swap1\n      pop\n        /* \"#utility.yul\":17051:17222   */\n      swap2\n      swap1\n      pop\n      jump\t// out\n        /* \"#utility.yul\":17228:17404   */\n    tag_298:\n        /* \"#utility.yul\":17260:17261   */\n      0x00\n        /* \"#utility.yul\":17277:17297   */\n      tag_632\n        /* \"#utility.yul\":17295:17296   */\n      dup3\n        /* \"#utility.yul\":17277:17297   */\n      tag_413\n      jump\t// in\n    tag_632:\n        /* \"#utility.yul\":17272:17297   */\n      swap2\n      pop\n        /* \"#utility.yul\":17311:17331   */\n      tag_633\n        /* \"#utility.yul\":17329:17330   */\n      dup4\n        /* \"#utility.yul\":17311:17331   */\n      tag_413\n      jump\t// in\n    tag_633:\n        /* \"#utility.yul\":17306:17331   */\n      swap3\n      pop\n        /* \"#utility.yul\":17350:17351   */\n      dup3\n        /* \"#utility.yul\":17340:17375   */\n      tag_634\n      jumpi\n        /* \"#utility.yul\":17355:17373   */\n      tag_635\n      tag_440\n      jump\t// in\n    tag_635:\n        /* \"#utility.yul\":17340:17375   */\n    tag_634:\n        /* \"#utility.yul\":17396:17397   */\n      dup3\n        /* \"#utility.yul\":17393:17394   */\n      dup3\n        /* \"#utility.yul\":17389:17398   */\n      mod\n        /* \"#utility.yul\":17384:17398   */\n      swap1\n      pop\n        /* \"#utility.yul\":17228:17404   */\n      swap3\n      swap2\n      pop\n      pop\n      jump\t// out\n        /* \"#utility.yul\":17410:17633   */\n    tag_441:\n        /* \"#utility.yul\":17550:17584   */\n      0x45524332303a20617070726f76652066726f6d20746865207a65726f20616464\n        /* \"#utility.yul\":17546:17547   */\n      0x00\n        /* \"#utility.yul\":17538:17544   */\n      dup3\n        /* \"#utility.yul\":17534:17548   */\n      add\n        /* \"#utility.yul\":17527:17585   */\n      mstore\n        /* \"#utility.yul\":17619:17625   */\n      0x7265737300000000000000000000000000000000000000000000000000000000\n        /* \"#utility.yul\":17614:17616   */\n      0x20\n        /* \"#utility.yul\":17606:17612   */\n      dup3\n        /* \"#utility.yul\":17602:17617   */\n      add\n        /* \"#utility.yul\":17595:17626   */\n      mstore\n        /* \"#utility.yul\":17410:17633   */\n      pop\n      jump\t// out\n        /* \"#utility.yul\":17639:18005   */\n    tag_442:\n        /* \"#utility.yul\":17781:17784   */\n      0x00\n        /* \"#utility.yul\":17802:17869   */\n      tag_638\n        /* \"#utility.yul\":17866:17868   */\n      0x24\n        /* \"#utility.yul\":17861:17864   */\n      dup4\n        /* \"#utility.yul\":17802:17869   */\n      tag_402\n      jump\t// in\n    tag_638:\n        /* \"#utility.yul\":17795:17869   */\n      swap2\n      pop\n        /* \"#utility.yul\":17878:17971   */\n      tag_639\n        /* \"#utility.yul\":17967:17970   */\n      dup3\n        /* \"#utility.yul\":17878:17971   */\n      tag_441\n      jump\t// in\n    tag_639:\n        /* \"#utility.yul\":17996:17998   */\n      0x40\n        /* \"#utility.yul\":17991:17994   */\n      dup3\n        /* \"#utility.yul\":17987:17999   */\n      add\n        /* \"#utility.yul\":17980:17999   */\n      swap1\n      pop\n        /* \"#utility.yul\":17639:18005   */\n      swap2\n      swap1\n      pop\n      jump\t// out\n        /* \"#utility.yul\":18011:18430   */\n    tag_307:\n        /* \"#utility.yul\":18177:18181   */\n      0x00\n        /* \"#utility.yul\":18215:18217   */\n      0x20\n        /* \"#utility.yul\":18204:18213   */\n      dup3\n        /* \"#utility.yul\":18200:18218   */\n      add\n        /* \"#utility.yul\":18192:18218   */\n      swap1\n      pop\n        /* \"#utility.yul\":18264:18273   */\n      dup2\n        /* \"#utility.yul\":18258:18262   */\n      dup2\n        /* \"#utility.yul\":18254:18274   */\n      sub\n        /* \"#utility.yul\":18250:18251   */\n      0x00\n        /* \"#utility.yul\":18239:18248   */\n      dup4\n        /* \"#utility.yul\":18235:18252   */\n      add\n        /* \"#utility.yul\":18228:18275   */\n      mstore\n        /* \"#utility.yul\":18292:18423   */\n      tag_641\n        /* \"#utility.yul\":18418:18422   */\n      dup2\n        /* \"#utility.yul\":18292:18423   */\n      tag_442\n      jump\t// in\n    tag_641:\n        /* \"#utility.yul\":18284:18423   */\n      swap1\n      pop\n        /* \"#utility.yul\":18011:18430   */\n      swap2\n      swap1\n      pop\n      jump\t// out\n        /* \"#utility.yul\":18436:18657   */\n    tag_443:\n        /* \"#utility.yul\":18576:18610   */\n      0x45524332303a20617070726f766520746f20746865207a65726f206164647265\n        /* \"#utility.yul\":18572:18573   */\n      0x00\n        /* \"#utility.yul\":18564:18570   */\n      dup3\n        /* \"#utility.yul\":18560:18574   */\n      add\n        /* \"#utility.yul\":18553:18611   */\n      mstore\n        /* \"#utility.yul\":18645:18649   */\n      0x7373000000000000000000000000000000000000000000000000000000000000\n        /* \"#utility.yul\":18640:18642   */\n      0x20\n        /* \"#utility.yul\":18632:18638   */\n      dup3\n        /* \"#utility.yul\":18628:18643   */\n      add\n        /* \"#utility.yul\":18621:18650   */\n      mstore\n        /* \"#utility.yul\":18436:18657   */\n      pop\n      jump\t// out\n        /* \"#utility.yul\":18663:19029   */\n    tag_444:\n        /* \"#utility.yul\":18805:18808   */\n      0x00\n        /* \"#utility.yul\":18826:18893   */\n      tag_644\n        /* \"#utility.yul\":18890:18892   */\n      0x22\n        /* \"#utility.yul\":18885:18888   */\n      dup4\n        /* \"#utility.yul\":18826:18893   */\n      tag_402\n      jump\t// in\n    tag_644:\n        /* \"#utility.yul\":18819:18893   */\n      swap2\n      pop\n        /* \"#utility.yul\":18902:18995   */\n      tag_645\n        /* \"#utility.yul\":18991:18994   */\n      dup3\n        /* \"#utility.yul\":18902:18995   */\n      tag_443\n      jump\t// in\n    tag_645:\n        /* \"#utility.yul\":19020:19022   */\n      0x40\n        /* \"#utility.yul\":19015:19018   */\n      dup3\n        /* \"#utility.yul\":19011:19023   */\n      add\n        /* \"#utility.yul\":19004:19023   */\n      swap1\n      pop\n        /* \"#utility.yul\":18663:19029   */\n      swap2\n      swap1\n      pop\n      jump\t// out\n        /* \"#utility.yul\":19035:19454   */\n    tag_310:\n        /* \"#utility.yul\":19201:19205   */\n      0x00\n        /* \"#utility.yul\":19239:19241   */\n      0x20\n        /* \"#utility.yul\":19228:19237   */\n      dup3\n        /* \"#utility.yul\":19224:19242   */\n      add\n        /* \"#utility.yul\":19216:19242   */\n      swap1\n      pop\n        /* \"#utility.yul\":19288:19297   */\n      dup2\n        /* \"#utility.yul\":19282:19286   */\n      dup2\n        /* \"#utility.yul\":19278:19298   */\n      sub\n        /* \"#utility.yul\":19274:19275   */\n      0x00\n        /* \"#utility.yul\":19263:19272   */\n      dup4\n        /* \"#utility.yul\":19259:19276   */\n      add\n        /* \"#utility.yul\":19252:19299   */\n      mstore\n        /* \"#utility.yul\":19316:19447   */\n      tag_647\n        /* \"#utility.yul\":19442:19446   */\n      dup2\n        /* \"#utility.yul\":19316:19447   */\n      tag_444\n      jump\t// in\n    tag_647:\n        /* \"#utility.yul\":19308:19447   */\n      swap1\n      pop\n        /* \"#utility.yul\":19035:19454   */\n      swap2\n      swap1\n      pop\n      jump\t// out\n        /* \"#utility.yul\":19460:19639   */\n    tag_445:\n        /* \"#utility.yul\":19600:19631   */\n      0x45524332303a20696e73756666696369656e7420616c6c6f77616e6365000000\n        /* \"#utility.yul\":19596:19597   */\n      0x00\n        /* \"#utility.yul\":19588:19594   */\n      dup3\n        /* \"#utility.yul\":19584:19598   */\n      add\n        /* \"#utility.yul\":19577:19632   */\n      mstore\n        /* \"#utility.yul\":19460:19639   */\n      pop\n      jump\t// out\n        /* \"#utility.yul\":19645:20011   */\n    tag_446:\n        /* \"#utility.yul\":19787:19790   */\n      0x00\n        /* \"#utility.yul\":19808:19875   */\n      tag_650\n        /* \"#utility.yul\":19872:19874   */\n      0x1d\n        /* \"#utility.yul\":19867:19870   */\n      dup4\n        /* \"#utility.yul\":19808:19875   */\n      tag_402\n      jump\t// in\n    tag_650:\n        /* \"#utility.yul\":19801:19875   */\n      swap2\n      pop\n        /* \"#utility.yul\":19884:19977   */\n      tag_651\n        /* \"#utility.yul\":19973:19976   */\n      dup3\n        /* \"#utility.yul\":19884:19977   */\n      tag_445\n      jump\t// in\n    tag_651:\n        /* \"#utility.yul\":20002:20004   */\n      0x20\n        /* \"#utility.yul\":19997:20000   */\n      dup3\n        /* \"#utility.yul\":19993:20005   */\n      add\n        /* \"#utility.yul\":19986:20005   */\n      swap1\n      pop\n        /* \"#utility.yul\":19645:20011   */\n      swap2\n      swap1\n      pop\n      jump\t// out\n        /* \"#utility.yul\":20017:20436   */\n    tag_317:\n        /* \"#utility.yul\":20183:20187   */\n      0x00\n        /* \"#utility.yul\":20221:20223   */\n      0x20\n        /* \"#utility.yul\":20210:20219   */\n      dup3\n        /* \"#utility.yul\":20206:20224   */\n      add\n        /* \"#utility.yul\":20198:20224   */\n      swap1\n      pop\n        /* \"#utility.yul\":20270:20279   */\n      dup2\n        /* \"#utility.yul\":20264:20268   */\n      dup2\n        /* \"#utility.yul\":20260:20280   */\n      sub\n        /* \"#utility.yul\":20256:20257   */\n      0x00\n        /* \"#utility.yul\":20245:20254   */\n      dup4\n        /* \"#utility.yul\":20241:20258   */\n      add\n        /* \"#utility.yul\":20234:20281   */\n      mstore\n        /* \"#utility.yul\":20298:20429   */\n      tag_653\n        /* \"#utility.yul\":20424:20428   */\n      dup2\n        /* \"#utility.yul\":20298:20429   */\n      tag_446\n      jump\t// in\n    tag_653:\n        /* \"#utility.yul\":20290:20429   */\n      swap1\n      pop\n        /* \"#utility.yul\":20017:20436   */\n      swap2\n      swap1\n      pop\n      jump\t// out\n        /* \"#utility.yul\":20442:20666   */\n    tag_447:\n        /* \"#utility.yul\":20582:20616   */\n      0x45524332303a207472616e736665722066726f6d20746865207a65726f206164\n        /* \"#utility.yul\":20578:20579   */\n      0x00\n        /* \"#utility.yul\":20570:20576   */\n      dup3\n        /* \"#utility.yul\":20566:20580   */\n      add\n        /* \"#utility.yul\":20559:20617   */\n      mstore\n        /* \"#utility.yul\":20651:20658   */\n      0x6472657373000000000000000000000000000000000000000000000000000000\n        /* \"#utility.yul\":20646:20648   */\n      0x20\n        /* \"#utility.yul\":20638:20644   */\n      dup3\n        /* \"#utility.yul\":20634:20649   */\n      add\n        /* \"#utility.yul\":20627:20659   */\n      mstore\n        /* \"#utility.yul\":20442:20666   */\n      pop\n      jump\t// out\n        /* \"#utility.yul\":20672:21038   */\n    tag_448:\n        /* \"#utility.yul\":20814:20817   */\n      0x00\n        /* \"#utility.yul\":20835:20902   */\n      tag_656\n        /* \"#utility.yul\":20899:20901   */\n      0x25\n        /* \"#utility.yul\":20894:20897   */\n      dup4\n        /* \"#utility.yul\":20835:20902   */\n      tag_402\n      jump\t// in\n    tag_656:\n        /* \"#utility.yul\":20828:20902   */\n      swap2\n      pop\n        /* \"#utility.yul\":20911:21004   */\n      tag_657\n        /* \"#utility.yul\":21000:21003   */\n      dup3\n        /* \"#utility.yul\":20911:21004   */\n      tag_447\n      jump\t// in\n    tag_657:\n        /* \"#utility.yul\":21029:21031   */\n      0x40\n        /* \"#utility.yul\":21024:21027   */\n      dup3\n        /* \"#utility.yul\":21020:21032   */\n      add\n        /* \"#utility.yul\":21013:21032   */\n      swap1\n      pop\n        /* \"#utility.yul\":20672:21038   */\n      swap2\n      swap1\n      pop\n      jump\t// out\n        /* \"#utility.yul\":21044:21463   */\n    tag_322:\n        /* \"#utility.yul\":21210:21214   */\n      0x00\n        /* \"#utility.yul\":21248:21250   */\n      0x20\n        /* \"#utility.yul\":21237:21246   */\n      dup3\n        /* \"#utility.yul\":21233:21251   */\n      add\n        /* \"#utility.yul\":21225:21251   */\n      swap1\n      pop\n        /* \"#utility.yul\":21297:21306   */\n      dup2\n        /* \"#utility.yul\":21291:21295   */\n      dup2\n        /* \"#utility.yul\":21287:21307   */\n      sub\n        /* \"#utility.yul\":21283:21284   */\n      0x00\n        /* \"#utility.yul\":21272:21281   */\n      dup4\n        /* \"#utility.yul\":21268:21285   */\n      add\n        /* \"#utility.yul\":21261:21308   */\n      mstore\n        /* \"#utility.yul\":21325:21456   */\n      tag_659\n        /* \"#utility.yul\":21451:21455   */\n      dup2\n        /* \"#utility.yul\":21325:21456   */\n      tag_448\n      jump\t// in\n    tag_659:\n        /* \"#utility.yul\":21317:21456   */\n      swap1\n      pop\n        /* \"#utility.yul\":21044:21463   */\n      swap2\n      swap1\n      pop\n      jump\t// out\n        /* \"#utility.yul\":21469:21691   */\n    tag_449:\n        /* \"#utility.yul\":21609:21643   */\n      0x45524332303a207472616e7366657220746f20746865207a65726f2061646472\n        /* \"#utility.yul\":21605:21606   */\n      0x00\n        /* \"#utility.yul\":21597:21603   */\n      dup3\n        /* \"#utility.yul\":21593:21607   */\n      add\n        /* \"#utility.yul\":21586:21644   */\n      mstore\n        /* \"#utility.yul\":21678:21683   */\n      0x6573730000000000000000000000000000000000000000000000000000000000\n        /* \"#utility.yul\":21673:21675   */\n      0x20\n        /* \"#utility.yul\":21665:21671   */\n      dup3\n        /* \"#utility.yul\":21661:21676   */\n      add\n        /* \"#utility.yul\":21654:21684   */\n      mstore\n        /* \"#utility.yul\":21469:21691   */\n      pop\n      jump\t// out\n        /* \"#utility.yul\":21697:22063   */\n    tag_450:\n        /* \"#utility.yul\":21839:21842   */\n      0x00\n        /* \"#utility.yul\":21860:21927   */\n      tag_662\n        /* \"#utility.yul\":21924:21926   */\n      0x23\n        /* \"#utility.yul\":21919:21922   */\n      dup4\n        /* \"#utility.yul\":21860:21927   */\n      tag_402\n      jump\t// in\n    tag_662:\n        /* \"#utility.yul\":21853:21927   */\n      swap2\n      pop\n        /* \"#utility.yul\":21936:22029   */\n      tag_663\n        /* \"#utility.yul\":22025:22028   */\n      dup3\n        /* \"#utility.yul\":21936:22029   */\n      tag_449\n      jump\t// in\n    tag_663:\n        /* \"#utility.yul\":22054:22056   */\n      0x40\n        /* \"#utility.yul\":22049:22052   */\n      dup3\n        /* \"#utility.yul\":22045:22057   */\n      add\n        /* \"#utility.yul\":22038:22057   */\n      swap1\n      pop\n        /* \"#utility.yul\":21697:22063   */\n      swap2\n      swap1\n      pop\n      jump\t// out\n        /* \"#utility.yul\":22069:22488   */\n    tag_325:\n        /* \"#utility.yul\":22235:22239   */\n      0x00\n        /* \"#utility.yul\":22273:22275   */\n      0x20\n        /* \"#utility.yul\":22262:22271   */\n      dup3\n        /* \"#utility.yul\":22258:22276   */\n      add\n        /* \"#utility.yul\":22250:22276   */\n      swap1\n      pop\n        /* \"#utility.yul\":22322:22331   */\n      dup2\n        /* \"#utility.yul\":22316:22320   */\n      dup2\n        /* \"#utility.yul\":22312:22332   */\n      sub\n        /* \"#utility.yul\":22308:22309   */\n      0x00\n        /* \"#utility.yul\":22297:22306   */\n      dup4\n        /* \"#utility.yul\":22293:22310   */\n      add\n        /* \"#utility.yul\":22286:22333   */\n      mstore\n        /* \"#utility.yul\":22350:22481   */\n      tag_665\n        /* \"#utility.yul\":22476:22480   */\n      dup2\n        /* \"#utility.yul\":22350:22481   */\n      tag_450\n      jump\t// in\n    tag_665:\n        /* \"#utility.yul\":22342:22481   */\n      swap1\n      pop\n        /* \"#utility.yul\":22069:22488   */\n      swap2\n      swap1\n      pop\n      jump\t// out\n        /* \"#utility.yul\":22494:22719   */\n    tag_451:\n        /* \"#utility.yul\":22634:22668   */\n      0x45524332303a207472616e7366657220616d6f756e7420657863656564732062\n        /* \"#utility.yul\":22630:22631   */\n      0x00\n        /* \"#utility.yul\":22622:22628   */\n      dup3\n        /* \"#utility.yul\":22618:22632   */\n      add\n        /* \"#utility.yul\":22611:22669   */\n      mstore\n        /* \"#utility.yul\":22703:22711   */\n      0x616c616e63650000000000000000000000000000000000000000000000000000\n        /* \"#utility.yul\":22698:22700   */\n      0x20\n        /* \"#utility.yul\":22690:22696   */\n      dup3\n        /* \"#utility.yul\":22686:22701   */\n      add\n        /* \"#utility.yul\":22679:22712   */\n      mstore\n        /* \"#utility.yul\":22494:22719   */\n      pop\n      jump\t// out\n        /* \"#utility.yul\":22725:23091   */\n    tag_452:\n        /* \"#utility.yul\":22867:22870   */\n      0x00\n        /* \"#utility.yul\":22888:22955   */\n      tag_668\n        /* \"#utility.yul\":22952:22954   */\n      0x26\n        /* \"#utility.yul\":22947:22950   */\n      dup4\n        /* \"#utility.yul\":22888:22955   */\n      tag_402\n      jump\t// in\n    tag_668:\n        /* \"#utility.yul\":22881:22955   */\n      swap2\n      pop\n        /* \"#utility.yul\":22964:23057   */\n      tag_669\n        /* \"#utility.yul\":23053:23056   */\n      dup3\n        /* \"#utility.yul\":22964:23057   */\n      tag_451\n      jump\t// in\n    tag_669:\n        /* \"#utility.yul\":23082:23084   */\n      0x40\n        /* \"#utility.yul\":23077:23080   */\n      dup3\n        /* \"#utility.yul\":23073:23085   */\n      add\n        /* \"#utility.yul\":23066:23085   */\n      swap1\n      pop\n        /* \"#utility.yul\":22725:23091   */\n      swap2\n      swap1\n      pop\n      jump\t// out\n        /* \"#utility.yul\":23097:23516   */\n    tag_330:\n        /* \"#utility.yul\":23263:23267   */\n      0x00\n        /* \"#utility.yul\":23301:23303   */\n      0x20\n        /* \"#utility.yul\":23290:23299   */\n      dup3\n        /* \"#utility.yul\":23286:23304   */\n      add\n        /* \"#utility.yul\":23278:23304   */\n      swap1\n      pop\n        /* \"#utility.yul\":23350:23359   */\n      dup2\n        /* \"#utility.yul\":23344:23348   */\n      dup2\n        /* \"#utility.yul\":23340:23360   */\n      sub\n        /* \"#utility.yul\":23336:23337   */\n      0x00\n        /* \"#utility.yul\":23325:23334   */\n      dup4\n        /* \"#utility.yul\":23321:23338   */\n      add\n        /* \"#utility.yul\":23314:23361   */\n      mstore\n        /* \"#utility.yul\":23378:23509   */\n      tag_671\n        /* \"#utility.yul\":23504:23508   */\n      dup2\n        /* \"#utility.yul\":23378:23509   */\n      tag_452\n      jump\t// in\n    tag_671:\n        /* \"#utility.yul\":23370:23509   */\n      swap1\n      pop\n        /* \"#utility.yul\":23097:23516   */\n      swap2\n      swap1\n      pop\n      jump\t// out\n        /* \"#utility.yul\":23522:23704   */\n    tag_453:\n        /* \"#utility.yul\":23662:23696   */\n      0x4f776e61626c653a2063616c6c6572206973206e6f7420746865206f776e6572\n        /* \"#utility.yul\":23658:23659   */\n      0x00\n        /* \"#utility.yul\":23650:23656   */\n      dup3\n        /* \"#utility.yul\":23646:23660   */\n      add\n        /* \"#utility.yul\":23639:23697   */\n      mstore\n        /* \"#utility.yul\":23522:23704   */\n      pop\n      jump\t// out\n        /* \"#utility.yul\":23710:24076   */\n    tag_454:\n        /* \"#utility.yul\":23852:23855   */\n      0x00\n        /* \"#utility.yul\":23873:23940   */\n      tag_674\n        /* \"#utility.yul\":23937:23939   */\n      0x20\n        /* \"#utility.yul\":23932:23935   */\n      dup4\n        /* \"#utility.yul\":23873:23940   */\n      tag_402\n      jump\t// in\n    tag_674:\n        /* \"#utility.yul\":23866:23940   */\n      swap2\n      pop\n        /* \"#utility.yul\":23949:24042   */\n      tag_675\n        /* \"#utility.yul\":24038:24041   */\n      dup3\n        /* \"#utility.yul\":23949:24042   */\n      tag_453\n      jump\t// in\n    tag_675:\n        /* \"#utility.yul\":24067:24069   */\n      0x20\n        /* \"#utility.yul\":24062:24065   */\n      dup3\n        /* \"#utility.yul\":24058:24070   */\n      add\n        /* \"#utility.yul\":24051:24070   */\n      swap1\n      pop\n        /* \"#utility.yul\":23710:24076   */\n      swap2\n      swap1\n      pop\n      jump\t// out\n        /* \"#utility.yul\":24082:24501   */\n    tag_339:\n        /* \"#utility.yul\":24248:24252   */\n      0x00\n        /* \"#utility.yul\":24286:24288   */\n      0x20\n        /* \"#utility.yul\":24275:24284   */\n      dup3\n        /* \"#utility.yul\":24271:24289   */\n      add\n        /* \"#utility.yul\":24263:24289   */\n      swap1\n      pop\n        /* \"#utility.yul\":24335:24344   */\n      dup2\n        /* \"#utility.yul\":24329:24333   */\n      dup2\n        /* \"#utility.yul\":24325:24345   */\n      sub\n        /* \"#utility.yul\":24321:24322   */\n      0x00\n        /* \"#utility.yul\":24310:24319   */\n      dup4\n        /* \"#utility.yul\":24306:24323   */\n      add\n        /* \"#utility.yul\":24299:24346   */\n      mstore\n        /* \"#utility.yul\":24363:24494   */\n      tag_677\n        /* \"#utility.yul\":24489:24493   */\n      dup2\n        /* \"#utility.yul\":24363:24494   */\n      tag_454\n      jump\t// in\n    tag_677:\n        /* \"#utility.yul\":24355:24494   */\n      swap1\n      pop\n        /* \"#utility.yul\":24082:24501   */\n      swap2\n      swap1\n      pop\n      jump\t// out\n        /* \"#utility.yul\":24507:24673   */\n    tag_455:\n        /* \"#utility.yul\":24647:24665   */\n      0x5061757361626c653a2070617573656400000000000000000000000000000000\n        /* \"#utility.yul\":24643:24644   */\n      0x00\n        /* \"#utility.yul\":24635:24641   */\n      dup3\n        /* \"#utility.yul\":24631:24645   */\n      add\n        /* \"#utility.yul\":24624:24666   */\n      mstore\n        /* \"#utility.yul\":24507:24673   */\n      pop\n      jump\t// out\n        /* \"#utility.yul\":24679:25045   */\n    tag_456:\n        /* \"#utility.yul\":24821:24824   */\n      0x00\n        /* \"#utility.yul\":24842:24909   */\n      tag_680\n        /* \"#utility.yul\":24906:24908   */\n      0x10\n        /* \"#utility.yul\":24901:24904   */\n      dup4\n        /* \"#utility.yul\":24842:24909   */\n      tag_402\n      jump\t// in\n    tag_680:\n        /* \"#utility.yul\":24835:24909   */\n      swap2\n      pop\n        /* \"#utility.yul\":24918:25011   */\n      tag_681\n        /* \"#utility.yul\":25007:25010   */\n      dup3\n        /* \"#utility.yul\":24918:25011   */\n      tag_455\n      jump\t// in\n    tag_681:\n        /* \"#utility.yul\":25036:25038   */\n      0x20\n        /* \"#utility.yul\":25031:25034   */\n      dup3\n        /* \"#utility.yul\":25027:25039   */\n      add\n        /* \"#utility.yul\":25020:25039   */\n      swap1\n      pop\n        /* \"#utility.yul\":24679:25045   */\n      swap2\n      swap1\n      pop\n      jump\t// out\n        /* \"#utility.yul\":25051:25470   */\n    tag_350:\n        /* \"#utility.yul\":25217:25221   */\n      0x00\n        /* \"#utility.yul\":25255:25257   */\n      0x20\n        /* \"#utility.yul\":25244:25253   */\n      dup3\n        /* \"#utility.yul\":25240:25258   */\n      add\n        /* \"#utility.yul\":25232:25258   */\n      swap1\n      pop\n        /* \"#utility.yul\":25304:25313   */\n      dup2\n        /* \"#utility.yul\":25298:25302   */\n      dup2\n        /* \"#utility.yul\":25294:25314   */\n      sub\n        /* \"#utility.yul\":25290:25291   */\n      0x00\n        /* \"#utility.yul\":25279:25288   */\n      dup4\n        /* \"#utility.yul\":25275:25292   */\n      add\n        /* \"#utility.yul\":25268:25315   */\n      mstore\n        /* \"#utility.yul\":25332:25463   */\n      tag_683\n        /* \"#utility.yul\":25458:25462   */\n      dup2\n        /* \"#utility.yul\":25332:25463   */\n      tag_456\n      jump\t// in\n    tag_683:\n        /* \"#utility.yul\":25324:25463   */\n      swap1\n      pop\n        /* \"#utility.yul\":25051:25470   */\n      swap2\n      swap1\n      pop\n      jump\t// out\n        /* \"#utility.yul\":25476:25657   */\n    tag_457:\n        /* \"#utility.yul\":25616:25649   */\n      0x45524332303a206d696e7420746f20746865207a65726f206164647265737300\n        /* \"#utility.yul\":25612:25613   */\n      0x00\n        /* \"#utility.yul\":25604:25610   */\n      dup3\n        /* \"#utility.yul\":25600:25614   */\n      add\n        /* \"#utility.yul\":25593:25650   */\n      mstore\n        /* \"#utility.yul\":25476:25657   */\n      pop\n      jump\t// out\n        /* \"#utility.yul\":25663:26029   */\n    tag_458:\n        /* \"#utility.yul\":25805:25808   */\n      0x00\n        /* \"#utility.yul\":25826:25893   */\n      tag_686\n        /* \"#utility.yul\":25890:25892   */\n      0x1f\n        /* \"#utility.yul\":25885:25888   */\n      dup4\n        /* \"#utility.yul\":25826:25893   */\n      tag_402\n      jump\t// in\n    tag_686:\n        /* \"#utility.yul\":25819:25893   */\n      swap2\n      pop\n        /* \"#utility.yul\":25902:25995   */\n      tag_687\n        /* \"#utility.yul\":25991:25994   */\n      dup3\n        /* \"#utility.yul\":25902:25995   */\n      tag_457\n      jump\t// in\n    tag_687:\n        /* \"#utility.yul\":26020:26022   */\n      0x20\n        /* \"#utility.yul\":26015:26018   */\n      dup3\n        /* \"#utility.yul\":26011:26023   */\n      add\n        /* \"#utility.yul\":26004:26023   */\n      swap1\n      pop\n        /* \"#utility.yul\":25663:26029   */\n      swap2\n      swap1\n      pop\n      jump\t// out\n        /* \"#utility.yul\":26035:26454   */\n    tag_354:\n        /* \"#utility.yul\":26201:26205   */\n      0x00\n        /* \"#utility.yul\":26239:26241   */\n      0x20\n        /* \"#utility.yul\":26228:26237   */\n      dup3\n        /* \"#utility.yul\":26224:26242   */\n      add\n        /* \"#utility.yul\":26216:26242   */\n      swap1\n      pop\n        /* \"#utility.yul\":26288:26297   */\n      dup2\n        /* \"#utility.yul\":26282:26286   */\n      dup2\n        /* \"#utility.yul\":26278:26298   */\n      sub\n        /* \"#utility.yul\":26274:26275   */\n      0x00\n        /* \"#utility.yul\":26263:26272   */\n      dup4\n        /* \"#utility.yul\":26259:26276   */\n      add\n        /* \"#utility.yul\":26252:26299   */\n      mstore\n        /* \"#utility.yul\":26316:26447   */\n      tag_689\n        /* \"#utility.yul\":26442:26446   */\n      dup2\n        /* \"#utility.yul\":26316:26447   */\n      tag_458\n      jump\t// in\n    tag_689:\n        /* \"#utility.yul\":26308:26447   */\n      swap1\n      pop\n        /* \"#utility.yul\":26035:26454   */\n      swap2\n      swap1\n      pop\n      jump\t// out\n        /* \"#utility.yul\":26460:26680   */\n    tag_459:\n        /* \"#utility.yul\":26600:26634   */\n      0x45524332303a206275726e2066726f6d20746865207a65726f20616464726573\n        /* \"#utility.yul\":26596:26597   */\n      0x00\n        /* \"#utility.yul\":26588:26594   */\n      dup3\n        /* \"#utility.yul\":26584:26598   */\n      add\n        /* \"#utility.yul\":26577:26635   */\n      mstore\n        /* \"#utility.yul\":26669:26672   */\n      0x7300000000000000000000000000000000000000000000000000000000000000\n        /* \"#utility.yul\":26664:26666   */\n      0x20\n        /* \"#utility.yul\":26656:26662   */\n      dup3\n        /* \"#utility.yul\":26652:26667   */\n      add\n        /* \"#utility.yul\":26645:26673   */\n      mstore\n        /* \"#utility.yul\":26460:26680   */\n      pop\n      jump\t// out\n        /* \"#utility.yul\":26686:27052   */\n    tag_460:\n        /* \"#utility.yul\":26828:26831   */\n      0x00\n        /* \"#utility.yul\":26849:26916   */\n      tag_692\n        /* \"#utility.yul\":26913:26915   */\n      0x21\n        /* \"#utility.yul\":26908:26911   */\n      dup4\n        /* \"#utility.yul\":26849:26916   */\n      tag_402\n      jump\t// in\n    tag_692:\n        /* \"#utility.yul\":26842:26916   */\n      swap2\n      pop\n        /* \"#utility.yul\":26925:27018   */\n      tag_693\n        /* \"#utility.yul\":27014:27017   */\n      dup3\n        /* \"#utility.yul\":26925:27018   */\n      tag_459\n      jump\t// in\n    tag_693:\n        /* \"#utility.yul\":27043:27045   */\n      0x40\n        /* \"#utility.yul\":27038:27041   */\n      dup3\n        /* \"#utility.yul\":27034:27046   */\n      add\n        /* \"#utility.yul\":27027:27046   */\n      swap1\n      pop\n        /* \"#utility.yul\":26686:27052   */\n      swap2\n      swap1\n      pop\n      jump\t// out\n        /* \"#utility.yul\":27058:27477   */\n    tag_362:\n        /* \"#utility.yul\":27224:27228   */\n      0x00\n        /* \"#utility.yul\":27262:27264   */\n      0x20\n        /* \"#utility.yul\":27251:27260   */\n      dup3\n        /* \"#utility.yul\":27247:27265   */\n      add\n        /* \"#utility.yul\":27239:27265   */\n      swap1\n      pop\n        /* \"#utility.yul\":27311:27320   */\n      dup2\n        /* \"#utility.yul\":27305:27309   */\n      dup2\n        /* \"#utility.yul\":27301:27321   */\n      sub\n        /* \"#utility.yul\":27297:27298   */\n      0x00\n        /* \"#utility.yul\":27286:27295   */\n      dup4\n        /* \"#utility.yul\":27282:27299   */\n      add\n        /* \"#utility.yul\":27275:27322   */\n      mstore\n        /* \"#utility.yul\":27339:27470   */\n      tag_695\n        /* \"#utility.yul\":27465:27469   */\n      dup2\n        /* \"#utility.yul\":27339:27470   */\n      tag_460\n      jump\t// in\n    tag_695:\n        /* \"#utility.yul\":27331:27470   */\n      swap1\n      pop\n        /* \"#utility.yul\":27058:27477   */\n      swap2\n      swap1\n      pop\n      jump\t// out\n        /* \"#utility.yul\":27483:27704   */\n    tag_461:\n        /* \"#utility.yul\":27623:27657   */\n      0x45524332303a206275726e20616d6f756e7420657863656564732062616c616e\n        /* \"#utility.yul\":27619:27620   */\n      0x00\n        /* \"#utility.yul\":27611:27617   */\n      dup3\n        /* \"#utility.yul\":27607:27621   */\n      add\n        /* \"#utility.yul\":27600:27658   */\n      mstore\n        /* \"#utility.yul\":27692:27696   */\n      0x6365000000000000000000000000000000000000000000000000000000000000\n        /* \"#utility.yul\":27687:27689   */\n      0x20\n        /* \"#utility.yul\":27679:27685   */\n      dup3\n        /* \"#utility.yul\":27675:27690   */\n      add\n        /* \"#utility.yul\":27668:27697   */\n      mstore\n        /* \"#utility.yul\":27483:27704   */\n      pop\n      jump\t// out\n        /* \"#utility.yul\":27710:28076   */\n    tag_462:\n        /* \"#utility.yul\":27852:27855   */\n      0x00\n        /* \"#utility.yul\":27873:27940   */\n      tag_698\n        /* \"#utility.yul\":27937:27939   */\n      0x22\n        /* \"#utility.yul\":27932:27935   */\n      dup4\n        /* \"#utility.yul\":27873:27940   */\n      tag_402\n      jump\t// in\n    tag_698:\n        /* \"#utility.yul\":27866:27940   */\n      swap2\n      pop\n        /* \"#utility.yul\":27949:28042   */\n      tag_699\n        /* \"#utility.yul\":28038:28041   */\n      dup3\n        /* \"#utility.yul\":27949:28042   */\n      tag_461\n      jump\t// in\n    tag_699:\n        /* \"#utility.yul\":28067:28069   */\n      0x40\n        /* \"#utility.yul\":28062:28065   */\n      dup3\n        /* \"#utility.yul\":28058:28070   */\n      add\n        /* \"#utility.yul\":28051:28070   */\n      swap1\n      pop\n        /* \"#utility.yul\":27710:28076   */\n      swap2\n      swap1\n      pop\n      jump\t// out\n        /* \"#utility.yul\":28082:28501   */\n    tag_366:\n        /* \"#utility.yul\":28248:28252   */\n      0x00\n        /* \"#utility.yul\":28286:28288   */\n      0x20\n        /* \"#utility.yul\":28275:28284   */\n      dup3\n        /* \"#utility.yul\":28271:28289   */\n      add\n        /* \"#utility.yul\":28263:28289   */\n      swap1\n      pop\n        /* \"#utility.yul\":28335:28344   */\n      dup2\n        /* \"#utility.yul\":28329:28333   */\n      dup2\n        /* \"#utility.yul\":28325:28345   */\n      sub\n        /* \"#utility.yul\":28321:28322   */\n      0x00\n        /* \"#utility.yul\":28310:28319   */\n      dup4\n        /* \"#utility.yul\":28306:28323   */\n      add\n        /* \"#utility.yul\":28299:28346   */\n      mstore\n        /* \"#utility.yul\":28363:28494   */\n      tag_701\n        /* \"#utility.yul\":28489:28493   */\n      dup2\n        /* \"#utility.yul\":28363:28494   */\n      tag_462\n      jump\t// in\n    tag_701:\n        /* \"#utility.yul\":28355:28494   */\n      swap1\n      pop\n        /* \"#utility.yul\":28082:28501   */\n      swap2\n      swap1\n      pop\n      jump\t// out\n        /* \"#utility.yul\":28507:28688   */\n    tag_463:\n        /* \"#utility.yul\":28647:28680   */\n      0x5265656e7472616e637947756172643a207265656e7472616e742063616c6c00\n        /* \"#utility.yul\":28643:28644   */\n      0x00\n        /* \"#utility.yul\":28635:28641   */\n      dup3\n        /* \"#utility.yul\":28631:28645   */\n      add\n        /* \"#utility.yul\":28624:28681   */\n      mstore\n        /* \"#utility.yul\":28507:28688   */\n      pop\n      jump\t// out\n        /* \"#utility.yul\":28694:29060   */\n    tag_464:\n        /* \"#utility.yul\":28836:28839   */\n      0x00\n        /* \"#utility.yul\":28857:28924   */\n      tag_704\n        /* \"#utility.yul\":28921:28923   */\n      0x1f\n        /* \"#utility.yul\":28916:28919   */\n      dup4\n        /* \"#utility.yul\":28857:28924   */\n      tag_402\n      jump\t// in\n    tag_704:\n        /* \"#utility.yul\":28850:28924   */\n      swap2\n      pop\n        /* \"#utility.yul\":28933:29026   */\n      tag_705\n        /* \"#utility.yul\":29022:29025   */\n      dup3\n        /* \"#utility.yul\":28933:29026   */\n      tag_463\n      jump\t// in\n    tag_705:\n        /* \"#utility.yul\":29051:29053   */\n      0x20\n        /* \"#utility.yul\":29046:29049   */\n      dup3\n        /* \"#utility.yul\":29042:29054   */\n      add\n        /* \"#utility.yul\":29035:29054   */\n      swap1\n      pop\n        /* \"#utility.yul\":28694:29060   */\n      swap2\n      swap1\n      pop\n      jump\t// out\n        /* \"#utility.yul\":29066:29485   */\n    tag_372:\n        /* \"#utility.yul\":29232:29236   */\n      0x00\n        /* \"#utility.yul\":29270:29272   */\n      0x20\n        /* \"#utility.yul\":29259:29268   */\n      dup3\n        /* \"#utility.yul\":29255:29273   */\n      add\n        /* \"#utility.yul\":29247:29273   */\n      swap1\n      pop\n        /* \"#utility.yul\":29319:29328   */\n      dup2\n        /* \"#utility.yul\":29313:29317   */\n      dup2\n        /* \"#utility.yul\":29309:29329   */\n      sub\n        /* \"#utility.yul\":29305:29306   */\n      0x00\n        /* \"#utility.yul\":29294:29303   */\n      dup4\n        /* \"#utility.yul\":29290:29307   */\n      add\n        /* \"#utility.yul\":29283:29330   */\n      mstore\n        /* \"#utility.yul\":29347:29478   */\n      tag_707\n        /* \"#utility.yul\":29473:29477   */\n      dup2\n        /* \"#utility.yul\":29347:29478   */\n      tag_464\n      jump\t// in\n    tag_707:\n        /* \"#utility.yul\":29339:29478   */\n      swap1\n      pop\n        /* \"#utility.yul\":29066:29485   */\n      swap2\n      swap1\n      pop\n      jump\t// out\n        /* \"#utility.yul\":29491:29657   */\n    tag_465:\n        /* \"#utility.yul\":29631:29649   */\n      0x496e76616c6964206974656d2049442e00000000000000000000000000000000\n        /* \"#utility.yul\":29627:29628   */\n      0x00\n        /* \"#utility.yul\":29619:29625   */\n      dup3\n        /* \"#utility.yul\":29615:29629   */\n      add\n        /* \"#utility.yul\":29608:29650   */\n      mstore\n        /* \"#utility.yul\":29491:29657   */\n      pop\n      jump\t// out\n        /* \"#utility.yul\":29663:30029   */\n    tag_466:\n        /* \"#utility.yul\":29805:29808   */\n      0x00\n        /* \"#utility.yul\":29826:29893   */\n      tag_710\n        /* \"#utility.yul\":29890:29892   */\n      0x10\n        /* \"#utility.yul\":29885:29888   */\n      dup4\n        /* \"#utility.yul\":29826:29893   */\n      tag_402\n      jump\t// in\n    tag_710:\n        /* \"#utility.yul\":29819:29893   */\n      swap2\n      pop\n        /* \"#utility.yul\":29902:29995   */\n      tag_711\n        /* \"#utility.yul\":29991:29994   */\n      dup3\n        /* \"#utility.yul\":29902:29995   */\n      tag_465\n      jump\t// in\n    tag_711:\n        /* \"#utility.yul\":30020:30022   */\n      0x20\n        /* \"#utility.yul\":30015:30018   */\n      dup3\n        /* \"#utility.yul\":30011:30023   */\n      add\n        /* \"#utility.yul\":30004:30023   */\n      swap1\n      pop\n        /* \"#utility.yul\":29663:30029   */\n      swap2\n      swap1\n      pop\n      jump\t// out\n        /* \"#utility.yul\":30035:30454   */\n    tag_393:\n        /* \"#utility.yul\":30201:30205   */\n      0x00\n        /* \"#utility.yul\":30239:30241   */\n      0x20\n        /* \"#utility.yul\":30228:30237   */\n      dup3\n        /* \"#utility.yul\":30224:30242   */\n      add\n        /* \"#utility.yul\":30216:30242   */\n      swap1\n      pop\n        /* \"#utility.yul\":30288:30297   */\n      dup2\n        /* \"#utility.yul\":30282:30286   */\n      dup2\n        /* \"#utility.yul\":30278:30298   */\n      sub\n        /* \"#utility.yul\":30274:30275   */\n      0x00\n        /* \"#utility.yul\":30263:30272   */\n      dup4\n        /* \"#utility.yul\":30259:30276   */\n      add\n        /* \"#utility.yul\":30252:30299   */\n      mstore\n        /* \"#utility.yul\":30316:30447   */\n      tag_713\n        /* \"#utility.yul\":30442:30446   */\n      dup2\n        /* \"#utility.yul\":30316:30447   */\n      tag_466\n      jump\t// in\n    tag_713:\n        /* \"#utility.yul\":30308:30447   */\n      swap1\n      pop\n        /* \"#utility.yul\":30035:30454   */\n      swap2\n      swap1\n      pop\n      jump\t// out\n        /* \"#utility.yul\":30460:30630   */\n    tag_467:\n        /* \"#utility.yul\":30600:30622   */\n      0x5061757361626c653a206e6f7420706175736564000000000000000000000000\n        /* \"#utility.yul\":30596:30597   */\n      0x00\n        /* \"#utility.yul\":30588:30594   */\n      dup3\n        /* \"#utility.yul\":30584:30598   */\n      add\n        /* \"#utility.yul\":30577:30623   */\n      mstore\n        /* \"#utility.yul\":30460:30630   */\n      pop\n      jump\t// out\n        /* \"#utility.yul\":30636:31002   */\n    tag_468:\n        /* \"#utility.yul\":30778:30781   */\n      0x00\n        /* \"#utility.yul\":30799:30866   */\n      tag_716\n        /* \"#utility.yul\":30863:30865   */\n      0x14\n        /* \"#utility.yul\":30858:30861   */\n      dup4\n        /* \"#utility.yul\":30799:30866   */\n      tag_402\n      jump\t// in\n    tag_716:\n        /* \"#utility.yul\":30792:30866   */\n      swap2\n      pop\n        /* \"#utility.yul\":30875:30968   */\n      tag_717\n        /* \"#utility.yul\":30964:30967   */\n      dup3\n        /* \"#utility.yul\":30875:30968   */\n      tag_467\n      jump\t// in\n    tag_717:\n        /* \"#utility.yul\":30993:30995   */\n      0x20\n        /* \"#utility.yul\":30988:30991   */\n      dup3\n        /* \"#utility.yul\":30984:30996   */\n      add\n        /* \"#utility.yul\":30977:30996   */\n      swap1\n      pop\n        /* \"#utility.yul\":30636:31002   */\n      swap2\n      swap1\n      pop\n      jump\t// out\n        /* \"#utility.yul\":31008:31427   */\n    tag_400:\n        /* \"#utility.yul\":31174:31178   */\n      0x00\n        /* \"#utility.yul\":31212:31214   */\n      0x20\n        /* \"#utility.yul\":31201:31210   */\n      dup3\n        /* \"#utility.yul\":31197:31215   */\n      add\n        /* \"#utility.yul\":31189:31215   */\n      swap1\n      pop\n        /* \"#utility.yul\":31261:31270   */\n      dup2\n        /* \"#utility.yul\":31255:31259   */\n      dup2\n        /* \"#utility.yul\":31251:31271   */\n      sub\n        /* \"#utility.yul\":31247:31248   */\n      0x00\n        /* \"#utility.yul\":31236:31245   */\n      dup4\n        /* \"#utility.yul\":31232:31249   */\n      add\n        /* \"#utility.yul\":31225:31272   */\n      mstore\n        /* \"#utility.yul\":31289:31420   */\n      tag_719\n        /* \"#utility.yul\":31415:31419   */\n      dup2\n        /* \"#utility.yul\":31289:31420   */\n      tag_468\n      jump\t// in\n    tag_719:\n        /* \"#utility.yul\":31281:31420   */\n      swap1\n      pop\n        /* \"#utility.yul\":31008:31427   */\n      swap2\n      swap1\n      pop\n      jump\t// out\n\n    auxdata: 0xa2646970667358221220ce3db96ff025e16d5a094d0fabdf591daeb08ecae648e11204a82bb45e3d4f3f64736f6c63430008140033\n}\n",
				"bytecode": {
					"linkReferences": {},
					"object": "608060405234801562000010575f80fd5b506040518060400160405280600481526020017f48617a65000000000000000000000000000000000000000000000000000000008152506040518060400160405280600381526020017f485a45000000000000000000000000000000000000000000000000000000000081525081600390816200008e91906200076b565b508060049081620000a091906200076b565b505050620000c3620000b7620000fb60201b60201c565b6200010260201b60201c565b5f600560146101000a81548160ff0219169083151502179055506001600681905550620000f5620001c560201b60201c565b6200084f565b5f33905090565b5f60055f9054906101000a900473ffffffffffffffffffffffffffffffffffffffff1690508160055f6101000a81548173ffffffffffffffffffffffffffffffffffffffff021916908373ffffffffffffffffffffffffffffffffffffffff1602179055508173ffffffffffffffffffffffffffffffffffffffff168173ffffffffffffffffffffffffffffffffffffffff167f8be0079c531659141344cd1fd0a4f28419497f9722a3daafe3b4186f6b6457e060405160405180910390a35050565b60076040518060600160405280600181526020016040518060400160405280600e81526020017f52617265204d6f7573652070616400000000000000000000000000000000000081525081526020016014815250908060018154018082558091505060019003905f5260205f2090600302015f909190919091505f820151815f015560208201518160010190816200025e91906200076b565b5060408201518160020155505060076040518060600160405280600281526020016040518060400160405280600e81526020017f5369676e656420542d736869727400000000000000000000000000000000000081525081526020016064815250908060018154018082558091505060019003905f5260205f2090600302015f909190919091505f820151815f015560208201518160010190816200030491906200076b565b5060408201518160020155505060076040518060600160405280600381526020016040518060400160405280600881526020017f4261636b7061636b00000000000000000000000000000000000000000000000081525081526020016096815250908060018154018082558091505060019003905f5260205f2090600302015f909190919091505f820151815f01556020820151816001019081620003aa91906200076b565b5060408201518160020155505060076040518060600160405280600481526020016040518060400160405280600381526020017f5053350000000000000000000000000000000000000000000000000000000000815250815260200161012c815250908060018154018082558091505060019003905f5260205f2090600302015f909190919091505f820151815f015560208201518160010190816200045191906200076b565b5060408201518160020155505060076040518060600160405280600581526020016040518060400160405280600e81526020017f4578636c757369766520747269700000000000000000000000000000000000008152508152602001610190815250908060018154018082558091505060019003905f5260205f2090600302015f909190919091505f820151815f01556020820151816001019081620004f891906200076b565b50604082015181600201555050565b5f81519050919050565b7f4e487b71000000000000000000000000000000000000000000000000000000005f52604160045260245ffd5b7f4e487b71000000000000000000000000000000000000000000000000000000005f52602260045260245ffd5b5f60028204905060018216806200058357607f821691505b6020821081036200059957620005986200053e565b5b50919050565b5f819050815f5260205f209050919050565b5f6020601f8301049050919050565b5f82821b905092915050565b5f60088302620005fd7fffffffffffffffffffffffffffffffffffffffffffffffffffffffffffffffff82620005c0565b620006098683620005c0565b95508019841693508086168417925050509392505050565b5f819050919050565b5f819050919050565b5f620006536200064d620006478462000621565b6200062a565b62000621565b9050919050565b5f819050919050565b6200066e8362000633565b620006866200067d826200065a565b848454620005cc565b825550505050565b5f90565b6200069c6200068e565b620006a981848462000663565b505050565b5b81811015620006d057620006c45f8262000692565b600181019050620006af565b5050565b601f8211156200071f57620006e9816200059f565b620006f484620005b1565b8101602085101562000704578190505b6200071c6200071385620005b1565b830182620006ae565b50505b505050565b5f82821c905092915050565b5f620007415f198460080262000724565b1980831691505092915050565b5f6200075b838362000730565b9150826002028217905092915050565b620007768262000507565b67ffffffffffffffff81111562000792576200079162000511565b5b6200079e82546200056b565b620007ab828285620006d4565b5f60209050601f831160018114620007e1575f8415620007cc578287015190505b620007d885826200074e565b86555062000847565b601f198416620007f1866200059f565b5f5b828110156200081a57848901518255600182019150602085019450602081019050620007f3565b868310156200083a578489015162000836601f89168262000730565b8355505b6001600288020188555050505b505050505050565b61296d806200085d5f395ff3fe608060405234801561000f575f80fd5b50600436106101a7575f3560e01c80636d1b229d116100f75780639b96eece11610095578063a9059cbb1161006f578063a9059cbb14610497578063bec3fa17146104c7578063dd62ed3e146104e3578063f2fde38b14610513576101a7565b80639b96eece1461041b578063a457c2d71461044b578063a6e158f81461047b576101a7565b806379cc6790116100d157806379cc6790146103b95780638456cb59146103d55780638da5cb5b146103df57806395d89b41146103fd576101a7565b80636d1b229d1461036357806370a082311461037f578063715018a6146103af576101a7565b8063313ce5671161016457806340c10f191161013e57806340c10f19146102db57806342966c68146102f757806343f2cdb2146103135780635c975abb14610345576101a7565b8063313ce5671461028357806339509351146102a15780633f4ba83a146102d1576101a7565b806306fdde03146101ab5780630934074f146101c9578063095ea7b3146101e757806312065fe01461021757806318160ddd1461023557806323b872dd14610253575b5f80fd5b6101b361052f565b6040516101c091906119f2565b60405180910390f35b6101d16105bf565b6040516101de91906119f2565b60405180910390f35b61020160048036038101906101fc9190611aa3565b6106c3565b60405161020e9190611afb565b60405180910390f35b61021f6106e5565b60405161022c9190611b23565b60405180910390f35b61023d6106f4565b60405161024a9190611b23565b60405180910390f35b61026d60048036038101906102689190611b3c565b6106fd565b60405161027a9190611afb565b60405180910390f35b61028b61072b565b6040516102989190611ba7565b60405180910390f35b6102bb60048036038101906102b69190611aa3565b61072f565b6040516102c89190611afb565b60405180910390f35b6102d9610765565b005b6102f560048036038101906102f09190611aa3565b610777565b005b610311600480360381019061030c9190611bc0565b610795565b005b61032d60048036038101906103289190611bc0565b6107a9565b60405161033c93929190611beb565b60405180910390f35b61034d610864565b60405161035a9190611afb565b60405180910390f35b61037d60048036038101906103789190611bc0565b61087a565b005b61039960048036038101906103949190611c27565b61089f565b6040516103a69190611b23565b60405180910390f35b6103b76108e4565b005b6103d360048036038101906103ce9190611aa3565b6108f7565b005b6103dd610917565b005b6103e7610929565b6040516103f49190611c61565b60405180910390f35b610405610951565b60405161041291906119f2565b60405180910390f35b61043560048036038101906104309190611c27565b6109e1565b6040516104429190611b23565b60405180910390f35b61046560048036038101906104609190611aa3565b6109f2565b6040516104729190611afb565b60405180910390f35b61049560048036038101906104909190611bc0565b610a67565b005b6104b160048036038101906104ac9190611aa3565b610b34565b6040516104be9190611afb565b60405180910390f35b6104e160048036038101906104dc9190611aa3565b610b56565b005b6104fd60048036038101906104f89190611c7a565b610b7d565b60405161050a9190611b23565b60405180910390f35b61052d60048036038101906105289190611c27565b610bff565b005b60606003805461053e90611ce5565b80601f016020809104026020016040519081016040528092919081815260200182805461056a90611ce5565b80156105b55780601f1061058c576101008083540402835291602001916105b5565b820191905f5260205f20905b81548152906001019060200180831161059857829003601f168201915b5050505050905090565b60605f6040518060400160405280601781526020017f417661696c61626c652053746f7265204974656d733a0a00000000000000000081525090505f5b6007805490508110156106bb57816106356007838154811061062157610620611d15565b5b905f5260205f2090600302015f0154610c81565b6007838154811061064957610648611d15565b5b905f5260205f2090600302016001016106846007858154811061066f5761066e611d15565b5b905f5260205f20906003020160020154610c81565b6040516020016106979493929190611eec565b604051602081830303815290604052915080806106b390611f77565b9150506105fc565b508091505090565b5f806106cd610dde565b90506106da818585610de5565b600191505092915050565b5f6106ef3361089f565b905090565b5f600254905090565b5f80610707610dde565b9050610714858285610fa8565b61071f858585611033565b60019150509392505050565b5f90565b5f80610739610dde565b905061075a81858561074b8589610b7d565b6107559190611fbe565b610de5565b600191505092915050565b61076d61129f565b61077561131d565b565b61077f61129f565b61078761137f565b61079182826113c9565b5050565b6107a66107a0610dde565b82611517565b50565b600781815481106107b8575f80fd5b905f5260205f2090600302015f91509050805f0154908060010180546107dd90611ce5565b80601f016020809104026020016040519081016040528092919081815260200182805461080990611ce5565b80156108545780601f1061082b57610100808354040283529160200191610854565b820191905f5260205f20905b81548152906001019060200180831161083757829003601f168201915b5050505050908060020154905083565b5f600560149054906101000a900460ff16905090565b61088261137f565b61088a6116da565b6108943382611517565b61089c611729565b50565b5f805f8373ffffffffffffffffffffffffffffffffffffffff1673ffffffffffffffffffffffffffffffffffffffff1681526020019081526020015f20549050919050565b6108ec61129f565b6108f55f611733565b565b61090982610903610dde565b83610fa8565b6109138282611517565b5050565b61091f61129f565b6109276117f6565b565b5f60055f9054906101000a900473ffffffffffffffffffffffffffffffffffffffff16905090565b60606004805461096090611ce5565b80601f016020809104026020016040519081016040528092919081815260200182805461098c90611ce5565b80156109d75780601f106109ae576101008083540402835291602001916109d7565b820191905f5260205f20905b8154815290600101906020018083116109ba57829003601f168201915b5050505050905090565b5f6109eb8261089f565b9050919050565b5f806109fc610dde565b90505f610a098286610b7d565b905083811015610a4e576040517f08c379a0000000000000000000000000000000000000000000000000000000008152600401610a4590612061565b60405180910390fd5b610a5b8286868403610de5565b60019250505092915050565b610a6f61137f565b610a776116da565b5f610a8182611859565b905080610a8d3361089f565b1015610ace576040517f08c379a0000000000000000000000000000000000000000000000000000000008152600401610ac5906120c9565b60405180910390fd5b610ad83382611517565b3373ffffffffffffffffffffffffffffffffffffffff167fe5af1fa255773dc28638b90f9c5e6e6c617350addb7abb7d2930d4d2db5a05368383604051610b209291906120e7565b60405180910390a250610b31611729565b50565b5f80610b3e610dde565b9050610b4b818585611033565b600191505092915050565b610b5e61137f565b610b666116da565b610b71338383611033565b610b79611729565b5050565b5f60015f8473ffffffffffffffffffffffffffffffffffffffff1673ffffffffffffffffffffffffffffffffffffffff1681526020019081526020015f205f8373ffffffffffffffffffffffffffffffffffffffff1673ffffffffffffffffffffffffffffffffffffffff1681526020019081526020015f2054905092915050565b610c0761129f565b5f73ffffffffffffffffffffffffffffffffffffffff168173ffffffffffffffffffffffffffffffffffffffff1603610c75576040517f08c379a0000000000000000000000000000000000000000000000000000000008152600401610c6c9061217e565b60405180910390fd5b610c7e81611733565b50565b60605f8203610cc7576040518060400160405280600181526020017f30000000000000000000000000000000000000000000000000000000000000008152509050610dd9565b5f8290505f5b5f8214610cf6578080610cdf90611f77565b915050600a82610cef91906121c9565b9150610ccd565b5f8167ffffffffffffffff811115610d1157610d106121f9565b5b6040519080825280601f01601f191660200182016040528015610d435781602001600182028036833780820191505090505b5090505f8290505b5f8614610dd1578080610d5d90612226565b915050600a86610d6d919061224d565b6030610d799190611fbe565b60f81b828281518110610d8f57610d8e611d15565b5b60200101907effffffffffffffffffffffffffffffffffffffffffffffffffffffffffffff191690815f1a905350600a86610dca91906121c9565b9550610d4b565b819450505050505b919050565b5f33905090565b5f73ffffffffffffffffffffffffffffffffffffffff168373ffffffffffffffffffffffffffffffffffffffff1603610e53576040517f08c379a0000000000000000000000000000000000000000000000000000000008152600401610e4a906122ed565b60405180910390fd5b5f73ffffffffffffffffffffffffffffffffffffffff168273ffffffffffffffffffffffffffffffffffffffff1603610ec1576040517f08c379a0000000000000000000000000000000000000000000000000000000008152600401610eb89061237b565b60405180910390fd5b8060015f8573ffffffffffffffffffffffffffffffffffffffff1673ffffffffffffffffffffffffffffffffffffffff1681526020019081526020015f205f8473ffffffffffffffffffffffffffffffffffffffff1673ffffffffffffffffffffffffffffffffffffffff1681526020019081526020015f20819055508173ffffffffffffffffffffffffffffffffffffffff168373ffffffffffffffffffffffffffffffffffffffff167f8c5be1e5ebec7d5bd14f71427d1e84f3dd0314c0f7b2291e5b200ac8c7c3b92583604051610f9b9190611b23565b60405180910390a3505050565b5f610fb38484610b7d565b90507fffffffffffffffffffffffffffffffffffffffffffffffffffffffffffffffff811461102d578181101561101f576040517f08c379a0000000000000000000000000000000000000000000000000000000008152600401611016906123e3565b60405180910390fd5b61102c8484848403610de5565b5b50505050565b5f73ffffffffffffffffffffffffffffffffffffffff168373ffffffffffffffffffffffffffffffffffffffff16036110a1576040517f08c379a000000000000000000000000000000000000000000000000000000000815260040161109890612471565b60405180910390fd5b5f73ffffffffffffffffffffffffffffffffffffffff168273ffffffffffffffffffffffffffffffffffffffff160361110f576040517f08c379a0000000000000000000000000000000000000000000000000000000008152600401611106906124ff565b60405180910390fd5b61111a838383611915565b5f805f8573ffffffffffffffffffffffffffffffffffffffff1673ffffffffffffffffffffffffffffffffffffffff1681526020019081526020015f205490508181101561119d576040517f08c379a00000000000000000000000000000000000000000000000000000000081526004016111949061258d565b60405180910390fd5b8181035f808673ffffffffffffffffffffffffffffffffffffffff1673ffffffffffffffffffffffffffffffffffffffff1681526020019081526020015f2081905550815f808573ffffffffffffffffffffffffffffffffffffffff1673ffffffffffffffffffffffffffffffffffffffff1681526020019081526020015f205f82825401925050819055508273ffffffffffffffffffffffffffffffffffffffff168473ffffffffffffffffffffffffffffffffffffffff167fddf252ad1be2c89b69c2b068fc378daa952ba7f163c4a11628f55a4df523b3ef846040516112869190611b23565b60405180910390a361129984848461191a565b50505050565b6112a7610dde565b73ffffffffffffffffffffffffffffffffffffffff166112c5610929565b73ffffffffffffffffffffffffffffffffffffffff161461131b576040517f08c379a0000000000000000000000000000000000000000000000000000000008152600401611312906125f5565b60405180910390fd5b565b61132561191f565b5f600560146101000a81548160ff0219169083151502179055507f5db9ee0a495bf2e6ff9c91a7834c1ba4fdd244a5e8aa4e537bd38aeae4b073aa611368610dde565b6040516113759190611c61565b60405180910390a1565b611387610864565b156113c7576040517f08c379a00000000000000000000000000000000000000000000000000000000081526004016113be9061265d565b60405180910390fd5b565b5f73ffffffffffffffffffffffffffffffffffffffff168273ffffffffffffffffffffffffffffffffffffffff1603611437576040517f08c379a000000000000000000000000000000000000000000000000000000000815260040161142e906126c5565b60405180910390fd5b6114425f8383611915565b8060025f8282546114539190611fbe565b92505081905550805f808473ffffffffffffffffffffffffffffffffffffffff1673ffffffffffffffffffffffffffffffffffffffff1681526020019081526020015f205f82825401925050819055508173ffffffffffffffffffffffffffffffffffffffff165f73ffffffffffffffffffffffffffffffffffffffff167fddf252ad1be2c89b69c2b068fc378daa952ba7f163c4a11628f55a4df523b3ef836040516115009190611b23565b60405180910390a36115135f838361191a565b5050565b5f73ffffffffffffffffffffffffffffffffffffffff168273ffffffffffffffffffffffffffffffffffffffff1603611585576040517f08c379a000000000000000000000000000000000000000000000000000000000815260040161157c90612753565b60405180910390fd5b611590825f83611915565b5f805f8473ffffffffffffffffffffffffffffffffffffffff1673ffffffffffffffffffffffffffffffffffffffff1681526020019081526020015f2054905081811015611613576040517f08c379a000000000000000000000000000000000000000000000000000000000815260040161160a906127e1565b60405180910390fd5b8181035f808573ffffffffffffffffffffffffffffffffffffffff1673ffffffffffffffffffffffffffffffffffffffff1681526020019081526020015f20819055508160025f82825403925050819055505f73ffffffffffffffffffffffffffffffffffffffff168373ffffffffffffffffffffffffffffffffffffffff167fddf252ad1be2c89b69c2b068fc378daa952ba7f163c4a11628f55a4df523b3ef846040516116c29190611b23565b60405180910390a36116d5835f8461191a565b505050565b60026006540361171f576040517f08c379a000000000000000000000000000000000000000000000000000000000815260040161171690612849565b60405180910390fd5b6002600681905550565b6001600681905550565b5f60055f9054906101000a900473ffffffffffffffffffffffffffffffffffffffff1690508160055f6101000a81548173ffffffffffffffffffffffffffffffffffffffff021916908373ffffffffffffffffffffffffffffffffffffffff1602179055508173ffffffffffffffffffffffffffffffffffffffff168173ffffffffffffffffffffffffffffffffffffffff167f8be0079c531659141344cd1fd0a4f28419497f9722a3daafe3b4186f6b6457e060405160405180910390a35050565b6117fe61137f565b6001600560146101000a81548160ff0219169083151502179055507f62e78cea01bee320cd4e420270b5ea74000d11b0c9f74754ebdbfc544b05a258611842610dde565b60405161184f9190611c61565b60405180910390a1565b5f805f90505b6007805490508110156118d457826007828154811061188157611880611d15565b5b905f5260205f2090600302015f0154036118c157600781815481106118a9576118a8611d15565b5b905f5260205f20906003020160020154915050611910565b80806118cc90611f77565b91505061185f565b506040517f08c379a0000000000000000000000000000000000000000000000000000000008152600401611907906128b1565b60405180910390fd5b919050565b505050565b505050565b611927610864565b611966576040517f08c379a000000000000000000000000000000000000000000000000000000000815260040161195d90612919565b60405180910390fd5b565b5f81519050919050565b5f82825260208201905092915050565b5f5b8381101561199f578082015181840152602081019050611984565b5f8484015250505050565b5f601f19601f8301169050919050565b5f6119c482611968565b6119ce8185611972565b93506119de818560208601611982565b6119e7816119aa565b840191505092915050565b5f6020820190508181035f830152611a0a81846119ba565b905092915050565b5f80fd5b5f73ffffffffffffffffffffffffffffffffffffffff82169050919050565b5f611a3f82611a16565b9050919050565b611a4f81611a35565b8114611a59575f80fd5b50565b5f81359050611a6a81611a46565b92915050565b5f819050919050565b611a8281611a70565b8114611a8c575f80fd5b50565b5f81359050611a9d81611a79565b92915050565b5f8060408385031215611ab957611ab8611a12565b5b5f611ac685828601611a5c565b9250506020611ad785828601611a8f565b9150509250929050565b5f8115159050919050565b611af581611ae1565b82525050565b5f602082019050611b0e5f830184611aec565b92915050565b611b1d81611a70565b82525050565b5f602082019050611b365f830184611b14565b92915050565b5f805f60608486031215611b5357611b52611a12565b5b5f611b6086828701611a5c565b9350506020611b7186828701611a5c565b9250506040611b8286828701611a8f565b9150509250925092565b5f60ff82169050919050565b611ba181611b8c565b82525050565b5f602082019050611bba5f830184611b98565b92915050565b5f60208284031215611bd557611bd4611a12565b5b5f611be284828501611a8f565b91505092915050565b5f606082019050611bfe5f830186611b14565b8181036020830152611c1081856119ba565b9050611c1f6040830184611b14565b949350505050565b5f60208284031215611c3c57611c3b611a12565b5b5f611c4984828501611a5c565b91505092915050565b611c5b81611a35565b82525050565b5f602082019050611c745f830184611c52565b92915050565b5f8060408385031215611c9057611c8f611a12565b5b5f611c9d85828601611a5c565b9250506020611cae85828601611a5c565b9150509250929050565b7f4e487b71000000000000000000000000000000000000000000000000000000005f52602260045260245ffd5b5f6002820490506001821680611cfc57607f821691505b602082108103611d0f57611d0e611cb8565b5b50919050565b7f4e487b71000000000000000000000000000000000000000000000000000000005f52603260045260245ffd5b5f81905092915050565b5f611d5682611968565b611d608185611d42565b9350611d70818560208601611982565b80840191505092915050565b7f2e200000000000000000000000000000000000000000000000000000000000005f82015250565b5f611db0600283611d42565b9150611dbb82611d7c565b600282019050919050565b5f819050815f5260205f209050919050565b5f8154611de481611ce5565b611dee8186611d42565b9450600182165f8114611e085760018114611e1d57611e4f565b60ff1983168652811515820286019350611e4f565b611e2685611dc6565b5f5b83811015611e4757815481890152600182019150602081019050611e28565b838801955050505b50505092915050565b7f3a200000000000000000000000000000000000000000000000000000000000005f82015250565b5f611e8c600283611d42565b9150611e9782611e58565b600282019050919050565b7f20546f6b656e730a0000000000000000000000000000000000000000000000005f82015250565b5f611ed6600883611d42565b9150611ee182611ea2565b600882019050919050565b5f611ef78287611d4c565b9150611f038286611d4c565b9150611f0e82611da4565b9150611f1a8285611dd8565b9150611f2582611e80565b9150611f318284611d4c565b9150611f3c82611eca565b915081905095945050505050565b7f4e487b71000000000000000000000000000000000000000000000000000000005f52601160045260245ffd5b5f611f8182611a70565b91507fffffffffffffffffffffffffffffffffffffffffffffffffffffffffffffffff8203611fb357611fb2611f4a565b5b600182019050919050565b5f611fc882611a70565b9150611fd383611a70565b9250828201905080821115611feb57611fea611f4a565b5b92915050565b7f45524332303a2064656372656173656420616c6c6f77616e63652062656c6f775f8201527f207a65726f000000000000000000000000000000000000000000000000000000602082015250565b5f61204b602583611972565b915061205682611ff1565b604082019050919050565b5f6020820190508181035f8301526120788161203f565b9050919050565b7f496e73756666696369656e7420746f6b656e732e0000000000000000000000005f82015250565b5f6120b3601483611972565b91506120be8261207f565b602082019050919050565b5f6020820190508181035f8301526120e0816120a7565b9050919050565b5f6040820190506120fa5f830185611b14565b6121076020830184611b14565b9392505050565b7f4f776e61626c653a206e6577206f776e657220697320746865207a65726f20615f8201527f6464726573730000000000000000000000000000000000000000000000000000602082015250565b5f612168602683611972565b91506121738261210e565b604082019050919050565b5f6020820190508181035f8301526121958161215c565b9050919050565b7f4e487b71000000000000000000000000000000000000000000000000000000005f52601260045260245ffd5b5f6121d382611a70565b91506121de83611a70565b9250826121ee576121ed61219c565b5b828204905092915050565b7f4e487b71000000000000000000000000000000000000000000000000000000005f52604160045260245ffd5b5f61223082611a70565b91505f820361224257612241611f4a565b5b600182039050919050565b5f61225782611a70565b915061226283611a70565b9250826122725761227161219c565b5b828206905092915050565b7f45524332303a20617070726f76652066726f6d20746865207a65726f206164645f8201527f7265737300000000000000000000000000000000000000000000000000000000602082015250565b5f6122d7602483611972565b91506122e28261227d565b604082019050919050565b5f6020820190508181035f830152612304816122cb565b9050919050565b7f45524332303a20617070726f766520746f20746865207a65726f2061646472655f8201527f7373000000000000000000000000000000000000000000000000000000000000602082015250565b5f612365602283611972565b91506123708261230b565b604082019050919050565b5f6020820190508181035f83015261239281612359565b9050919050565b7f45524332303a20696e73756666696369656e7420616c6c6f77616e63650000005f82015250565b5f6123cd601d83611972565b91506123d882612399565b602082019050919050565b5f6020820190508181035f8301526123fa816123c1565b9050919050565b7f45524332303a207472616e736665722066726f6d20746865207a65726f2061645f8201527f6472657373000000000000000000000000000000000000000000000000000000602082015250565b5f61245b602583611972565b915061246682612401565b604082019050919050565b5f6020820190508181035f8301526124888161244f565b9050919050565b7f45524332303a207472616e7366657220746f20746865207a65726f20616464725f8201527f6573730000000000000000000000000000000000000000000000000000000000602082015250565b5f6124e9602383611972565b91506124f48261248f565b604082019050919050565b5f6020820190508181035f830152612516816124dd565b9050919050565b7f45524332303a207472616e7366657220616d6f756e74206578636565647320625f8201527f616c616e63650000000000000000000000000000000000000000000000000000602082015250565b5f612577602683611972565b91506125828261251d565b604082019050919050565b5f6020820190508181035f8301526125a48161256b565b9050919050565b7f4f776e61626c653a2063616c6c6572206973206e6f7420746865206f776e65725f82015250565b5f6125df602083611972565b91506125ea826125ab565b602082019050919050565b5f6020820190508181035f83015261260c816125d3565b9050919050565b7f5061757361626c653a20706175736564000000000000000000000000000000005f82015250565b5f612647601083611972565b915061265282612613565b602082019050919050565b5f6020820190508181035f8301526126748161263b565b9050919050565b7f45524332303a206d696e7420746f20746865207a65726f2061646472657373005f82015250565b5f6126af601f83611972565b91506126ba8261267b565b602082019050919050565b5f6020820190508181035f8301526126dc816126a3565b9050919050565b7f45524332303a206275726e2066726f6d20746865207a65726f206164647265735f8201527f7300000000000000000000000000000000000000000000000000000000000000602082015250565b5f61273d602183611972565b9150612748826126e3565b604082019050919050565b5f6020820190508181035f83015261276a81612731565b9050919050565b7f45524332303a206275726e20616d6f756e7420657863656564732062616c616e5f8201527f6365000000000000000000000000000000000000000000000000000000000000602082015250565b5f6127cb602283611972565b91506127d682612771565b604082019050919050565b5f6020820190508181035f8301526127f8816127bf565b9050919050565b7f5265656e7472616e637947756172643a207265656e7472616e742063616c6c005f82015250565b5f612833601f83611972565b915061283e826127ff565b602082019050919050565b5f6020820190508181035f83015261286081612827565b9050919050565b7f496e76616c6964206974656d2049442e000000000000000000000000000000005f82015250565b5f61289b601083611972565b91506128a682612867565b602082019050919050565b5f6020820190508181035f8301526128c88161288f565b9050919050565b7f5061757361626c653a206e6f74207061757365640000000000000000000000005f82015250565b5f612903601483611972565b915061290e826128cf565b602082019050919050565b5f6020820190508181035f830152612930816128f7565b905091905056fea2646970667358221220ce3db96ff025e16d5a094d0fabdf591daeb08ecae648e11204a82bb45e3d4f3f64736f6c63430008140033",
					"opcodes": "PUSH1 0x80 PUSH1 0x40 MSTORE CALLVALUE DUP1 ISZERO PUSH3 0x10 JUMPI PUSH0 DUP1 REVERT JUMPDEST POP PUSH1 0x40 MLOAD DUP1 PUSH1 0x40 ADD PUSH1 0x40 MSTORE DUP1 PUSH1 0x4 DUP2 MSTORE PUSH1 0x20 ADD PUSH32 0x48617A6500000000000000000000000000000000000000000000000000000000 DUP2 MSTORE POP PUSH1 0x40 MLOAD DUP1 PUSH1 0x40 ADD PUSH1 0x40 MSTORE DUP1 PUSH1 0x3 DUP2 MSTORE PUSH1 0x20 ADD PUSH32 0x485A450000000000000000000000000000000000000000000000000000000000 DUP2 MSTORE POP DUP2 PUSH1 0x3 SWAP1 DUP2 PUSH3 0x8E SWAP2 SWAP1 PUSH3 0x76B JUMP JUMPDEST POP DUP1 PUSH1 0x4 SWAP1 DUP2 PUSH3 0xA0 SWAP2 SWAP1 PUSH3 0x76B JUMP JUMPDEST POP POP POP PUSH3 0xC3 PUSH3 0xB7 PUSH3 0xFB PUSH1 0x20 SHL PUSH1 0x20 SHR JUMP JUMPDEST PUSH3 0x102 PUSH1 0x20 SHL PUSH1 0x20 SHR JUMP JUMPDEST PUSH0 PUSH1 0x5 PUSH1 0x14 PUSH2 0x100 EXP DUP2 SLOAD DUP2 PUSH1 0xFF MUL NOT AND SWAP1 DUP4 ISZERO ISZERO MUL OR SWAP1 SSTORE POP PUSH1 0x1 PUSH1 0x6 DUP2 SWAP1 SSTORE POP PUSH3 0xF5 PUSH3 0x1C5 PUSH1 0x20 SHL PUSH1 0x20 SHR JUMP JUMPDEST PUSH3 0x84F JUMP JUMPDEST PUSH0 CALLER SWAP1 POP SWAP1 JUMP JUMPDEST PUSH0 PUSH1 0x5 PUSH0 SWAP1 SLOAD SWAP1 PUSH2 0x100 EXP SWAP1 DIV PUSH20 0xFFFFFFFFFFFFFFFFFFFFFFFFFFFFFFFFFFFFFFFF AND SWAP1 POP DUP2 PUSH1 0x5 PUSH0 PUSH2 0x100 EXP DUP2 SLOAD DUP2 PUSH20 0xFFFFFFFFFFFFFFFFFFFFFFFFFFFFFFFFFFFFFFFF MUL NOT AND SWAP1 DUP4 PUSH20 0xFFFFFFFFFFFFFFFFFFFFFFFFFFFFFFFFFFFFFFFF AND MUL OR SWAP1 SSTORE POP DUP2 PUSH20 0xFFFFFFFFFFFFFFFFFFFFFFFFFFFFFFFFFFFFFFFF AND DUP2 PUSH20 0xFFFFFFFFFFFFFFFFFFFFFFFFFFFFFFFFFFFFFFFF AND PUSH32 0x8BE0079C531659141344CD1FD0A4F28419497F9722A3DAAFE3B4186F6B6457E0 PUSH1 0x40 MLOAD PUSH1 0x40 MLOAD DUP1 SWAP2 SUB SWAP1 LOG3 POP POP JUMP JUMPDEST PUSH1 0x7 PUSH1 0x40 MLOAD DUP1 PUSH1 0x60 ADD PUSH1 0x40 MSTORE DUP1 PUSH1 0x1 DUP2 MSTORE PUSH1 0x20 ADD PUSH1 0x40 MLOAD DUP1 PUSH1 0x40 ADD PUSH1 0x40 MSTORE DUP1 PUSH1 0xE DUP2 MSTORE PUSH1 0x20 ADD PUSH32 0x52617265204D6F75736520706164000000000000000000000000000000000000 DUP2 MSTORE POP DUP2 MSTORE PUSH1 0x20 ADD PUSH1 0x14 DUP2 MSTORE POP SWAP1 DUP1 PUSH1 0x1 DUP2 SLOAD ADD DUP1 DUP3 SSTORE DUP1 SWAP2 POP POP PUSH1 0x1 SWAP1 SUB SWAP1 PUSH0 MSTORE PUSH1 0x20 PUSH0 KECCAK256 SWAP1 PUSH1 0x3 MUL ADD PUSH0 SWAP1 SWAP2 SWAP1 SWAP2 SWAP1 SWAP2 POP PUSH0 DUP3 ADD MLOAD DUP2 PUSH0 ADD SSTORE PUSH1 0x20 DUP3 ADD MLOAD DUP2 PUSH1 0x1 ADD SWAP1 DUP2 PUSH3 0x25E SWAP2 SWAP1 PUSH3 0x76B JUMP JUMPDEST POP PUSH1 0x40 DUP3 ADD MLOAD DUP2 PUSH1 0x2 ADD SSTORE POP POP PUSH1 0x7 PUSH1 0x40 MLOAD DUP1 PUSH1 0x60 ADD PUSH1 0x40 MSTORE DUP1 PUSH1 0x2 DUP2 MSTORE PUSH1 0x20 ADD PUSH1 0x40 MLOAD DUP1 PUSH1 0x40 ADD PUSH1 0x40 MSTORE DUP1 PUSH1 0xE DUP2 MSTORE PUSH1 0x20 ADD PUSH32 0x5369676E656420542D7368697274000000000000000000000000000000000000 DUP2 MSTORE POP DUP2 MSTORE PUSH1 0x20 ADD PUSH1 0x64 DUP2 MSTORE POP SWAP1 DUP1 PUSH1 0x1 DUP2 SLOAD ADD DUP1 DUP3 SSTORE DUP1 SWAP2 POP POP PUSH1 0x1 SWAP1 SUB SWAP1 PUSH0 MSTORE PUSH1 0x20 PUSH0 KECCAK256 SWAP1 PUSH1 0x3 MUL ADD PUSH0 SWAP1 SWAP2 SWAP1 SWAP2 SWAP1 SWAP2 POP PUSH0 DUP3 ADD MLOAD DUP2 PUSH0 ADD SSTORE PUSH1 0x20 DUP3 ADD MLOAD DUP2 PUSH1 0x1 ADD SWAP1 DUP2 PUSH3 0x304 SWAP2 SWAP1 PUSH3 0x76B JUMP JUMPDEST POP PUSH1 0x40 DUP3 ADD MLOAD DUP2 PUSH1 0x2 ADD SSTORE POP POP PUSH1 0x7 PUSH1 0x40 MLOAD DUP1 PUSH1 0x60 ADD PUSH1 0x40 MSTORE DUP1 PUSH1 0x3 DUP2 MSTORE PUSH1 0x20 ADD PUSH1 0x40 MLOAD DUP1 PUSH1 0x40 ADD PUSH1 0x40 MSTORE DUP1 PUSH1 0x8 DUP2 MSTORE PUSH1 0x20 ADD PUSH32 0x4261636B7061636B000000000000000000000000000000000000000000000000 DUP2 MSTORE POP DUP2 MSTORE PUSH1 0x20 ADD PUSH1 0x96 DUP2 MSTORE POP SWAP1 DUP1 PUSH1 0x1 DUP2 SLOAD ADD DUP1 DUP3 SSTORE DUP1 SWAP2 POP POP PUSH1 0x1 SWAP1 SUB SWAP1 PUSH0 MSTORE PUSH1 0x20 PUSH0 KECCAK256 SWAP1 PUSH1 0x3 MUL ADD PUSH0 SWAP1 SWAP2 SWAP1 SWAP2 SWAP1 SWAP2 POP PUSH0 DUP3 ADD MLOAD DUP2 PUSH0 ADD SSTORE PUSH1 0x20 DUP3 ADD MLOAD DUP2 PUSH1 0x1 ADD SWAP1 DUP2 PUSH3 0x3AA SWAP2 SWAP1 PUSH3 0x76B JUMP JUMPDEST POP PUSH1 0x40 DUP3 ADD MLOAD DUP2 PUSH1 0x2 ADD SSTORE POP POP PUSH1 0x7 PUSH1 0x40 MLOAD DUP1 PUSH1 0x60 ADD PUSH1 0x40 MSTORE DUP1 PUSH1 0x4 DUP2 MSTORE PUSH1 0x20 ADD PUSH1 0x40 MLOAD DUP1 PUSH1 0x40 ADD PUSH1 0x40 MSTORE DUP1 PUSH1 0x3 DUP2 MSTORE PUSH1 0x20 ADD PUSH32 0x5053350000000000000000000000000000000000000000000000000000000000 DUP2 MSTORE POP DUP2 MSTORE PUSH1 0x20 ADD PUSH2 0x12C DUP2 MSTORE POP SWAP1 DUP1 PUSH1 0x1 DUP2 SLOAD ADD DUP1 DUP3 SSTORE DUP1 SWAP2 POP POP PUSH1 0x1 SWAP1 SUB SWAP1 PUSH0 MSTORE PUSH1 0x20 PUSH0 KECCAK256 SWAP1 PUSH1 0x3 MUL ADD PUSH0 SWAP1 SWAP2 SWAP1 SWAP2 SWAP1 SWAP2 POP PUSH0 DUP3 ADD MLOAD DUP2 PUSH0 ADD SSTORE PUSH1 0x20 DUP3 ADD MLOAD DUP2 PUSH1 0x1 ADD SWAP1 DUP2 PUSH3 0x451 SWAP2 SWAP1 PUSH3 0x76B JUMP JUMPDEST POP PUSH1 0x40 DUP3 ADD MLOAD DUP2 PUSH1 0x2 ADD SSTORE POP POP PUSH1 0x7 PUSH1 0x40 MLOAD DUP1 PUSH1 0x60 ADD PUSH1 0x40 MSTORE DUP1 PUSH1 0x5 DUP2 MSTORE PUSH1 0x20 ADD PUSH1 0x40 MLOAD DUP1 PUSH1 0x40 ADD PUSH1 0x40 MSTORE DUP1 PUSH1 0xE DUP2 MSTORE PUSH1 0x20 ADD PUSH32 0x4578636C75736976652074726970000000000000000000000000000000000000 DUP2 MSTORE POP DUP2 MSTORE PUSH1 0x20 ADD PUSH2 0x190 DUP2 MSTORE POP SWAP1 DUP1 PUSH1 0x1 DUP2 SLOAD ADD DUP1 DUP3 SSTORE DUP1 SWAP2 POP POP PUSH1 0x1 SWAP1 SUB SWAP1 PUSH0 MSTORE PUSH1 0x20 PUSH0 KECCAK256 SWAP1 PUSH1 0x3 MUL ADD PUSH0 SWAP1 SWAP2 SWAP1 SWAP2 SWAP1 SWAP2 POP PUSH0 DUP3 ADD MLOAD DUP2 PUSH0 ADD SSTORE PUSH1 0x20 DUP3 ADD MLOAD DUP2 PUSH1 0x1 ADD SWAP1 DUP2 PUSH3 0x4F8 SWAP2 SWAP1 PUSH3 0x76B JUMP JUMPDEST POP PUSH1 0x40 DUP3 ADD MLOAD DUP2 PUSH1 0x2 ADD SSTORE POP POP JUMP JUMPDEST PUSH0 DUP2 MLOAD SWAP1 POP SWAP2 SWAP1 POP JUMP JUMPDEST PUSH32 0x4E487B7100000000000000000000000000000000000000000000000000000000 PUSH0 MSTORE PUSH1 0x41 PUSH1 0x4 MSTORE PUSH1 0x24 PUSH0 REVERT JUMPDEST PUSH32 0x4E487B7100000000000000000000000000000000000000000000000000000000 PUSH0 MSTORE PUSH1 0x22 PUSH1 0x4 MSTORE PUSH1 0x24 PUSH0 REVERT JUMPDEST PUSH0 PUSH1 0x2 DUP3 DIV SWAP1 POP PUSH1 0x1 DUP3 AND DUP1 PUSH3 0x583 JUMPI PUSH1 0x7F DUP3 AND SWAP2 POP JUMPDEST PUSH1 0x20 DUP3 LT DUP2 SUB PUSH3 0x599 JUMPI PUSH3 0x598 PUSH3 0x53E JUMP JUMPDEST JUMPDEST POP SWAP2 SWAP1 POP JUMP JUMPDEST PUSH0 DUP2 SWAP1 POP DUP2 PUSH0 MSTORE PUSH1 0x20 PUSH0 KECCAK256 SWAP1 POP SWAP2 SWAP1 POP JUMP JUMPDEST PUSH0 PUSH1 0x20 PUSH1 0x1F DUP4 ADD DIV SWAP1 POP SWAP2 SWAP1 POP JUMP JUMPDEST PUSH0 DUP3 DUP3 SHL SWAP1 POP SWAP3 SWAP2 POP POP JUMP JUMPDEST PUSH0 PUSH1 0x8 DUP4 MUL PUSH3 0x5FD PUSH32 0xFFFFFFFFFFFFFFFFFFFFFFFFFFFFFFFFFFFFFFFFFFFFFFFFFFFFFFFFFFFFFFFF DUP3 PUSH3 0x5C0 JUMP JUMPDEST PUSH3 0x609 DUP7 DUP4 PUSH3 0x5C0 JUMP JUMPDEST SWAP6 POP DUP1 NOT DUP5 AND SWAP4 POP DUP1 DUP7 AND DUP5 OR SWAP3 POP POP POP SWAP4 SWAP3 POP POP POP JUMP JUMPDEST PUSH0 DUP2 SWAP1 POP SWAP2 SWAP1 POP JUMP JUMPDEST PUSH0 DUP2 SWAP1 POP SWAP2 SWAP1 POP JUMP JUMPDEST PUSH0 PUSH3 0x653 PUSH3 0x64D PUSH3 0x647 DUP5 PUSH3 0x621 JUMP JUMPDEST PUSH3 0x62A JUMP JUMPDEST PUSH3 0x621 JUMP JUMPDEST SWAP1 POP SWAP2 SWAP1 POP JUMP JUMPDEST PUSH0 DUP2 SWAP1 POP SWAP2 SWAP1 POP JUMP JUMPDEST PUSH3 0x66E DUP4 PUSH3 0x633 JUMP JUMPDEST PUSH3 0x686 PUSH3 0x67D DUP3 PUSH3 0x65A JUMP JUMPDEST DUP5 DUP5 SLOAD PUSH3 0x5CC JUMP JUMPDEST DUP3 SSTORE POP POP POP POP JUMP JUMPDEST PUSH0 SWAP1 JUMP JUMPDEST PUSH3 0x69C PUSH3 0x68E JUMP JUMPDEST PUSH3 0x6A9 DUP2 DUP5 DUP5 PUSH3 0x663 JUMP JUMPDEST POP POP POP JUMP JUMPDEST JUMPDEST DUP2 DUP2 LT ISZERO PUSH3 0x6D0 JUMPI PUSH3 0x6C4 PUSH0 DUP3 PUSH3 0x692 JUMP JUMPDEST PUSH1 0x1 DUP2 ADD SWAP1 POP PUSH3 0x6AF JUMP JUMPDEST POP POP JUMP JUMPDEST PUSH1 0x1F DUP3 GT ISZERO PUSH3 0x71F JUMPI PUSH3 0x6E9 DUP2 PUSH3 0x59F JUMP JUMPDEST PUSH3 0x6F4 DUP5 PUSH3 0x5B1 JUMP JUMPDEST DUP2 ADD PUSH1 0x20 DUP6 LT ISZERO PUSH3 0x704 JUMPI DUP2 SWAP1 POP JUMPDEST PUSH3 0x71C PUSH3 0x713 DUP6 PUSH3 0x5B1 JUMP JUMPDEST DUP4 ADD DUP3 PUSH3 0x6AE JUMP JUMPDEST POP POP JUMPDEST POP POP POP JUMP JUMPDEST PUSH0 DUP3 DUP3 SHR SWAP1 POP SWAP3 SWAP2 POP POP JUMP JUMPDEST PUSH0 PUSH3 0x741 PUSH0 NOT DUP5 PUSH1 0x8 MUL PUSH3 0x724 JUMP JUMPDEST NOT DUP1 DUP4 AND SWAP2 POP POP SWAP3 SWAP2 POP POP JUMP JUMPDEST PUSH0 PUSH3 0x75B DUP4 DUP4 PUSH3 0x730 JUMP JUMPDEST SWAP2 POP DUP3 PUSH1 0x2 MUL DUP3 OR SWAP1 POP SWAP3 SWAP2 POP POP JUMP JUMPDEST PUSH3 0x776 DUP3 PUSH3 0x507 JUMP JUMPDEST PUSH8 0xFFFFFFFFFFFFFFFF DUP2 GT ISZERO PUSH3 0x792 JUMPI PUSH3 0x791 PUSH3 0x511 JUMP JUMPDEST JUMPDEST PUSH3 0x79E DUP3 SLOAD PUSH3 0x56B JUMP JUMPDEST PUSH3 0x7AB DUP3 DUP3 DUP6 PUSH3 0x6D4 JUMP JUMPDEST PUSH0 PUSH1 0x20 SWAP1 POP PUSH1 0x1F DUP4 GT PUSH1 0x1 DUP2 EQ PUSH3 0x7E1 JUMPI PUSH0 DUP5 ISZERO PUSH3 0x7CC JUMPI DUP3 DUP8 ADD MLOAD SWAP1 POP JUMPDEST PUSH3 0x7D8 DUP6 DUP3 PUSH3 0x74E JUMP JUMPDEST DUP7 SSTORE POP PUSH3 0x847 JUMP JUMPDEST PUSH1 0x1F NOT DUP5 AND PUSH3 0x7F1 DUP7 PUSH3 0x59F JUMP JUMPDEST PUSH0 JUMPDEST DUP3 DUP2 LT ISZERO PUSH3 0x81A JUMPI DUP5 DUP10 ADD MLOAD DUP3 SSTORE PUSH1 0x1 DUP3 ADD SWAP2 POP PUSH1 0x20 DUP6 ADD SWAP5 POP PUSH1 0x20 DUP2 ADD SWAP1 POP PUSH3 0x7F3 JUMP JUMPDEST DUP7 DUP4 LT ISZERO PUSH3 0x83A JUMPI DUP5 DUP10 ADD MLOAD PUSH3 0x836 PUSH1 0x1F DUP10 AND DUP3 PUSH3 0x730 JUMP JUMPDEST DUP4 SSTORE POP JUMPDEST PUSH1 0x1 PUSH1 0x2 DUP9 MUL ADD DUP9 SSTORE POP POP POP JUMPDEST POP POP POP POP POP POP JUMP JUMPDEST PUSH2 0x296D DUP1 PUSH3 0x85D PUSH0 CODECOPY PUSH0 RETURN INVALID PUSH1 0x80 PUSH1 0x40 MSTORE CALLVALUE DUP1 ISZERO PUSH2 0xF JUMPI PUSH0 DUP1 REVERT JUMPDEST POP PUSH1 0x4 CALLDATASIZE LT PUSH2 0x1A7 JUMPI PUSH0 CALLDATALOAD PUSH1 0xE0 SHR DUP1 PUSH4 0x6D1B229D GT PUSH2 0xF7 JUMPI DUP1 PUSH4 0x9B96EECE GT PUSH2 0x95 JUMPI DUP1 PUSH4 0xA9059CBB GT PUSH2 0x6F JUMPI DUP1 PUSH4 0xA9059CBB EQ PUSH2 0x497 JUMPI DUP1 PUSH4 0xBEC3FA17 EQ PUSH2 0x4C7 JUMPI DUP1 PUSH4 0xDD62ED3E EQ PUSH2 0x4E3 JUMPI DUP1 PUSH4 0xF2FDE38B EQ PUSH2 0x513 JUMPI PUSH2 0x1A7 JUMP JUMPDEST DUP1 PUSH4 0x9B96EECE EQ PUSH2 0x41B JUMPI DUP1 PUSH4 0xA457C2D7 EQ PUSH2 0x44B JUMPI DUP1 PUSH4 0xA6E158F8 EQ PUSH2 0x47B JUMPI PUSH2 0x1A7 JUMP JUMPDEST DUP1 PUSH4 0x79CC6790 GT PUSH2 0xD1 JUMPI DUP1 PUSH4 0x79CC6790 EQ PUSH2 0x3B9 JUMPI DUP1 PUSH4 0x8456CB59 EQ PUSH2 0x3D5 JUMPI DUP1 PUSH4 0x8DA5CB5B EQ PUSH2 0x3DF JUMPI DUP1 PUSH4 0x95D89B41 EQ PUSH2 0x3FD JUMPI PUSH2 0x1A7 JUMP JUMPDEST DUP1 PUSH4 0x6D1B229D EQ PUSH2 0x363 JUMPI DUP1 PUSH4 0x70A08231 EQ PUSH2 0x37F JUMPI DUP1 PUSH4 0x715018A6 EQ PUSH2 0x3AF JUMPI PUSH2 0x1A7 JUMP JUMPDEST DUP1 PUSH4 0x313CE567 GT PUSH2 0x164 JUMPI DUP1 PUSH4 0x40C10F19 GT PUSH2 0x13E JUMPI DUP1 PUSH4 0x40C10F19 EQ PUSH2 0x2DB JUMPI DUP1 PUSH4 0x42966C68 EQ PUSH2 0x2F7 JUMPI DUP1 PUSH4 0x43F2CDB2 EQ PUSH2 0x313 JUMPI DUP1 PUSH4 0x5C975ABB EQ PUSH2 0x345 JUMPI PUSH2 0x1A7 JUMP JUMPDEST DUP1 PUSH4 0x313CE567 EQ PUSH2 0x283 JUMPI DUP1 PUSH4 0x39509351 EQ PUSH2 0x2A1 JUMPI DUP1 PUSH4 0x3F4BA83A EQ PUSH2 0x2D1 JUMPI PUSH2 0x1A7 JUMP JUMPDEST DUP1 PUSH4 0x6FDDE03 EQ PUSH2 0x1AB JUMPI DUP1 PUSH4 0x934074F EQ PUSH2 0x1C9 JUMPI DUP1 PUSH4 0x95EA7B3 EQ PUSH2 0x1E7 JUMPI DUP1 PUSH4 0x12065FE0 EQ PUSH2 0x217 JUMPI DUP1 PUSH4 0x18160DDD EQ PUSH2 0x235 JUMPI DUP1 PUSH4 0x23B872DD EQ PUSH2 0x253 JUMPI JUMPDEST PUSH0 DUP1 REVERT JUMPDEST PUSH2 0x1B3 PUSH2 0x52F JUMP JUMPDEST PUSH1 0x40 MLOAD PUSH2 0x1C0 SWAP2 SWAP1 PUSH2 0x19F2 JUMP JUMPDEST PUSH1 0x40 MLOAD DUP1 SWAP2 SUB SWAP1 RETURN JUMPDEST PUSH2 0x1D1 PUSH2 0x5BF JUMP JUMPDEST PUSH1 0x40 MLOAD PUSH2 0x1DE SWAP2 SWAP1 PUSH2 0x19F2 JUMP JUMPDEST PUSH1 0x40 MLOAD DUP1 SWAP2 SUB SWAP1 RETURN JUMPDEST PUSH2 0x201 PUSH1 0x4 DUP1 CALLDATASIZE SUB DUP2 ADD SWAP1 PUSH2 0x1FC SWAP2 SWAP1 PUSH2 0x1AA3 JUMP JUMPDEST PUSH2 0x6C3 JUMP JUMPDEST PUSH1 0x40 MLOAD PUSH2 0x20E SWAP2 SWAP1 PUSH2 0x1AFB JUMP JUMPDEST PUSH1 0x40 MLOAD DUP1 SWAP2 SUB SWAP1 RETURN JUMPDEST PUSH2 0x21F PUSH2 0x6E5 JUMP JUMPDEST PUSH1 0x40 MLOAD PUSH2 0x22C SWAP2 SWAP1 PUSH2 0x1B23 JUMP JUMPDEST PUSH1 0x40 MLOAD DUP1 SWAP2 SUB SWAP1 RETURN JUMPDEST PUSH2 0x23D PUSH2 0x6F4 JUMP JUMPDEST PUSH1 0x40 MLOAD PUSH2 0x24A SWAP2 SWAP1 PUSH2 0x1B23 JUMP JUMPDEST PUSH1 0x40 MLOAD DUP1 SWAP2 SUB SWAP1 RETURN JUMPDEST PUSH2 0x26D PUSH1 0x4 DUP1 CALLDATASIZE SUB DUP2 ADD SWAP1 PUSH2 0x268 SWAP2 SWAP1 PUSH2 0x1B3C JUMP JUMPDEST PUSH2 0x6FD JUMP JUMPDEST PUSH1 0x40 MLOAD PUSH2 0x27A SWAP2 SWAP1 PUSH2 0x1AFB JUMP JUMPDEST PUSH1 0x40 MLOAD DUP1 SWAP2 SUB SWAP1 RETURN JUMPDEST PUSH2 0x28B PUSH2 0x72B JUMP JUMPDEST PUSH1 0x40 MLOAD PUSH2 0x298 SWAP2 SWAP1 PUSH2 0x1BA7 JUMP JUMPDEST PUSH1 0x40 MLOAD DUP1 SWAP2 SUB SWAP1 RETURN JUMPDEST PUSH2 0x2BB PUSH1 0x4 DUP1 CALLDATASIZE SUB DUP2 ADD SWAP1 PUSH2 0x2B6 SWAP2 SWAP1 PUSH2 0x1AA3 JUMP JUMPDEST PUSH2 0x72F JUMP JUMPDEST PUSH1 0x40 MLOAD PUSH2 0x2C8 SWAP2 SWAP1 PUSH2 0x1AFB JUMP JUMPDEST PUSH1 0x40 MLOAD DUP1 SWAP2 SUB SWAP1 RETURN JUMPDEST PUSH2 0x2D9 PUSH2 0x765 JUMP JUMPDEST STOP JUMPDEST PUSH2 0x2F5 PUSH1 0x4 DUP1 CALLDATASIZE SUB DUP2 ADD SWAP1 PUSH2 0x2F0 SWAP2 SWAP1 PUSH2 0x1AA3 JUMP JUMPDEST PUSH2 0x777 JUMP JUMPDEST STOP JUMPDEST PUSH2 0x311 PUSH1 0x4 DUP1 CALLDATASIZE SUB DUP2 ADD SWAP1 PUSH2 0x30C SWAP2 SWAP1 PUSH2 0x1BC0 JUMP JUMPDEST PUSH2 0x795 JUMP JUMPDEST STOP JUMPDEST PUSH2 0x32D PUSH1 0x4 DUP1 CALLDATASIZE SUB DUP2 ADD SWAP1 PUSH2 0x328 SWAP2 SWAP1 PUSH2 0x1BC0 JUMP JUMPDEST PUSH2 0x7A9 JUMP JUMPDEST PUSH1 0x40 MLOAD PUSH2 0x33C SWAP4 SWAP3 SWAP2 SWAP1 PUSH2 0x1BEB JUMP JUMPDEST PUSH1 0x40 MLOAD DUP1 SWAP2 SUB SWAP1 RETURN JUMPDEST PUSH2 0x34D PUSH2 0x864 JUMP JUMPDEST PUSH1 0x40 MLOAD PUSH2 0x35A SWAP2 SWAP1 PUSH2 0x1AFB JUMP JUMPDEST PUSH1 0x40 MLOAD DUP1 SWAP2 SUB SWAP1 RETURN JUMPDEST PUSH2 0x37D PUSH1 0x4 DUP1 CALLDATASIZE SUB DUP2 ADD SWAP1 PUSH2 0x378 SWAP2 SWAP1 PUSH2 0x1BC0 JUMP JUMPDEST PUSH2 0x87A JUMP JUMPDEST STOP JUMPDEST PUSH2 0x399 PUSH1 0x4 DUP1 CALLDATASIZE SUB DUP2 ADD SWAP1 PUSH2 0x394 SWAP2 SWAP1 PUSH2 0x1C27 JUMP JUMPDEST PUSH2 0x89F JUMP JUMPDEST PUSH1 0x40 MLOAD PUSH2 0x3A6 SWAP2 SWAP1 PUSH2 0x1B23 JUMP JUMPDEST PUSH1 0x40 MLOAD DUP1 SWAP2 SUB SWAP1 RETURN JUMPDEST PUSH2 0x3B7 PUSH2 0x8E4 JUMP JUMPDEST STOP JUMPDEST PUSH2 0x3D3 PUSH1 0x4 DUP1 CALLDATASIZE SUB DUP2 ADD SWAP1 PUSH2 0x3CE SWAP2 SWAP1 PUSH2 0x1AA3 JUMP JUMPDEST PUSH2 0x8F7 JUMP JUMPDEST STOP JUMPDEST PUSH2 0x3DD PUSH2 0x917 JUMP JUMPDEST STOP JUMPDEST PUSH2 0x3E7 PUSH2 0x929 JUMP JUMPDEST PUSH1 0x40 MLOAD PUSH2 0x3F4 SWAP2 SWAP1 PUSH2 0x1C61 JUMP JUMPDEST PUSH1 0x40 MLOAD DUP1 SWAP2 SUB SWAP1 RETURN JUMPDEST PUSH2 0x405 PUSH2 0x951 JUMP JUMPDEST PUSH1 0x40 MLOAD PUSH2 0x412 SWAP2 SWAP1 PUSH2 0x19F2 JUMP JUMPDEST PUSH1 0x40 MLOAD DUP1 SWAP2 SUB SWAP1 RETURN JUMPDEST PUSH2 0x435 PUSH1 0x4 DUP1 CALLDATASIZE SUB DUP2 ADD SWAP1 PUSH2 0x430 SWAP2 SWAP1 PUSH2 0x1C27 JUMP JUMPDEST PUSH2 0x9E1 JUMP JUMPDEST PUSH1 0x40 MLOAD PUSH2 0x442 SWAP2 SWAP1 PUSH2 0x1B23 JUMP JUMPDEST PUSH1 0x40 MLOAD DUP1 SWAP2 SUB SWAP1 RETURN JUMPDEST PUSH2 0x465 PUSH1 0x4 DUP1 CALLDATASIZE SUB DUP2 ADD SWAP1 PUSH2 0x460 SWAP2 SWAP1 PUSH2 0x1AA3 JUMP JUMPDEST PUSH2 0x9F2 JUMP JUMPDEST PUSH1 0x40 MLOAD PUSH2 0x472 SWAP2 SWAP1 PUSH2 0x1AFB JUMP JUMPDEST PUSH1 0x40 MLOAD DUP1 SWAP2 SUB SWAP1 RETURN JUMPDEST PUSH2 0x495 PUSH1 0x4 DUP1 CALLDATASIZE SUB DUP2 ADD SWAP1 PUSH2 0x490 SWAP2 SWAP1 PUSH2 0x1BC0 JUMP JUMPDEST PUSH2 0xA67 JUMP JUMPDEST STOP JUMPDEST PUSH2 0x4B1 PUSH1 0x4 DUP1 CALLDATASIZE SUB DUP2 ADD SWAP1 PUSH2 0x4AC SWAP2 SWAP1 PUSH2 0x1AA3 JUMP JUMPDEST PUSH2 0xB34 JUMP JUMPDEST PUSH1 0x40 MLOAD PUSH2 0x4BE SWAP2 SWAP1 PUSH2 0x1AFB JUMP JUMPDEST PUSH1 0x40 MLOAD DUP1 SWAP2 SUB SWAP1 RETURN JUMPDEST PUSH2 0x4E1 PUSH1 0x4 DUP1 CALLDATASIZE SUB DUP2 ADD SWAP1 PUSH2 0x4DC SWAP2 SWAP1 PUSH2 0x1AA3 JUMP JUMPDEST PUSH2 0xB56 JUMP JUMPDEST STOP JUMPDEST PUSH2 0x4FD PUSH1 0x4 DUP1 CALLDATASIZE SUB DUP2 ADD SWAP1 PUSH2 0x4F8 SWAP2 SWAP1 PUSH2 0x1C7A JUMP JUMPDEST PUSH2 0xB7D JUMP JUMPDEST PUSH1 0x40 MLOAD PUSH2 0x50A SWAP2 SWAP1 PUSH2 0x1B23 JUMP JUMPDEST PUSH1 0x40 MLOAD DUP1 SWAP2 SUB SWAP1 RETURN JUMPDEST PUSH2 0x52D PUSH1 0x4 DUP1 CALLDATASIZE SUB DUP2 ADD SWAP1 PUSH2 0x528 SWAP2 SWAP1 PUSH2 0x1C27 JUMP JUMPDEST PUSH2 0xBFF JUMP JUMPDEST STOP JUMPDEST PUSH1 0x60 PUSH1 0x3 DUP1 SLOAD PUSH2 0x53E SWAP1 PUSH2 0x1CE5 JUMP JUMPDEST DUP1 PUSH1 0x1F ADD PUSH1 0x20 DUP1 SWAP2 DIV MUL PUSH1 0x20 ADD PUSH1 0x40 MLOAD SWAP1 DUP2 ADD PUSH1 0x40 MSTORE DUP1 SWAP3 SWAP2 SWAP1 DUP2 DUP2 MSTORE PUSH1 0x20 ADD DUP3 DUP1 SLOAD PUSH2 0x56A SWAP1 PUSH2 0x1CE5 JUMP JUMPDEST DUP1 ISZERO PUSH2 0x5B5 JUMPI DUP1 PUSH1 0x1F LT PUSH2 0x58C JUMPI PUSH2 0x100 DUP1 DUP4 SLOAD DIV MUL DUP4 MSTORE SWAP2 PUSH1 0x20 ADD SWAP2 PUSH2 0x5B5 JUMP JUMPDEST DUP3 ADD SWAP2 SWAP1 PUSH0 MSTORE PUSH1 0x20 PUSH0 KECCAK256 SWAP1 JUMPDEST DUP2 SLOAD DUP2 MSTORE SWAP1 PUSH1 0x1 ADD SWAP1 PUSH1 0x20 ADD DUP1 DUP4 GT PUSH2 0x598 JUMPI DUP3 SWAP1 SUB PUSH1 0x1F AND DUP3 ADD SWAP2 JUMPDEST POP POP POP POP POP SWAP1 POP SWAP1 JUMP JUMPDEST PUSH1 0x60 PUSH0 PUSH1 0x40 MLOAD DUP1 PUSH1 0x40 ADD PUSH1 0x40 MSTORE DUP1 PUSH1 0x17 DUP2 MSTORE PUSH1 0x20 ADD PUSH32 0x417661696C61626C652053746F7265204974656D733A0A000000000000000000 DUP2 MSTORE POP SWAP1 POP PUSH0 JUMPDEST PUSH1 0x7 DUP1 SLOAD SWAP1 POP DUP2 LT ISZERO PUSH2 0x6BB JUMPI DUP2 PUSH2 0x635 PUSH1 0x7 DUP4 DUP2 SLOAD DUP2 LT PUSH2 0x621 JUMPI PUSH2 0x620 PUSH2 0x1D15 JUMP JUMPDEST JUMPDEST SWAP1 PUSH0 MSTORE PUSH1 0x20 PUSH0 KECCAK256 SWAP1 PUSH1 0x3 MUL ADD PUSH0 ADD SLOAD PUSH2 0xC81 JUMP JUMPDEST PUSH1 0x7 DUP4 DUP2 SLOAD DUP2 LT PUSH2 0x649 JUMPI PUSH2 0x648 PUSH2 0x1D15 JUMP JUMPDEST JUMPDEST SWAP1 PUSH0 MSTORE PUSH1 0x20 PUSH0 KECCAK256 SWAP1 PUSH1 0x3 MUL ADD PUSH1 0x1 ADD PUSH2 0x684 PUSH1 0x7 DUP6 DUP2 SLOAD DUP2 LT PUSH2 0x66F JUMPI PUSH2 0x66E PUSH2 0x1D15 JUMP JUMPDEST JUMPDEST SWAP1 PUSH0 MSTORE PUSH1 0x20 PUSH0 KECCAK256 SWAP1 PUSH1 0x3 MUL ADD PUSH1 0x2 ADD SLOAD PUSH2 0xC81 JUMP JUMPDEST PUSH1 0x40 MLOAD PUSH1 0x20 ADD PUSH2 0x697 SWAP5 SWAP4 SWAP3 SWAP2 SWAP1 PUSH2 0x1EEC JUMP JUMPDEST PUSH1 0x40 MLOAD PUSH1 0x20 DUP2 DUP4 SUB SUB DUP2 MSTORE SWAP1 PUSH1 0x40 MSTORE SWAP2 POP DUP1 DUP1 PUSH2 0x6B3 SWAP1 PUSH2 0x1F77 JUMP JUMPDEST SWAP2 POP POP PUSH2 0x5FC JUMP JUMPDEST POP DUP1 SWAP2 POP POP SWAP1 JUMP JUMPDEST PUSH0 DUP1 PUSH2 0x6CD PUSH2 0xDDE JUMP JUMPDEST SWAP1 POP PUSH2 0x6DA DUP2 DUP6 DUP6 PUSH2 0xDE5 JUMP JUMPDEST PUSH1 0x1 SWAP2 POP POP SWAP3 SWAP2 POP POP JUMP JUMPDEST PUSH0 PUSH2 0x6EF CALLER PUSH2 0x89F JUMP JUMPDEST SWAP1 POP SWAP1 JUMP JUMPDEST PUSH0 PUSH1 0x2 SLOAD SWAP1 POP SWAP1 JUMP JUMPDEST PUSH0 DUP1 PUSH2 0x707 PUSH2 0xDDE JUMP JUMPDEST SWAP1 POP PUSH2 0x714 DUP6 DUP3 DUP6 PUSH2 0xFA8 JUMP JUMPDEST PUSH2 0x71F DUP6 DUP6 DUP6 PUSH2 0x1033 JUMP JUMPDEST PUSH1 0x1 SWAP2 POP POP SWAP4 SWAP3 POP POP POP JUMP JUMPDEST PUSH0 SWAP1 JUMP JUMPDEST PUSH0 DUP1 PUSH2 0x739 PUSH2 0xDDE JUMP JUMPDEST SWAP1 POP PUSH2 0x75A DUP2 DUP6 DUP6 PUSH2 0x74B DUP6 DUP10 PUSH2 0xB7D JUMP JUMPDEST PUSH2 0x755 SWAP2 SWAP1 PUSH2 0x1FBE JUMP JUMPDEST PUSH2 0xDE5 JUMP JUMPDEST PUSH1 0x1 SWAP2 POP POP SWAP3 SWAP2 POP POP JUMP JUMPDEST PUSH2 0x76D PUSH2 0x129F JUMP JUMPDEST PUSH2 0x775 PUSH2 0x131D JUMP JUMPDEST JUMP JUMPDEST PUSH2 0x77F PUSH2 0x129F JUMP JUMPDEST PUSH2 0x787 PUSH2 0x137F JUMP JUMPDEST PUSH2 0x791 DUP3 DUP3 PUSH2 0x13C9 JUMP JUMPDEST POP POP JUMP JUMPDEST PUSH2 0x7A6 PUSH2 0x7A0 PUSH2 0xDDE JUMP JUMPDEST DUP3 PUSH2 0x1517 JUMP JUMPDEST POP JUMP JUMPDEST PUSH1 0x7 DUP2 DUP2 SLOAD DUP2 LT PUSH2 0x7B8 JUMPI PUSH0 DUP1 REVERT JUMPDEST SWAP1 PUSH0 MSTORE PUSH1 0x20 PUSH0 KECCAK256 SWAP1 PUSH1 0x3 MUL ADD PUSH0 SWAP2 POP SWAP1 POP DUP1 PUSH0 ADD SLOAD SWAP1 DUP1 PUSH1 0x1 ADD DUP1 SLOAD PUSH2 0x7DD SWAP1 PUSH2 0x1CE5 JUMP JUMPDEST DUP1 PUSH1 0x1F ADD PUSH1 0x20 DUP1 SWAP2 DIV MUL PUSH1 0x20 ADD PUSH1 0x40 MLOAD SWAP1 DUP2 ADD PUSH1 0x40 MSTORE DUP1 SWAP3 SWAP2 SWAP1 DUP2 DUP2 MSTORE PUSH1 0x20 ADD DUP3 DUP1 SLOAD PUSH2 0x809 SWAP1 PUSH2 0x1CE5 JUMP JUMPDEST DUP1 ISZERO PUSH2 0x854 JUMPI DUP1 PUSH1 0x1F LT PUSH2 0x82B JUMPI PUSH2 0x100 DUP1 DUP4 SLOAD DIV MUL DUP4 MSTORE SWAP2 PUSH1 0x20 ADD SWAP2 PUSH2 0x854 JUMP JUMPDEST DUP3 ADD SWAP2 SWAP1 PUSH0 MSTORE PUSH1 0x20 PUSH0 KECCAK256 SWAP1 JUMPDEST DUP2 SLOAD DUP2 MSTORE SWAP1 PUSH1 0x1 ADD SWAP1 PUSH1 0x20 ADD DUP1 DUP4 GT PUSH2 0x837 JUMPI DUP3 SWAP1 SUB PUSH1 0x1F AND DUP3 ADD SWAP2 JUMPDEST POP POP POP POP POP SWAP1 DUP1 PUSH1 0x2 ADD SLOAD SWAP1 POP DUP4 JUMP JUMPDEST PUSH0 PUSH1 0x5 PUSH1 0x14 SWAP1 SLOAD SWAP1 PUSH2 0x100 EXP SWAP1 DIV PUSH1 0xFF AND SWAP1 POP SWAP1 JUMP JUMPDEST PUSH2 0x882 PUSH2 0x137F JUMP JUMPDEST PUSH2 0x88A PUSH2 0x16DA JUMP JUMPDEST PUSH2 0x894 CALLER DUP3 PUSH2 0x1517 JUMP JUMPDEST PUSH2 0x89C PUSH2 0x1729 JUMP JUMPDEST POP JUMP JUMPDEST PUSH0 DUP1 PUSH0 DUP4 PUSH20 0xFFFFFFFFFFFFFFFFFFFFFFFFFFFFFFFFFFFFFFFF AND PUSH20 0xFFFFFFFFFFFFFFFFFFFFFFFFFFFFFFFFFFFFFFFF AND DUP2 MSTORE PUSH1 0x20 ADD SWAP1 DUP2 MSTORE PUSH1 0x20 ADD PUSH0 KECCAK256 SLOAD SWAP1 POP SWAP2 SWAP1 POP JUMP JUMPDEST PUSH2 0x8EC PUSH2 0x129F JUMP JUMPDEST PUSH2 0x8F5 PUSH0 PUSH2 0x1733 JUMP JUMPDEST JUMP JUMPDEST PUSH2 0x909 DUP3 PUSH2 0x903 PUSH2 0xDDE JUMP JUMPDEST DUP4 PUSH2 0xFA8 JUMP JUMPDEST PUSH2 0x913 DUP3 DUP3 PUSH2 0x1517 JUMP JUMPDEST POP POP JUMP JUMPDEST PUSH2 0x91F PUSH2 0x129F JUMP JUMPDEST PUSH2 0x927 PUSH2 0x17F6 JUMP JUMPDEST JUMP JUMPDEST PUSH0 PUSH1 0x5 PUSH0 SWAP1 SLOAD SWAP1 PUSH2 0x100 EXP SWAP1 DIV PUSH20 0xFFFFFFFFFFFFFFFFFFFFFFFFFFFFFFFFFFFFFFFF AND SWAP1 POP SWAP1 JUMP JUMPDEST PUSH1 0x60 PUSH1 0x4 DUP1 SLOAD PUSH2 0x960 SWAP1 PUSH2 0x1CE5 JUMP JUMPDEST DUP1 PUSH1 0x1F ADD PUSH1 0x20 DUP1 SWAP2 DIV MUL PUSH1 0x20 ADD PUSH1 0x40 MLOAD SWAP1 DUP2 ADD PUSH1 0x40 MSTORE DUP1 SWAP3 SWAP2 SWAP1 DUP2 DUP2 MSTORE PUSH1 0x20 ADD DUP3 DUP1 SLOAD PUSH2 0x98C SWAP1 PUSH2 0x1CE5 JUMP JUMPDEST DUP1 ISZERO PUSH2 0x9D7 JUMPI DUP1 PUSH1 0x1F LT PUSH2 0x9AE JUMPI PUSH2 0x100 DUP1 DUP4 SLOAD DIV MUL DUP4 MSTORE SWAP2 PUSH1 0x20 ADD SWAP2 PUSH2 0x9D7 JUMP JUMPDEST DUP3 ADD SWAP2 SWAP1 PUSH0 MSTORE PUSH1 0x20 PUSH0 KECCAK256 SWAP1 JUMPDEST DUP2 SLOAD DUP2 MSTORE SWAP1 PUSH1 0x1 ADD SWAP1 PUSH1 0x20 ADD DUP1 DUP4 GT PUSH2 0x9BA JUMPI DUP3 SWAP1 SUB PUSH1 0x1F AND DUP3 ADD SWAP2 JUMPDEST POP POP POP POP POP SWAP1 POP SWAP1 JUMP JUMPDEST PUSH0 PUSH2 0x9EB DUP3 PUSH2 0x89F JUMP JUMPDEST SWAP1 POP SWAP2 SWAP1 POP JUMP JUMPDEST PUSH0 DUP1 PUSH2 0x9FC PUSH2 0xDDE JUMP JUMPDEST SWAP1 POP PUSH0 PUSH2 0xA09 DUP3 DUP7 PUSH2 0xB7D JUMP JUMPDEST SWAP1 POP DUP4 DUP2 LT ISZERO PUSH2 0xA4E JUMPI PUSH1 0x40 MLOAD PUSH32 0x8C379A000000000000000000000000000000000000000000000000000000000 DUP2 MSTORE PUSH1 0x4 ADD PUSH2 0xA45 SWAP1 PUSH2 0x2061 JUMP JUMPDEST PUSH1 0x40 MLOAD DUP1 SWAP2 SUB SWAP1 REVERT JUMPDEST PUSH2 0xA5B DUP3 DUP7 DUP7 DUP5 SUB PUSH2 0xDE5 JUMP JUMPDEST PUSH1 0x1 SWAP3 POP POP POP SWAP3 SWAP2 POP POP JUMP JUMPDEST PUSH2 0xA6F PUSH2 0x137F JUMP JUMPDEST PUSH2 0xA77 PUSH2 0x16DA JUMP JUMPDEST PUSH0 PUSH2 0xA81 DUP3 PUSH2 0x1859 JUMP JUMPDEST SWAP1 POP DUP1 PUSH2 0xA8D CALLER PUSH2 0x89F JUMP JUMPDEST LT ISZERO PUSH2 0xACE JUMPI PUSH1 0x40 MLOAD PUSH32 0x8C379A000000000000000000000000000000000000000000000000000000000 DUP2 MSTORE PUSH1 0x4 ADD PUSH2 0xAC5 SWAP1 PUSH2 0x20C9 JUMP JUMPDEST PUSH1 0x40 MLOAD DUP1 SWAP2 SUB SWAP1 REVERT JUMPDEST PUSH2 0xAD8 CALLER DUP3 PUSH2 0x1517 JUMP JUMPDEST CALLER PUSH20 0xFFFFFFFFFFFFFFFFFFFFFFFFFFFFFFFFFFFFFFFF AND PUSH32 0xE5AF1FA255773DC28638B90F9C5E6E6C617350ADDB7ABB7D2930D4D2DB5A0536 DUP4 DUP4 PUSH1 0x40 MLOAD PUSH2 0xB20 SWAP3 SWAP2 SWAP1 PUSH2 0x20E7 JUMP JUMPDEST PUSH1 0x40 MLOAD DUP1 SWAP2 SUB SWAP1 LOG2 POP PUSH2 0xB31 PUSH2 0x1729 JUMP JUMPDEST POP JUMP JUMPDEST PUSH0 DUP1 PUSH2 0xB3E PUSH2 0xDDE JUMP JUMPDEST SWAP1 POP PUSH2 0xB4B DUP2 DUP6 DUP6 PUSH2 0x1033 JUMP JUMPDEST PUSH1 0x1 SWAP2 POP POP SWAP3 SWAP2 POP POP JUMP JUMPDEST PUSH2 0xB5E PUSH2 0x137F JUMP JUMPDEST PUSH2 0xB66 PUSH2 0x16DA JUMP JUMPDEST PUSH2 0xB71 CALLER DUP4 DUP4 PUSH2 0x1033 JUMP JUMPDEST PUSH2 0xB79 PUSH2 0x1729 JUMP JUMPDEST POP POP JUMP JUMPDEST PUSH0 PUSH1 0x1 PUSH0 DUP5 PUSH20 0xFFFFFFFFFFFFFFFFFFFFFFFFFFFFFFFFFFFFFFFF AND PUSH20 0xFFFFFFFFFFFFFFFFFFFFFFFFFFFFFFFFFFFFFFFF AND DUP2 MSTORE PUSH1 0x20 ADD SWAP1 DUP2 MSTORE PUSH1 0x20 ADD PUSH0 KECCAK256 PUSH0 DUP4 PUSH20 0xFFFFFFFFFFFFFFFFFFFFFFFFFFFFFFFFFFFFFFFF AND PUSH20 0xFFFFFFFFFFFFFFFFFFFFFFFFFFFFFFFFFFFFFFFF AND DUP2 MSTORE PUSH1 0x20 ADD SWAP1 DUP2 MSTORE PUSH1 0x20 ADD PUSH0 KECCAK256 SLOAD SWAP1 POP SWAP3 SWAP2 POP POP JUMP JUMPDEST PUSH2 0xC07 PUSH2 0x129F JUMP JUMPDEST PUSH0 PUSH20 0xFFFFFFFFFFFFFFFFFFFFFFFFFFFFFFFFFFFFFFFF AND DUP2 PUSH20 0xFFFFFFFFFFFFFFFFFFFFFFFFFFFFFFFFFFFFFFFF AND SUB PUSH2 0xC75 JUMPI PUSH1 0x40 MLOAD PUSH32 0x8C379A000000000000000000000000000000000000000000000000000000000 DUP2 MSTORE PUSH1 0x4 ADD PUSH2 0xC6C SWAP1 PUSH2 0x217E JUMP JUMPDEST PUSH1 0x40 MLOAD DUP1 SWAP2 SUB SWAP1 REVERT JUMPDEST PUSH2 0xC7E DUP2 PUSH2 0x1733 JUMP JUMPDEST POP JUMP JUMPDEST PUSH1 0x60 PUSH0 DUP3 SUB PUSH2 0xCC7 JUMPI PUSH1 0x40 MLOAD DUP1 PUSH1 0x40 ADD PUSH1 0x40 MSTORE DUP1 PUSH1 0x1 DUP2 MSTORE PUSH1 0x20 ADD PUSH32 0x3000000000000000000000000000000000000000000000000000000000000000 DUP2 MSTORE POP SWAP1 POP PUSH2 0xDD9 JUMP JUMPDEST PUSH0 DUP3 SWAP1 POP PUSH0 JUMPDEST PUSH0 DUP3 EQ PUSH2 0xCF6 JUMPI DUP1 DUP1 PUSH2 0xCDF SWAP1 PUSH2 0x1F77 JUMP JUMPDEST SWAP2 POP POP PUSH1 0xA DUP3 PUSH2 0xCEF SWAP2 SWAP1 PUSH2 0x21C9 JUMP JUMPDEST SWAP2 POP PUSH2 0xCCD JUMP JUMPDEST PUSH0 DUP2 PUSH8 0xFFFFFFFFFFFFFFFF DUP2 GT ISZERO PUSH2 0xD11 JUMPI PUSH2 0xD10 PUSH2 0x21F9 JUMP JUMPDEST JUMPDEST PUSH1 0x40 MLOAD SWAP1 DUP1 DUP3 MSTORE DUP1 PUSH1 0x1F ADD PUSH1 0x1F NOT AND PUSH1 0x20 ADD DUP3 ADD PUSH1 0x40 MSTORE DUP1 ISZERO PUSH2 0xD43 JUMPI DUP2 PUSH1 0x20 ADD PUSH1 0x1 DUP3 MUL DUP1 CALLDATASIZE DUP4 CALLDATACOPY DUP1 DUP3 ADD SWAP2 POP POP SWAP1 POP JUMPDEST POP SWAP1 POP PUSH0 DUP3 SWAP1 POP JUMPDEST PUSH0 DUP7 EQ PUSH2 0xDD1 JUMPI DUP1 DUP1 PUSH2 0xD5D SWAP1 PUSH2 0x2226 JUMP JUMPDEST SWAP2 POP POP PUSH1 0xA DUP7 PUSH2 0xD6D SWAP2 SWAP1 PUSH2 0x224D JUMP JUMPDEST PUSH1 0x30 PUSH2 0xD79 SWAP2 SWAP1 PUSH2 0x1FBE JUMP JUMPDEST PUSH1 0xF8 SHL DUP3 DUP3 DUP2 MLOAD DUP2 LT PUSH2 0xD8F JUMPI PUSH2 0xD8E PUSH2 0x1D15 JUMP JUMPDEST JUMPDEST PUSH1 0x20 ADD ADD SWAP1 PUSH31 0xFFFFFFFFFFFFFFFFFFFFFFFFFFFFFFFFFFFFFFFFFFFFFFFFFFFFFFFFFFFFFF NOT AND SWAP1 DUP2 PUSH0 BYTE SWAP1 MSTORE8 POP PUSH1 0xA DUP7 PUSH2 0xDCA SWAP2 SWAP1 PUSH2 0x21C9 JUMP JUMPDEST SWAP6 POP PUSH2 0xD4B JUMP JUMPDEST DUP2 SWAP5 POP POP POP POP POP JUMPDEST SWAP2 SWAP1 POP JUMP JUMPDEST PUSH0 CALLER SWAP1 POP SWAP1 JUMP JUMPDEST PUSH0 PUSH20 0xFFFFFFFFFFFFFFFFFFFFFFFFFFFFFFFFFFFFFFFF AND DUP4 PUSH20 0xFFFFFFFFFFFFFFFFFFFFFFFFFFFFFFFFFFFFFFFF AND SUB PUSH2 0xE53 JUMPI PUSH1 0x40 MLOAD PUSH32 0x8C379A000000000000000000000000000000000000000000000000000000000 DUP2 MSTORE PUSH1 0x4 ADD PUSH2 0xE4A SWAP1 PUSH2 0x22ED JUMP JUMPDEST PUSH1 0x40 MLOAD DUP1 SWAP2 SUB SWAP1 REVERT JUMPDEST PUSH0 PUSH20 0xFFFFFFFFFFFFFFFFFFFFFFFFFFFFFFFFFFFFFFFF AND DUP3 PUSH20 0xFFFFFFFFFFFFFFFFFFFFFFFFFFFFFFFFFFFFFFFF AND SUB PUSH2 0xEC1 JUMPI PUSH1 0x40 MLOAD PUSH32 0x8C379A000000000000000000000000000000000000000000000000000000000 DUP2 MSTORE PUSH1 0x4 ADD PUSH2 0xEB8 SWAP1 PUSH2 0x237B JUMP JUMPDEST PUSH1 0x40 MLOAD DUP1 SWAP2 SUB SWAP1 REVERT JUMPDEST DUP1 PUSH1 0x1 PUSH0 DUP6 PUSH20 0xFFFFFFFFFFFFFFFFFFFFFFFFFFFFFFFFFFFFFFFF AND PUSH20 0xFFFFFFFFFFFFFFFFFFFFFFFFFFFFFFFFFFFFFFFF AND DUP2 MSTORE PUSH1 0x20 ADD SWAP1 DUP2 MSTORE PUSH1 0x20 ADD PUSH0 KECCAK256 PUSH0 DUP5 PUSH20 0xFFFFFFFFFFFFFFFFFFFFFFFFFFFFFFFFFFFFFFFF AND PUSH20 0xFFFFFFFFFFFFFFFFFFFFFFFFFFFFFFFFFFFFFFFF AND DUP2 MSTORE PUSH1 0x20 ADD SWAP1 DUP2 MSTORE PUSH1 0x20 ADD PUSH0 KECCAK256 DUP2 SWAP1 SSTORE POP DUP2 PUSH20 0xFFFFFFFFFFFFFFFFFFFFFFFFFFFFFFFFFFFFFFFF AND DUP4 PUSH20 0xFFFFFFFFFFFFFFFFFFFFFFFFFFFFFFFFFFFFFFFF AND PUSH32 0x8C5BE1E5EBEC7D5BD14F71427D1E84F3DD0314C0F7B2291E5B200AC8C7C3B925 DUP4 PUSH1 0x40 MLOAD PUSH2 0xF9B SWAP2 SWAP1 PUSH2 0x1B23 JUMP JUMPDEST PUSH1 0x40 MLOAD DUP1 SWAP2 SUB SWAP1 LOG3 POP POP POP JUMP JUMPDEST PUSH0 PUSH2 0xFB3 DUP5 DUP5 PUSH2 0xB7D JUMP JUMPDEST SWAP1 POP PUSH32 0xFFFFFFFFFFFFFFFFFFFFFFFFFFFFFFFFFFFFFFFFFFFFFFFFFFFFFFFFFFFFFFFF DUP2 EQ PUSH2 0x102D JUMPI DUP2 DUP2 LT ISZERO PUSH2 0x101F JUMPI PUSH1 0x40 MLOAD PUSH32 0x8C379A000000000000000000000000000000000000000000000000000000000 DUP2 MSTORE PUSH1 0x4 ADD PUSH2 0x1016 SWAP1 PUSH2 0x23E3 JUMP JUMPDEST PUSH1 0x40 MLOAD DUP1 SWAP2 SUB SWAP1 REVERT JUMPDEST PUSH2 0x102C DUP5 DUP5 DUP5 DUP5 SUB PUSH2 0xDE5 JUMP JUMPDEST JUMPDEST POP POP POP POP JUMP JUMPDEST PUSH0 PUSH20 0xFFFFFFFFFFFFFFFFFFFFFFFFFFFFFFFFFFFFFFFF AND DUP4 PUSH20 0xFFFFFFFFFFFFFFFFFFFFFFFFFFFFFFFFFFFFFFFF AND SUB PUSH2 0x10A1 JUMPI PUSH1 0x40 MLOAD PUSH32 0x8C379A000000000000000000000000000000000000000000000000000000000 DUP2 MSTORE PUSH1 0x4 ADD PUSH2 0x1098 SWAP1 PUSH2 0x2471 JUMP JUMPDEST PUSH1 0x40 MLOAD DUP1 SWAP2 SUB SWAP1 REVERT JUMPDEST PUSH0 PUSH20 0xFFFFFFFFFFFFFFFFFFFFFFFFFFFFFFFFFFFFFFFF AND DUP3 PUSH20 0xFFFFFFFFFFFFFFFFFFFFFFFFFFFFFFFFFFFFFFFF AND SUB PUSH2 0x110F JUMPI PUSH1 0x40 MLOAD PUSH32 0x8C379A000000000000000000000000000000000000000000000000000000000 DUP2 MSTORE PUSH1 0x4 ADD PUSH2 0x1106 SWAP1 PUSH2 0x24FF JUMP JUMPDEST PUSH1 0x40 MLOAD DUP1 SWAP2 SUB SWAP1 REVERT JUMPDEST PUSH2 0x111A DUP4 DUP4 DUP4 PUSH2 0x1915 JUMP JUMPDEST PUSH0 DUP1 PUSH0 DUP6 PUSH20 0xFFFFFFFFFFFFFFFFFFFFFFFFFFFFFFFFFFFFFFFF AND PUSH20 0xFFFFFFFFFFFFFFFFFFFFFFFFFFFFFFFFFFFFFFFF AND DUP2 MSTORE PUSH1 0x20 ADD SWAP1 DUP2 MSTORE PUSH1 0x20 ADD PUSH0 KECCAK256 SLOAD SWAP1 POP DUP2 DUP2 LT ISZERO PUSH2 0x119D JUMPI PUSH1 0x40 MLOAD PUSH32 0x8C379A000000000000000000000000000000000000000000000000000000000 DUP2 MSTORE PUSH1 0x4 ADD PUSH2 0x1194 SWAP1 PUSH2 0x258D JUMP JUMPDEST PUSH1 0x40 MLOAD DUP1 SWAP2 SUB SWAP1 REVERT JUMPDEST DUP2 DUP2 SUB PUSH0 DUP1 DUP7 PUSH20 0xFFFFFFFFFFFFFFFFFFFFFFFFFFFFFFFFFFFFFFFF AND PUSH20 0xFFFFFFFFFFFFFFFFFFFFFFFFFFFFFFFFFFFFFFFF AND DUP2 MSTORE PUSH1 0x20 ADD SWAP1 DUP2 MSTORE PUSH1 0x20 ADD PUSH0 KECCAK256 DUP2 SWAP1 SSTORE POP DUP2 PUSH0 DUP1 DUP6 PUSH20 0xFFFFFFFFFFFFFFFFFFFFFFFFFFFFFFFFFFFFFFFF AND PUSH20 0xFFFFFFFFFFFFFFFFFFFFFFFFFFFFFFFFFFFFFFFF AND DUP2 MSTORE PUSH1 0x20 ADD SWAP1 DUP2 MSTORE PUSH1 0x20 ADD PUSH0 KECCAK256 PUSH0 DUP3 DUP3 SLOAD ADD SWAP3 POP POP DUP2 SWAP1 SSTORE POP DUP3 PUSH20 0xFFFFFFFFFFFFFFFFFFFFFFFFFFFFFFFFFFFFFFFF AND DUP5 PUSH20 0xFFFFFFFFFFFFFFFFFFFFFFFFFFFFFFFFFFFFFFFF AND PUSH32 0xDDF252AD1BE2C89B69C2B068FC378DAA952BA7F163C4A11628F55A4DF523B3EF DUP5 PUSH1 0x40 MLOAD PUSH2 0x1286 SWAP2 SWAP1 PUSH2 0x1B23 JUMP JUMPDEST PUSH1 0x40 MLOAD DUP1 SWAP2 SUB SWAP1 LOG3 PUSH2 0x1299 DUP5 DUP5 DUP5 PUSH2 0x191A JUMP JUMPDEST POP POP POP POP JUMP JUMPDEST PUSH2 0x12A7 PUSH2 0xDDE JUMP JUMPDEST PUSH20 0xFFFFFFFFFFFFFFFFFFFFFFFFFFFFFFFFFFFFFFFF AND PUSH2 0x12C5 PUSH2 0x929 JUMP JUMPDEST PUSH20 0xFFFFFFFFFFFFFFFFFFFFFFFFFFFFFFFFFFFFFFFF AND EQ PUSH2 0x131B JUMPI PUSH1 0x40 MLOAD PUSH32 0x8C379A000000000000000000000000000000000000000000000000000000000 DUP2 MSTORE PUSH1 0x4 ADD PUSH2 0x1312 SWAP1 PUSH2 0x25F5 JUMP JUMPDEST PUSH1 0x40 MLOAD DUP1 SWAP2 SUB SWAP1 REVERT JUMPDEST JUMP JUMPDEST PUSH2 0x1325 PUSH2 0x191F JUMP JUMPDEST PUSH0 PUSH1 0x5 PUSH1 0x14 PUSH2 0x100 EXP DUP2 SLOAD DUP2 PUSH1 0xFF MUL NOT AND SWAP1 DUP4 ISZERO ISZERO MUL OR SWAP1 SSTORE POP PUSH32 0x5DB9EE0A495BF2E6FF9C91A7834C1BA4FDD244A5E8AA4E537BD38AEAE4B073AA PUSH2 0x1368 PUSH2 0xDDE JUMP JUMPDEST PUSH1 0x40 MLOAD PUSH2 0x1375 SWAP2 SWAP1 PUSH2 0x1C61 JUMP JUMPDEST PUSH1 0x40 MLOAD DUP1 SWAP2 SUB SWAP1 LOG1 JUMP JUMPDEST PUSH2 0x1387 PUSH2 0x864 JUMP JUMPDEST ISZERO PUSH2 0x13C7 JUMPI PUSH1 0x40 MLOAD PUSH32 0x8C379A000000000000000000000000000000000000000000000000000000000 DUP2 MSTORE PUSH1 0x4 ADD PUSH2 0x13BE SWAP1 PUSH2 0x265D JUMP JUMPDEST PUSH1 0x40 MLOAD DUP1 SWAP2 SUB SWAP1 REVERT JUMPDEST JUMP JUMPDEST PUSH0 PUSH20 0xFFFFFFFFFFFFFFFFFFFFFFFFFFFFFFFFFFFFFFFF AND DUP3 PUSH20 0xFFFFFFFFFFFFFFFFFFFFFFFFFFFFFFFFFFFFFFFF AND SUB PUSH2 0x1437 JUMPI PUSH1 0x40 MLOAD PUSH32 0x8C379A000000000000000000000000000000000000000000000000000000000 DUP2 MSTORE PUSH1 0x4 ADD PUSH2 0x142E SWAP1 PUSH2 0x26C5 JUMP JUMPDEST PUSH1 0x40 MLOAD DUP1 SWAP2 SUB SWAP1 REVERT JUMPDEST PUSH2 0x1442 PUSH0 DUP4 DUP4 PUSH2 0x1915 JUMP JUMPDEST DUP1 PUSH1 0x2 PUSH0 DUP3 DUP3 SLOAD PUSH2 0x1453 SWAP2 SWAP1 PUSH2 0x1FBE JUMP JUMPDEST SWAP3 POP POP DUP2 SWAP1 SSTORE POP DUP1 PUSH0 DUP1 DUP5 PUSH20 0xFFFFFFFFFFFFFFFFFFFFFFFFFFFFFFFFFFFFFFFF AND PUSH20 0xFFFFFFFFFFFFFFFFFFFFFFFFFFFFFFFFFFFFFFFF AND DUP2 MSTORE PUSH1 0x20 ADD SWAP1 DUP2 MSTORE PUSH1 0x20 ADD PUSH0 KECCAK256 PUSH0 DUP3 DUP3 SLOAD ADD SWAP3 POP POP DUP2 SWAP1 SSTORE POP DUP2 PUSH20 0xFFFFFFFFFFFFFFFFFFFFFFFFFFFFFFFFFFFFFFFF AND PUSH0 PUSH20 0xFFFFFFFFFFFFFFFFFFFFFFFFFFFFFFFFFFFFFFFF AND PUSH32 0xDDF252AD1BE2C89B69C2B068FC378DAA952BA7F163C4A11628F55A4DF523B3EF DUP4 PUSH1 0x40 MLOAD PUSH2 0x1500 SWAP2 SWAP1 PUSH2 0x1B23 JUMP JUMPDEST PUSH1 0x40 MLOAD DUP1 SWAP2 SUB SWAP1 LOG3 PUSH2 0x1513 PUSH0 DUP4 DUP4 PUSH2 0x191A JUMP JUMPDEST POP POP JUMP JUMPDEST PUSH0 PUSH20 0xFFFFFFFFFFFFFFFFFFFFFFFFFFFFFFFFFFFFFFFF AND DUP3 PUSH20 0xFFFFFFFFFFFFFFFFFFFFFFFFFFFFFFFFFFFFFFFF AND SUB PUSH2 0x1585 JUMPI PUSH1 0x40 MLOAD PUSH32 0x8C379A000000000000000000000000000000000000000000000000000000000 DUP2 MSTORE PUSH1 0x4 ADD PUSH2 0x157C SWAP1 PUSH2 0x2753 JUMP JUMPDEST PUSH1 0x40 MLOAD DUP1 SWAP2 SUB SWAP1 REVERT JUMPDEST PUSH2 0x1590 DUP3 PUSH0 DUP4 PUSH2 0x1915 JUMP JUMPDEST PUSH0 DUP1 PUSH0 DUP5 PUSH20 0xFFFFFFFFFFFFFFFFFFFFFFFFFFFFFFFFFFFFFFFF AND PUSH20 0xFFFFFFFFFFFFFFFFFFFFFFFFFFFFFFFFFFFFFFFF AND DUP2 MSTORE PUSH1 0x20 ADD SWAP1 DUP2 MSTORE PUSH1 0x20 ADD PUSH0 KECCAK256 SLOAD SWAP1 POP DUP2 DUP2 LT ISZERO PUSH2 0x1613 JUMPI PUSH1 0x40 MLOAD PUSH32 0x8C379A000000000000000000000000000000000000000000000000000000000 DUP2 MSTORE PUSH1 0x4 ADD PUSH2 0x160A SWAP1 PUSH2 0x27E1 JUMP JUMPDEST PUSH1 0x40 MLOAD DUP1 SWAP2 SUB SWAP1 REVERT JUMPDEST DUP2 DUP2 SUB PUSH0 DUP1 DUP6 PUSH20 0xFFFFFFFFFFFFFFFFFFFFFFFFFFFFFFFFFFFFFFFF AND PUSH20 0xFFFFFFFFFFFFFFFFFFFFFFFFFFFFFFFFFFFFFFFF AND DUP2 MSTORE PUSH1 0x20 ADD SWAP1 DUP2 MSTORE PUSH1 0x20 ADD PUSH0 KECCAK256 DUP2 SWAP1 SSTORE POP DUP2 PUSH1 0x2 PUSH0 DUP3 DUP3 SLOAD SUB SWAP3 POP POP DUP2 SWAP1 SSTORE POP PUSH0 PUSH20 0xFFFFFFFFFFFFFFFFFFFFFFFFFFFFFFFFFFFFFFFF AND DUP4 PUSH20 0xFFFFFFFFFFFFFFFFFFFFFFFFFFFFFFFFFFFFFFFF AND PUSH32 0xDDF252AD1BE2C89B69C2B068FC378DAA952BA7F163C4A11628F55A4DF523B3EF DUP5 PUSH1 0x40 MLOAD PUSH2 0x16C2 SWAP2 SWAP1 PUSH2 0x1B23 JUMP JUMPDEST PUSH1 0x40 MLOAD DUP1 SWAP2 SUB SWAP1 LOG3 PUSH2 0x16D5 DUP4 PUSH0 DUP5 PUSH2 0x191A JUMP JUMPDEST POP POP POP JUMP JUMPDEST PUSH1 0x2 PUSH1 0x6 SLOAD SUB PUSH2 0x171F JUMPI PUSH1 0x40 MLOAD PUSH32 0x8C379A000000000000000000000000000000000000000000000000000000000 DUP2 MSTORE PUSH1 0x4 ADD PUSH2 0x1716 SWAP1 PUSH2 0x2849 JUMP JUMPDEST PUSH1 0x40 MLOAD DUP1 SWAP2 SUB SWAP1 REVERT JUMPDEST PUSH1 0x2 PUSH1 0x6 DUP2 SWAP1 SSTORE POP JUMP JUMPDEST PUSH1 0x1 PUSH1 0x6 DUP2 SWAP1 SSTORE POP JUMP JUMPDEST PUSH0 PUSH1 0x5 PUSH0 SWAP1 SLOAD SWAP1 PUSH2 0x100 EXP SWAP1 DIV PUSH20 0xFFFFFFFFFFFFFFFFFFFFFFFFFFFFFFFFFFFFFFFF AND SWAP1 POP DUP2 PUSH1 0x5 PUSH0 PUSH2 0x100 EXP DUP2 SLOAD DUP2 PUSH20 0xFFFFFFFFFFFFFFFFFFFFFFFFFFFFFFFFFFFFFFFF MUL NOT AND SWAP1 DUP4 PUSH20 0xFFFFFFFFFFFFFFFFFFFFFFFFFFFFFFFFFFFFFFFF AND MUL OR SWAP1 SSTORE POP DUP2 PUSH20 0xFFFFFFFFFFFFFFFFFFFFFFFFFFFFFFFFFFFFFFFF AND DUP2 PUSH20 0xFFFFFFFFFFFFFFFFFFFFFFFFFFFFFFFFFFFFFFFF AND PUSH32 0x8BE0079C531659141344CD1FD0A4F28419497F9722A3DAAFE3B4186F6B6457E0 PUSH1 0x40 MLOAD PUSH1 0x40 MLOAD DUP1 SWAP2 SUB SWAP1 LOG3 POP POP JUMP JUMPDEST PUSH2 0x17FE PUSH2 0x137F JUMP JUMPDEST PUSH1 0x1 PUSH1 0x5 PUSH1 0x14 PUSH2 0x100 EXP DUP2 SLOAD DUP2 PUSH1 0xFF MUL NOT AND SWAP1 DUP4 ISZERO ISZERO MUL OR SWAP1 SSTORE POP PUSH32 0x62E78CEA01BEE320CD4E420270B5EA74000D11B0C9F74754EBDBFC544B05A258 PUSH2 0x1842 PUSH2 0xDDE JUMP JUMPDEST PUSH1 0x40 MLOAD PUSH2 0x184F SWAP2 SWAP1 PUSH2 0x1C61 JUMP JUMPDEST PUSH1 0x40 MLOAD DUP1 SWAP2 SUB SWAP1 LOG1 JUMP JUMPDEST PUSH0 DUP1 PUSH0 SWAP1 POP JUMPDEST PUSH1 0x7 DUP1 SLOAD SWAP1 POP DUP2 LT ISZERO PUSH2 0x18D4 JUMPI DUP3 PUSH1 0x7 DUP3 DUP2 SLOAD DUP2 LT PUSH2 0x1881 JUMPI PUSH2 0x1880 PUSH2 0x1D15 JUMP JUMPDEST JUMPDEST SWAP1 PUSH0 MSTORE PUSH1 0x20 PUSH0 KECCAK256 SWAP1 PUSH1 0x3 MUL ADD PUSH0 ADD SLOAD SUB PUSH2 0x18C1 JUMPI PUSH1 0x7 DUP2 DUP2 SLOAD DUP2 LT PUSH2 0x18A9 JUMPI PUSH2 0x18A8 PUSH2 0x1D15 JUMP JUMPDEST JUMPDEST SWAP1 PUSH0 MSTORE PUSH1 0x20 PUSH0 KECCAK256 SWAP1 PUSH1 0x3 MUL ADD PUSH1 0x2 ADD SLOAD SWAP2 POP POP PUSH2 0x1910 JUMP JUMPDEST DUP1 DUP1 PUSH2 0x18CC SWAP1 PUSH2 0x1F77 JUMP JUMPDEST SWAP2 POP POP PUSH2 0x185F JUMP JUMPDEST POP PUSH1 0x40 MLOAD PUSH32 0x8C379A000000000000000000000000000000000000000000000000000000000 DUP2 MSTORE PUSH1 0x4 ADD PUSH2 0x1907 SWAP1 PUSH2 0x28B1 JUMP JUMPDEST PUSH1 0x40 MLOAD DUP1 SWAP2 SUB SWAP1 REVERT JUMPDEST SWAP2 SWAP1 POP JUMP JUMPDEST POP POP POP JUMP JUMPDEST POP POP POP JUMP JUMPDEST PUSH2 0x1927 PUSH2 0x864 JUMP JUMPDEST PUSH2 0x1966 JUMPI PUSH1 0x40 MLOAD PUSH32 0x8C379A000000000000000000000000000000000000000000000000000000000 DUP2 MSTORE PUSH1 0x4 ADD PUSH2 0x195D SWAP1 PUSH2 0x2919 JUMP JUMPDEST PUSH1 0x40 MLOAD DUP1 SWAP2 SUB SWAP1 REVERT JUMPDEST JUMP JUMPDEST PUSH0 DUP2 MLOAD SWAP1 POP SWAP2 SWAP1 POP JUMP JUMPDEST PUSH0 DUP3 DUP3 MSTORE PUSH1 0x20 DUP3 ADD SWAP1 POP SWAP3 SWAP2 POP POP JUMP JUMPDEST PUSH0 JUMPDEST DUP4 DUP2 LT ISZERO PUSH2 0x199F JUMPI DUP1 DUP3 ADD MLOAD DUP2 DUP5 ADD MSTORE PUSH1 0x20 DUP2 ADD SWAP1 POP PUSH2 0x1984 JUMP JUMPDEST PUSH0 DUP5 DUP5 ADD MSTORE POP POP POP POP JUMP JUMPDEST PUSH0 PUSH1 0x1F NOT PUSH1 0x1F DUP4 ADD AND SWAP1 POP SWAP2 SWAP1 POP JUMP JUMPDEST PUSH0 PUSH2 0x19C4 DUP3 PUSH2 0x1968 JUMP JUMPDEST PUSH2 0x19CE DUP2 DUP6 PUSH2 0x1972 JUMP JUMPDEST SWAP4 POP PUSH2 0x19DE DUP2 DUP6 PUSH1 0x20 DUP7 ADD PUSH2 0x1982 JUMP JUMPDEST PUSH2 0x19E7 DUP2 PUSH2 0x19AA JUMP JUMPDEST DUP5 ADD SWAP2 POP POP SWAP3 SWAP2 POP POP JUMP JUMPDEST PUSH0 PUSH1 0x20 DUP3 ADD SWAP1 POP DUP2 DUP2 SUB PUSH0 DUP4 ADD MSTORE PUSH2 0x1A0A DUP2 DUP5 PUSH2 0x19BA JUMP JUMPDEST SWAP1 POP SWAP3 SWAP2 POP POP JUMP JUMPDEST PUSH0 DUP1 REVERT JUMPDEST PUSH0 PUSH20 0xFFFFFFFFFFFFFFFFFFFFFFFFFFFFFFFFFFFFFFFF DUP3 AND SWAP1 POP SWAP2 SWAP1 POP JUMP JUMPDEST PUSH0 PUSH2 0x1A3F DUP3 PUSH2 0x1A16 JUMP JUMPDEST SWAP1 POP SWAP2 SWAP1 POP JUMP JUMPDEST PUSH2 0x1A4F DUP2 PUSH2 0x1A35 JUMP JUMPDEST DUP2 EQ PUSH2 0x1A59 JUMPI PUSH0 DUP1 REVERT JUMPDEST POP JUMP JUMPDEST PUSH0 DUP2 CALLDATALOAD SWAP1 POP PUSH2 0x1A6A DUP2 PUSH2 0x1A46 JUMP JUMPDEST SWAP3 SWAP2 POP POP JUMP JUMPDEST PUSH0 DUP2 SWAP1 POP SWAP2 SWAP1 POP JUMP JUMPDEST PUSH2 0x1A82 DUP2 PUSH2 0x1A70 JUMP JUMPDEST DUP2 EQ PUSH2 0x1A8C JUMPI PUSH0 DUP1 REVERT JUMPDEST POP JUMP JUMPDEST PUSH0 DUP2 CALLDATALOAD SWAP1 POP PUSH2 0x1A9D DUP2 PUSH2 0x1A79 JUMP JUMPDEST SWAP3 SWAP2 POP POP JUMP JUMPDEST PUSH0 DUP1 PUSH1 0x40 DUP4 DUP6 SUB SLT ISZERO PUSH2 0x1AB9 JUMPI PUSH2 0x1AB8 PUSH2 0x1A12 JUMP JUMPDEST JUMPDEST PUSH0 PUSH2 0x1AC6 DUP6 DUP3 DUP7 ADD PUSH2 0x1A5C JUMP JUMPDEST SWAP3 POP POP PUSH1 0x20 PUSH2 0x1AD7 DUP6 DUP3 DUP7 ADD PUSH2 0x1A8F JUMP JUMPDEST SWAP2 POP POP SWAP3 POP SWAP3 SWAP1 POP JUMP JUMPDEST PUSH0 DUP2 ISZERO ISZERO SWAP1 POP SWAP2 SWAP1 POP JUMP JUMPDEST PUSH2 0x1AF5 DUP2 PUSH2 0x1AE1 JUMP JUMPDEST DUP3 MSTORE POP POP JUMP JUMPDEST PUSH0 PUSH1 0x20 DUP3 ADD SWAP1 POP PUSH2 0x1B0E PUSH0 DUP4 ADD DUP5 PUSH2 0x1AEC JUMP JUMPDEST SWAP3 SWAP2 POP POP JUMP JUMPDEST PUSH2 0x1B1D DUP2 PUSH2 0x1A70 JUMP JUMPDEST DUP3 MSTORE POP POP JUMP JUMPDEST PUSH0 PUSH1 0x20 DUP3 ADD SWAP1 POP PUSH2 0x1B36 PUSH0 DUP4 ADD DUP5 PUSH2 0x1B14 JUMP JUMPDEST SWAP3 SWAP2 POP POP JUMP JUMPDEST PUSH0 DUP1 PUSH0 PUSH1 0x60 DUP5 DUP7 SUB SLT ISZERO PUSH2 0x1B53 JUMPI PUSH2 0x1B52 PUSH2 0x1A12 JUMP JUMPDEST JUMPDEST PUSH0 PUSH2 0x1B60 DUP7 DUP3 DUP8 ADD PUSH2 0x1A5C JUMP JUMPDEST SWAP4 POP POP PUSH1 0x20 PUSH2 0x1B71 DUP7 DUP3 DUP8 ADD PUSH2 0x1A5C JUMP JUMPDEST SWAP3 POP POP PUSH1 0x40 PUSH2 0x1B82 DUP7 DUP3 DUP8 ADD PUSH2 0x1A8F JUMP JUMPDEST SWAP2 POP POP SWAP3 POP SWAP3 POP SWAP3 JUMP JUMPDEST PUSH0 PUSH1 0xFF DUP3 AND SWAP1 POP SWAP2 SWAP1 POP JUMP JUMPDEST PUSH2 0x1BA1 DUP2 PUSH2 0x1B8C JUMP JUMPDEST DUP3 MSTORE POP POP JUMP JUMPDEST PUSH0 PUSH1 0x20 DUP3 ADD SWAP1 POP PUSH2 0x1BBA PUSH0 DUP4 ADD DUP5 PUSH2 0x1B98 JUMP JUMPDEST SWAP3 SWAP2 POP POP JUMP JUMPDEST PUSH0 PUSH1 0x20 DUP3 DUP5 SUB SLT ISZERO PUSH2 0x1BD5 JUMPI PUSH2 0x1BD4 PUSH2 0x1A12 JUMP JUMPDEST JUMPDEST PUSH0 PUSH2 0x1BE2 DUP5 DUP3 DUP6 ADD PUSH2 0x1A8F JUMP JUMPDEST SWAP2 POP POP SWAP3 SWAP2 POP POP JUMP JUMPDEST PUSH0 PUSH1 0x60 DUP3 ADD SWAP1 POP PUSH2 0x1BFE PUSH0 DUP4 ADD DUP7 PUSH2 0x1B14 JUMP JUMPDEST DUP2 DUP2 SUB PUSH1 0x20 DUP4 ADD MSTORE PUSH2 0x1C10 DUP2 DUP6 PUSH2 0x19BA JUMP JUMPDEST SWAP1 POP PUSH2 0x1C1F PUSH1 0x40 DUP4 ADD DUP5 PUSH2 0x1B14 JUMP JUMPDEST SWAP5 SWAP4 POP POP POP POP JUMP JUMPDEST PUSH0 PUSH1 0x20 DUP3 DUP5 SUB SLT ISZERO PUSH2 0x1C3C JUMPI PUSH2 0x1C3B PUSH2 0x1A12 JUMP JUMPDEST JUMPDEST PUSH0 PUSH2 0x1C49 DUP5 DUP3 DUP6 ADD PUSH2 0x1A5C JUMP JUMPDEST SWAP2 POP POP SWAP3 SWAP2 POP POP JUMP JUMPDEST PUSH2 0x1C5B DUP2 PUSH2 0x1A35 JUMP JUMPDEST DUP3 MSTORE POP POP JUMP JUMPDEST PUSH0 PUSH1 0x20 DUP3 ADD SWAP1 POP PUSH2 0x1C74 PUSH0 DUP4 ADD DUP5 PUSH2 0x1C52 JUMP JUMPDEST SWAP3 SWAP2 POP POP JUMP JUMPDEST PUSH0 DUP1 PUSH1 0x40 DUP4 DUP6 SUB SLT ISZERO PUSH2 0x1C90 JUMPI PUSH2 0x1C8F PUSH2 0x1A12 JUMP JUMPDEST JUMPDEST PUSH0 PUSH2 0x1C9D DUP6 DUP3 DUP7 ADD PUSH2 0x1A5C JUMP JUMPDEST SWAP3 POP POP PUSH1 0x20 PUSH2 0x1CAE DUP6 DUP3 DUP7 ADD PUSH2 0x1A5C JUMP JUMPDEST SWAP2 POP POP SWAP3 POP SWAP3 SWAP1 POP JUMP JUMPDEST PUSH32 0x4E487B7100000000000000000000000000000000000000000000000000000000 PUSH0 MSTORE PUSH1 0x22 PUSH1 0x4 MSTORE PUSH1 0x24 PUSH0 REVERT JUMPDEST PUSH0 PUSH1 0x2 DUP3 DIV SWAP1 POP PUSH1 0x1 DUP3 AND DUP1 PUSH2 0x1CFC JUMPI PUSH1 0x7F DUP3 AND SWAP2 POP JUMPDEST PUSH1 0x20 DUP3 LT DUP2 SUB PUSH2 0x1D0F JUMPI PUSH2 0x1D0E PUSH2 0x1CB8 JUMP JUMPDEST JUMPDEST POP SWAP2 SWAP1 POP JUMP JUMPDEST PUSH32 0x4E487B7100000000000000000000000000000000000000000000000000000000 PUSH0 MSTORE PUSH1 0x32 PUSH1 0x4 MSTORE PUSH1 0x24 PUSH0 REVERT JUMPDEST PUSH0 DUP2 SWAP1 POP SWAP3 SWAP2 POP POP JUMP JUMPDEST PUSH0 PUSH2 0x1D56 DUP3 PUSH2 0x1968 JUMP JUMPDEST PUSH2 0x1D60 DUP2 DUP6 PUSH2 0x1D42 JUMP JUMPDEST SWAP4 POP PUSH2 0x1D70 DUP2 DUP6 PUSH1 0x20 DUP7 ADD PUSH2 0x1982 JUMP JUMPDEST DUP1 DUP5 ADD SWAP2 POP POP SWAP3 SWAP2 POP POP JUMP JUMPDEST PUSH32 0x2E20000000000000000000000000000000000000000000000000000000000000 PUSH0 DUP3 ADD MSTORE POP JUMP JUMPDEST PUSH0 PUSH2 0x1DB0 PUSH1 0x2 DUP4 PUSH2 0x1D42 JUMP JUMPDEST SWAP2 POP PUSH2 0x1DBB DUP3 PUSH2 0x1D7C JUMP JUMPDEST PUSH1 0x2 DUP3 ADD SWAP1 POP SWAP2 SWAP1 POP JUMP JUMPDEST PUSH0 DUP2 SWAP1 POP DUP2 PUSH0 MSTORE PUSH1 0x20 PUSH0 KECCAK256 SWAP1 POP SWAP2 SWAP1 POP JUMP JUMPDEST PUSH0 DUP2 SLOAD PUSH2 0x1DE4 DUP2 PUSH2 0x1CE5 JUMP JUMPDEST PUSH2 0x1DEE DUP2 DUP7 PUSH2 0x1D42 JUMP JUMPDEST SWAP5 POP PUSH1 0x1 DUP3 AND PUSH0 DUP2 EQ PUSH2 0x1E08 JUMPI PUSH1 0x1 DUP2 EQ PUSH2 0x1E1D JUMPI PUSH2 0x1E4F JUMP JUMPDEST PUSH1 0xFF NOT DUP4 AND DUP7 MSTORE DUP2 ISZERO ISZERO DUP3 MUL DUP7 ADD SWAP4 POP PUSH2 0x1E4F JUMP JUMPDEST PUSH2 0x1E26 DUP6 PUSH2 0x1DC6 JUMP JUMPDEST PUSH0 JUMPDEST DUP4 DUP2 LT ISZERO PUSH2 0x1E47 JUMPI DUP2 SLOAD DUP2 DUP10 ADD MSTORE PUSH1 0x1 DUP3 ADD SWAP2 POP PUSH1 0x20 DUP2 ADD SWAP1 POP PUSH2 0x1E28 JUMP JUMPDEST DUP4 DUP9 ADD SWAP6 POP POP POP JUMPDEST POP POP POP SWAP3 SWAP2 POP POP JUMP JUMPDEST PUSH32 0x3A20000000000000000000000000000000000000000000000000000000000000 PUSH0 DUP3 ADD MSTORE POP JUMP JUMPDEST PUSH0 PUSH2 0x1E8C PUSH1 0x2 DUP4 PUSH2 0x1D42 JUMP JUMPDEST SWAP2 POP PUSH2 0x1E97 DUP3 PUSH2 0x1E58 JUMP JUMPDEST PUSH1 0x2 DUP3 ADD SWAP1 POP SWAP2 SWAP1 POP JUMP JUMPDEST PUSH32 0x20546F6B656E730A000000000000000000000000000000000000000000000000 PUSH0 DUP3 ADD MSTORE POP JUMP JUMPDEST PUSH0 PUSH2 0x1ED6 PUSH1 0x8 DUP4 PUSH2 0x1D42 JUMP JUMPDEST SWAP2 POP PUSH2 0x1EE1 DUP3 PUSH2 0x1EA2 JUMP JUMPDEST PUSH1 0x8 DUP3 ADD SWAP1 POP SWAP2 SWAP1 POP JUMP JUMPDEST PUSH0 PUSH2 0x1EF7 DUP3 DUP8 PUSH2 0x1D4C JUMP JUMPDEST SWAP2 POP PUSH2 0x1F03 DUP3 DUP7 PUSH2 0x1D4C JUMP JUMPDEST SWAP2 POP PUSH2 0x1F0E DUP3 PUSH2 0x1DA4 JUMP JUMPDEST SWAP2 POP PUSH2 0x1F1A DUP3 DUP6 PUSH2 0x1DD8 JUMP JUMPDEST SWAP2 POP PUSH2 0x1F25 DUP3 PUSH2 0x1E80 JUMP JUMPDEST SWAP2 POP PUSH2 0x1F31 DUP3 DUP5 PUSH2 0x1D4C JUMP JUMPDEST SWAP2 POP PUSH2 0x1F3C DUP3 PUSH2 0x1ECA JUMP JUMPDEST SWAP2 POP DUP2 SWAP1 POP SWAP6 SWAP5 POP POP POP POP POP JUMP JUMPDEST PUSH32 0x4E487B7100000000000000000000000000000000000000000000000000000000 PUSH0 MSTORE PUSH1 0x11 PUSH1 0x4 MSTORE PUSH1 0x24 PUSH0 REVERT JUMPDEST PUSH0 PUSH2 0x1F81 DUP3 PUSH2 0x1A70 JUMP JUMPDEST SWAP2 POP PUSH32 0xFFFFFFFFFFFFFFFFFFFFFFFFFFFFFFFFFFFFFFFFFFFFFFFFFFFFFFFFFFFFFFFF DUP3 SUB PUSH2 0x1FB3 JUMPI PUSH2 0x1FB2 PUSH2 0x1F4A JUMP JUMPDEST JUMPDEST PUSH1 0x1 DUP3 ADD SWAP1 POP SWAP2 SWAP1 POP JUMP JUMPDEST PUSH0 PUSH2 0x1FC8 DUP3 PUSH2 0x1A70 JUMP JUMPDEST SWAP2 POP PUSH2 0x1FD3 DUP4 PUSH2 0x1A70 JUMP JUMPDEST SWAP3 POP DUP3 DUP3 ADD SWAP1 POP DUP1 DUP3 GT ISZERO PUSH2 0x1FEB JUMPI PUSH2 0x1FEA PUSH2 0x1F4A JUMP JUMPDEST JUMPDEST SWAP3 SWAP2 POP POP JUMP JUMPDEST PUSH32 0x45524332303A2064656372656173656420616C6C6F77616E63652062656C6F77 PUSH0 DUP3 ADD MSTORE PUSH32 0x207A65726F000000000000000000000000000000000000000000000000000000 PUSH1 0x20 DUP3 ADD MSTORE POP JUMP JUMPDEST PUSH0 PUSH2 0x204B PUSH1 0x25 DUP4 PUSH2 0x1972 JUMP JUMPDEST SWAP2 POP PUSH2 0x2056 DUP3 PUSH2 0x1FF1 JUMP JUMPDEST PUSH1 0x40 DUP3 ADD SWAP1 POP SWAP2 SWAP1 POP JUMP JUMPDEST PUSH0 PUSH1 0x20 DUP3 ADD SWAP1 POP DUP2 DUP2 SUB PUSH0 DUP4 ADD MSTORE PUSH2 0x2078 DUP2 PUSH2 0x203F JUMP JUMPDEST SWAP1 POP SWAP2 SWAP1 POP JUMP JUMPDEST PUSH32 0x496E73756666696369656E7420746F6B656E732E000000000000000000000000 PUSH0 DUP3 ADD MSTORE POP JUMP JUMPDEST PUSH0 PUSH2 0x20B3 PUSH1 0x14 DUP4 PUSH2 0x1972 JUMP JUMPDEST SWAP2 POP PUSH2 0x20BE DUP3 PUSH2 0x207F JUMP JUMPDEST PUSH1 0x20 DUP3 ADD SWAP1 POP SWAP2 SWAP1 POP JUMP JUMPDEST PUSH0 PUSH1 0x20 DUP3 ADD SWAP1 POP DUP2 DUP2 SUB PUSH0 DUP4 ADD MSTORE PUSH2 0x20E0 DUP2 PUSH2 0x20A7 JUMP JUMPDEST SWAP1 POP SWAP2 SWAP1 POP JUMP JUMPDEST PUSH0 PUSH1 0x40 DUP3 ADD SWAP1 POP PUSH2 0x20FA PUSH0 DUP4 ADD DUP6 PUSH2 0x1B14 JUMP JUMPDEST PUSH2 0x2107 PUSH1 0x20 DUP4 ADD DUP5 PUSH2 0x1B14 JUMP JUMPDEST SWAP4 SWAP3 POP POP POP JUMP JUMPDEST PUSH32 0x4F776E61626C653A206E6577206F776E657220697320746865207A65726F2061 PUSH0 DUP3 ADD MSTORE PUSH32 0x6464726573730000000000000000000000000000000000000000000000000000 PUSH1 0x20 DUP3 ADD MSTORE POP JUMP JUMPDEST PUSH0 PUSH2 0x2168 PUSH1 0x26 DUP4 PUSH2 0x1972 JUMP JUMPDEST SWAP2 POP PUSH2 0x2173 DUP3 PUSH2 0x210E JUMP JUMPDEST PUSH1 0x40 DUP3 ADD SWAP1 POP SWAP2 SWAP1 POP JUMP JUMPDEST PUSH0 PUSH1 0x20 DUP3 ADD SWAP1 POP DUP2 DUP2 SUB PUSH0 DUP4 ADD MSTORE PUSH2 0x2195 DUP2 PUSH2 0x215C JUMP JUMPDEST SWAP1 POP SWAP2 SWAP1 POP JUMP JUMPDEST PUSH32 0x4E487B7100000000000000000000000000000000000000000000000000000000 PUSH0 MSTORE PUSH1 0x12 PUSH1 0x4 MSTORE PUSH1 0x24 PUSH0 REVERT JUMPDEST PUSH0 PUSH2 0x21D3 DUP3 PUSH2 0x1A70 JUMP JUMPDEST SWAP2 POP PUSH2 0x21DE DUP4 PUSH2 0x1A70 JUMP JUMPDEST SWAP3 POP DUP3 PUSH2 0x21EE JUMPI PUSH2 0x21ED PUSH2 0x219C JUMP JUMPDEST JUMPDEST DUP3 DUP3 DIV SWAP1 POP SWAP3 SWAP2 POP POP JUMP JUMPDEST PUSH32 0x4E487B7100000000000000000000000000000000000000000000000000000000 PUSH0 MSTORE PUSH1 0x41 PUSH1 0x4 MSTORE PUSH1 0x24 PUSH0 REVERT JUMPDEST PUSH0 PUSH2 0x2230 DUP3 PUSH2 0x1A70 JUMP JUMPDEST SWAP2 POP PUSH0 DUP3 SUB PUSH2 0x2242 JUMPI PUSH2 0x2241 PUSH2 0x1F4A JUMP JUMPDEST JUMPDEST PUSH1 0x1 DUP3 SUB SWAP1 POP SWAP2 SWAP1 POP JUMP JUMPDEST PUSH0 PUSH2 0x2257 DUP3 PUSH2 0x1A70 JUMP JUMPDEST SWAP2 POP PUSH2 0x2262 DUP4 PUSH2 0x1A70 JUMP JUMPDEST SWAP3 POP DUP3 PUSH2 0x2272 JUMPI PUSH2 0x2271 PUSH2 0x219C JUMP JUMPDEST JUMPDEST DUP3 DUP3 MOD SWAP1 POP SWAP3 SWAP2 POP POP JUMP JUMPDEST PUSH32 0x45524332303A20617070726F76652066726F6D20746865207A65726F20616464 PUSH0 DUP3 ADD MSTORE PUSH32 0x7265737300000000000000000000000000000000000000000000000000000000 PUSH1 0x20 DUP3 ADD MSTORE POP JUMP JUMPDEST PUSH0 PUSH2 0x22D7 PUSH1 0x24 DUP4 PUSH2 0x1972 JUMP JUMPDEST SWAP2 POP PUSH2 0x22E2 DUP3 PUSH2 0x227D JUMP JUMPDEST PUSH1 0x40 DUP3 ADD SWAP1 POP SWAP2 SWAP1 POP JUMP JUMPDEST PUSH0 PUSH1 0x20 DUP3 ADD SWAP1 POP DUP2 DUP2 SUB PUSH0 DUP4 ADD MSTORE PUSH2 0x2304 DUP2 PUSH2 0x22CB JUMP JUMPDEST SWAP1 POP SWAP2 SWAP1 POP JUMP JUMPDEST PUSH32 0x45524332303A20617070726F766520746F20746865207A65726F206164647265 PUSH0 DUP3 ADD MSTORE PUSH32 0x7373000000000000000000000000000000000000000000000000000000000000 PUSH1 0x20 DUP3 ADD MSTORE POP JUMP JUMPDEST PUSH0 PUSH2 0x2365 PUSH1 0x22 DUP4 PUSH2 0x1972 JUMP JUMPDEST SWAP2 POP PUSH2 0x2370 DUP3 PUSH2 0x230B JUMP JUMPDEST PUSH1 0x40 DUP3 ADD SWAP1 POP SWAP2 SWAP1 POP JUMP JUMPDEST PUSH0 PUSH1 0x20 DUP3 ADD SWAP1 POP DUP2 DUP2 SUB PUSH0 DUP4 ADD MSTORE PUSH2 0x2392 DUP2 PUSH2 0x2359 JUMP JUMPDEST SWAP1 POP SWAP2 SWAP1 POP JUMP JUMPDEST PUSH32 0x45524332303A20696E73756666696369656E7420616C6C6F77616E6365000000 PUSH0 DUP3 ADD MSTORE POP JUMP JUMPDEST PUSH0 PUSH2 0x23CD PUSH1 0x1D DUP4 PUSH2 0x1972 JUMP JUMPDEST SWAP2 POP PUSH2 0x23D8 DUP3 PUSH2 0x2399 JUMP JUMPDEST PUSH1 0x20 DUP3 ADD SWAP1 POP SWAP2 SWAP1 POP JUMP JUMPDEST PUSH0 PUSH1 0x20 DUP3 ADD SWAP1 POP DUP2 DUP2 SUB PUSH0 DUP4 ADD MSTORE PUSH2 0x23FA DUP2 PUSH2 0x23C1 JUMP JUMPDEST SWAP1 POP SWAP2 SWAP1 POP JUMP JUMPDEST PUSH32 0x45524332303A207472616E736665722066726F6D20746865207A65726F206164 PUSH0 DUP3 ADD MSTORE PUSH32 0x6472657373000000000000000000000000000000000000000000000000000000 PUSH1 0x20 DUP3 ADD MSTORE POP JUMP JUMPDEST PUSH0 PUSH2 0x245B PUSH1 0x25 DUP4 PUSH2 0x1972 JUMP JUMPDEST SWAP2 POP PUSH2 0x2466 DUP3 PUSH2 0x2401 JUMP JUMPDEST PUSH1 0x40 DUP3 ADD SWAP1 POP SWAP2 SWAP1 POP JUMP JUMPDEST PUSH0 PUSH1 0x20 DUP3 ADD SWAP1 POP DUP2 DUP2 SUB PUSH0 DUP4 ADD MSTORE PUSH2 0x2488 DUP2 PUSH2 0x244F JUMP JUMPDEST SWAP1 POP SWAP2 SWAP1 POP JUMP JUMPDEST PUSH32 0x45524332303A207472616E7366657220746F20746865207A65726F2061646472 PUSH0 DUP3 ADD MSTORE PUSH32 0x6573730000000000000000000000000000000000000000000000000000000000 PUSH1 0x20 DUP3 ADD MSTORE POP JUMP JUMPDEST PUSH0 PUSH2 0x24E9 PUSH1 0x23 DUP4 PUSH2 0x1972 JUMP JUMPDEST SWAP2 POP PUSH2 0x24F4 DUP3 PUSH2 0x248F JUMP JUMPDEST PUSH1 0x40 DUP3 ADD SWAP1 POP SWAP2 SWAP1 POP JUMP JUMPDEST PUSH0 PUSH1 0x20 DUP3 ADD SWAP1 POP DUP2 DUP2 SUB PUSH0 DUP4 ADD MSTORE PUSH2 0x2516 DUP2 PUSH2 0x24DD JUMP JUMPDEST SWAP1 POP SWAP2 SWAP1 POP JUMP JUMPDEST PUSH32 0x45524332303A207472616E7366657220616D6F756E7420657863656564732062 PUSH0 DUP3 ADD MSTORE PUSH32 0x616C616E63650000000000000000000000000000000000000000000000000000 PUSH1 0x20 DUP3 ADD MSTORE POP JUMP JUMPDEST PUSH0 PUSH2 0x2577 PUSH1 0x26 DUP4 PUSH2 0x1972 JUMP JUMPDEST SWAP2 POP PUSH2 0x2582 DUP3 PUSH2 0x251D JUMP JUMPDEST PUSH1 0x40 DUP3 ADD SWAP1 POP SWAP2 SWAP1 POP JUMP JUMPDEST PUSH0 PUSH1 0x20 DUP3 ADD SWAP1 POP DUP2 DUP2 SUB PUSH0 DUP4 ADD MSTORE PUSH2 0x25A4 DUP2 PUSH2 0x256B JUMP JUMPDEST SWAP1 POP SWAP2 SWAP1 POP JUMP JUMPDEST PUSH32 0x4F776E61626C653A2063616C6C6572206973206E6F7420746865206F776E6572 PUSH0 DUP3 ADD MSTORE POP JUMP JUMPDEST PUSH0 PUSH2 0x25DF PUSH1 0x20 DUP4 PUSH2 0x1972 JUMP JUMPDEST SWAP2 POP PUSH2 0x25EA DUP3 PUSH2 0x25AB JUMP JUMPDEST PUSH1 0x20 DUP3 ADD SWAP1 POP SWAP2 SWAP1 POP JUMP JUMPDEST PUSH0 PUSH1 0x20 DUP3 ADD SWAP1 POP DUP2 DUP2 SUB PUSH0 DUP4 ADD MSTORE PUSH2 0x260C DUP2 PUSH2 0x25D3 JUMP JUMPDEST SWAP1 POP SWAP2 SWAP1 POP JUMP JUMPDEST PUSH32 0x5061757361626C653A2070617573656400000000000000000000000000000000 PUSH0 DUP3 ADD MSTORE POP JUMP JUMPDEST PUSH0 PUSH2 0x2647 PUSH1 0x10 DUP4 PUSH2 0x1972 JUMP JUMPDEST SWAP2 POP PUSH2 0x2652 DUP3 PUSH2 0x2613 JUMP JUMPDEST PUSH1 0x20 DUP3 ADD SWAP1 POP SWAP2 SWAP1 POP JUMP JUMPDEST PUSH0 PUSH1 0x20 DUP3 ADD SWAP1 POP DUP2 DUP2 SUB PUSH0 DUP4 ADD MSTORE PUSH2 0x2674 DUP2 PUSH2 0x263B JUMP JUMPDEST SWAP1 POP SWAP2 SWAP1 POP JUMP JUMPDEST PUSH32 0x45524332303A206D696E7420746F20746865207A65726F206164647265737300 PUSH0 DUP3 ADD MSTORE POP JUMP JUMPDEST PUSH0 PUSH2 0x26AF PUSH1 0x1F DUP4 PUSH2 0x1972 JUMP JUMPDEST SWAP2 POP PUSH2 0x26BA DUP3 PUSH2 0x267B JUMP JUMPDEST PUSH1 0x20 DUP3 ADD SWAP1 POP SWAP2 SWAP1 POP JUMP JUMPDEST PUSH0 PUSH1 0x20 DUP3 ADD SWAP1 POP DUP2 DUP2 SUB PUSH0 DUP4 ADD MSTORE PUSH2 0x26DC DUP2 PUSH2 0x26A3 JUMP JUMPDEST SWAP1 POP SWAP2 SWAP1 POP JUMP JUMPDEST PUSH32 0x45524332303A206275726E2066726F6D20746865207A65726F20616464726573 PUSH0 DUP3 ADD MSTORE PUSH32 0x7300000000000000000000000000000000000000000000000000000000000000 PUSH1 0x20 DUP3 ADD MSTORE POP JUMP JUMPDEST PUSH0 PUSH2 0x273D PUSH1 0x21 DUP4 PUSH2 0x1972 JUMP JUMPDEST SWAP2 POP PUSH2 0x2748 DUP3 PUSH2 0x26E3 JUMP JUMPDEST PUSH1 0x40 DUP3 ADD SWAP1 POP SWAP2 SWAP1 POP JUMP JUMPDEST PUSH0 PUSH1 0x20 DUP3 ADD SWAP1 POP DUP2 DUP2 SUB PUSH0 DUP4 ADD MSTORE PUSH2 0x276A DUP2 PUSH2 0x2731 JUMP JUMPDEST SWAP1 POP SWAP2 SWAP1 POP JUMP JUMPDEST PUSH32 0x45524332303A206275726E20616D6F756E7420657863656564732062616C616E PUSH0 DUP3 ADD MSTORE PUSH32 0x6365000000000000000000000000000000000000000000000000000000000000 PUSH1 0x20 DUP3 ADD MSTORE POP JUMP JUMPDEST PUSH0 PUSH2 0x27CB PUSH1 0x22 DUP4 PUSH2 0x1972 JUMP JUMPDEST SWAP2 POP PUSH2 0x27D6 DUP3 PUSH2 0x2771 JUMP JUMPDEST PUSH1 0x40 DUP3 ADD SWAP1 POP SWAP2 SWAP1 POP JUMP JUMPDEST PUSH0 PUSH1 0x20 DUP3 ADD SWAP1 POP DUP2 DUP2 SUB PUSH0 DUP4 ADD MSTORE PUSH2 0x27F8 DUP2 PUSH2 0x27BF JUMP JUMPDEST SWAP1 POP SWAP2 SWAP1 POP JUMP JUMPDEST PUSH32 0x5265656E7472616E637947756172643A207265656E7472616E742063616C6C00 PUSH0 DUP3 ADD MSTORE POP JUMP JUMPDEST PUSH0 PUSH2 0x2833 PUSH1 0x1F DUP4 PUSH2 0x1972 JUMP JUMPDEST SWAP2 POP PUSH2 0x283E DUP3 PUSH2 0x27FF JUMP JUMPDEST PUSH1 0x20 DUP3 ADD SWAP1 POP SWAP2 SWAP1 POP JUMP JUMPDEST PUSH0 PUSH1 0x20 DUP3 ADD SWAP1 POP DUP2 DUP2 SUB PUSH0 DUP4 ADD MSTORE PUSH2 0x2860 DUP2 PUSH2 0x2827 JUMP JUMPDEST SWAP1 POP SWAP2 SWAP1 POP JUMP JUMPDEST PUSH32 0x496E76616C6964206974656D2049442E00000000000000000000000000000000 PUSH0 DUP3 ADD MSTORE POP JUMP JUMPDEST PUSH0 PUSH2 0x289B PUSH1 0x10 DUP4 PUSH2 0x1972 JUMP JUMPDEST SWAP2 POP PUSH2 0x28A6 DUP3 PUSH2 0x2867 JUMP JUMPDEST PUSH1 0x20 DUP3 ADD SWAP1 POP SWAP2 SWAP1 POP JUMP JUMPDEST PUSH0 PUSH1 0x20 DUP3 ADD SWAP1 POP DUP2 DUP2 SUB PUSH0 DUP4 ADD MSTORE PUSH2 0x28C8 DUP2 PUSH2 0x288F JUMP JUMPDEST SWAP1 POP SWAP2 SWAP1 POP JUMP JUMPDEST PUSH32 0x5061757361626C653A206E6F7420706175736564000000000000000000000000 PUSH0 DUP3 ADD MSTORE POP JUMP JUMPDEST PUSH0 PUSH2 0x2903 PUSH1 0x14 DUP4 PUSH2 0x1972 JUMP JUMPDEST SWAP2 POP PUSH2 0x290E DUP3 PUSH2 0x28CF JUMP JUMPDEST PUSH1 0x20 DUP3 ADD SWAP1 POP SWAP2 SWAP1 POP JUMP JUMPDEST PUSH0 PUSH1 0x20 DUP3 ADD SWAP1 POP DUP2 DUP2 SUB PUSH0 DUP4 ADD MSTORE PUSH2 0x2930 DUP2 PUSH2 0x28F7 JUMP JUMPDEST SWAP1 POP SWAP2 SWAP1 POP JUMP INVALID LOG2 PUSH5 0x6970667358 0x22 SLT KECCAK256 0xCE RETURNDATASIZE 0xB9 PUSH16 0xF025E16D5A094D0FABDF591DAEB08ECA 0xE6 BASEFEE 0xE1 SLT DIV 0xA8 0x2B 0xB4 0x5E RETURNDATASIZE 0x4F EXTCODEHASH PUSH5 0x736F6C6343 STOP ADDMOD EQ STOP CALLER "
				},
				"gasEstimates": {
					"creation": {
						"codeDepositCost": "2121000",
						"executionCost": "infinite",
						"totalCost": "infinite"
					},
					"external": {
						"allowance(address,address)": "infinite",
						"approve(address,uint256)": "infinite",
						"balanceOf(address)": "2897",
						"burn(uint256)": "infinite",
						"burnFrom(address,uint256)": "infinite",
						"burnTokens(uint256)": "infinite",
						"decimals()": "376",
						"decreaseAllowance(address,uint256)": "infinite",
						"getBalance()": "2651",
						"getBalanceOf(address)": "2916",
						"increaseAllowance(address,uint256)": "infinite",
						"mint(address,uint256)": "infinite",
						"name()": "infinite",
						"owner()": "2604",
						"pause()": "infinite",
						"paused()": "2635",
						"redeemTokens(uint256)": "infinite",
						"renounceOwnership()": "30480",
						"showStoreItems()": "infinite",
						"storeItems(uint256)": "infinite",
						"symbol()": "infinite",
						"totalSupply()": "2544",
						"transfer(address,uint256)": "infinite",
						"transferFrom(address,address,uint256)": "infinite",
						"transferOwnership(address)": "30841",
						"transferTokens(address,uint256)": "infinite",
						"unpause()": "infinite"
					},
					"internal": {
						"_getItemCost(uint256)": "infinite",
						"_initializeStoreItems()": "infinite",
						"_uintToStr(uint256)": "infinite"
					}
				},
				"methodIdentifiers": {
					"allowance(address,address)": "dd62ed3e",
					"approve(address,uint256)": "095ea7b3",
					"balanceOf(address)": "70a08231",
					"burn(uint256)": "42966c68",
					"burnFrom(address,uint256)": "79cc6790",
					"burnTokens(uint256)": "6d1b229d",
					"decimals()": "313ce567",
					"decreaseAllowance(address,uint256)": "a457c2d7",
					"getBalance()": "12065fe0",
					"getBalanceOf(address)": "9b96eece",
					"increaseAllowance(address,uint256)": "39509351",
					"mint(address,uint256)": "40c10f19",
					"name()": "06fdde03",
					"owner()": "8da5cb5b",
					"pause()": "8456cb59",
					"paused()": "5c975abb",
					"redeemTokens(uint256)": "a6e158f8",
					"renounceOwnership()": "715018a6",
					"showStoreItems()": "0934074f",
					"storeItems(uint256)": "43f2cdb2",
					"symbol()": "95d89b41",
					"totalSupply()": "18160ddd",
					"transfer(address,uint256)": "a9059cbb",
					"transferFrom(address,address,uint256)": "23b872dd",
					"transferOwnership(address)": "f2fde38b",
					"transferTokens(address,uint256)": "bec3fa17",
					"unpause()": "3f4ba83a"
				}
			},
			"storageLayout": {
				"storage": [
					{
						"astId": 290,
						"contract": "contracts/DegenToken.sol:DegenToken",
						"label": "_balances",
						"offset": 0,
						"slot": "0",
						"type": "t_mapping(t_address,t_uint256)"
					},
					{
						"astId": 296,
						"contract": "contracts/DegenToken.sol:DegenToken",
						"label": "_allowances",
						"offset": 0,
						"slot": "1",
						"type": "t_mapping(t_address,t_mapping(t_address,t_uint256))"
					},
					{
						"astId": 298,
						"contract": "contracts/DegenToken.sol:DegenToken",
						"label": "_totalSupply",
						"offset": 0,
						"slot": "2",
						"type": "t_uint256"
					},
					{
						"astId": 300,
						"contract": "contracts/DegenToken.sol:DegenToken",
						"label": "_name",
						"offset": 0,
						"slot": "3",
						"type": "t_string_storage"
					},
					{
						"astId": 302,
						"contract": "contracts/DegenToken.sol:DegenToken",
						"label": "_symbol",
						"offset": 0,
						"slot": "4",
						"type": "t_string_storage"
					},
					{
						"astId": 7,
						"contract": "contracts/DegenToken.sol:DegenToken",
						"label": "_owner",
						"offset": 0,
						"slot": "5",
						"type": "t_address"
					},
					{
						"astId": 130,
						"contract": "contracts/DegenToken.sol:DegenToken",
						"label": "_paused",
						"offset": 20,
						"slot": "5",
						"type": "t_bool"
					},
					{
						"astId": 231,
						"contract": "contracts/DegenToken.sol:DegenToken",
						"label": "_status",
						"offset": 0,
						"slot": "6",
						"type": "t_uint256"
					},
					{
						"astId": 1066,
						"contract": "contracts/DegenToken.sol:DegenToken",
						"label": "storeItems",
						"offset": 0,
						"slot": "7",
						"type": "t_array(t_struct(StoreItem)1062_storage)dyn_storage"
					}
				],
				"types": {
					"t_address": {
						"encoding": "inplace",
						"label": "address",
						"numberOfBytes": "20"
					},
					"t_array(t_struct(StoreItem)1062_storage)dyn_storage": {
						"base": "t_struct(StoreItem)1062_storage",
						"encoding": "dynamic_array",
						"label": "struct DegenToken.StoreItem[]",
						"numberOfBytes": "32"
					},
					"t_bool": {
						"encoding": "inplace",
						"label": "bool",
						"numberOfBytes": "1"
					},
					"t_mapping(t_address,t_mapping(t_address,t_uint256))": {
						"encoding": "mapping",
						"key": "t_address",
						"label": "mapping(address => mapping(address => uint256))",
						"numberOfBytes": "32",
						"value": "t_mapping(t_address,t_uint256)"
					},
					"t_mapping(t_address,t_uint256)": {
						"encoding": "mapping",
						"key": "t_address",
						"label": "mapping(address => uint256)",
						"numberOfBytes": "32",
						"value": "t_uint256"
					},
					"t_string_storage": {
						"encoding": "bytes",
						"label": "string",
						"numberOfBytes": "32"
					},
					"t_struct(StoreItem)1062_storage": {
						"encoding": "inplace",
						"label": "struct DegenToken.StoreItem",
						"members": [
							{
								"astId": 1057,
								"contract": "contracts/DegenToken.sol:DegenToken",
								"label": "itemId",
								"offset": 0,
								"slot": "0",
								"type": "t_uint256"
							},
							{
								"astId": 1059,
								"contract": "contracts/DegenToken.sol:DegenToken",
								"label": "itemName",
								"offset": 0,
								"slot": "1",
								"type": "t_string_storage"
							},
							{
								"astId": 1061,
								"contract": "contracts/DegenToken.sol:DegenToken",
								"label": "cost",
								"offset": 0,
								"slot": "2",
								"type": "t_uint256"
							}
						],
						"numberOfBytes": "96"
					},
					"t_uint256": {
						"encoding": "inplace",
						"label": "uint256",
						"numberOfBytes": "32"
					}
				}
			},
			"userdoc": {
				"kind": "user",
				"methods": {},
				"version": 1
			}
		}
	}
}